:020000040800F2
:10000000D01C00108502000803510008D34A0008E4
:10001000015100081D1B00082D65000800000000AC
:10002000000000000000000000000000A501000822
:10003000BF1B00080000000001020008195C000856
:100040009F0200089F0200089F0200089F0200080C
:100050009F0200089F0200089F0200089F020008FC
:100060009F0200089F0200089F0200089F020008EC
:100070009F0200089F020008791B0008851B0008EA
:100080009F0200089F0200089F0200089F020008CC
:100090009F0200089F0200089F0200089F020008BC
:1000A0009F020008DD5C00089F0200089F02000814
:1000B0009F02000800000000000000009F020008EE
:1000C0009F0200089F0200089F0200089F0200088C
:1000D0009F02000881640008956400089F020008E0
:1000E000F11F000831580008000000000000000067
:1000F0000000000000000000000000000000000000
:10010000000000009F020008000000009F0200089D
:1001100000000000000000009F0200089F0200088D
:100120009F0200089F0200089F0200089F0200082B
:100130009F02000800000000000000000000000016
:100140009F0200089F0200089F02000800000000B4
:100150009F0200089F0200089F0200089F020008FB
:100160009F0200089F0200089F0200080000000094
:100170009F0200089F02000800000000000000002D
:100180009F0200089F0200089F020008DFF810D0BD
:1001900000F028FD0048004789710008AFF3008097
:1001A000D01C00102C4B1968086800F05AB880F376
:1001B0000988BFF36F8F4FF0000080F311887047FC
:1001C0000000000008480068006880F308884FF0CD
:1001D000000080F3148862B661B6BFF34F8FBFF39F
:1001E0006F8F00DF00BF00BF08ED00E0DFF80C00FC
:1001F000016841F470010160704700BF88ED00E0C4
:10020000EFF30980BFF36F8F134B1A681EF0100FC6
:1002100008BF20ED108A20E9F04F106009B44FF0BC
:10022000500080F31188BFF34F8FBFF36F8F07F03B
:1002300057FF4FF0000080F3118809BC1968086867
:1002400000F014B81EF0100F08BF00F014B880F3CF
:100250000988BFF36F8F7047E8000010EFF3058047
:10026000704730C8B0E8C04FFFF7A1BF30C8B0E852
:10027000C04FFFF7E7BFB0EC088AB0EC08CAFFF741
:10028000E6BF00000648804706480047FEE7FEE755
:10029000FEE7FEE7FEE7FEE7FEE7FEE7FEE7FEE736
:1002A000CD5C00088D0100082DE9F05F05460020B7
:1002B00092469B4688460646814640241BE02846D7
:1002C00041464746224600F0CDFA53465A46C01AE8
:1002D000914110D311461846224600F0B4FA2D1A67
:1002E00067EB01084F4622460120002100F0ABFADF
:1002F00017EB00094E41201EA4F10104DFDC484643
:1003000031462A46434600F000B830BCBDE8C09FE5
:1003100040EA01039B0703D009E008C9121F08C087
:10032000042AFAD203E011F8013B00F8013B521E07
:10033000F9D27047D2B201E000F8012B491EFBD27E
:1003400070470022F6E710B513460A4604461946E0
:10035000FFF7F0FF204610BDCAB2401E10F8011F83
:100360008A4202D00029F9D100207047421C10F8BF
:10037000011B0029FBD1801A704730B505460020CB
:10038000034600E05B1C934205D2EC5CC85C201A7B
:1003900001D1002CF6D130BD0FB400B58DB010A93D
:1003A00009900B9000914FF0FF300A9000200C90C4
:1003B00005480690054807906A4609A80F9900F07D
:1003C00095FA0DB05DF814FB09090008270900082B
:1003D0002DE9FF5F1D464FF0FF3BD5E901469146F1
:1003E0005F464FF00008A9697F1C01988847296A79
:1003F000824688470028F6D1BAF1FF3F0CD024F49A
:10040000C064002E19DD600614D5BAF12B0F09D097
:10041000BAF12D0F0ED103E0584604B000F07EB8BB
:1004200044F48064A9697F1C01988847761E82463F
:10043000002E02DDBAF1300F03D0B9F1000F26D043
:1004400032E0A969761E44F400747F1C0198884745
:100450008246002E05DDBAF1780F06D0BAF1580FAA
:1004600003D0B9F1000F10D01EE0B9F1000F02D097
:10047000B9F1100F18D1A969761E24F400747F1CFD
:10048000019888478246102002E0082000E00A20F8
:10049000814609E008FB0908A969761E44F4007446
:1004A0007F1C019888478246002E05DD494650464C
:1004B00000F007FA0028EDDAE96901988847A005FD
:1004C00002D46FF00100A8E7E00725D1600613D53C
:1004D000600502D5C8F1000000E0404629680A1D09
:1004E0002A600968220501D5087015E0220701D5A8
:1004F000088011E008600FE02868011D296000688D
:10050000210502D580F8008006E0210702D5A0F879
:10051000008001E0C0F8008038467EE730BCBDE8CE
:10052000C09F2DE9F04791460F46804604460026BD
:1005300014F8015B2DB100F0B7F90068405DC00709
:10054000F6D12B2D02D02D2D18D0641E4A463946E7
:10055000204600F0F9F927B13968A14201D1C7F866
:10056000008071054FF002040BD54042002803DDE6
:1005700006F086F90460A007BDE8F08746F48066BF
:10058000E4E70028F8DA06F07BF904606FF0004039
:10059000F2E770B5064606F073F9046805460A22CC
:1005A00000213046FFF7BDFF2C6070BD2DE9FE4FE6
:1005B000804681EA0300C00F0C46009021F0004104
:1005C00023F00045B8EB0200A94105D24046214680
:1005D00090461C460B46024623F00040104347D08D
:1005E000270DC7F30A00C3F30A510290401A019085
:1005F00040286BDAC3F3130040F4801B0098924646
:1006000020B10023D2EB030A63EB0B0B0198594690
:10061000C0F14002504600F016F906460D4650461D
:100620005946019A00F02EF910EB080061410024B0
:1006300087EA115284EAE7731A4340D0009A62B302
:10064000019A012A4FEA075215DC001B61EB0201F7
:100650004FF0004202EA0752CDE90042001C41F58A
:10066000801132462B4600F0D0F903B000F045B8B7
:1006700040462146F9E7001B61EB0201001C41F5F1
:10068000801300185B412018A2F5001747EB030107
:1006900040EAD570B6196D4111E06D084FEA360693
:1006A00045EAC0754FEA0752001B61EB0201001CCE
:1006B00041F5801149084FEA300000195141324696
:1006C0002B4603B000F01CB800F090B9009801224E
:1006D00040000023D0EB020263EBE0730098214658
:1006E0004FEAE074B8EB000061EB0401E9E783F046
:1006F00000435BE781F0004158E730BCBDE8C08FA4
:1007000030BCBDE8C04FFFF7DFBF2DE9FE4F81EAE7
:10071000030404F0004421F0004100944FF0000B6A
:1007200023F0004350EA01045ED052EA03045BD098
:10073000C3F30A54C1F30A552C44A4F2F3340194D0
:10074000A0FB0254C1F3130141F48011C3F313035E
:1007500043F4801301FB024400FB034E840A970A12
:1007600044EA815447EA8357A4FB076802958D0A3F
:1007700005FB07854FEA932C04FB0C542705029DCB
:100780004FEA065847EA1637B5EB08056EEB070C3B
:10079000870E920E47EA811742EA8312A7FB0201F5
:1007A000B6EB0B0164EB00042B0D43EA0C335E182F
:1007B00044EB1C50DA465146E7FB0201C5F3130433
:1007C0004FEA0B3343EA14534FEA0432019C43EAE5
:1007D0000603A4F10C040294009CCDE900B400F0DF
:1007E00014F903B000F003B800200146F9E730BC6B
:1007F000BDE8C08F00F0004230F000400AD0C10DCB
:1008000001F56071C0F3160042EA0151C2084007C9
:100810001143704700200146704730B50B46014632
:1008200000202022012409E021FA02F59D4205D38F
:1008300003FA02F5491B04FA02F52844151EA2F139
:100840000102F1DC30BD202A04DB203A00FA02F17B
:10085000002070479140C2F1200320FA03F31943AE
:1008600090407047202A04DB203A21FA02F0002150
:10087000704721FA02F3D040C2F1200291400843B0
:1008800019467047202A06DBCB17203A41FA02F0BE
:1008900043EAE07306E041FA02F3D040C2F12002DD
:1008A000914008431946704700487047C0B9000896
:1008B00010B50446FFF7F8FF0068005D00F0010086
:1008C00010BD3A2800D2303820F02002412A01D34E
:1008D000A2F13700884201D34FF0FF30704700008B
:1008E000026811441378016018467047D1600449CA
:1008F00051610449116200211161114600F084B96F
:10090000E1080008B1080008426842B1016811F826
:10091000013B23B1521EC0E9001218467047012165
:10092000C160881E704742685AB1C368016843B904
:1009300083688B4205D0491E521CC0E9001200207A
:1009400070474FF0FF3070472DE9F05F8246007826
:10095000002715468B460AF10104B946302801D01C
:100960009DB113E014F8010B0127782803D0582813
:1009700001D045B10AE00DB1102D07D10027102597
:1009800014F8010B02E0082500E00A250026B04615
:100990000EE005FB080005FB06F1012701EB104600
:1009A0001FFA80F8B6F5803F00D3B94614F8010B62
:1009B0002946FFF786FF0028EBDABBF1000F05D0D0
:1009C0000FB1641E00E05446CBF80040B9F1000FAF
:1009D00006D005F055FF02210160C81E00F003B8E3
:1009E00048EA0640FAE730BCBDE8C09F10B5141EC7
:1009F00073F1000408DA401C41F1000192185B41D8
:100A00001A4301D120F0010010BD2DE9F04D9246AE
:100A10009B4611B1B1FA81F202E0B0FA80F22032C5
:100A20009046FFF710FF04460F4640EA0A0041EAED
:100A30000B0153465A46084313D0114653EA0100AE
:100A400019D0C8F140025046FFF70CFF05460E468C
:100A5000504659464246FFF7F6FE084305D00120AE
:100A600004E020463946BDE8F08D0020054346EA03
:100A7000E0762C4337430A986305E40AA0EB0800AC
:100A80000022FD0A44EA47540A3002D500200146FC
:100A9000E9E7010510196941DDE9084500196941D7
:100AA000BDE8F04DA2E72DE9F04D81EA030404F022
:100AB000004B21F0004514464FF0000A23F000419E
:100AC00050EA050220D054EA01021DD0C5F30A57AE
:100AD0000246C5F31303C1F31300C1F30A5640F4F1
:100AE000801543F48013A7EB0608101BD64608F2C6
:100AF000FD3873EB050002D308F1010801E09218FC
:100B00005B41B8F1000F03DA00200146BDE8F08D2B
:100B100000204FF48011064684460EE0171B73EB4D
:100B2000050705D3121B63EB050306434CEA010CD2
:100B300049084FEA300092185B4150EA0107EDD1B5
:100B400052EA030012D082EA040083EA0501084356
:100B500005D0101BAB4106D20122002306E0002283
:100B60004FF0004302E06FF0010253101AEB060051
:100B70004CEB085110EB0A0041EB0B01BDE8F04DC6
:100B8000FFF734BFC1F30A52C1F3130140F2FF3340
:100B900041F480119A4202DA00200146704740F287
:100BA00033439A42A2F2334202DC5242FFF75ABE6A
:100BB000FFF749BE30B5041E71F1000404DB4FF0AD
:100BC0000044404264EB0101141E73F1000405DB94
:100BD0001C464FF00043524263EB0403994208BFA6
:100BE000904230BD064C074D06E0E06840F001033E
:100BF00094E8070098471034AC42F6D3FFF7CAFADE
:100C000034BD000864BD00082DE9F34F8BB04FF0F0
:100C1000000801F10C000C464FF0010B46460DF1A7
:100C2000080A01906269012101989047051E2DD0A4
:100C3000252D2CD0216A8847C0B162690121019815
:100C40009047216A88470028F7D1411E62690198C0
:100C5000904700E0761CA1690B988847216A884775
:100C60000028F7D1E1690B988847DBE7A1690B9869
:100C700088470746A84201D1761CD3E7E1690B9863
:100C800088477F1C02D1B8F1000F6FD047E10027E1
:100C900062693D463946019890472A2804D1626925
:100CA0000121019890470125DFF8889262690121AE
:100CB00001989047A0F130010A290AD24F45E5DC9E
:100CC00007EB870100EB4107303FDFD445F010050B
:100CD000ECE7E90601D46FF000476C280AD04C28F5
:100CE00014D0682815D06A280DD074281CD07A2812
:100CF0001AD01DE062690121019890476C2802D04A
:100D000045F0040514E045F002050DE045F020052E
:100D10000AE06269012101989047682802D045F0F5
:100D2000080505E045F400656269012101989047D6
:100D3000C4E9015765283DD019DC58287AD00CDC6D
:100D4000452837D004DC252826D0412831D131E090
:100D500046282FD047282CD12CE05B2877D061285B
:100D600028D063287CD0642823D15AE0D1E06F28B2
:100D700048D008DC66281DD067281BD0692821D000
:100D80006E2816D127E0702845D0732868D07528C2
:100D900047D078280DD14DE0A1690B9888470546CA
:100DA00025283FF469AFE1690B9888476D1C3FF433
:100DB0006AAFB4E023466A466FF001000B99AFF3C7
:100DC00000809FE045F040006060A80723464FF098
:100DD000000236D43EE0E8077FF447AF2068011DEB
:100DE00021600068290501D506701BE7290701D598
:100DF000068017E7A90703D5F117C0E9006111E7DD
:100E000006600FE745F040006060A80723464FF0FA
:100E1000080216D41EE040F60E0125EA01006060CB
:100E200016E045F040006060A80723464FF00A0234
:100E300007D40FE045F040006060A80708D52346BE
:100E400010226FF001000B99AFF300805AE007E029
:100E5000234610226FF001000B99FFF7B9FA51E019
:100E60004FF000094F464B46632802D05B2807D05D
:100E700041E02079C00601D40120A06001273AE0BA
:100E800062690121019890475E2805D14FF0010960
:100E90006269494601989047216939B900210A469B
:100EA000534643F82120491C0829FADBB0B32169D5
:100EB00069B9C11700EBD16253110AEB830122F02B
:100EC0001F02821A01200B68904003430B60626985
:100ED0000121019890475D28E8D1B9F1000F09D0B0
:100EE0000020514651F82020D24341F82020401CD8
:100EF0000828F7DB02AB224600976FF001000B9940
:100F0000AFF3008000280CDA401C08D1BBF1000FC1
:100F100005D04FF0FF300DB000F00EB8FFE74046AF
:100F2000F9E7E90701D108F1010806444FF0000B89
:100F300078E60000CCCCCC0C30BCBDE8C08F70B5DE
:100F40008C1810F8015B15F0070301D110F8013B74
:100F50002A1106D110F8012B03E010F8016B01F8FB
:100F6000016B5B1EF9D12B0705D40023521E0DD453
:100F700001F8013BFAE710F8013BCB1A921C03E0A1
:100F800013F8015B01F8015B521EF9D5A142D8D3D9
:100F9000002070BD2DE9F041044600270D46006891
:100FA00003F070FE0646206803F068FE30435DD013
:100FB0002068C1682E4E890105D5617E012902D1C4
:100FC000217E01290BD0022D1DD0206803F05AFE8E
:100FD000B8B120688168C1F3400169B111E0012511
:100FE000244902E08F4232D27F1C0268D24352066B
:100FF000F8D440210160E8E78168314041F01001F8
:101000008160012D11D0206803F038FE48B12068BE
:101010008168C1F3400121B98168314041F020016C
:101020008160022D08D0032D04D0042501F056FE66
:10103000064617E00C25F9E70825F7E701F04EFE14
:10104000801B05280ED92068806828420AD0606D70
:1010500040F010006065A06D40F00100A065012027
:10106000BDE8F081206880682842E7D10020F7E7DA
:10107000C0FFFF7F000040A370B504460068816890
:101080008268C1F3400112F0010F28D039BB81689A
:1010900001F00D01012914D18168124A1140891C07
:1010A000816021680320086001F018FE054612E007
:1010B00001F014FE401B02280DD920688068C0078B
:1010C00009D0606D40F010006065A06D40F0010037
:1010D000A065012070BD20688068C007E8D10020AD
:1010E00070BD0000C0FFFF7FF8B5044600200090EF
:1010F0002068816811F0010F41D18168214A1142B5
:101100002ED18168D5432940491C81601E488068E2
:1011100000F0E07000020DD51C481D490068B0FBCE
:10112000F1F0401C00EB4000800000E0401E009009
:101130000028FBD101F0D2FD06461BE0816811F0CA
:10114000010F03D181682940491C816001F0C6FD6F
:10115000801B02280ED920680068C043C00709D050
:10116000606D40F010006065A06D40F00100A0656A
:101170000120F8BD20680168C943C907DED10020FD
:10118000F8BD00003F000080000304503C00001048
:10119000400D03002DED048B0122254F1603002482
:1011A0003146384601F094FD9FED228ADFED228A18
:1011B000B0EE009A4FF47A78204801F0E5FA322137
:1011C0001E4801F089FA1D4801F05FF9800503D53A
:1011D0001A4801F05CF985B200EE105AB8EE400AE8
:1011E00020EE080A20EE280A20EE090A10EE100A66
:1011F000FFF700FB41EC100B11A053EC102B05F096
:101200001FFB404606F028FE641CA4B2052C02D049
:101210000A2C02D007E0002201E00024012231461E
:10122000384601F055FD054801F0F2FAC4E7000028
:1012300000040048CDCC1C4000008039B8030010E9
:10124000204144312076616C7565203D2025312E8A
:10125000336656200D0A000010B586B0142168468A
:10126000FFF76FF8112001900120029002200390F7
:101270004020234C00906946204601F039FC802034
:1012800000906946204601F033FC012240212046AF
:1012900001F01EFD01228021204601F019FD03F01E
:1012A00065FC702003F0A2FC30B3BA2003F09EFC72
:1012B00010B303F07FFC142006F0CEFD142006F0DE
:1012C000CBFD03F053FC702003F090FCA0B1BE20D6
:1012D00003F08CFC80B1082003F088FC60B1002092
:1012E00003F084FC40B103F065FC0A2006F0B4FD75
:1012F00000F07EF806B010BD03F05CFC0020F9E7BA
:10130000000400487CB5054600200090019003F0E1
:101310002DFC702003F06AFCF0B3AC2003F066FCF7
:10132000D0B3332003F062FCB0B3002003F05EFCC6
:1013300090B303F03FFC00F05BF800284AD003F0C4
:1013400015FC712003F052FC30B300246E4601E01E
:10135000052C01D2012100E00021301903F0BAFB75
:10136000D0B1641CE4B2062CF2D303F023FC9DF848
:1013700001009DF80210000340EA01109DF80310DF
:101380009DF8042040EA11100907090B41EA0221E7
:101390009DF80520114300E01DE000EE100ADFED8E
:1013A000100A9FED101AB8EE400A012020EE200A24
:1013B00020EE010A9FED0C1A85ED000A00EE101ACE
:1013C000B8EE400A60EE200A9FED080A10EE810A8E
:1013D00085ED010A7CBD03F0EDFB00207CBD000023
:1013E000000080350000C842000048430000484229
:1013F00038B54FF47A7400BF03F0B8FB712003F0E6
:10140000F5FB60B10021684603F064FB38B103F0DE
:10141000D1FB9DF80000000605D4012038BD03F083
:10142000C9FB002038BD022006F016FD2046641ED0
:10143000E2D238BD1CB5FFF7ACF8144C012803D03C
:10144000002812D012A01CE01AA005F0F9F92068BB
:1014500008B121A015E00220CDE90004002380227C
:1014600026A1294807F048F91CBD28A005F0E8F995
:10147000206828B106F016FD0020206023A000E0BF
:1014800029A0BDE81C4005F0DBB9000000000010F9
:10149000496E76616C696420617267756D656E7402
:1014A00020666F722041542B4144435F56616C7536
:1014B000650A00004144432056616C756520546103
:1014C000736B20616C72656164792072756E6E69F0
:1014D0006E672E0D0A0000004144432056616C7572
:1014E00065205461736B20616C7265616479207250
:1014F000756E6E696E672E0A000000004144435FFE
:1015000056616C7565000000951100084144432048
:1015100056616C7565205461736B2073746F7070C5
:1015200065642E0A000000004144432056616C753A
:1015300065205461736B206973206E6F742072751F
:101540006E6E696E672E0A002DE9F04106463D2158
:10155000FEF702FF90B1002100F8011B0F4F054676
:101560000C4600BF04EB4400402257F820103046E0
:10157000FEF703FF40B1641C082CF3D33146BDE8ED
:10158000F04107A005F05CB904EB440007EB8000D4
:1015900041682846BDE8F0410847000058000010A7
:1015A000556E6B6E6F776E20636F6D6D616E643A12
:1015B0002025730A41542B48454C503D31200A00E8
:1015C0007CB5FEF7E6FF154D154C012803D0002829
:1015D00013D014A015E01CA005F032F9A07808B1D2
:1015E00022A00EE00220CDE90005C201002327A1C0
:1015F000294807F081F801200EE0A078012804D0E6
:1016000026A0BDE87C4005F01BB9286806F04AFC1E
:101610002AA005F015F90020A0707CBD0400001080
:1016200044000010496E76616C69642061726775D0
:101630006D656E7420666F722041542B4550445F77
:10164000746573740A0000004550445F74657374D8
:10165000205461736B20616C7265616479207275CE
:101660006E6E696E672E0D0A000000004550445FE3
:1016700074657374205461736B20616C726561646E
:10168000792072756E6E696E672E0A004550445F50
:101690007465737400000000AD1E00084550445F7F
:1016A00074657374205461736B206973206E6F745A
:1016B0002072756E6E696E672E0A00004550445F99
:1016C00074657374205461736B2073746F707065EC
:1016D000642E0A007CB5FEF75CFF174D174C0128FD
:1016E00003D0002813D016A018E01EA005F0A8F81B
:1016F000607808B124A011E00220CDE900050023A4
:10170000802229A12B4806F0F7FF012011E02AA032
:1017100005F096F86078012804D02DA0BDE87C4043
:1017200005F08EB8286806F0BDFB23A005F088F808
:10173000002060707CBD0000080000104400001014
:10174000496E76616C696420617267756D656E744F
:1017500020666F722041542B4558505F7465737436
:101760000A0000004558502074657374205461735A
:101770006B20616C72656164792072756E6E696E42
:10178000672E0D0A000000004558502074657374E0
:10179000205461736B20616C72656164792072758D
:1017A0006E6E696E672E0A004558505F74657374DB
:1017B00000000000951F00084558502074657374A0
:1017C000205461736B2073746F707065642E0A000F
:1017D0004558502074657374205461736B2069738D
:1017E000206E6F742072756E6E696E672E0A00002F
:1017F00070B50DA005F024F8114D002404EB44064B
:1018000010A055F8261005F01BF805EB86060EA073
:10181000B16805F015F811A0B16805F011F8641C65
:10182000082CEBD370BD0000417661696C61626C7D
:101830006520415420636F6D6D616E64733A0A00D8
:101840005800001025730A00446573637269707450
:10185000696F6E3A2025730A000000004578616DBB
:10186000706C652075736167653A2025730A0A00FC
:1018700070B5194CC0B04FF48076184D206915E052
:1018800032466846E16804F0A3FE3146684604F03B
:10189000A5FD2868C169C9434906FBD4E06800F585
:1018A0008070E0602069A0F580702061B042E7D8C8
:1018B00068B182B26846E16804F08AFE6846216930
:1018C00004F08CFD2868C169C9434906FBD4002097
:1018D0002061E06040B070BD4400001008070010B7
:1018E00010B58CB00DF1040C0BAC0AAB09AA08A919
:1018F0008CE81E0007A9009106AB05AA0DA1FEF712
:101900004BFD072801D0124804E00B98411E07291F
:1019100004D3104804F094FF0CB010BDDDE90912A7
:101920000091CDE9012005AC94E80F0003F0F0FF31
:10193000F2E700002534642D2532642D2532642021
:101940002532643A2532643A253264202564000049
:101950001CBA0008D0B9000870B505462C21FEF766
:10196000FBFC040015D00020207001461022284600
:10197000FEF7D7FD094DE860601CFEF70AFE2861FE
:10198000024607A0E96804F05BFFBDE87040FFF77E
:101990006FBFBDE870400AA004F052BF44000010C1
:1019A00052656164416464723A20307825582C2075
:1019B0004461746553697A653A2025640A00000021
:1019C000496E76616C696420617267756D656E74CD
:1019D00020666F722041542B536574577269746589
:1019E0000A00000070B505462C21FEF7B5FC040086
:1019F00017D000202070014610222846FEF791FDE6
:101A00000A4D6860601CFEF7C4FDA860024608A08D
:101A1000696804F015FFD5E9010104F088FD0CA008
:101A200000E00EA0BDE8704004F00ABF44000010C2
:101A30005772697465416464723A20307825582C75
:101A4000204461746553697A653A2025640A000070
:101A50004572617365204F4B0D0A0000496E766137
:101A60006C696420617267756D656E7420666F7253
:101A70002041542B53657457726974650A00000045
:101A800002490120087002A004F0DABE44000010F0
:101A9000466C61736857726974654461746554611A
:101AA000736B2052756E0D0A0000000010B504F033
:101AB000C9F803F079F903F045F9124800F0C2FDC6
:101AC00003F004F9104802F0A1F903F049FA0F48B5
:101AD00002F09CF903F06CFA0D4802F017FE0D4875
:101AE00002F014FE0C4802F011FE03F089FA03F034
:101AF000CBFA03F0E7FAFFF7AFFBBDE8104004F0C4
:101B000049BD0000B803001040040010A4040010F8
:101B1000080700108C07001010080010FEE70000F6
:101B200010B5094C00220221204601F0D1F8002214
:101B30000421204601F0CCF801221146204601F094
:101B4000C7F8002010BD00000004004801B582B0B5
:101B500000208DF80400401E0090012301AA02A974
:101B6000044802F0A5F908B1FF200EBD9DF804005D
:101B70000EBD000040040010014800F0B6BE000099
:101B8000DC080010014800F0B0BE0000940800100E
:101B900030B590F8444004F01C050124AC40056CBD
:101BA0006C60046863608368102B036803D09960DD
:101BB0000068C26030BD9A600068C16030BD704787
:101BC0002DE9F041174801884A074FEAD10400D0B7
:101BD000641C4688242000F0EFF800270AE0002566
:101BE00004E0FF2000F002F96D1CADB2A542F8D36D
:101BF0007F1CBFB2B742F2D3262000F0DDF80027E9
:101C00000AE0002504E0FF2000F0F0F86D1CADB202
:101C1000A542F8D37F1CBFB2B742F2D3BDE8F04172
:101C200000F035B9E40000102DE9F04780461D486A
:101C300001884A074FEAD10400D0641C468824205A
:101C400000F0BAF800250FE0002705FB04F907E0D3
:101C500008EB070119F8010000F0C8F87F1CBFB2BB
:101C6000A742F5D36D1CADB2B542EDD3262000F0EE
:101C7000A3F8002510E0002705FB04F908E000BFE9
:101C800008EB070119F8010000F0B0F87F1CBFB2A3
:101C9000A742F5D36D1CADB2B542ECD3BDE8F04719
:101CA00000F0F5B8E400001010B500F067F800F09F
:101CB00033F8122000F080F800F02EF8FF2000F03A
:101CC0007BF8212000F078F8402000F08FF8002009
:101CD00000F08CF83C2000F06FF8052000F086F84A
:101CE000112000F069F8032000F080F809484188CD
:101CF0000088491E8BB2401E82B20021084600F0C7
:101D0000A4F80021084600F08BF8BDE8104000F070
:101D100003B80000E400001010B50AA004F090FD24
:101D20004FF0904402E00A2006F096F84021204649
:101D300000F0C9FF0128F6D0BDE8104007A004F06C
:101D40007FBD000044656275673A20652D50617063
:101D5000657220627573790D0A0000004465627532
:101D6000673A20652D506170657220627573792025
:101D700072656C656173650D0A00000010B50D4C4D
:101D800001221146204600F0A3FF642006F064F80B
:101D900000220121204600F09BFF642006F05CF841
:101DA00001221146204600F093FFBDE81040642058
:101DB00006F052B80004004870B50B4C05460022EE
:101DC0000221204600F084FF00220421204600F07A
:101DD0007FFF2846FFF7BAFE2046BDE8704001228B
:101DE000042100F075BF00000004004870B50B4CE2
:101DF000054601220221204600F06AFF002204214C
:101E0000204600F065FF2846FFF7A0FE2046BDE80B
:101E100070400122114600F05BBF00000004004842
:101E200070B505460C464E20FFF7C6FFC5F3C70048
:101E3000FFF7DCFF4F20FFF7BFFFE0B2FFF7D6FF51
:101E4000200ABDE87040FFF7D1BF2DE9F0410746F9
:101E50001C4616460D464420FFF7AEFFC7F3C700E9
:101E6000FFF7C4FFC6F3C700FFF7C0FF4520FFF729
:101E7000A3FFE8B2FFF7BAFF280AFFF7B7FFE0B207
:101E8000FFF7B4FF200ABDE8F041FFF7AFBF10B580
:101E90002220FFF791FFF720FFF7A8FF2020FFF790
:101EA0008BFFBDE81040FFF737BF00001CB5FFF700
:101EB00037FEFFF7F9FE4FF47A7A0027204E214DC6
:101EC0004FF0FF084FF00109DFF87CB0FFF778FE14
:101ED000504605F0C1FF308841074FEAD00100D0DD
:101EE000491C28884143002005F04CFA040002D127
:101EF00016A004F0A5FCCDF8008000232A883188C4
:101F0000204603F08DF9204603F0A8F9FF2003F0E6
:101F1000F9F8CDE90097182316A28221782003F062
:101F200036FB2046FFF780FE2146002005F01EFA12
:101F300014A004F085FC584605F08EFFC6E70000AB
:101F4000E4000010E600001040420F004661696C9A
:101F5000656420746F206170706C7920666F7220E8
:101F6000626C61636B206D656D6F72792E2E2E0D24
:101F70000A00000068656C6C6F20525443202121D8
:101F8000210000004550445F74657374204F4B215D
:101F90000D0A00001CB54FF47A74204605F05CFF72
:101FA0006846FFF7AFF90098FEF724FC41EC100BF0
:101FB00008A053EC102B04F043FC0198FEF71AFC28
:101FC00041EC100B07A053EC102B04F039FC00F08F
:101FD00015F8E2E768756D69646974793A202566D9
:101FE0000D0A000074656D703A2025660D0A000028
:101FF0004FF4006000F070BD72B6FEE700B587B028
:1020000014216846FEF79DF90020024605906946B6
:10201000104801F017FD002205A90E4801F0F0FC60
:102020009DF802309DF801209DF800100AA004F0F0
:1020300007FC9DF816309DF815209DF817100CA090
:1020400004F0FEFB9DF814100FA004F0F9FB07B09C
:1020500000BD00001C04001054696D653A20253055
:1020600032643A253032643A253032640A00000086
:10207000446174653A20253032642D253032642D58
:10208000253032640A0000005765656B6461793A57
:102090002025640A000000002DE9F84F00270446BF
:1020A000009790F85000DFF8B0930D46B84601282D
:1020B00011D0012684F85060206802F0E3FD60B181
:1020C000606D40F0200060655FF0010784F850808B
:1020D000384600F0D7B90220FBE769680C200529D3
:1020E00012D8022907D0032907D0042907D00529CF
:1020F00007D0062107E0686006E0122103E01821FE
:1021000001E04FF480716960D5E90021236800EA9D
:1021100091101844036B01F01F014FF01F0C0CFAD3
:1021200001FCC2F3846223EA0C038A401343036375
:10213000206802F0A7FD8246206802F09FFD5AEA5F
:1021400000001DD1AA682968206802F0A7FD206858
:102150006969C268C2F3C102520091402A69042A27
:102160000FD000EB82002B68026EDFF8F0C203F0A4
:10217000F84302EA0C020B431A4342F000410166A5
:1021800072E0002102F074FD400320684FF000016E
:1021900072D002F06DFD90FAA0F0B0FA80F12868DC
:1021A00042036ED090FAA0F0B0FA80F0814204D1E0
:1021B00000221146206802F080FD0121206802F013
:1021C00057FD400320684FF001015DD002F050FD43
:1021D00090FAA0F0B0FA80F12868420359D090FA42
:1021E000A0F0B0FA80F0814204D1002201212068E1
:1021F00002F063FD0221206802F03AFD40032068EE
:102200004FF0020148D002F033FD90FAA0F0B0FA8E
:1022100080F12868420344D090FAA0F0B0FA80F030
:10222000814204D100220221206802F046FD0321F0
:10223000206802F01DFD400320684FF0030133D0F9
:1022400002F016FD90FAA0F0B0FA80F1286842037F
:102250002FD090FAA0F0B0FA80F0814204D1002291
:102260000321206802F029FD2068816811F0010F28
:1022700022D0ACE000E004E002F0FAFCC0F384619C
:102280008DE7C0F3846091E702F0F2FCC0F3846153
:10229000A2E7C0F38460A6E702F0EAFCC0F3846121
:1022A000B7E7C0F38460BBE702F0E2FCC0F38461EF
:1022B000CCE7C0F38460D0E72A7B296850F8B03FB0
:1022C000C1F3120C23EA0C0302F0180C644A22FA40
:1022D0000CF20A4013430360E968494577D1286846
:1022E00041031CD090FAA0F1B1FA81F1491C01F030
:1022F0001F0109294FEA403132D8002912D000BF0E
:1023000090FAA0F1B1FA81F101F1010101F01F0190
:1023100006FA01F609D100BFC0F3846109E0C0F3F9
:102320008461E3E7C0F38461EEE790FAA0F1B1FACB
:1023300081F101F1010101F01F0146EA816102D141
:10234000C0F3846003E090FAA0F0B0FA80F000F1EE
:10235000010000F01F0000EB400041EA005132E0B4
:1023600000290ED090FAA0F1B1FA81F101F101013A
:1023700001F01F0106FA01F606D100BFC0F3846127
:1023800006E0C0F38461F1E790FAA0F1B1FA81F1BF
:1023900001F1010101F01F0146EA816102D1C0F3A0
:1023A000846003E090FAA0F0B0FA80F000F1010040
:1023B00000F01F002B4A00EB400002EB005041EA06
:1023C000000141F00071AA68206802F067FC26480D
:1023D0002A6802423FF47AAE24488168244D254B96
:1023E00001F0E071AA421BD10D0219D422689A4271
:1023F0007FF46CAE826841F4000122F0E0720A437F
:1024000082601D481D490068B0FBF1F0401C00EBE4
:102410004000800000E0401E00900028FBD155E6FF
:10242000174DAA4207D1CD0105D422689A42F6D1B0
:1024300041F080710AE06FF00045EA42EFD14A02B4
:10244000EDD422689A42EAD141F48001826822F0F8
:10245000E0720A43826039E600007F4000F0FF032B
:10246000FFFF0700000020FE00000880000304506A
:10247000000052C7000004503C000010400D030053
:10248000000084CB18BCBDE8E08F406D7047006849
:10249000006C7047F8B54FF0000504002E4600951B
:1024A00002D0606D10B107E00120F8BD204600F0B9
:1024B000C9F8A66584F8506020688168C1F340714E
:1024C00019B18168574A1140816020688168C1F361
:1024D000007189B98168544A114041F0805181608E
:1024E000524853490068B0FBF1F04000801C00E006
:1024F000401E00900028FBD120688168C1F3007164
:1025000041B9616D41F010016165A16D41F00101BA
:10251000A165012502F0B6FB616DC90600D430B19A
:10252000606D40F01000606501252846F8BD606DC3
:1025300020F4807040F0020060652068806810F030
:10254000010F0BD13B48806810F0010F06D13A48CB
:102550006168826822F47C120A438260E168606BE1
:10256000627E0843A16841EA4231084394F8201092
:1025700040EA0140012904D1A18C304A02EB4141DB
:102580000843A16A29B101F47071E26A014342EA89
:1025900001002168CA682A4B1A400243CA602068B9
:1025A00002F070FB0646206802F068FB304315D14C
:1025B000207E94F83010800340EA41002168CA6808
:1025C00044F202039A430243CA6094F83800012897
:1025D0000CD02068016921F0010101612069012806
:1025E0002068016B21F00F0111D013E0D4E90F0135
:1025F0000843D4E911121143084321680A6940F2E3
:10260000FC739A43104340F001000861E6E7E26979
:10261000521E11430163606D20F0020040F0010082
:10262000606582E7C0FFFF5FC0FFFF7F3C000010D6
:10263000400D030000000450000304500000FEFFA2
:1026400007C0F0FF10B59EB00446142117A8FDF78F
:1026500078FE5C216846FDF774FE1D4920688842BB
:1026600033D14FF4804000908003149003200190F8
:10267000012002901420039007200490022005906E
:102680000690C0050790684600F046FC08B1FFF7C9
:10269000B3FC1048C16C41F40051C164C16C01F439
:1026A00000511C91C16C41F00101C164C06C17A9BB
:1026B00000F001001C90102017900B2018900020B3
:1026C00019904FF0904000F013FA1EB010BD0000BA
:1026D00000000450001002402DE9F041044640691A
:1026E0000E4608280AD02068C068C00708D0606D70
:1026F00040F0200060650120BDE8F081082500E081
:10270000042500F0EBFA074614E0701C12D000F02C
:10271000E5FAC01BB04200D866B9206800682842BC
:1027200008D1606D40F004006065002084F850001E
:102730000320E1E7206800682842E6D0606D40F49D
:1027400000706065206802F0A1FA80B1607E70B907
:102750002068006800070AD5606D20F4807060650D
:10276000606DC00403D4606D40F0010060652068B6
:10277000C168082D05D0490401D40C210160002056
:10278000BAE70821FAE7000010B50446006802F035
:1027900079FA10B10221084610BD94F850000128C2
:1027A0000CD0012084F850002046FEF79DFC01006B
:1027B0004FF0000004D084F85000ECE7022010BD78
:1027C000626D40F601639A4342F480726265626D05
:1027D000D20404D5A26D22F00602A26500E0A06535
:1027E00023681C221A6084F850002068C268920195
:1027F00005D5626D22F4005242F48052626582680F
:10280000024B1A40121D8260C5E70000C0FFFF7F27
:1028100010B5044690F85000012808D0012084F833
:10282000500003212046FEF7B5FB10B10BE002205B
:1028300010BD2046FEF720FC28B9616D21F48851B7
:1028400041F001016165002184F8501010BD10B500
:1028500090F825100022022905D00421C16380F8D8
:102860002420012010BD01680B6823F00E030B60CB
:1028700001680B6823F001030B6090F84410046CAE
:1028800001F01C03012101FA03F3636080F82510B5
:1028900080F82420104610BD10B590F825100024B3
:1028A000022903D00421C16301241AE001680A68E7
:1028B00022F00E020A6001680A6822F001020A6032
:1028C00090F84410036C01F01C02012101FA02F29D
:1028D0005A6080F82510002180F82410816B01B126
:1028E0008847204610BDC06B7047F0B4016C0C687F
:1028F00001680D6890F8442002F01C06042202FAD8
:1029000006F3234211D06B070FD50B689B0603D447
:102910000B6823F004030B6090F8441001F01C01D5
:102920008A40016C4A60016B1DE0022303FA06F73E
:1029300027424FF0000C4FF0010218D0AF0716D518
:102940000C68A40605D40C6824F00A040C6080F816
:10295000252090F8441001F01C018B40016C4B6065
:1029600080F824C0C16A00291AD0F0BC08470823A7
:10297000B340234214D02B0712D50B6823F00E036B
:102980000B6090F84410036C01F01C0102FA01F195
:102990005960C26380F8252080F824C0416BE2E7CB
:1029A000F0BC704770B568B12B4C036814212B4AFA
:1029B000A34209D22A4C1C44B4FBF1F18900C0E9BE
:1029C00010210BE0012070BD234C64421C44B4FB79
:1029D000F1F189004164204908390164022180F83D
:1029E00025101C6847F6F0718C43D0E90215294385
:1029F000D0E904563543294385692943C5692943EC
:102A0000056A2943214319608168B1F5804F19D0C7
:102A1000036C0F21934202D152F8A83F02E00E4A04
:102A2000A032136890F8444004F01C04A1408B438A
:102A3000136090F84430416803F01C039940136818
:102A4000194311600021C163012280F8252080F81C
:102A50002410084670BD0000080402400000024037
:102A6000F8FFFDBF70B5044690F82400002501284A
:102A70000CD0012084F8240094F825600020012E59
:102A800006D084F824000225284670BD022070BDBF
:102A9000022684F82560E0632068066826F00106B7
:102AA00006602046FFF774F8206B00282068016854
:102AB00002D041F00E0106E021F00401016020681F
:102AC000016841F00A0101602068016841F00101DC
:102AD0000160D9E770470000044910B50A68024256
:102AE00002D00860FFF7F6FF10BD0000140401409B
:102AF0002DE9F04FDFF8AC9100230325A9F1040B79
:102B000085B04FF0010C0F2709F1040AABF1040E58
:102B1000BFE000BF0CFA03F6324075D00C7904F028
:102B20000304012C01D0022C1BD1846800945C00AA
:102B300005FA04F80494009C24EA08040094D1F8EF
:102B40000C80049C08FA04F8009C48EA0408C0F8C9
:102B500008804468B4430E79C6F300169E402643AD
:102B600046600C79E443A4070AD0C4684FEA4308DE
:102B700005FA08F6B4438E6806FA08F62643C660DE
:102B80000C7904F00304022C10D1DC0800EB84045F
:102B90000294246A5E074FEAD66807FA08F6B4433F
:102BA0000E6906FA08F62643029C266204684FEA7C
:102BB000430805FA08F6B4430E7906F0030606FA50
:102BC00008F6264306604C6814F4403F60D0364C4B
:102BD000266E46F001062666246E23F0030604F0F6
:102BE00001040094314C34440294A4689E074FEAD7
:102BF000167807FA08F6B443B0F1904F05D02C4E82
:102C0000B04204D1012612E042E000260FE0294E36
:102C1000B04201D102260AE0274EB04201D103267C
:102C200005E0264EB04201D1042600E0072606FA50
:102C300008F62643029CA660D9F800604C46D1F8FD
:102C4000048096435FEAC82800D516432660DAF868
:102C500000405646D1F8048094435FEA882800D5A6
:102C600014433460DBF800405E46D1F8048094439E
:102C70005FEA883800D514433460DEF800407646B9
:102C8000D1F8048094435FEAC83800D51443346017
:102C90005B1C0A6832FA03F47FF43CAF05B000F025
:102CA0000FB800000804014000100240000001407D
:102CB0000004004800080048000C004800100048CC
:102CC00030BCBDE8C08F0069084000D001207047CB
:102CD0000AB18161704781627047000001488068D5
:102CE00070470000300000100248816802781144EB
:102CF000816070473000001010B50024032000F000
:102D000099F80F2000F008F808B1012401E000F064
:102D100049F8204610BD000030B505461C4887B074
:102D2000016E41F400610166006E06A900F40060C6
:102D3000009001A800F0F0FA00F020FB1549164AB7
:102D4000B0FBF1F11548491E0260416040F2E732E4
:102D50000021C0E903218160816101F0E0F90400F4
:102D600012D10E4801F00EFA04000DD1192000F026
:102D700033F8102D07D200222946192000F03AF826
:102D80000748056000E0012407B0204630BD000080
:102D90000010024040420F00002C0140240B0010A4
:102DA000340000100B4882B0016E41F00101016651
:102DB000016E01F001010091816D41F0805181654A
:102DC000806D002200F0805000900F21901E02B014
:102DD00000F010B800100240002809DB00F01F02CC
:102DE000012191404009800000F1E020C0F800116D
:102DF00070470000F0B40E4B1B680C46C3F302236F
:102E0000C3F10705042D00D90425191D072901D296
:102E1000002300E0DB1E012606FA05F1491E2140D1
:102E200099409E40761E16403143F0BC03F018BD19
:102E30000CED00E0064900F0070208684FF6FF03BA
:102E4000184040EA0220034A10430860704700001F
:102E50000CED00E00000FA051649B0F5007F0868A7
:102E6000C0F3412009D0022805D0086820F4C060D2
:102E700040F480600860002070470128FBD008689B
:102E800020F4C06040F4007008600B4832220068F3
:102E900050430A4AB0FBF2F0401C00E0401E4A6971
:102EA000520501D50028F9D148694005E3D5032032
:102EB00070470000007000403C00001040420F00CE
:102EC0000B490A6822F00702921C0A6009490A6845
:102ED00042F004020A60012807D040BF20BF20BF93
:102EE000086820F004000860704730BFF8E7000071
:102EF0000070004010ED00E00248006800F4C0607F
:102F000070470000007000400248016841F4807181
:102F100001607047007000402DE9F84F044600271B
:102F20000088A84D3E46000515D5606C60B1B0F52F
:102F3000000F04D0B0F5400F2BD001270AE0E8685D
:102F400040F48030E86024E00021201D02F076FB90
:102F500007001ED03E46206880033AD5A86D4FF08A
:102F60000008C00009D4A86D40F08050A865A86D85
:102F70004FF0010800F080500090DFF84CA2DAF822
:102F8000001041F48071CAF80010FFF7A7FE8146D7
:102F900010E0D5F88800616C20F440000843C5F8C3
:102FA0008800D8E7FFF79AFEA0EB0900022801D9B4
:102FB000032705E0DAF80000C005F3D5002F7DD027
:102FC0004FEA0706B8F1000F03D0A86D20F080503B
:102FD000A8652078C00707D0D5F88800216A20F0BE
:102FE00003000843C5F888002078800707D5D5F886
:102FF0008800616A20F00C000843C5F8880020783A
:10300000400707D5D5F88800A16A20F030000843B2
:10301000C5F888002078800607D5D5F88800E16AD1
:1030200020F440600843C5F888002088800507D553
:10303000D5F88800E16B20F440200843C5F88800EB
:103040002088400507D5D5F88800216C20F4401071
:103050000843C5F888002078400607D5D5F88800D1
:10306000216B20F440500843C5F888002078000602
:1030700007D5D5F88800616B20F440400843C5F8B7
:1030800088002088C00507D5D5F88800A16B20F4FA
:1030900040300843C5F8880020684FF000670003FF
:1030A0004FF0806850D5D5F88800A16C20F04060C2
:1030B0000843C5F88800A06CB84200E005E03BD1A9
:1030C000E86840F48010E8603EE0D5F8900010F425
:1030D000407014D0A16D814211D0D5F89000D5F880
:1030E000901020F4407041F48031C5F89010D5F86C
:1030F000901021F48031C5F89010C5F89000C007F9
:1031000011D0FFF7EBFD074641F2883907E000BF19
:10311000FFF7E4FDC11B494501D9032652E7D5F865
:1031200090008007F4D5D5F89000A16D20F4407090
:103130000843C5F8900045E7404505D10121201D11
:1031400002F07CFA00B106462068400317D5D5F896
:103150008800E16C20F040600843C5F88800E06C0E
:10316000B84204D1E86840F48010E86007E04045C8
:1031700005D10121201D02F061FA00B10646208828
:10318000400411D5D5F88800216D20F04050084347
:10319000C5F88800206DB0F1805F05D10221201DA7
:1031A00002F04CFA00B106462088000406D555F816
:1031B000880F616D20F0804008432860304600F0A1
:1031C00005B80000001002400070004018BCBDE8C7
:1031D000E08F00002DE9F0470F4605006BD0494E07
:1031E000306800F00700B84209D2306820F00700CC
:1031F00038433060306800F00700B8425BD128786F
:10320000414C80070AD5A868A16801F0F001884206
:1032100004D9A16821F0F0010143A1602878C0071A
:103220002CD06868032811D0022812D0216898B1E8
:10323000490500293FDAA16821F003010143A1609B
:10324000FFF74CFD804641F2883910E02168890182
:10325000EFE721688903ECE78907EAE7FFF73EFD1E
:10326000A0EB0801494502D90320BDE8F087A0681A
:10327000696800F00C00B0EB810FEFD1287880076F
:103280000AD5A868A16801F0F001884204D2A168BB
:1032900021F0F0010143A160306800F00700B8425E
:1032A0000BD9306820F0070038433060306800F0F8
:1032B0000700B84201D00120D7E72878400705D59C
:1032C000A068E96820F4E0600843A060287800075F
:1032D00006D5A068296920F4605040EAC100A060CA
:1032E00000F05EF8A168094AC1F30311515C01F0D6
:1032F0001F01C8400649086006480068BDE8F0475D
:10330000FFF70ABD0020024000100240208C000898
:103310003C000010340000100F2202600C4A936839
:1033200003F003034360936803F0F0038360936842
:1033300003F4E063C36092684FF4E06303EAD202EF
:1033400002610448006800F0070008607047000050
:1033500000100240002002400548064900688968C4
:10336000054AC1F30221515C01F01F01C8407047BA
:103370003C00001000100240608C0008054806491F
:1033800000688968054AC1F3C221515C01F01F0140
:10339000C84070473C00001000100240608C0008DC
:1033A00070B52549002318468A68CC6812F00C02D3
:1033B00004F00306214C4FEA640509D00C2A05D01D
:1033C000042A32D0082A00D1284670BD012E10D11F
:1033D0000B681B0704D4D1F89430C3F3032302E035
:1033E0000B68C3F30313164E56F82330DAB10C2AD8
:1033F000EBD1C86800F00300022818D0032818D0C9
:103400001846CA68CB68C2F30212C3F306234343CB
:10341000521CB3FBF2F2C868C0F34160401C40008C
:10342000B2FBF0F070BD184670BD204670BD20465E
:10343000E7E72846E5E70000001002400024F4001A
:10344000308C00082DE9F84304006FD0FA4DA868CD
:1034500000F00C06E86800F003072078C00664D589
:1034600076B10C2E01D1012F0AD0A069002828685E
:103470007AD040F001002860FFF730FC80465DE024
:103480002868800702D5A0690028DED0216A286854
:10349000000703D5286800F0F00004E0D5F8940098
:1034A000F02202EA1010814216D9084602F05CF9B7
:1034B00000283BD1286840F0080028602868216A6D
:1034C00020F0F000084328606868E16920F47F403C
:1034D00040EA0120686016E0286840F00800286093
:1034E0002868216A20F0F000084328606868E169D4
:1034F00020F47F4040EA0120686026B9206A02F08B
:1035000033F90028D5D1FFF74BFFA968CB4AC1F3A7
:103510000311515C01F01F01C840C9490860C94846
:103520000068FFF7F9FB00287ED12EE0CAE000BF5B
:10353000FFF7D4FBA0EB0800022876D828688007A4
:10354000F6D5286840F0080028602868216A20F035
:10355000F000084328606868E16920F47F4040EA91
:103560000120686011E0FFE720F001002860FFF70C
:10357000B5FB804606E000BFFFF7B0FBA0EB0800FC
:103580000228DAD828688007F6D42078C00740D00F
:10359000082E18D00C2E01D1032F14D06068B0F57E
:1035A000803F17D0B0F5A02F286817D020F48030C6
:1035B0002860286820F4802028606068E0B1FFF768
:1035C0008DFB804614E02868800322D560680028BF
:1035D00078D01EE0286840F48030EDE740F4802089
:1035E0002860F7E7FFF77AFBA0EB08006428A4D86F
:1035F00028688003F6D50CE0FFF770FB804605E0F5
:10360000FFF76CFBA0EB0800642896D828688003BD
:10361000F6D4207880073BD5042E11D00C2E01D192
:10362000022F0DD0E06801E0AAE1FFE00028286841
:103630001ED040F480702860FFF750FB07460CE076
:10364000286840050CD5E0680028C1D008E000BF1C
:10365000FFF744FBC01B022893D828684005F7D524
:103660006868217C20F0F85040EA016068600FE053
:1036700020F480702860FFF731FB074605E000BFAB
:10368000FFF72CFBC01B0228B1D828684005F7D4EF
:103690002078000729D560690028D5F8940012D059
:1036A00040F00100C5F89400FFF718FB074604E05E
:1036B000FFF714FBC01B022899D8D5F894008007A7
:1036C000F6D512E02BE120F00100C5F89400FFF7D9
:1036D00005FB074605E000BFFFF700FBC01B022803
:1036E00085D8D5F894008007F6D42078400766D5B1
:1036F000A86D0027C00008D4A86D40F08050A865D0
:10370000A86D012700F0805000904F480168C9055E
:1037100012D40168814641F480710160FFF7DEFA3E
:10372000804605E0FFF7DAFAA0EB080002287DD812
:10373000D9F80000C005F5D5A068012816D00528E5
:10374000D5F8900017D020F00100C5F89000D5F80A
:10375000900020F0040000BFC5F89000A06841F27E
:103760008839C0B1FFF7BAFA80460FE0D5F890006B
:1037700040F00100F0E740F00400C5F89000F5E7E4
:10378000FFF7ACFAA0EB080149454FD8D5F89000F7
:103790008007F5D50EE0FFF7A1FA804606E000BFEE
:1037A000FFF79CFAA0EB080149453FD8D5F89000F7
:1037B0008007F5D41FB1A86D20F08050A86520784F
:1037C000800628D5606A0028D5F8980012D040F00D
:1037D0000100C5F89800FFF781FA074605E000BF31
:1037E000FFF77CFAC01B022820D8D5F89800800784
:1037F000F6D510E020F00100C5F89800FFF76EFA4A
:10380000074604E0FFF76AFAC01B02280ED8D5F875
:1038100098008007F6D4A06AF0B3022816D00C2EC8
:103820007DD0286820F08070286000E0A7E0FFF7D6
:1038300055FA0446A6E0000000100240208C000863
:103840003C0000103400001000700040E868E26A9C
:1038500000F00301914228D1216B00F070020901B0
:103860001039914221D1626B00F4FE41B1EB022F7D
:103870001BD194F8382000F07841B1EBC26F14D11D
:10388000A18F00F4C00249084905A1F50011914239
:103890000BD194F8401000E06AE04908490600F0B6
:1038A000C060A1F1007181424BD00C2E73D028680A
:1038B000400170D4286820F080702860FFF70EFA6D
:1038C000064604E0FFF70AFA801B022857D828684A
:1038D0008001F7D4F4E90B016FF00F0202EB011144
:1038E0000843218A5204490802EB4151A26841EA87
:1038F00002210843217D4FF07E42490802EB4161DD
:103900000843217B40EAC160E968244A114008432A
:10391000E860286840F080702860E86800E03AE0DD
:1039200040F08070E860FFF7D9F9044605E000BF79
:10393000FFF7D4F9001B022821D828688001F7D5A9
:1039400027E02868800124D4286840F0807028602F
:10395000E86840F08070E860FFF7C0F9044604E0D2
:10396000FFF7BCF9001B022809D828688001F7D5A9
:103970000FE000BFFFF7B2F9001B022802D90320B5
:10398000BDE8F88328688001F4D4E8680449084059
:10399000E8600020F4E70120F2E700008C809D0140
:1039A000FCFFEEFE7047704710B5144904464FF413
:1039B0008020086020688168C9040BD5C168C905EA
:1039C00008D5C16801F0800161F4C071C160204672
:1039D000FFF7E9FF2068816889040BD5C168890574
:1039E00008D5C16801F0800161F42071C1602046F2
:1039F000FFF7D8FF012084F8210010BD1404014016
:103A000010B500680B4641680D480140080CD8709D
:103A1000C1F304245C7001F03F049C70C1F3423197
:103A2000197052B901F00EFFD870587801F00AFFF2
:103A30005870987801F006FF9870002010BD0000C3
:103A40003FFFFF0010B50B460168896A59600168A5
:103A50000969C1F30E019960006801680D480140D1
:103A6000C1F305401870C1F306245C7001F07F04B7
:103A70009C70890DD97052B901F0E4FE1870587825
:103A800001F0E0FE5870987801F0DCFE987000209C
:103A900010BD00007F7F7F0010B504004FF00100D3
:103AA00044D094F8210028B9002084F82000204652
:103AB00000F040F8022084F821002168CA20486202
:103AC000216853204862204601F0D2FE00282DD103
:103AD00020688168164A11408160216888686268A0
:103AE000A369104322691A43104388602168E06883
:103AF000086120680169228941EA0241016120468A
:103B000001F0DAFE002811D12168CA6C22F003020C
:103B1000CA646269E16911432268D36C1943D164B4
:103B20002268FF215162012184F8211010BD00009C
:103B3000BFFF8FFF10B598B004465C216846FCF7C4
:103B400000FC0F492068884218D14FF400300090E3
:103B5000401216906846FFF7DFF908B1FEF74CFAFD
:103B6000084850F8901F41F40041016000220A21EA
:103B70002920FFF73FF92920FFF72EF918B010BDD3
:103B8000002800400010024070B5044690F8200064
:103B90000B4601281BD0012684F82060022084F8FF
:103BA0002100B2B19878D97840EA0145587819785F
:103BB000000240EA413005432168CA20486221687A
:103BC00053204862204601F053FED0B120E002208D
:103BD00070BD5878C10603D500F0EF000A30587068
:103BE000D87801F038FE0504587801F034FE45EA33
:103BF0000025987801F02FFE0543187845EA4035F6
:103C0000DAE70848054020684560204601F054FE88
:103C10002268FF21516208B984F82160002184F8EC
:103C2000201070BD3FFFFF002DE9F041044690F8E1
:103C3000200090460D46012811D0012784F82070FD
:103C4000022084F821002168CA204862216853209C
:103C50004862204601F00CFE002618B129E002203F
:103C6000BDE8F0812068B8F1000F80684FEA40603D
:103C700024D0002800DBEE70A8782978EA7840EAA2
:103C800001406978090241EA825108431849084015
:103C9000216808602068816821F480218160D5E96D
:103CA0000301084321688A6810438860204601F0B8
:103CB00003FE2268FF215162A0B115E0002800DB5D
:103CC000EE70287801F0C7FD0304687801F0C3FDA9
:103CD00043EA0023A87801F0BEFD0343E87843EAF5
:103CE0008050D3E784F8217084F82060B8E70000A2
:103CF0007F7F7F0070B504460068C16821F0A00195
:103D0000C160FEF7EBFF05464FF47A7607E000BF8F
:103D1000FEF7E4FF401BB04201D9032070BD2068CC
:103D2000C0688006F4D5002070BD70B5040009D0CD
:103D3000606A002540B125616561A56294F85D0067
:103D400040B10CE0012070BD6068B0F5827FF4D016
:103D5000E561F2E784F85C50204600F057F8022055
:103D600084F85D002068016821F040010160E1688D
:103D70004FF4E062914201D9002001E04FF48050FD
:103D8000B1F5706F02D0914200D0A562A18822895E
:103D900001F4827102F404421143227C02F0020217
:103DA0001143227D02F001021143228B02F40072C2
:103DB0001143227F02F03802114394F8202002F0D0
:103DC00080021143228D02F40052114322681160D7
:103DD000A169042202EA114194F8242000F48050E1
:103DE00002F01002114394F8342002F0080211434B
:103DF000A28902F470621143014320684160256684
:103E0000012084F85D00002070BD000070B586B010
:103E1000044614216846FCF794FA214E25680021D7
:103E20002048022203230524B54219D1056E45F42A
:103E300080550566056E05F480550595C56C45F001
:103E40000105C564C06C02AD00F00100059085E875
:103E50001A00A020CDE9000269464FF090401AE018
:103E6000114EB54219D1856D45F480458565856D46
:103E700005F480450595C56C45F00205C564C06C28
:103E800002AD00F00200059085E81A00B000CDE90F
:103E9000000269460548FEF72BFE06B070BD000023
:103EA000003001400010024000380040000400488B
:103EB0002DE9F05F044690F85C0000270A9E1D463D
:103EC00092468B464FF0010901280ED0012084F85C
:103ED0005C00FEF703FF804694F85D0061680128EE
:103EE0000CD0B1F5827F07D102E0022000F011B9B9
:103EF000A16809B9042801D0022700E1BBF1000F35
:103F000024D0BAF1000F21D005B394F85D00042845
:103F100002D0052084F85D0000202066C4F840A08F
:103F2000A4F84650A4F84450C4F838B0E587A587F3
:103F3000E0642065E0684FF4E061884201D8012D1B
:103F400006D92068426822F4805205E00127D6E0B5
:103F50002068426842F4805242602068026852063B
:103F600003D4026842F040020260E0688842606860
:103F700045D908B1012D3AD1A06B21680088C860ED
:103F8000A06B801CA063E08F401EE0872FE02068BC
:103F9000816889070FD5E18F69B1B9F1010F0AD1A5
:103FA000A16B0988C160A06B801CA063E08F401EDC
:103FB000E0874FF0000920688168C9070FD0B4F886
:103FC000461061B1C068216C0880206C801C2064A0
:103FD000B4F84600401EA4F846004FF00109FEF771
:103FE0007DFEA0EB0800B04201D3701C75D1E08FBC
:103FF0000028CCD1B4F846000028C8D176E008B13A
:10400000012D6CD1E08F0128A06B08D921680088B0
:10401000C860A06B801CA063E08F801E07E0216851
:1040200000780873A06B401CA063E08F401EE087FF
:1040300055E02068816889071AD5E18FC1B1B9F1CF
:10404000010F15D1E18F0129A16B07D90988C16042
:10405000A06B801CA063E08F801E06E009780173CE
:10406000A06B401CA063E08F401EE0874FF000096A
:1040700020688168C90728D0B4F8461029B3B4F87D
:104080004610012914D9C068216C0880206C801C5E
:104090002064B4F84600801EA4F84600B4F8460038
:1040A000012810D82068416841F4805141600AE03D
:1040B000007B216C0870206C401C2064B4F8460022
:1040C000401EA4F846004FF00109FEF707FEA0EBE2
:1040D0000800B04202D3701C01D018E0BEB1E08FDE
:1040E0000028A6D1B4F846000028A2D142463146A5
:1040F000204601F099FC10B1012720202066012004
:1041000084F85D00002084F85C003846EEE6032762
:10411000F5E730BCBDE8C09F70477047704710B5E9
:10412000040003D094F83D0010B107E0012010BD59
:10413000002084F83C00204600F022F8022084F899
:104140003D00211D206801F0CFFD012084F84800CA
:1041500084F83E0084F83F0084F8400084F8410071
:1041600084F8420084F8430084F8440084F8450051
:1041700084F8460084F8470084F83D00002010BD14
:104180007047000090F83D10012901D001207047D0
:10419000022180F83D100168CA6842F00102CA603D
:1041A00000680B49884205D0B0F1804F02D0094920
:1041B000884207D18168084A1140062906D0B1F526
:1041C000803F03D0016841F0010101600020704789
:1041D000002C01400040014007000100704770B50D
:1041E0000446006801694FF00005C943890715D4EA
:1041F000C168C943890711D4E91E016101202077F4
:10420000206880698007204602D0FFF7E7FF04E0BE
:1042100000F0A7F8204600F0A5F82577206801698E
:10422000C943490717D4C168C943490713D46FF07C
:1042300004010161022020772068806910F4407F2A
:10424000204602D0FFF7CAFF04E000F08AF82046BB
:1042500000F088F8257720680169C943090716D45A
:10426000C168C943090712D46FF008010161042035
:1042700020772068C0698007204602D0FFF7AEFF94
:1042800004E000F06EF8204600F06CF82577206816
:104290000169C943C90617D4C168C943C90613D403
:1042A0006FF010010161082020772068C06910F4C8
:1042B000407F204602D0FFF791FF04E000F051F864
:1042C000204600F04FF8257720680169C943C907E7
:1042D00008D1C168C943C90704D1891E01612046BC
:1042E00000F042F820680169C943090609D4C16891
:1042F000C943090605D46FF0800101612046FFF72C
:104300000CFF20680169C943C90509D4C168C943C4
:10431000090605D46FF4807101612046FFF7FCFEA9
:1043200020680169C943490609D4C168C9434906DF
:1043300005D46FF040010161204600F01FF82068AD
:104340000169C94389060BD4C168C943890607D4EA
:104350006FF0200101612046BDE87040FFF7DEBE2E
:1043600070BD70477047000000680349884201D162
:10437000FEF7BABC70470000002C01407047704740
:10438000704770B50446806FE66F216889684FF00A
:104390001005090618D5212816D12068083050E8E4
:1043A000001F21F0800140E80012002AF5D1E06EE4
:1043B00038B1FEF74CFA20B1E06EFEF794FA2028EF
:1043C00021D0204601F021FE20688068400618D5E3
:1043D000222E16D12068083050E8001F21F040013D
:1043E00040E80012002AF5D1206F38B1FEF72FFA0D
:1043F00020B1206FFEF777FA202804D0204601F084
:10440000DFFD002070BDC4F88050032070BD7047F0
:104410002DE9F04102680446D0691168936840F6BE
:104420000F0528424FF0000505D186067ED58E0681
:104430007CD5616E1BE1994F03F001060F403743B5
:1044400074D0C70709D0CF0507D501271762D4F864
:10445000802042F00102C4F8802082070AD5DA07E2
:1044600008D0276802223A62D4F8802042F0040281
:10447000C4F8802042070AD5DA0708D0236804224E
:104480001A62D4F8802042F00202C4F880200207A9
:104490000CD501F02002324308D0236808221A62AA
:1044A000D4F8802042F00802C4F8802002050BD521
:1044B0004A0109D523684FF400621A62D4F88020BB
:1044C00042F02002C4F88020D4F88020002A35D0A1
:1044D000800605D5880603D5616E09B12046884758
:1044E000D4F8800021688968490602D410F0280FAA
:1044F00026D0204601F064FD2068806840061AD569
:104500002068083050E8001F21F0400140E8001208
:10451000002AF5D1206F70B161498163206FFEF7E9
:10452000BBF900280AD0206F816B01E00EE0204625
:10453000BDE8F04108472046FFF769FFBDE8F0817C
:104540002046FFF764FFC4F88050F7E7276E202667
:10455000012F7BD1C70679D5CF0677D51020106201
:1045600020688068400641D5216F086840680004D3
:10457000000CE3D0B4F858208242DFD9A4F85A00E6
:104580000868006880062AD4206850E8001F21F4DB
:10459000807140E80012002AF6D12068083050E807
:1045A000001F21F0010140E80012002AF5D1206827
:1045B000083050E8001F21F0400140E80012002AB6
:1045C000F5D1E6672566216851E8000F20F010005C
:1045D00041E80002002AF6D1206FFEF738F9B4F85E
:1045E0005800B4F85A10401A81B22AE0B4F85800C2
:1045F000B4F85A10401A81B2B4F85A0000289DD07D
:1046000000299BD0226852E8000F20F4907042E805
:104610000003002BF6D12068083050E8002F22F06C
:10462000010240E80023002BF5D1E66725666566A8
:10463000226852E8000F20F0100042E80003002B2F
:10464000F6D12046FFF79BFE78E7FFE7C70209D5C2
:104650005B0207D54FF4801010622046BDE8F041A0
:10466000FFF78EBE020606D50A0604D5A16E002904
:104670007FF45DAF62E74006E6D54806E4D5204604
:10468000026852E8001F21F0400142E80013002BAD
:10469000F6D18667856600F00FFA4FE72001000427
:1046A000795E000810B5040002D0A06F10B107E0D9
:1046B000012010BD002084F87400204600F026F888
:1046C0002420A0672068016821F0010101602046D4
:1046D00001F0A8FC0128ECD0606A10B1204601F07E
:1046E00039FB2068416821F490414160206881686D
:1046F00021F02A0181602068016841F00101016018
:104700002046BDE8104001F089BB00002DE9F047CC
:104710009EB00646142117A8FBF713FE5C216846DD
:10472000FBF70FFE5F4930685F4C032702254FF00F
:1047300007094FF0904A4FF00008884259D10120F4
:104740000090CDF820806846FEF7E6FB08B1FDF743
:1047500053FC206E40F480402066206E00F48040C0
:104760001C90E06C40F00100E064E06C19AA00F0DD
:1047700001001C904FF4C060CDE91705444682E863
:10478000900217A95046FEF7B3F9494F47484FF03A
:1047900080083860C7E90154C7E9034820207C61DC
:1047A000C7E9064038463C62FEF7FCF808B1FDF761
:1047B00023FC3767BE623E4F3C4848371438E7E871
:1047C00002051020A7E81101394847F8144948307C
:1047D000BC61FC613C62FEF7E5F808B1FDF70CFC3A
:1047E000F766002207212520BE62FEF703FB252085
:1047F0002AE0304988422CD16846CDF824800095C3
:10480000FEF78AFB08B1FDF7F7FBA06D40F400301E
:10481000A065A06D00F400301C90E06C40F0010039
:10482000E064E06C17A900F001001C900C2081E806
:104830002101CDE91A795046FEF75AF900220721E5
:104840002620FEF7D7FA2620FEF7C6FA1EB0BDE8EE
:10485000F08719498842F9D10420CDF828800090CA
:104860006846FEF759FB08B1FDF7C6FBA06D40F4A2
:104870008020A065A06D00F480201C90E06C40F0CA
:104880000200E064E06C17A900F002001C904FF4F5
:10489000406081E82101CDE91A790848FEF728F93E
:1048A000D4E70000003801400010024058000240E8
:1048B00094080010004400400048004000040048F4
:1048C00030B4C36F202B20D1E1B1DAB190F874304D
:1048D000012B1AD0012380F87430002303660C4C9E
:1048E0000368A3420BD05B681B0208D5046854E838
:1048F000003F43F0806344E80035002DF6D130BC22
:1049000001F090BC012030BC70470220FBE70000A2
:10491000008000401CB500680D49884217D10D4841
:10492000012101700021019101A9002300911A4683
:104930001946006903F03CFF0198002807D006499A
:104940004FF080500860BFF34F8FBFF36F8F1CBDD7
:10495000003801401C00001004ED00E0704700002A
:104960002DE9F8430446806F1F4616460D46202861
:104970004FD1CDB1C6B194F87400012849D00120BF
:1049800084F874004FF00008C4F880802120A067EC
:10499000FEF7A4F9A4F850608146A4F85260A0681C
:1049A000B0F5805F03D004E00120BDE8F883206902
:1049B00028B12E465FF0000584F8748010E00026D0
:1049C000FAE78021204601F07FFCB8B9C6B116F89D
:1049D000010B21680885B4F85200401EA4F852006B
:1049E000B4F852004B464FF0000200970028E8D17F
:1049F0004FF04001204601F067FC30B10320D4E7BE
:104A000035F8020BC0F30800E3E72020A067002080
:104A1000CBE70220C9E7000070B50446806F20286C
:104A200041D169B362B394F8740001283BD00120EE
:104A300084F87400E164A4F85020A4F85220002502
:104A4000C4F880502120A067E06ED8B11749C16238
:104A5000E16E174813460863E16E16484863E06E3E
:104A600085632668E16C06F12802E06EFDF7FAFF27
:104A700040B11020C4F8800004F8745F202060600A
:104A8000012070BD21684020086284F874502068BD
:104A9000083050E8001F41F0800140E80012002A71
:104AA000F5D1002070BD022070BD0000755F0008C8
:104AB000B75F00088D5E000800680349884202D194
:104AC0000249002048707047003801401C00001067
:104AD0007047FEE72DE9F041234E0F468046002443
:104AE000012280213046FEF7F3F800256006040E0F
:104AF000012240213046FEF7EBF8012003F0ACF92B
:104B000080213046FEF7DFF808B144F001040022AE
:104B100040213046FEF7DCF8012003F09DF96D1CC2
:104B2000EDB2082DE2D387F0010280213046FEF776
:104B3000CFF8012240213046FEF7CAF8012003F0E9
:104B40008BF9002240213046FEF7C2F8012003F025
:104B500083F9012280213046FEF7BAF888F8004038
:104B60000120BDE8F08100000004004810B5104CA1
:104B7000012280212046FEF7ABF801224021204689
:104B8000FEF7A6F8012003F067F9002280212046F5
:104B9000FEF79EF8012003F05FF900224021204635
:104BA000FEF796F8BDE81040012003F055B900006B
:104BB0000004004810B50C4C002280212046FEF76E
:104BC00087F8012240212046FEF782F8012003F0F9
:104BD00043F9012280212046FEF77AF8BDE8104013
:104BE000012003F039B900000004004870B51F4EE1
:104BF00005460024EA0980213046FEF769F8680678
:104C0000050E012240213046FEF762F8012003F034
:104C100023F9002240213046FEF75AF8012003F024
:104C20001BF9641CE4B2082CE4D301228021344631
:104C30003046FEF74DF8012240212046FEF748F8A5
:104C4000012003F009F980212046FEF73CF850B11D
:104C50000025002240212046FEF73AF8012003F00B
:104C6000FBF8284670BD0125F3E70000000400486A
:104C700000EB8100006E00F0F84070478068C0F3E0
:104C8000C00070478068C0F380007047C06810F4AF
:104C9000406F01D00020704701207047042303EAD1
:104CA000D15310B518444369C1F3045107248C4013
:104CB000A3438A401343436110BD00EB8100016EA2
:104CC00021F00041114301667047000030B587B004
:104CD00018216846FBF735FB184817490024C0E93E
:104CE000001484600425C460C0E904450476447659
:104CF0000121C16180F820408462C46280F83040A4
:104D0000446380F83840FDF7C5FB08B1FDF774F93E
:104D10000B48009006200190022002907F2005940D
:104D2000CDE9030569460548FDF7B6F9002801D02D
:104D3000FDF762F907B030BD00000450B803001061
:104D40000002B0250D4808B5816C41F00101816475
:104D5000806C002200F00100009009210E20FEF777
:104D600049F80E20FEF738F8002209210F20FEF73F
:104D700041F8BDE808400F20FEF72EB800100240B1
:104D800000B587B01C2206496846FBF7C1FA00212E
:104D9000684602F01AFB0349086007B000BD000036
:104DA000048C0008140000102DE9F04186B0142195
:104DB0006846FBF7C6FA4548C16C41F00401C1647E
:104DC000C16C01F004010591C16C41F08001C16426
:104DD000C16C01F080010591C16C41F00101C16419
:104DE000C16C01F001010591C16C41F00201C16487
:104DF000C06C4FF0904700F00200059000224FF485
:104E000081713846FDF764FFDFF8C480002241F26B
:104E1000E7314046FDF75CFF012208214046FDF7DF
:104E200057FF02250124CDE9005469463846CDE9F3
:104E30000245FDF75DFE40200026CDE900066946EB
:104E400002953846FDF754FE41F2C70003958DE800
:104E5000510069464046FDF74BFE200203958DE860
:104E6000510069463846FDF743FEE00200904FF4DA
:104E70008810CDE9010469463846FDF739FEF8137C
:104E8000CDE90006694602943846FDF731FE282038
:104E90008DE85100694640460396FDF729FE4FF420
:104EA0004070009001AA112082E831006946404616
:104EB000FDF71EFE002209212820FDF79BFF282078
:104EC000FDF78AFF06B0BDE8F08100000010024047
:104ED0000004004810B592B014216846FBF731FA7F
:104EE00000242C2106A80594FBF72BFA1B481A492D
:104EF000C0E900147F218160FF21C0E903144461EF
:104F00008461C461FEF7C8FD08B1FDF775F88DF83E
:104F100000408DF801408DF802400394012269465B
:104F20000E480494FEF780FE08B1FDF765F80120F5
:104F30008DF814008DF815008DF8160002468DF8D6
:104F4000174005A90548FEF71FFE002801D0FDF710
:104F500053F812B010BD0000002800401C040010DF
:104F6000124810B5104901604FF482714160002170
:104F70004FF4E062C0E902124FF400720161C0E92F
:104F800005122022C0E9072107224162C0E90A1266
:104F9000016308214163FEF7C8FE002803D0BDE885
:104FA0001040FDF729B810BD00300140400400104A
:104FB000124810B5104901604FF482714160002120
:104FC0004FF4E062C0E902124FF400720161C0E9DF
:104FD00005121822C0E9072107224162C0E90A121E
:104FE000016308214163FEF7A0FE002803D0BDE85D
:104FF0001040FDF701B810BD00380040A4040010B7
:105000001CB5012003F014F9174900234FF48072F6
:10501000C86010310620CDE9000114A1164803F044
:105020006BFB174C15480C2120604FF4E1206060A9
:105030000020A060E060C4E90401A061E06120629A
:1050400060622046FFF72EFB08B1FCF7D5FF4FF456
:1050500000720C490A48FFF733FC2068016841F0F0
:10506000100101601CBD00001C000010526563654A
:105070006976655461736B009D7D000800380140BE
:1050800008070010080500100D4810B50B49016015
:105090004FF4E1314160002181600C22C160C0E920
:1050A00004128161C16101624162FFF7FBFA0028CD
:1050B00003D0BDE81040FCF79FBF10BD0044004086
:1050C0008C0700100D4810B50B4901604FF4E13119
:1050D0004160002181600C22C160C0E9041281613D
:1050E000C16101624162FFF7DDFA002803D0BDE82B
:1050F0001040FCF781BF10BD0048004010080010B0
:10510000FEE7FEE730B52849CA8A022A0AD0042AF7
:105110001DD0062A01D0072A18D140EA001000222B
:10512000C3B23CE00022C3B20DE0002006E000BFA5
:1051300002FB04040D68401C80B22B554C8A84424B
:10514000F6D8521C92B2888A9042EED830BD8301C4
:1051500043EA0013002243EA80030343DBB20CE07E
:10516000002005E002FB04040D68401C80B22B55B2
:105170004C8A8442F6D8521C92B2888A9042EFD868
:1051800030BD002006E000BF02FB04040D68401C97
:1051900080B22B554C8A8442F6D8521C92B2888A2F
:1051A0009042EED830BD0000F012001030B40D4631
:1051B000510700D0012101EBD20111FB02F1CCB269
:1051C000017840787F2801D2403800E041388139A9
:1051D000C9B2C1EB411303EB8111C0B200EB410036
:1051E00060430E4B0C2A0DD0102A0ED0182A0FD077
:1051F000302A10D1D3F8191022460144284630BC79
:1052000001F0E6B9D3F80110F6E7D3F80910F3E797
:10521000D3F81110F0E730BC7047000008130010FD
:1052200070B50D4C049E0025206021816281A6810D
:105230000220E0824E074FEAD10000D0401C60827D
:10524000A282E381258223B1B42B02D0A280E18027
:1052500070BDA180E28070BDF012001001490860AD
:1052600070470000F0120010F0B43C4CA388834259
:1052700034D3E3888B4231D32346E7891E895D8985
:10528000CFB15A2F1AD0B42F1CD0B7F5877F42D197
:105290000B46281A401E80B2218AD9B1012916D0A6
:1052A000022904D0032936D1F11A491E8BB2281ADB
:1052B000401E80B20EE003460846EDE7711A491E13
:1052C0008BB2E9E7301A401E83B2681AE2E7F11A9E
:1052D000491E8BB29E4201D3854203D2F0BC20A06E
:1052E00001F0AEBA1D49E58A4C8A0968022D14D036
:1052F000042D23D0062D01D0072D0CD1444304EBFF
:105300005300DB075B0FF025DD400C5C1201AC4362
:10531000DA4022430A54F0BC7047444304EBD305FF
:105320008024002A485D03F0070224FA02F402D028
:1053300004434C55EFE7A0434855ECE7444304EBE6
:10534000930094079B075D0F0A5CC023EB409A43D0
:10535000230EEB4013430B54DDE70000F012001066
:1053600044656275673A20457863656564696E6770
:1053700020646973706C617920626F756E6461720C
:105380006965730D0A0000002DE9F05F8846DDE9CC
:105390000ABA8146102B04D0182B04D0302B05D12B
:1053A00003E0344C02E0344C00E0344C344885884F
:1053B0004D4502D3C188414504D200F083B831A0E5
:1053C00001F03EBAA088302B4FEA40710CD001B1F9
:1053D000012101EBD000203A10FB02F0E1884843A4
:1053E00021680F18002640E001B1012101EBD00037
:1053F000303AF1E700252FE0387805F007028021E8
:10540000D1400840BBF1000F0CD0BAF1010F1DD004
:10541000A8B100BF08EB060081B209EB050080B21D
:1054200000220AE0BAF1010F0DD040B108EB0600EE
:1054300081B209EB050080B2FF22FFF715FFE843B8
:10544000400706D006E00028E4D0EFE70028EDD0C2
:10545000E0E77F1C6D1CADB2A088A842CCD82079B3
:10546000400700D07F1C761CB6B2E088B042C1D89D
:1054700000F02DB8CC000010D4000010DC000010AB
:10548000F012001044656275673A205061696E74CD
:105490005F447261774368617220496E7075742051
:1054A0006578636565647320746865206E6F726DDE
:1054B000616C20646973706C61792072616E6765DC
:1054C0000D0A000030BCBDE8C05FFFF778BF30BCFC
:1054D000BDE8C09F2DE9FF4F1D4693B013460C4613
:1054E000894615FB05F1C91DDDF884B0C1F3C70A73
:1054F0000C2D03D0102D01D0182D42D12A4669461B
:105500001846FFF753FE002639E000BF1DF806706D
:105510004FF00008209818B1BBF1010F0CD010E03B
:10552000BBF1010F04D1002221461398FFF79CFE26
:1055300038060DD5FF2207E0FF2221461398FFF71A
:1055400093FE380604D5002221461398FFF78CFEFF
:105550007806641C070EA4B2A4EB0900A84205D18A
:1055600013984C46401C80B2139006E008F10100ED
:1055700000F0FF08B8F1080FCCD3761CF6B2564500
:10558000C4D317B000F000B830BCBDE8C08F2DE91F
:10559000FC5F05461C4617460E461046DDF834B043
:1055A000FAF7E4FE6043397880B2A84600291FD09C
:1055B00008EB000A3019A0EB04093A78802A19D9BF
:1055C000AAEB0400A84202DA301986B24546B1457A
:1055D0000EDB0C99CDE9001B23463A46314628469E
:1055E000FFF778FF281917F8021F85B20029E4D1C8
:1055F00000F01EB8AAEB5400A84202DA301986B2B5
:105600004546B145F4DB0D2A0DD00C99CDE9001BC0
:10561000234631462846FFF7B7FE05EB540085B216
:1056200017F8011FE2E7301986B245467F1CF4E700
:105630003CBCBDE8C09F7047704700002DE9F041B9
:10564000444C05468846E0680026810728680DD04E
:10565000E16801F00301814216D1A8B1E0686968F0
:10566000C0F30210401C88420ED120E0012804D073
:10567000022805D0032807D108E02168890701E046
:1056800021684905002907DB01265FE021688903BD
:1056900002D421684903F5E7E1686A686FF00F03F7
:1056A00021F0730103EB021211430143E160206812
:1056B00020F080602060FDF711FB074605E000BF89
:1056C000FDF70CFBC01B022837D820680001F7D477
:1056D000B8F1000F18D0B8F1010F1DD0287D4FF0A0
:1056E0007E41400801EB4060A96840EA0120216941
:1056F000194A114008432061206840F08060206012
:10570000FDF7ECFA07461AE0A868297B000240EA98
:10571000C1602169114AECE7288A1149400801EB70
:105720004050A96840EA012021690E4AE1E700BF24
:10573000FDF7D4FAC01B022801D9032606E0206831
:105740000001F5D52069A969084320613046BDE80C
:10575000F081000000100240FF80FFF9FF80FF078A
:105760000000E0FFFF809FFFF8B51C4D06460024B7
:10577000A86DC00002D5FDF7BFFB0DE0A86D40F09D
:105780008050A865A86D00F080500090FDF7B4FB34
:10579000A96D21F08051A965B0F5007F04D0802E5D
:1057A00007D94FF003040AE0802E08D9A02E01D8B3
:1057B00004E001D1022402E0702E00D10124084847
:1057C000016821F0070121430160006800F0070033
:1057D000A04201D00120F8BD0020F8BD0010024019
:1057E000002002400B4D4FF0FF340120FDF768FB15
:1057F0002146286802F08AFE0128F6D1FCF756F906
:1058000005A001F01DF8FCF7F9FB0120FDF758FB9E
:10581000EBE70000180000105254435F416C6172C6
:105820006D415461736B2052756E0D0A00000000CB
:1058300010B50348FEF7B8F8BDE8104000F030BEE0
:105840001C040010010901EB810100F00F0000EBC6
:105850004100C0B270470022014602E00A39C9B2D5
:10586000521C0A29FAD2100741EA10607047000062
:105870002DE9F041044600680025C168490617D4A7
:10588000691EC160FDF72AFA06464FF47A780327AD
:1058900008E000BFFDF722FA801B404502D903252E
:1058A00084F821702068C068400601D4032DF1D12E
:1058B0002846BDE8F08100002DE9F0410646134876
:1058C0000025016821F080010160041F20684FF06D
:1058D0000307800607D43046FEF70CFA90B186F82D
:1058E000217003250EE0206820F020002060304663
:1058F000FEF700FA10B186F821700325206840F009
:10590000200020602846BDE8F08100000C280040FF
:105910002DE9F0478AB08246DDE91365A0F5FA600B
:105920008DF827008DF825108DF826208DF824504D
:10593000129F8DF810308DF81170002090468DF870
:10594000126089468DF8130002461C4604A90E48D1
:10595000FEF76AF910B10DA000F072FF002209A94C
:105960000948FEF711F910B10EA000F069FFCDE96A
:105970000047CDE9026543464A4651460FA000F074
:105980005FFF0AB0BDE8F0871C0400104572726F1B
:10599000722073657474696E672052544320746971
:1059A0006D650A004572726F722073657474696E5A
:1059B000672052544320646174650A0052544320A6
:1059C00074696D652073657420746F3A20253034D6
:1059D000642D253032642D25303264202530326428
:1059E0003A253032643A253032642C205765656B95
:1059F0006461793A2025640A0000000001B582B094
:105A000000208DF80400401E0090012301AA02A985
:105A10000448FEF74DFA08B1FF200EBD9DF80400C2
:105A20000EBD0000A4040010F8B515460E460B4646
:105A30000092044600224FF4C05100F019F888B9D2
:105A40003346002280212046009500F085F848B9B1
:105A5000334600224FF4C0612046009500F008F85C
:105A6000002804D0206E40F0200020660320F8BDFE
:105A70002DE9FE4F4FF0000A984617460E460446A1
:105A80000C9D8DF804A0FDF729F9411BA8EB010539
:105A9000FDF724F9814620684FF4C06B0C3002906A
:105AA0002A480068C0EBC00000EB8000000D68438E
:105AB000009043E05E4506D12FB9029800788DF83A
:105AC00004009DF80400B8F1FF3F37D0FDF706F958
:105AD000A0EB0900A84203D215B1009858B32BE0FF
