:020000040800F2
:10000000F80C0020A50100089F2A0008112500080F
:100010009D2A0008A90300081D3600080000000002
:10002000000000000000000000000000192F000880
:10003000AB03000800000000A12A00081B2F0008E5
:10004000BF010008BF010008BF010008BF01000890
:10005000BF010008BF010008BF010008BF01000880
:10006000BF010008BF010008BF010008BF01000870
:10007000BF010008BF010008BF010008BF01000860
:10008000BF010008BF010008BF010008BF01000850
:10009000BF010008BF010008BF010008BF01000840
:1000A000BF010008BF010008BF010008BF01000830
:1000B000BF0100080000000000000000BF010008B0
:1000C000BF010008BF010008BF010008BF01000810
:1000D000BF010008F9350008053600081136000890
:1000E000BF010008BF010008000000000000000080
:1000F0000000000000000000000000000000000000
:1001000000000000BF01000800000000BF0100085F
:100110000000000000000000BF010008BF0100084F
:10012000BF010008BF010008BF010008BF010008AF
:10013000BF010008000000000000000000000000F7
:10014000BF010008BF010008BF0100080000000057
:10015000BF010008BF010008BF010008BF0100087F
:10016000BF010008BF010008BF0100080000000037
:10017000BF010008BF0100080000000000000000EF
:10018000BF010008BF010008BF010008DFF810D060
:1001900000F080F800480047813B0008AFF3008082
:1001A000F80C00200648804706480047FEE7FEE7B7
:1001B000FEE7FEE7FEE7FEE7FEE7FEE7FEE7FEE717
:1001C000A92F00088D0100082DE9F05F05460020E9
:1001D00092469B4688460646814640241BE02846B8
:1001E00041464746224600F044F853465A46C01A54
:1001F000914110D311461846224600F02BF82D1AD3
:1002000067EB01084F4622460120002100F022F84A
:1002100017EB00094E41201EA4F10104DFDC484623
:1002200031462A46434600F000B830BCBDE8C09FC6
:10023000D2B201E000F8012B491EFBD27047002228
:10024000F6E710B513460A4604461946FFF7F0FFD5
:10025000204610BD202A04DB203A00FA02F10020DB
:1002600070479140C2F1200320FA03F319439040F4
:100270007047202A04DB203A21FA02F0002170475F
:1002800021FA02F3D040C2F12002914008431946FE
:1002900070470000064C074D06E0E06840F001039F
:1002A00094E8070098471034AC42F6D3FFF772FF8A
:1002B000803C0008A03C000810B586B014216846B8
:1002C000FFF7BDFF11200190012002900220039052
:1002D0004020234C00906946204600F0F7FB802028
:1002E00000906946204600F0F1FB012240212046A3
:1002F00000F0DCFC01228021204600F0D7FC02F057
:1003000055F9702002F092F930B3BA2002F08EF95C
:1003100010B302F06FF9142000F0C6FB142000F0B7
:10032000C3FB02F043F9702002F080F9A0B1BE20B7
:1003300002F07CF980B1082002F078F960B1002069
:1003400002F074F940B102F055F90A2000F0ACFB5C
:1003500000F008F806B010BD02F04CF90020F9E7F3
:100360000004004838B54FF47A7400BF02F01EF95B
:10037000712002F05BF960B10021684602F0CAF812
:1003800038B102F037F99DF80000000605D40120CD
:1003900038BD02F02FF9002038BD022000F084FBA8
:1003A0002046641EE2D238BDFEE770470749084A7E
:1003B0000968B1FBF2F141430520B1FBF0F10020E7
:1003C00001E000BF401C8842FBD370470C000020B6
:1003D00040420F0072B6FEE72DE9F84F00270446B1
:1003E000009790F85000DFF8B0930D46B84601280A
:1003F00011D0012684F85060206802F063F960B1E2
:10040000606D40F0200060655FF0010784F8508067
:10041000384600F0D7B90220FBE769680C200529AF
:1004200012D8022907D0032907D0042907D00529AB
:1004300007D0062107E0686006E0122103E01821DA
:1004400001E04FF480716960D5E90021236800EA7A
:1004500091101844036B01F01F014FF01F0C0CFAB0
:1004600001FCC2F3846223EA0C038A401343036352
:10047000206802F027F98246206802F01FF95AEA44
:1004800000001DD1AA682968206802F01FF92068C1
:100490006969C268C2F3C102520091402A69042A04
:1004A0000FD000EB82002B68026EDFF8F0C203F081
:1004B000F84302EA0C020B431A4342F00041016682
:1004C00072E0002102F0F4F8400320684FF00001D0
:1004D00072D002F0EDF890FAA0F0B0FA80F128683E
:1004E00042036ED090FAA0F0B0FA80F0814204D1BD
:1004F00000221146206802F0F8F80121206802F07D
:10050000D7F8400320684FF001015DD002F0D0F829
:1005100090FAA0F0B0FA80F12868420359D090FA1E
:10052000A0F0B0FA80F0814204D1002201212068BD
:1005300002F0DBF80221206802F0BAF840032068DC
:100540004FF0020148D002F0B3F890FAA0F0B0FAF0
:1005500080F12868420344D090FAA0F0B0FA80F00D
:10056000814204D100220221206802F0BEF803215A
:10057000206802F09DF8400320684FF0030133D05B
:1005800002F096F890FAA0F0B0FA80F128684203E1
:100590002FD090FAA0F0B0FA80F0814204D100226E
:1005A0000321206802F0A1F82068816811F0010F92
:1005B00022D0ACE000E004E002F07AF8C0F38461FD
:1005C0008DE7C0F3846091E702F072F8C0F38461B4
:1005D000A2E7C0F38460A6E702F06AF8C0F3846182
:1005E000B7E7C0F38460BBE702F062F8C0F3846150
:1005F000CCE7C0F38460D0E72A7B296850F8B03F8D
:10060000C1F3120C23EA0C0302F0180C644A22FA1C
:100610000CF20A4013430360E968494577D1286822
:1006200041031CD090FAA0F1B1FA81F1491C01F00C
:100630001F0109294FEA403132D8002912D000BFEA
:1006400090FAA0F1B1FA81F101F1010101F01F016D
:1006500006FA01F609D100BFC0F3846109E0C0F3D6
:100660008461E3E7C0F38461EEE790FAA0F1B1FAA8
:1006700081F101F1010101F01F0146EA816102D11E
:10068000C0F3846003E090FAA0F0B0FA80F000F1CB
:10069000010000F01F0000EB400041EA005132E091
:1006A00000290ED090FAA0F1B1FA81F101F1010117
:1006B00001F01F0106FA01F606D100BFC0F3846104
:1006C00006E0C0F38461F1E790FAA0F1B1FA81F19C
:1006D00001F1010101F01F0146EA816102D1C0F37D
:1006E000846003E090FAA0F0B0FA80F000F101001D
:1006F00000F01F002B4A00EB400002EB005041EAE3
:10070000000141F00071AA68206801F0DFFF26486F
:100710002A6802423FF47AAE24488168244D254B72
:1007200001F0E071AA421BD10D0219D422689A424D
:100730007FF46CAE826841F4000122F0E0720A435B
:1007400082601D481D490068B0FBF1F0401C00EBC1
:100750004000800000E0401E00900028FBD155E6DC
:10076000174DAA4207D1CD0105D422689A42F6D18D
:1007700041F080710AE06FF00045EA42EFD14A0291
:10078000EDD422689A42EAD141F48001826822F0D5
:10079000E0720A43826039E600007F4000F0FF0308
:1007A000FFFF0700000020FE000008800003045047
:1007B000000052C7000004500C000020400D030050
:1007C000000084CB18BCBDE8E08F0000F8B54FF006
:1007D000000504002E46009502D0606D10B107E0C0
:1007E0000120F8BD204600F0C9F8A66584F85060E5
:1007F00020688168C1F3407119B18168574A11407E
:10080000816020688168C1F3007189B98168544AA8
:10081000114041F080518160524853490068B0FB5B
:10082000F1F04000801C00E0401E00900028FBD149
:1008300020688168C1F3007141B9616D41F0100118
:100840006165A16D41F00101A165012501F03AFF4B
:10085000616DC90600D430B1606D40F01000606574
:1008600001252846F8BD606D20F4807040F002003C
:1008700060652068806810F0010F0BD13B488068EC
:1008800010F0010F06D13A486168826822F47C12A8
:100890000A438260E168606B627E0843A16841EAB6
:1008A0004231084394F8201040EA0140012904D164
:1008B000A18C304A02EB41410843A16A29B101F4FD
:1008C0007071E26A014342EA01002168CA682A4B5A
:1008D0001A400243CA60206801F0F4FE0646206810
:1008E00001F0ECFE304315D1207E94F830108003E7
:1008F00040EA41002168CA6844F202039A43024375
:10090000CA6094F8380001280CD02068016921F0F1
:1009100001010161206901282068016B21F00F01AC
:1009200011D013E0D4E90F010843D4E911121143A7
:10093000084321680A6940F2FC739A43104340F06F
:1009400001000861E6E7E269521E11430163606D30
:1009500020F0020040F00100606582E7C0FFFF5F09
:10096000C0FFFF7F0C000020400D0300000004507A
:10097000000304500000FEFF07C0F0FF10B59EB05A
:100980000446142117A8FFF75AFC5C216846FFF7BC
:1009900056FC1D492068884233D14FF480400090B6
:1009A00080031490032001900120029014200390F2
:1009B00007200490022005900690C0050790684625
:1009C00000F054FA08B1FFF705FD1048C16C41F47E
:1009D0000051C164C16C01F400511C91C16C41F023
:1009E0000101C164C06C17A900F001001C90102027
:1009F00017900B201890002019904FF0904000F0B5
:100A000065F81EB010BD0000000004500010024048
:100A100010B590F825100022022905D00421C163E9
:100A200080F82420012010BD01680B6823F00E031C
:100A30000B6001680B6823F001030B6090F8441011
:100A4000046C01F01C03012101FA03F3636080F8D8
:100A5000251080F82420104610BD10B590F8251000
:100A60000024022903D00421C16301241AE0016893
:100A70000A6822F00E020A6001680A6822F0010288
:100A80000A6090F84410036C01F01C02012101FA85
:100A900002F25A6080F82510002180F82410816B42
:100AA00001B18847204610BD70B5044600F004F936
:100AB0000546601C02D004480078044400F0FCF8AD
:100AC000401BA042FAD370BD000000202DE9F04F7A
:100AD000DFF8AC9100230325A9F1040B85B04FF09A
:100AE000010C0F2709F1040AABF1040EBFE000BFAF
:100AF0000CFA03F6324075D00C7904F00304012C93
:100B000001D0022C1BD1846800945C0005FA04F823
:100B10000494009C24EA08040094D1F80C80049CFE
:100B200008FA04F8009C48EA0408C0F80880446801
:100B3000B4430E79C6F300169E40264346600C79F6
:100B4000E443A4070AD0C4684FEA430805FA08F64C
:100B5000B4438E6806FA08F62643C6600C7904F0A2
:100B60000304022C10D1DC0800EB84040294246AF4
:100B70005E074FEAD66807FA08F6B4430E6906FA2C
:100B800008F62643029C266204684FEA430805FAE9
:100B900008F6B4430E7906F0030606FA08F6264373
:100BA00006604C6814F4403F60D0364C266E46F028
:100BB00001062666246E23F0030604F00104009467
:100BC000314C34440294A4689E074FEA167807FA21
:100BD00008F6B443B0F1904F05D02C4EB04204D18A
:100BE000012612E042E000260FE0294EB04201D17A
:100BF00002260AE0274EB04201D1032605E0264E28
:100C0000B04201D1042600E0072606FA08F6264382
:100C1000029CA660D9F800604C46D1F80480964347
:100C20005FEAC82800D516432660DAF80040564629
:100C3000D1F8048094435FEA882800D514433460D7
:100C4000DBF800405E46D1F8048094435FEA8838C0
:100C500000D514433460DEF800407646D1F80480B5
:100C600094435FEAC83800D5144334605B1C0A68BB
:100C700032FA03F47FF43CAF05B000F00FB8000087
:100C80000804014000100240000001400004004838
:100C900000080048000C00480010004830BCBDE8C7
:100CA000C08F0069084000D0012070470AB18161FF
:100CB00070478162704700000148806870470000FB
:100CC000000000200248816802781144816070476A
:100CD0000000002010B50024032000F071F80F2060
:100CE00000F008F808B1012401E000F025F82046E2
:100CF00010BD000070B50E4E05460024307898B146
:100D00004FF47A71B1FBF0F00A490968B1FBF0F0D9
:100D100001F00AF940B9102D06D200222946501ED2
:100D200000F02EF8756000E00124204670BD000040
:100D3000000000200C000020094808B5016E41F0B9
:100D400001010166016E01F001010091816D41F028
:100D500080518165806D00F08050009008BD0000DA
:100D600000100240002809DB00F01F020121914021
:100D70004009800000F1E020C0F800117047000039
:100D8000F0B40E4B1B680C46C3F30223C3F10705F6
:100D9000042D00D90425191D072901D2002300E0E4
:100DA000DB1E012606FA05F1491E214099409E40AE
:100DB000761E16403143F0BC02F088BC0CED00E01A
:100DC000064900F0070208684FF6FF03184040EAA2
:100DD0000220034A10430860704700000CED00E059
:100DE0000000FA051649B0F5007F0868C0F34120FD
:100DF00009D0022805D0086820F4C06040F4806063
:100E00000860002070470128FBD0086820F4C0600B
:100E100040F4007008600B483222006850430A4AD0
:100E2000B0FBF2F0401C00E0401E4A69520501D5BB
:100E30000028F9D148694005E3D503207047000038
:100E4000007000400C00002040420F000248006883
:100E500000F4C06070470000007000400248016864
:100E600041F4807101607047007000402DE9F84F37
:100E7000044600270088A84D3E46000515D5606C45
:100E800060B1B0F5000F04D0B0F5400F2BD00127B2
:100E90000AE0E86840F48030E86024E00021201D8A
:100EA00001F000FE07001ED03E46206880033AD5C0
:100EB000A86D4FF00008C00009D4A86D40F0805024
:100EC000A865A86D4FF0010800F080500090DFF891
:100ED0004CA2DAF8001041F48071CAF80010FFF754
:100EE000EBFE814610E0D5F88800616C20F44000EC
:100EF0000843C5F88800D8E7FFF7DEFEA0EB09003D
:100F0000022801D9032705E0DAF80000C005F3D56F
:100F1000002F7DD04FEA0706B8F1000F03D0A86D6F
:100F200020F08050A8652078C00707D0D5F8880049
:100F3000216A20F003000843C5F888002078800764
:100F400007D5D5F88800616A20F00C000843C5F881
:100F500088002078400707D5D5F88800A16A20F0DE
:100F600030000843C5F888002078800607D5D5F8FA
:100F70008800E16A20F440600843C5F888002088B2
:100F8000800507D5D5F88800E16B20F440200843A0
:100F9000C5F888002088400507D5D5F88800216C61
:100FA00020F440100843C5F888002078400607D593
:100FB000D5F88800216B20F440500843C5F888001C
:100FC0002078000607D5D5F88800616B20F44040F2
:100FD0000843C5F888002088C00507D5D5F88800E3
:100FE000A16B20F440300843C5F8880020684FF01A
:100FF000006700034FF0806850D5D5F88800A16CD9
:1010000020F040600843C5F88800A06CB84200E0BA
:1010100005E03BD1E86840F48010E8603EE0D5F898
:10102000900010F4407014D0A16D814211D0D5F819
:101030009000D5F8901020F4407041F48031C5F84C
:101040009010D5F8901021F48031C5F89010C5F8B3
:101050009000C00711D0FFF72FFE074641F28839F4
:1010600007E000BFFFF728FEC11B494501D9032651
:1010700052E7D5F890008007F4D5D5F89000A16D1F
:1010800020F440700843C5F8900045E7404505D17D
:101090000121201D01F006FD00B106462068400335
:1010A00017D5D5F88800E16C20F040600843C5F8FA
:1010B0008800E06CB84204D1E86840F48010E86031
:1010C00007E0404505D10121201D01F0EBFC00B1F6
:1010D00006462088400411D5D5F88800216D20F0FF
:1010E00040500843C5F88800206DB0F1805F05D1FD
:1010F0000221201D01F0D6FC00B106462088000424
:1011000006D555F8880F616D20F0804008432860AF
:10111000304600F005B800000010024000700040AA
:1011200018BCBDE8E08F00002DE9F0470F46050030
:101130006BD0494E306800F00700B84209D23068E1
:1011400020F0070038433060306800F00700B842F4
:101150005BD12878414C80070AD5A868A16801F0C6
:10116000F001884204D9A16821F0F0010143A16097
:101170002878C0072CD06868032811D0022812D024
:10118000216898B1490500293FDAA16821F00301DF
:101190000143A160FFF790FD804641F2883910E0DD
:1011A00021688901EFE721688903ECE78907EAE70D
:1011B000FFF782FDA0EB0801494502D90320BDE8F5
:1011C000F087A068696800F00C00B0EB810FEFD1E8
:1011D000287880070AD5A868A16801F0F001884244
:1011E00004D2A16821F0F0010143A160306800F051
:1011F0000700B8420BD9306820F007003843306050
:10120000306800F00700B84201D00120D7E7287805
:10121000400705D5A068E96820F4E0600843A060B5
:101220002878000706D5A068296920F4605040EAB4
:10123000C100A06000F03EF8A168094AC1F30311A3
:10124000515C01F01F01C84006490860064800686B
:10125000BDE8F047FFF74EBD0020024000100240FD
:10126000383C00080C000020040000200548064916
:1012700000688968054AC1F30221515C01F01F0131
:10128000C84070470C00002000100240783C000865
:101290000548064900688968054AC1F3C221515CC6
:1012A00001F01F01C84070470C00002000100240F0
:1012B000783C000870B52549002318468A68CC6838
:1012C00012F00C0204F00306214C4FEA640509D029
:1012D0000C2A05D0042A32D0082A00D1284670BD35
:1012E000012E10D10B681B0704D4D1F89430C3F33E
:1012F000032302E00B68C3F30313164E56F82330A2
:10130000DAB10C2AEBD1C86800F00300022818D02B
:10131000032818D01846CA68CB68C2F30212C3F378
:1013200006234343521CB3FBF2F2C868C0F341608A
:10133000401C4000B2FBF0F070BD184670BD204666
:1013400070BD2046E7E72846E5E7000000100240B0
:101350000024F400483C00082DE9F84304006FD055
:10136000FA4DA86800F00C06E86800F00307207842
:10137000C00664D576B10C2E01D1012F0AD0A06928
:10138000002828687AD040F001002860FFF794FC1C
:1013900080465DE02868800702D5A0690028DED07D
:1013A000216A2868000703D5286800F0F00004E0EF
:1013B000D5F89400F02202EA1010814216D90846AE
:1013C00001F006FC00283BD1286840F008002860A6
:1013D0002868216A20F0F000084328606868E16905
:1013E00020F47F4040EA0120686016E0286840F061
:1013F000080028602868216A20F0F000084328606F
:101400006868E16920F47F4040EA0120686026B9FD
:10141000206A01F0DDFB0028D5D1FFF74BFFA9685A
:10142000CB4AC1F30311515C01F01F01C840C94907
:101430000860C9480068FFF75DFC00287ED12EE0F7
:10144000CAE000BFFFF738FCA0EB0800022876D8FE
:1014500028688007F6D5286840F0080028602868CA
:10146000216A20F0F000084328606868E16920F4F0
:101470007F4040EA0120686011E0FFE720F00100B2
:101480002860FFF719FC804606E000BFFFF714FC58
:10149000A0EB08000228DAD828688007F6D4207864
:1014A000C00740D0082E18D00C2E01D1032F14D025
:1014B0006068B0F5803F17D0B0F5A02F286817D02E
:1014C00020F480302860286820F48020286060683C
:1014D000E0B1FFF7F1FB804614E02868800322D5D5
:1014E0006068002878D01EE0286840F48030EDE77E
:1014F00040F480202860F7E7FFF7DEFBA0EB080050
:101500006428A4D828688003F6D50CE0FFF7D4FB44
:10151000804605E0FFF7D0FBA0EB0800642896D8D2
:1015200028688003F6D4207880073BD5042E11D09C
:101530000C2E01D1022F0DD0E06801E0AAE1FFE0FE
:10154000002828681ED040F480702860FFF7B4FBA4
:1015500007460CE0286840050CD5E0680028C1D09B
:1015600008E000BFFFF7A8FBC01B022893D828683B
:101570004005F7D56868217C20F0F85040EA01600A
:1015800068600FE020F480702860FFF795FB074645
:1015900005E000BFFFF790FBC01B0228B1D8286808
:1015A0004005F7D42078000729D560690028D5F8D0
:1015B000940012D040F00100C5F89400FFF77CFBC6
:1015C000074604E0FFF778FBC01B022899D8D5F83E
:1015D00094008007F6D512E02BE120F00100C5F859
:1015E0009400FFF769FB074605E000BFFFF764FBC7
:1015F000C01B022885D8D5F894008007F6D420783F
:10160000400766D5A86D0027C00008D4A86D40F03B
:101610008050A865A86D012700F0805000904F48C9
:101620000168C90512D40168814641F480710160E6
:10163000FFF742FB804605E0FFF73EFBA0EB08000A
:1016400002287DD8D9F80000C005F5D5A06801288A
:1016500016D00528D5F8900017D020F00100C5F865
:101660009000D5F8900020F0040000BFC5F890006D
:10167000A06841F28839C0B1FFF71EFB80460FE039
:10168000D5F8900040F00100F0E740F00400C5F804
:101690009000F5E7FFF710FBA0EB080149454FD894
:1016A000D5F890008007F5D50EE0FFF705FB8046E2
:1016B00006E000BFFFF700FBA0EB080149453FD85B
:1016C000D5F890008007F5D41FB1A86D20F08050A8
:1016D000A8652078800628D5606A0028D5F898008B
:1016E00012D040F00100C5F89800FFF7E5FA074670
:1016F00005E000BFFFF7E0FAC01B022820D8D5F8AC
:1017000098008007F6D510E020F00100C5F8980099
:10171000FFF7D2FA074604E0FFF7CEFAC01B022813
:101720000ED8D5F898008007F6D4A06AF0B3022846
:1017300016D00C2E7DD0286820F08070286000E044
:10174000A7E0FFF7B9FA0446A6E000000010024047
:10175000383C00080C00002004000020007000400D
:10176000E868E26A00F00301914228D1216B00F0A1
:10177000700209011039914221D1626B00F4FE41DF
:10178000B1EB022F1BD194F8382000F07841B1EB77
:10179000C26F14D1A18F00F4C00249084905A1F518
:1017A000001191420BD194F8401000E06AE0490822
:1017B000490600F0C060A1F1007181424BD00C2EAF
:1017C00073D02868400170D4286820F080702860A9
:1017D000FFF772FA064604E0FFF76EFA801B022854
:1017E00057D828688001F7D4F4E90B016FF00F0295
:1017F00002EB01110843218A5204490802EB4151CE
:10180000A26841EA02210843217D4FF07E42490847
:1018100002EB41610843217B40EAC160E968244A48
:1018200011400843E860286840F080702860E8684C
:1018300000E03AE040F08070E860FFF73DFA0446CF
:1018400005E000BFFFF738FA001B022821D82868FE
:101850008001F7D527E02868800124D4286840F06B
:1018600080702860E86840F08070E860FFF724FA34
:10187000044604E0FFF720FA001B022809D8286874
:101880008001F7D50FE000BFFFF716FA001B022812
:1018900002D90320BDE8F88328688001F4D4E86801
:1018A00004490840E8600020F4E70120F2E7000066
:1018B0008C809D01FCFFEEFE10B504004FF001008E
:1018C00044D094F8210028B9002084F82000204654
:1018D00000F040F8022084F821002168CA20486204
:1018E000216853204862204601F0BCF900282DD120
:1018F00020688168164A11408160216888686268A2
:10190000A369104322691A43104388602168E06884
:10191000086120680169228941EA0241016120468B
:1019200001F0C4F9002811D12168CA6C22F0030229
:10193000CA646269E16911432268D36C1943D164B6
:101940002268FF215162012184F8211010BD00009E
:10195000BFFF8FFF10B598B004465C216846FEF7C4
:101960006EFC0B492068884210D14FF40030009083
:10197000401216906846FFF779FA08B1FEF72AFD83
:10198000044850F8901F41F40041016018B010BDA8
:10199000002800400010024070B5044690F8200076
:1019A0000B4601281BD0012684F82060022084F811
:1019B0002100B2B19878D97840EA01455878197871
:1019C000000240EA413005432168CA20486221688C
:1019D00053204862204601F045F9D0B120E00220B2
:1019E00070BD5878C10603D500F0EF000A3058707A
:1019F000D87801F02BF90504587801F027F945EA69
:101A00000025987801F022F90543187845EA403519
:101A1000DAE70848054020684560204601F046F9AD
:101A20002268FF21516208B984F82160002184F8FE
:101A3000201070BD3FFFFF002DE9F041044690F8F3
:101A4000200090460D46012811D0012784F820700F
:101A5000022084F821002168CA20486221685320AE
:101A60004862204601F0FEF8002618B129E0022065
:101A7000BDE8F0812068B8F1000F80684FEA40604F
:101A800024D0002800DBEE70A8782978EA7840EAB4
:101A900001406978090241EA825108431849084027
:101AA000216808602068816821F480218160D5E97F
:101AB0000301084321688A6810438860204601F0CA
:101AC000F5F82268FF215162A0B115E0002800DB83
:101AD000EE70287801F0BAF80304687801F0B6F8DF
:101AE00043EA0023A87801F0B1F80343E87843EA19
:101AF0008050D3E784F8217084F82060B8E70000B4
:101B00007F7F7F0070B504460068C16821F0A001A6
:101B1000C160FFF7D1F805464FF47A7607E000BFC1
:101B2000FFF7CAF8401BB04201D9032070BD2068FE
:101B3000C0688006F4D5002070BD70B5040009D0DF
:101B4000606A002540B125616561A56294F85D0079
:101B500040B10CE0012070BD6068B0F5827FF4D028
:101B6000E561F2E784F85C50204600F057F8022067
:101B700084F85D002068016821F040010160E1689F
:101B80004FF4E062914201D9002001E04FF480500F
:101B9000B1F5706F02D0914200D0A562A188228970
:101BA00001F4827102F404421143227C02F0020229
:101BB0001143227D02F001021143228B02F40072D4
:101BC0001143227F02F03802114394F8202002F0E2
:101BD00080021143228D02F40052114322681160E9
:101BE000A169042202EA114194F8242000F48050F3
:101BF00002F01002114394F8342002F0080211435D
:101C0000A28902F470621143014320684160256695
:101C1000012084F85D00002070BD000070B586B022
:101C2000044614216846FEF70AFB214E2568002170
:101C30002048022203230524B54219D1056E45F43C
:101C400080550566056E05F480550595C56C45F013
:101C50000105C564C06C02AD00F00100059085E887
:101C60001A00A020CDE9000269464FF090401AE02A
:101C7000114EB54219D1856D45F480458565856D58
:101C800005F480450595C56C45F00205C564C06C3A
:101C900002AD00F00200059085E81A00B000CDE921
:101CA000000269460548FEF711FF06B070BD00004E
:101CB000003001400010024000380040000400489D
:101CC0002DE9F05F044690F85C0000270A9E1D464F
:101CD00092468B464FF0010901280ED0012084F86E
:101CE0005C00FEF7E9FF804694F85D00616801281A
:101CF0000CD0B1F5827F07D102E0022000F011B9CB
:101D0000A16809B9042801D0022700E1BBF1000F46
:101D100024D0BAF1000F21D005B394F85D00042857
:101D200002D0052084F85D0000202066C4F840A0A1
:101D3000A4F84650A4F84450C4F838B0E587A58705
:101D4000E0642065E0684FF4E061884201D8012D2D
:101D500006D92068426822F4805205E00127D6E0C7
:101D60002068426842F4805242602068026852064D
:101D700003D4026842F040020260E0688842606872
:101D800045D908B1012D3AD1A06B21680088C860FF
:101D9000A06B801CA063E08F401EE0872FE02068CE
:101DA000816889070FD5E18F69B1B9F1010F0AD1B7
:101DB000A16B0988C160A06B801CA063E08F401EEE
:101DC000E0874FF0000920688168C9070FD0B4F898
:101DD000461061B1C068216C0880206C801C2064B2
:101DE000B4F84600401EA4F846004FF00109FEF783
:101DF00063FFA0EB0800B04201D3701C75D1E08FE7
:101E00000028CCD1B4F846000028C8D176E008B14B
:101E1000012D6CD1E08F0128A06B08D921680088C2
:101E2000C860A06B801CA063E08F801E07E0216863
:101E300000780873A06B401CA063E08F401EE08711
:101E400055E02068816889071AD5E18FC1B1B9F1E1
:101E5000010F15D1E18F0129A16B07D90988C16054
:101E6000A06B801CA063E08F801E06E009780173E0
:101E7000A06B401CA063E08F401EE0874FF000097C
:101E800020688168C90728D0B4F8461029B3B4F88F
:101E90004610012914D9C068216C0880206C801C70
:101EA0002064B4F84600801EA4F84600B4F846004A
:101EB000012810D82068416841F4805141600AE04F
:101EC000007B216C0870206C401C2064B4F8460034
:101ED000401EA4F846004FF00109FEF7EDFEA0EB0E
:101EE0000800B04202D3701C01D018E0BEB1E08FF0
:101EF0000028A6D1B4F846000028A2D142463146B7
:101F0000204600F015FF10B1012720202066012097
:101F100084F85D00002084F85C003846EEE6032774
:101F2000F5E730BCBDE8C09F10B5401EB0F1807F22
:101F300001D3012010BD4FF0E02460610F21601734
:101F400001F0C4FB0020A06107202061002010BD2B
:101F500070477047704700002DE9F0410268044661
:101F6000D0691168936840F60F0528424FF00005CC
:101F700005D186067ED58E067CD5616E1BE1994F14
:101F800003F001060F40374374D0C70709D0CF05CF
:101F900007D501271762D4F8802042F00102C4F867
:101FA000802082070AD5DA0708D0276802223A6221
:101FB000D4F8802042F00402C4F8802042070AD5F9
:101FC000DA0708D0236804221A62D4F8802042F08D
:101FD0000202C4F8802002070CD501F0200232432F
:101FE00008D0236808221A62D4F8802042F0080240
:101FF000C4F8802002050BD54A0109D523684FF4A7
:1020000000621A62D4F8802042F02002C4F88020D6
:10201000D4F88020002A35D0800605D5880603D55F
:10202000616E09B120468847D4F88000216889682C
:10203000490602D410F0280F26D0204601F058F8A7
:102040002068806840061AD52068083050E8001FD4
:1020500021F0400140E80012002AF5D1206F70B154
:1020600061498163206FFEF7F8FC00280AD0206FD9
:10207000816B01E00EE02046BDE8F04108472046B4
:10208000FFF768FFBDE8F0812046FFF763FFC4F863
:102090008050F7E7276E2026012F7BD1C70679D520
:1020A000CF0677D51020106220688068400641D5A1
:1020B000216F086840680004000CE3D0B4F8582091
:1020C0008242DFD9A4F85A000868006880062AD442
:1020D000206850E8001F21F4807140E80012002AB7
:1020E000F6D12068083050E8001F21F0010140E8D7
:1020F0000012002AF5D12068083050E8001F21F0B6
:10210000400140E80012002AF5D1E6672566216803
:1021100051E8000F20F0100041E80002002AF6D13B
:10212000206FFEF775FCB4F85800B4F85A10401A46
:1021300081B22AE0B4F85800B4F85A10401A81B2BB
:10214000B4F85A0000289DD000299BD0226852E89C
:10215000000F20F4907042E80003002BF6D12068B5
:10216000083050E8002F22F0010240E80023002B45
:10217000F5D1E66725666566226852E8000F20F013
:10218000100042E80003002BF6D12046FFF7E0FEE6
:1021900078E7FFE7C70209D55B0207D54FF4801047
:1021A00010622046BDE8F041FFF7D3BE020606D517
:1021B0000A0604D5A16E00297FF45DAF62E74006F0
:1021C000E6D54806E4D52046026852E8001F21F013
:1021D000400142E80013002BF6D18667856600F0C7
:1021E00096F94FE720010004DD30000810B5040027
:1021F00002D0A06F10B107E0012010BD002084F8CC
:102200007400204600F026F82420A06720680168AA
:1022100021F001010160204601F02EF80128ECD0E8
:10222000606A10B1204600F0C7FE2068416821F4C2
:10223000904141602068816821F02A018160206816
:10224000016841F0010101602046BDE8104000F046
:1022500017BF00002DE9F0439DB00446142117A8D4
:10226000FDF7EDFF5C216846FDF7E9FF4A4920686C
:102270004A4C0326072700254FF090494FF00208EB
:1022800088422AD10120009008956846FEF7EEFDAD
:1022900008B1FEF79FF8206E40F480402066206E63
:1022A00000F480401C90E06C40F00100E064E06CC1
:1022B00019AA00F001001C904FF4C060CDE9170886
:1022C00082E8E00017A94846FEF700FC002203213F
:1022D0002520FEF755FD25202BE0314988422DD1E0
:1022E0006846CDF800800995FEF7C0FD08B1FEF7FD
:1022F00071F8A06D40F40030A065A06D00F40030CE
:102300001C90E06C40F00100E064E06C19AA00F061
:1023100001001C900C20CDE9170882E8E00017A905
:102320004846FEF7D3FB002204212620FEF728FDB5
:102330002620FEF717FD1DB0BDE8F083194988423D
:10234000F9D104200A9500906846FEF78FFD08B188
:10235000FEF740F8A06D40F48020A065A06D00F469
:1023600080201C90E06C40F00200E064E06C19AA50
:1023700000F002001C904FF44060CDE9170882E89D
:10238000E00017A90848FEF7A1FB0022052127203D
:10239000FEF7F6FC2720CCE7003801400010024091
:1023A00000440040004800400004004830B4C36FBF
:1023B000202B20D1E1B1DAB190F87430012B1AD082
:1023C000012380F87430002303660C4C0368A34299
:1023D0000BD05B681B0208D5046854E8003F43F04B
:1023E000806344E80035002DF6D130BC01F044B8DC
:1023F000012030BC70470220FBE700000080004055
:1024000010B5006810494FF0FF3388420AD10F49D8
:10241000012201F5217000F01FF80C49012201F59D
:1024200000700CE00A4988420DD10A49012201F5E9
:10243000807000F011F80749012201F5C270BDE873
:102440001040FFF7B3BF10BD003801406801002005
:1024500000440040680200202DE9F8430446806FE4
:102460001F4616460D4620284FD1CDB1C6B194F86F
:102470007400012849D0012084F874004FF000084E
:10248000C4F880802120A067FEF716FCA4F85060F5
:102490008146A4F85260A068B0F5805F03D004E0E4
:1024A0000120BDE8F883206928B12E465FF00005C1
:1024B00084F8748010E00026FAE78021204601F0BD
:1024C00037F8B8B9C6B116F8010B21680885B4F819
:1024D0005200401EA4F85200B4F852004B464FF090
:1024E000000200970028E8D14FF04001204601F09B
:1024F0001FF830B10320D4E735F8020BC0F3080011
:10250000E3E72020A0670020CBE70220C9E770475F
:10251000FEE700002DE9F041234E0F4680460024DF
:10252000012280213046FEF7C1FB00256006040E23
:10253000012240213046FEF7B9FB6420FDF736FF4B
:1025400080213046FEF7ADFB08B144F001040022C3
:1025500040213046FEF7AAFB6420FDF727FF6D1CE3
:10256000EDB2082DE2D387F0010280213046FEF75C
:102570009DFB012240213046FEF798FB6420FDF7C9
:1025800015FF002240213046FEF790FB6420FDF746
:102590000DFF012280213046FEF788FB88F80040BD
:1025A0000120BDE8F08100000004004810B5104C87
:1025B000012280212046FEF779FB0122402120469E
:1025C000FEF774FB6420FDF7F1FE00228021204617
:1025D000FEF76CFB6420FDF7E9FE00224021204657
:1025E000FEF764FBBDE810406420FDF7DFBE00008D
:1025F0000004004810B50C4C002280212046FEF754
:1026000055FB012240212046FEF750FB6420FDF7D8
:10261000CDFE012280212046FEF748FBBDE8104098
:102620006420FDF7C3BE00000004004870B51F4ED3
:1026300005460024EA0980213046FEF737FB68068C
:10264000050E012240213046FEF730FB6420FDF7E5
:10265000ADFE002240213046FEF728FB6420FDF746
:10266000A5FE641CE4B2082CE4D301228021344688
:102670003046FEF71BFB012240212046FEF716FBE9
:102680006420FDF793FE80212046FEF70AFB50B13F
:102690000025002240212046FEF708FB6420FDF7BC
:1026A00085FE284670BD0125F3E7000000040048C0
:1026B00000EB8100006E00F0F84070478068C0F3C6
:1026C000C00070478068C0F380007047042303EAAD
:1026D000D15310B518444369C1F3045107248C4009
:1026E000A3438A401343436110BD00EB8100016E98
:1026F00021F00041114301667047000030B587B0FA
:1027000018216846FDF79BFD184817490024C0E9C9
:10271000001484600425C460C0E90445047644764E
:102720000121C16180F820408462C46280F8304099
:10273000446380F83840FEF749F808B1FDF74AFED7
:102740000B48009006200190022002907F20059403
:10275000CDE9030569460548FDF73EFE002801D096
:10276000FDF738FE07B030BD00000450180000200F
:102770000002B0252DE9F04186B014216846FDF72E
:102780005EFD4448C16C41F00401C164C16C01F0BC
:1027900004010591C16C41F08001C164C16C01F07C
:1027A00080010591C16C41F00101C164C16C01F06F
:1027B00001010591C16C41F00201C164C06C4FF090
:1027C000904700F00200059000224FF481713846D6
:1027D000FEF76CFADFF8C080002241F26731404614
:1027E000FEF764FA012208214046FEF75FFA002452
:1027F0000225CDE90054694628480294FEF766F99F
:102800000126CDE90056CDE9026569463846FEF756
:102810005DF940208DE8310069463846FEF756F9EB
:1028200041F24700CDE9000669464046CDE9024540
:10283000FEF74CF9E801CDE9000669463846CDE9D6
:102840000245FEF743F94FF418408DE85100694600
:102850003846FEF73BF928200090CDE9016469462F
:1028600040460394FEF732F99020CDE90004694612
:1028700040460294FEF72AF94FF440700090112070
:102880000395CDE9010669464046FEF71FF906B0FB
:10289000BDE8F0810010024000040048001C004820
:1028A00010B586B014216846FDF7C9FC1F48002406
:1028B0001D490594C0E900147F218160FF21C0E912
:1028C000031444618461C461FEF7F6FF08B1FDF7AB
:1028D00081FD11208DF800002D208DF801001720BA
:1028E0008DF8020003940022694610480494FFF713
:1028F000A3F808B1FDF76EFD06208DF81400022044
:102900008DF815000F208DF8160019208DF817008E
:10291000002205A90548FFF73FF8002801D0FDF780
:1029200059FD06B010BD0000002800407C000020CA
:10293000124810B5104901604FF4827141600021C6
:102940004FF4E062C0E902124FF400720161C0E985
:1029500005122822C0E9072107224162C0E90A12B4
:10296000016308214163FFF7E8F8002803D0BDE8C0
:102970001040FDF72FBD10BD00300140A000002029
:10298000124810B5104901604FF482714160002176
:102990004FF4E062C0E902124FF400720161C0E935
:1029A00005122822C0E9072107224162C0E90A1264
:1029B000016308214163FFF7C0F8002803D0BDE898
:1029C0001040FDF707BD10BD003800400401002095
:1029D0000F4810B50D4901604FF4E131416000210D
:1029E00081600C22C160C0E904128161C161016291
:1029F0004162FFF7FBFB08B1FDF7ECFCBDE81040BE
:102A00004FF4807203490248FFF7D0BC0038014000
:102A100068030020680100200F4810B50D490160CF
:102A20004FF4E1314160002181600C22C160C0E9B6
:102A300004128161C16101624162FFF7D7FB08B1F5
:102A4000FDF7C8FCBDE810404FF48072034902480E
:102A5000FFF7ACBC00440040EC03002068020020FB
:102A60000D4810B50B4901604FF4E1314160002180
:102A700081600C22C160C0E904128161C161016200
:102A80004162FFF7B3FB002803D0BDE81040FDF71B
:102A9000A1BC10BD0048004070040020FEE7FEE726
:102AA000704700002DE9F041444C05468846E06837
:102AB0000026810728680DD0E16801F003018142FA
:102AC00016D1A8B1E0686968C0F30210401C8842C2
:102AD0000ED120E0012804D0022805D0032807D118
:102AE00008E02168890701E021684905002907DB22
:102AF00001265FE02168890302D421684903F5E7D4
:102B0000E1686A686FF00F0321F0730103EB0212B2
:102B100011430143E160206820F080602060FEF7EF
:102B2000CBF8074605E000BFFEF7C6F8C01B022839
:102B300037D820680001F7D4B8F1000F18D0B8F1E9
:102B4000010F1DD0287D4FF07E41400801EB406011
:102B5000A96840EA01202169194A1140084320610F
:102B6000206840F080602060FEF7A6F807461AE073
:102B7000A868297B000240EAC1602169114AECE79C
:102B8000288A1149400801EB4050A96840EA012019
:102B900021690E4AE1E700BFFEF78EF8C01B02284C
:102BA00001D9032606E020680001F5D52069A9694E
:102BB000084320613046BDE8F0810000001002406B
:102BC000FF80FFF9FF80FF070000E0FFFF809FFF0D
:102BD000F8B51C4D06460024A86DC00002D5FEF7CE
:102BE00035F90DE0A86D40F08050A865A86D00F0A3
:102BF00080500090FEF72AF9A96D21F08051A96557
:102C0000B0F5007F04D0802E07D94FF003040AE00E
:102C1000802E08D9A02E01D804E001D1022402E0C0
:102C2000702E00D101240848016821F007012143DA
:102C30000160006800F00700A04201D00120F8BD4B
:102C40000020F8BD00100240002002400022014692
:102C500002E00A39C9B2521C0A29FAD2100741EA25
:102C6000106070472DE9F041044600680025C168F6
:102C7000490617D4691EC160FEF71EF806464FF4D8
:102C80007A78032708E000BFFEF716F8801B40455E
:102C900002D9032584F821702068C068400601D459
:102CA000032DF1D12846BDE8F08100002DE9F04167
:102CB000064613480025016821F080010160041FC9
:102CC00020684FF00307800607D43046FEF71AFF4E
:102CD00090B186F8217003250EE0206820F02000D6
:102CE00020603046FEF70EFF10B186F821700325F4
:102CF000206840F0200020602846BDE8F0810000F8
:102D00000C28004001B582B000208DF80400401E60
:102D10000090012301AA02A90448FEF7D1FF08B1DF
:102D2000FF200EBD9DF804000EBD00000401002030
:102D3000F8B515460E460B460092044600224FF4A5
:102D4000C05100F019F888B933460022802120468E
:102D5000009500F085F848B9334600224FF4C06171
:102D60002046009500F008F8002804D0206E40F0BE
:102D7000200020660320F8BD2DE9FE4F4FF0000A29
:102D8000984617460E4604460C9D8DF804A0FDF7A4
:102D900093FF411BA8EB0105FDF78EFF81462068DC
:102DA0004FF4C06B0C3002902A480068C0EBC000A2
:102DB00000EB8000000D6843009043E05E4506D1C3
:102DC0002FB9029800788DF804009DF80400B8F13E
:102DD000FF3F37D0FDF770FFA0EB0900A84203D2F8
:102DE00015B1009858B32BE02068416821F0E0014C
:102DF00041606068B0F5827F0BD1A068B0F5004FEC
:102E000002D0B0F5806F04D12068016821F0400144
:102E10000160A06AB0F5005F09D12068016821F463
:102E2000005101602068016841F4005101600120F7
:102E300084F85D0084F85CA0032000F00DB8002544
:102E4000401E0090206880683040B842B6D1002013
:102E5000F3E700000C0000201EBCBDE8E08F00007E
:102E60002DE9F8431E46914688460446089DFDF725
:102E700023FF401B351AFDF71FFF07462548006852
:102E8000C0F3CB30684338E0701C37D0FDF714FF37
:102E9000C01BA84203D215B1009860B32CE0206893
:102EA000416821F0E00141606068B0F5827F0BD19C
:102EB000A068B0F5004F02D0B0F5806F04D1206853
:102EC000016821F040010160A06AB0F5005F09D1FE
:102ED0002068016821F4005101602068016841F414
:102EE00000510160012084F85D00002084F85C003E
:102EF0000320BDE8F8830025401E0090206881680B
:102F000038EA010004D000214945BDD10020F0E796
:102F10000121F9E70C0000207047FDF7D3BE000047
:102F200010B596B044216846FDF789F9142111A81F
:102F3000FDF785F94FF40070FDF754FF08B172B644
:102F4000FEE7FDF78BFF174850F8901F21F018019E
:102F500001600520009000040121CDE9010102205B
:102F600003240A90CDE90B4114210D910721CDE9ED
:102F70000E1010906846FEF7EFF908B172B6FEE742
:102F80000F20CDE911040020139014901590042116
:102F900011A8FEF7C9F8002801D072B6FEE716B0F6
:102FA00010BD0000001002400248016841F47001A9
:102FB0000160704788ED00E090F82410C90706D042
:102FC00001684A68836A22F400321A434A6090F822
:102FD0002410890706D501684A68C36A22F4803242
:102FE0001A434A6090F82410490706D501684A68D8
:102FF000036B22F480221A434A6090F824100907D8
:1030000006D501684A68436B22F400421A434A60BD
:1030100090F82410C90606D501688A68836B22F4EB
:1030200080521A438A6090F82410890606D50168F8
:103030008A68C36B22F400521A438A6090F8241005
:10304000490611D501684A68036C22F480121A43BC
:103050004A60016CB1F5801F06D101684A68436C73
:1030600022F4C0021A434A6090F82410090606D5DB
:1030700001684A68806C22F4002202434A6070476B
:10308000F8B500260446C0F88060FDF715FE054639
:10309000206800686FF07E47000708D52B460022A5
:1030A0004FF400112046009700F042FA60B9206802
:1030B000006840070AD52B4600224FF480012046C5
:1030C000009700F035FA08B10320F8BD2020A06772
:1030D000E067266684F874600020F8BD10B5806A49
:1030E0000021A0F85A10A0F85210FEF733FF10BDCF
:1030F000016851E8002F22F4907241E80023002B70
:10310000F6D10168083151E8002F22F0010241E8B0
:103110000023002BF5D1016E012908D1026852E885
:10312000001F21F0100142E80013002BF6D12021EE
:10313000C167002101664166704710B5B0F85C2098
:10314000C36F0168222B04D0088B40F0080008836D
:1031500010BD898C436D11401980416D891C4165FA
:10316000B0F85A10491EA0F85A10B0F85A100029A9
:10317000EED1026852E8001F21F4907142E800137A
:10318000002BF6D10168083151E8002F22F001022E
:1031900041E80023002BF5D12021C16700214166C1
:1031A000026E012A02D0FFF72BF910BD01660268FA
:1031B00052E8001F21F0100142E80013002BF6D165
:1031C0000168CA69D243D20601D410220A62B0F85B
:1031D0005810FEF7BDFE10BD10B5B0F85C20C36FEF
:1031E0000168222B04D0088B40F00800088310BD32
:1031F000898C1140426D1170416D491C4165B0F8D8
:103200005A10491EA0F85A10B0F85A100029EED1F1
:10321000026852E8001F21F4907142E80013002B6D
:10322000F6D10168083151E8002F22F0010241E88F
:103230000023002BF5D12021C16700214166026ED9
:10324000012A02D0FFF7DCF810BD0166026852E8DF
:10325000001F21F0100142E80013002BF6D1016895
:10326000CA69D243D20601D410220A62B0F85810BB
:10327000FEF76EFE10BD00002DE9F0410446016826
:1032800080682269E3691043626900251A4310438C
:10329000714F0A68714B1A4002430A602068416806
:1032A000E26821F44051114341602168A069B942AC
:1032B00001D0226A10438A6822F4306202438A6095
:1032C0006749236867488B420DD1D0F8880010F019
:1032D000030006D0012847D0022843D0032830D16C
:1032E00044E001212EE060498B420BD1D0F88800E8
:1032F00010F00C0034D0042836D0082832D00C2826
:103300001FD133E059498B420BD1D0F8880010F01F
:10331000300025D0102827D0202823D0302810D1E5
:1033200024E0BB420DD1D0F8880010F4406017D0E3
:10333000B0F5806F18D0B0F5006F13D0B0F5406FC6
:1033400014D010214A4A00264FF40040BB422FD12E
:1033500071B102290FD004290FD0082973D10FE0D1
:103360000021EFE70221EDE70421EBE70821E9E77F
:10337000FDF77CFF03E0104602E0FDF79BFFE8B39A
:10338000626802EB420181425DD8B0EB023F5AD83D
:10339000010E03025008181871410023FCF714FFB6
:1033A000344AA0F5407191424DD82168C8604BE085
:1033B000E3694FF6EF77834228D1092943D2DFE84A
:1033C00001F005080B420D4242421000FDF74EFF8E
:1033D00006E0FDF75DFF03E0104602E0FDF76AFF3F
:1033E00060B14100606801EB5001B1FBF0F0A0F169
:1033F0001001B94227D84FF6F07100E024E00140F7
:10340000C0F3420001432068C1601DE009291AD2BF
:10341000DFE801F005080B190D1919191000FDF767
:1034200025FF06E0FDF734FF03E0104602E0FDF75C
:1034300041FF48B1616800EB5100B0FBF1F0A0F131
:103440001001B94205D9012566662846A666BDE881
:10345000F08180B2A9E7000000800040F369FFEF2F
:103460000038014000100240004400400048004085
:103470000024F400FFFC0F0030B54165A0F858208F
:10348000A0F85A200022426681684FF48055FF233D
:10349000A94204D1016971BB40F2FF1131E07F24E0
:1034A00039B3B1F1805F29D0A0F85C20C0F880204A
:1034B0002221C1670168083151E8003F43F0010350
:1034C00041E80034002CF5D18168A94201D101699D
:1034D000E9B11549416680F874200169C9B10268F3
:1034E00052E8001F41F4907142E80013002BF6D11E
:1034F00018E0016941B9A0F85C30D7E7016919B15A
:103500003F21A0F85C10D1E7A0F85C40CEE7074966
:10351000E0E7026852E8001F41F0200142E8001392
:10352000002BF6D1002030BDD93100083B31000816
:103530002DE9F0479A4617460E4604464FF000091B
:103540004FF02008089D4AE0681C48D0FDF7B4FB06
:10355000A0EB0A00A8422AD84DB3206801684907A9
:103560003DD5C069C043000539D421684FF40060DF
:103570000862206850E8001F21F4D07140E8001272
:10358000002AF6D12068083050E8001F21F0010120
:1035900040E80012002AF5D1C4F87880C4F87C8095
:1035A000C4F8808084F874900320BDE8F087216817
:1035B00051E8000F20F4D07041E80002002AF6D153
:1035C0002068083050E8001F21F0010140E8001297
:1035D000002AF5D1C4F87880C4F87C80E2E720683E
:1035E000C06936EA000004D00020B842ACD0002008
:1035F000DBE70120F9E700000148FEF7ADBC000061
:10360000680300200148FEF7A7BC0000EC0300207F
:103610000148FEF7A1BC000070040020FEE7000096
:1036200010B5012211024FF09040FDF73FFB00F072
:1036300015F8044908800146BDE8104002A000F0DA
:1036400035B8000010000020464C4153485F494403
:103650003A20305825580D0A0000000070B50024AB
:103660004FF480754FF09046224629463046FDF7CC
:103670001DFB9020FFF746FB0020FFF743FB0020D7
:10368000FFF740FB0020FFF73DFBFF20FFF73AFB71
:1036900044EA0024FF20FFF735FB044301222946BA
:1036A0003046FDF703FB204670BD00000FB4054B0C
:1036B00010B503A9044A029800F028F810BC5DF880
:1036C00014FB0000693B0008140000200907090EE4
:1036D000002804DB00F1E02080F80014704700F0BF
:1036E0000F0000F1E02080F8141D704702E008C8C8
:1036F000121F08C1002AFAD170477047002001E06C
:1037000001C1121F002AFBD1704700002DE9FF4FB5
:103710008DB00F460546002606E025280BD0DDE9D2
:103720000F1290476D1C761C28780028F5D111B037
:10373000304600F0EDB90024A246A1460122E94935
:1037400000E0044315F8013F203B02FA03F0084271
:10375000F7D128782A2810D06FF02F022878A0F10E
:103760003001092914D80AEB8A0102EB410144F027
:10377000020400EB010A6D1CF0E701CF5FEA000ACA
:1037800003D544F40054CAF1000A44F002046D1C4D
:1037900028782E2817D115F8010F44F004042A28A0
:1037A0000ED06FF02F022878A0F1300109290AD835
:1037B00009EB890102EB410100EB01096D1CF2E705
:1037C00057F8049B6D1C28786C280FD006DC4C2819
:1037D00017D068280DD06A2814D104E0742810D0BE
:1037E0007A280FD10DE044F400140AE044F4801468
:1037F00001E044F440146978814202D104F5801458
:103800006D1C6D1C28786E281ED00CDC632830D00F
:1038100004DC00288BD0582811D19FE0642867D0A1
:1038200069280CD164E073282DD004DC6F2872D095
:10383000702804D194E075286ED078286DD0DDE929
:103840000F129047761C4BE1C4F30250022806D0B9
:10385000032809D0042801CF09D0066040E101CF38
:10386000F117C0E900613BE101CF068038E1067045
:1038700036E117F8040B8DF8000000208DF80100E8
:10388000EB46012003E057F804BB4FF0FF3061071F
:103890004FF0000102D40DE008F1010188464945CE
:1038A0000FDA8045F8DB1BF808100029F4D108E096
:1038B00008F1010188468142FADB1BF80810002953
:1038C000F6D1DDE90F23AAEB08008146214600F07E
:1038D00034F9304400EB080604E0DDE90F121BF870
:1038E000010B9047B8F10108F7D221464846F2E0B3
:1038F0000A21C4F302524FF0000B0891022A04D0AF
:1039000001CFC117032A09D00AE0FF1D27F00707DE
:10391000F7E8020108E02CE01EE01FE000B2C1174A
:10392000042A01D140B2C117021E71F1000206DA69
:103930000023D0EB030063EB01012D2202E02205FE
:1039400004D52B228DF82420012203E0E20701D0C8
:103950002022F7E7904653E00A210BE0102109E00E
:1039600010214FF0000B44F004044FF008090891B7
:1039700003E008214FF0000B0891C4F30252022A21
:1039800004D001CF0021032A06D006E0FF1D27F056
:103990000707F7E8020103E080B2042A00D1C0B2B1
:1039A0004FF0000822072BD52A78702A07D0DDF8BF
:1039B00020C08CF0100C5CEA0B0C05D00EE040220D
:1039C0008DF82420012208E050EA010306D03023BC
:1039D0008DF824308DF8252002229046089B83F034
:1039E000080353EA0B030BD150EA010201D162072D
:1039F00006D530228DF824204FF00108A9F10109E5
:103A00002A78582A04D038A20B9208AA0A920BE00E
:103A10003AA2F9E75B46089AFCF7D6FB0B9B9B5C46
:103A20000A9A521E0A92137050EA0102F2D10A98C1
:103A3000ADEB000000F1200B600702D524F48034C8
:103A400001E04FF00109D94502DDA9EB0B0000E0D0
:103A5000002000EB0B0141440890AAEB010AE003AF
:103A600006D4DDE90F232146504600F066F80644EF
:103A70004FF0000908E009A911F80900DDE90F126B
:103A8000904709F10109761CC145F4DBE0030CD530
:103A9000DDE90F232146504600F04FF8064404E0CC
:103AA000DDE90F1230209047761C0899481E0890D7
:103AB0000029F5DC08E00A980A990078491C0A9167
:103AC000DDE90F129047761CBBF10001ABF1010B51
:103AD000F1DC21465046DDE90F2300F01CF80644D6
:103AE0006D1C21E609280100303132333435363778
:103AF000383961626364656600000000303132333A
:103B000034353637383941424344454600000000D9
:103B100030BCBDE8C08F2DE9F041044600251E46AB
:103B20001746880404D405E039462020B0476D1CB0
:103B3000641EF9D52846BDE8F0812DE9F041044620
:103B400000251E469046C80301D5302700E02027F7
:103B5000880404D505E041463846B0476D1C641E14
:103B6000F9D52846BDE8F08113B54FF6FF73012261
:103B700069460248FEF770FC00981CBD68030020EF
:103B8000FDF7A8F8FFF7CCF9FEF7F4FDFEF7B6FD58
:103B9000FEF7CEFEFEF7F4FEFEF71AFFFEF73CFF3F
:103BA000FEF75EFFFEF77CFEFCF786FBFFF738FDB5
:103BB0001A4D012208212846FDF778F8002220211D
:103BC0002846FDF773F80122140321462846FDF725
:103BD0006DF8A0464FF400494FF090464FF4006A4C
:103BE00049463046FDF75DF8074641463046FDF749
:103BF00058F8054651463046FDF753F8044617B9C4
:103C000007A0FFF753FD15B907A0FFF74FFD002CE4
:103C1000E6D107A0FFF74AFDE2E7000000040048F4
:103C20004B45595F4C0000004B45595F5200000066
:103C30004B45595F4F4B00000000000000000000A2
:103C40000102030406070809A0860100400D0300D5
:103C5000801A060000350C0040420F0080841E00D0
:103C600000093D0000127A000024F40000366E01C5
:103C70000048E801006CDC020000000001020304BF
:103C8000A03C00080000002018000000EC360008EE
:103C9000B83C000818000020E00C0000FC360008CA
:103CA00001000000100000000000000000093D00BD
:083CB00017EF00000000000006
:040000050800018D61
:00000001FF
