:020000040800F2
:10000000005300208502000803430008CF3C00088D
:1000100001430008190D0008AD550008000000005C
:10002000000000000000000000000000A501000822
:10003000550E000800000000010200089D4C000859
:100040009F0200089F0200089F0200089F0200080C
:100050009F0200089F0200089F0200089F020008FC
:100060009F0200089F0200089F0200089F020008EC
:100070009F0200089F020008E10D0008ED0D000836
:100080009F0200089F0200089F0200089F020008CC
:100090009F0200089F0200089F0200089F020008BC
:1000A0009F0200089F0200089F0200089F020008AC
:1000B0009F02000800000000000000009F020008EE
:1000C0009F0200089F0200089F0200089F0200088C
:1000D0009F0200080555000819550008255500081D
:1000E0009F0200089F0200080000000000000000BE
:1000F0000000000000000000000000000000000000
:10010000000000009F020008000000009F0200089D
:100110000000000000000000614D00089F02000880
:100120009F0200089F0200089F0200089F0200082B
:100130009F02000800000000000000000000000016
:100140009F0200089F0200089F02000800000000B4
:100150009F0200089F0200089F0200089F020008FB
:100160009F0200089F0200089F0200080000000094
:100170009F0200089F02000800000000000000002D
:100180009F0200089F0200089F020008DFF810D0BD
:1001900000F064FB00480047D55F0008AFF3008023
:1001A000005300202C4B1968086800F05AB880F3FF
:1001B0000988BFF36F8F4FF0000080F311887047FC
:1001C0000000000008480068006880F308884FF0CD
:1001D000000080F3148862B661B6BFF34F8FBFF39F
:1001E0006F8F00DF00BF00BF08ED00E0DFF80C00FC
:1001F000016841F470010160704700BF88ED00E0C4
:10020000EFF30980BFF36F8F134B1A681EF0100FC6
:1002100008BF20ED108A20E9F04F106009B44FF0BC
:10022000500080F31188BFF34F8FBFF36F8F06F03C
:10023000FBFE4FF0000080F3118809BC19680868C4
:1002400000F014B81EF0100F08BF00F014B880F3CF
:100250000988BFF36F8F704774000020EFF30580AB
:10026000704730C8B0E8C04FFFF7A1BF30C8B0E852
:10027000C04FFFF7E7BFB0EC088AB0EC08CAFFF741
:10028000E6BF00000648804706480047FEE7FEE755
:10029000FEE7FEE7FEE7FEE7FEE7FEE7FEE7FEE736
:1002A000514D00088D0100082DE9F05F0546002042
:1002B00092469B4688460646814640241BE02846D7
:1002C00041464746224600F0AAF953465A46C01A0C
:1002D000914110D311461846224600F091F92D1A8B
:1002E00067EB01084F4622460120002100F088F903
:1002F00017EB00094E41201EA4F10104DFDC484643
:1003000031462A46434600F000B830BCBDE8C09FE5
:1003100040EA01039B0703D009E008C9121F08C087
:10032000042AFAD203E011F8013B00F8013B521E07
:10033000F9D27047D2B201E000F8012B491EFBD27E
:1003400070470022F6E710B513460A4604461946E0
:10035000FFF7F0FF204610BD421C10F8011B0029DA
:10036000FBD1801A70472DE9FE4F804681EA0300D9
:10037000C00F0C46009021F0004123F00045B8EB7F
:100380000200A94105D24046214690461C460B4634
:10039000024623F00040104347D0270DC7F30A0060
:1003A000C3F30A510290401A019040286BDAC3F35C
:1003B000130040F4801B0098924620B10023D2EB3A
:1003C000030A63EB0B0B01985946C0F140025046FB
:1003D00000F016F906460D4650465946019A00F0BF
:1003E0002EF910EB08006141002487EA115284EADB
:1003F000E7731A4340D0009A62B3019A012A4FEA88
:10040000075215DC001B61EB02014FF0004202EACB
:100410000752CDE90042001C41F5801132462B46BF
:1004200000F02EF903B000F045B840462146F9E748
:10043000001B61EB0201001C41F5801300185B41B9
:100440002018A2F5001747EB030140EAD570B61952
:100450006D4111E06D084FEA360645EAC0754FEA76
:100460000752001B61EB0201001C41F58011490895
:100470004FEA30000019514132462B4603B000F0DC
:100480001CB800F0EEB80098012240000023D0EB29
:10049000020263EBE073009821464FEAE074B8EB88
:1004A000000061EB0401E9E783F000435BE781F0C2
:1004B000004158E730BCBDE8C08F30BCBDE8C04F3C
:1004C000FFF7DFBF2DE9FE4F81EA030404F000448B
:1004D00021F0004100944FF0000B23F0004350EA5C
:1004E00001045ED052EA03045BD0C3F30A54C1F3A3
:1004F0000A552C44A4F2F3340194A0FB0254C1F336
:10050000130141F48011C3F3130343F4801301FB7F
:10051000024400FB034E840A970A44EA815447EAE6
:100520008357A4FB076802958D0A05FB07854FEAF0
:10053000932C04FB0C542705029D4FEA065847EA0A
:100540001637B5EB08056EEB070C870E920E47EADF
:10055000811742EA8312A7FB0201B6EB0B0164EBA1
:1005600000042B0D43EA0C335E1844EB1C50DA46B2
:100570005146E7FB0201C5F313044FEA0B3343EA8C
:1005800014534FEA0432019C43EA0603A4F10C041D
:100590000294009CCDE900B400F072F803B000F0C2
:1005A00003B800200146F9E730BCBDE8C08F00F079
:1005B000004230F000400AD0C10D01F56071C0F377
:1005C000160042EA0151C20840071143704700205B
:1005D0000146704730B50B46014600202022012419
:1005E00009E021FA02F59D4205D303FA02F5491B01
:1005F00004FA02F52844151EA2F10102F1DC30BD17
:10060000202A04DB203A00FA02F1002070479140D2
:10061000C2F1200320FA03F3194390407047202AC7
:1006200004DB203A21FA02F00021704721FA02F39C
:10063000D040C2F120029140084319467047202A59
:1006400006DBCB17203A41FA02F043EAE07306E0FA
:1006500041FA02F3D040C2F120029140084319460A
:10066000704710B5141E73F1000408DA401C41F104
:10067000000192185B411A4301D120F0010010BD26
:100680002DE9F04D92469B4611B1B1FA81F202E09C
:10069000B0FA80F220329046FFF7B2FF04460F46D0
:1006A00040EA0A0041EA0B0153465A46084313D078
:1006B000114653EA010019D0C8F140025046FFF735
:1006C000AEFF05460E46504659464246FFF798FF94
:1006D000084305D0012004E020463946BDE8F08DEE
:1006E0000020054346EAE0762C4337430A98630529
:1006F000E40AA0EB08000022FD0A44EA47540A304D
:1007000002D500200146E9E7010510196941DDE93C
:10071000084500196941BDE8F04DA2E72DE9F04D0B
:1007200081EA030404F0004B21F0004514464FF029
:10073000000A23F0004150EA050220D054EA0102E9
:100740001DD0C5F30A570246C5F31303C1F31300C6
:10075000C1F30A5640F4801543F48013A7EB060852
:10076000101BD64608F2FD3873EB050002D308F1E2
:10077000010801E092185B41B8F1000F03DA002094
:100780000146BDE8F08D00204FF4801106468446F6
:100790000EE0171B73EB050705D3121B63EB050374
:1007A00006434CEA010C49084FEA300092185B41BD
:1007B00050EA0107EDD152EA030012D082EA0400A8
:1007C00083EA0501084305D0101BAB4106D2012284
:1007D000002306E000224FF0004302E06FF0010228
:1007E00053101AEB06004CEB085110EB0A0041EBDA
:1007F0000B01BDE8F04DFFF734BFC1F30A52C1F35E
:10080000130140F2FF3341F480119A4202DA0020D2
:100810000146704740F233439A42A2F2334202DC6F
:100820005242FFF7FCBEFFF7EBBE000030B5041EDE
:1008300071F1000404DB4FF00044404264EB01011D
:10084000141E73F1000405DB1C464FF000435242B6
:1008500063EB0403994208BF904230BD064C074D3C
:1008600006E0E06840F0010394E807009847103480
:10087000AC42F6D3FFF78EFCF4A7000814A80008DA
:100880002DE9F041044600270D46006803F0F8FA10
:100890000646206803F0F0FA30435DD02068C16856
:1008A0002E4E890105D5617E012902D1217E0129C3
:1008B0000BD0022D1DD0206803F0E2FAB8B12068F9
:1008C0008168C1F3400169B111E00125244902E0CA
:1008D0008F4232D27F1C0268D2435206F8D44021A4
:1008E0000160E8E78168314041F010018160012D2D
:1008F00011D0206803F0C0FA48B120688168C1F3C4
:10090000400121B98168314041F020018160022D10
:1009100008D0032D04D0042501F024FB064617E07F
:100920000C25F9E70825F7E701F01CFB801B0528DB
:100930000ED92068806828420AD0606D40F010000F
:100940006065A06D40F00100A0650120BDE8F08168
:10095000206880682842E7D10020F7E7C0FFFF7FCA
:10096000000040A370B50446006881688268C1F346
:10097000400112F0010F28D039BB816801F00D0150
:10098000012914D18168124A1140891C81602168B3
:100990000320086001F0E6FA054612E001F0E2FAF1
:1009A000401B02280DD920688068C00709D0606DFF
:1009B00040F010006065A06D40F00100A0650120CE
:1009C00070BD20688068C007E8D1002070BD0000BD
:1009D000C0FFFF7FF8B504460020009020688168C2
:1009E00011F0010F41D18168214A11422ED1816855
:1009F000D5432940491C81601E48806800F0E070A2
:100A000000020DD51C481D490068B0FBF1F0401CE8
:100A100000EB4000800000E0401E00900028FBD169
:100A200001F0A0FA06461BE0816811F0010F03D126
:100A300081682940491C816001F094FA801B0228DA
:100A40000ED920680068C043C00709D0606D40F02F
:100A500010006065A06D40F00100A0650120F8BDA8
:100A600020680168C943C907DED10020F8BD000035
:100A70003F000080000304502C000020400D0300C4
:100A80002DED048B9FED238ADFED238ADFF88C8028
:100A90000024B0EE009A4FF47A764FF48057204845
:100AA00000F0C4FF32211E4800F068FF1C4800F02F
:100AB0003EFE800503D51A4800F03BFE85B200EEED
:100AC000105AB8EE400A20EE080A20EE280A20EE5E
:100AD000090A10EE100AFFF76AFD41EC100B11A095
:100AE00053EC102B04F0D6FD304606F059F9641C87
:100AF000A4B2052C02D00A2C02D007E0002201E0AB
:100B0000002401223946404601F026FA044800F04C
:100B1000D1FFC4E7CDCC1C40000080390004004860
:100B200040030020204144312076616C7565203DF2
:100B30002025312E336656200D0A000010B586B0F0
:100B400014216846FFF7FDFB11200190012002905F
:100B5000022003904020234C00906946204601F07B
:100B60000BF9802000906946204601F005F901222A
:100B70004021204601F0F0F901228021204601F0B9
:100B8000EBF903F0F1F8702003F02EF930B3BA203E
:100B900003F02AF910B303F00BF9142006F000F962
:100BA000142006F0FDF803F0DFF8702003F01CF9C4
:100BB000A0B1BE2003F018F980B1082003F014F9A9
:100BC00060B1002003F010F940B103F0F1F80A2001
:100BD00006F0E6F800F07EF806B010BD03F0E8F885
:100BE0000020F9E7000400487CB50546002000908D
:100BF000019003F0B9F8702003F0F6F8F0B3AC20E0
:100C000003F0F2F8D0B3332003F0EEF8B0B30020D5
:100C100003F0EAF890B303F0CBF800F05BF800289B
:100C20004AD003F0A1F8712003F0DEF830B30024BD
:100C30006E4601E0052C01D2012100E000213019AF
:100C400003F046F8D0B1641CE4B2062CF2D303F0F2
:100C5000AFF89DF801009DF80210000340EA011072
:100C60009DF803109DF8042040EA11100907090BB4
:100C700041EA02219DF80520114300E01DE000EE4D
:100C8000100ADFED100A9FED101AB8EE400A01209D
:100C900020EE200A20EE010A9FED0C1A85ED000AD5
:100CA00000EE101AB8EE400A60EE200A9FED080A26
:100CB00010EE810A85ED010A7CBD03F079F8002071
:100CC0007CBD0000000080350000C84200004843A1
:100CD0000000484238B54FF47A7400BF03F044F87E
:100CE000712003F081F860B10021684602F0F0FF46
:100CF00038B103F05DF89DF80000000605D401202E
:100D000038BD03F055F8002038BD022006F048F841
:100D10002046641EE2D238BDFEE7000008B50C4D47
:100D20004FEA050405F0A4FD0090BDF800002880FE
:100D300021780029F6D06078012806D00228F1D168
:100D400004A000BF04F0A6FCECE708A0FAE700004E
:100D500034000020427574746F6E202564206C6F1F
:100D60006E6720707265737365640A0042757474EF
:100D70006F6E2025642073686F72742070726573C3
:100D80007365640A0000000010B5094C00220221BE
:100D9000204601F0E1F800220421204601F0DCF8B1
:100DA00001221146204601F0D7F8002010BD0000B6
:100DB0000004004801B582B000208DF80400401EF8
:100DC0000090012301AA02A9044802F069F908B1C0
:100DD000FF200EBD9DF804000EBD0000C8030020DA
:100DE000014800F0D4BE000064080020014800F073
:100DF000CEBE00001C08002030B590F8444004F03E
:100E00001C050124AC40056C6C6004686360836859
:100E1000102B036803D099600068C26030BD9A60EF
:100E20000068C16030BD000008480168C90103D4F2
:100E3000016841F08071016005480168C90703D16C
:100E4000016841F00101016070470000FCED00E025
:100E5000001000E070470000064910B50B68064A14
:100E6000064C1268B2FBF4F242430868C01A904282
:100E7000FBD310BD041000E02C00002040420F0006
:100E80002DE9F041174801884A074FEAD10400D004
:100E9000641C4688242000F0EFF800270AE00025B3
:100EA00004E0FF2000F002F96D1CADB2A542F8D3BA
:100EB0007F1CBFB2B742F2D3262000F0DDF8002736
:100EC0000AE0002504E0FF2000F0F0F86D1CADB250
:100ED000A542F8D37F1CBFB2B742F2D3BDE8F041C0
:100EE00000F035B9580000202DE9F04780461D4834
:100EF00001884A074FEAD10400D0641C46882420A8
:100F000000F0BAF800250FE0002705FB04F907E020
:100F100008EB070119F8010000F0C8F87F1CBFB208
:100F2000A742F5D36D1CADB2B542EDD3262000F03B
:100F3000A3F8002510E0002705FB04F908E000BF36
:100F400008EB070119F8010000F0B0F87F1CBFB2F0
:100F5000A742F5D36D1CADB2B542ECD3BDE8F04766
:100F600000F0F5B85800002010B500F067F800F068
:100F700033F8122000F080F800F02EF8FF2000F087
:100F80007BF8212000F078F8402000F08FF8002056
:100F900000F08CF83C2000F06FF8052000F086F897
:100FA000112000F069F8032000F080F8094841881A
:100FB0000088491E8BB2401E82B20021084600F014
:100FC000A4F80021084600F08BF8BDE8104000F0BE
:100FD00003B800005800002010B50AA004F05AFB26
:100FE0004FF0904402E00A2005F0DAFE402120464E
:100FF00000F0ADFF0128F6D0BDE8104007A004F0D6
:1010000049BB000044656275673A20652D506170E8
:10101000657220627573790D0A000000446562757F
:10102000673A20652D506170657220627573792072
:1010300072656C656173650D0A00000010B50D4C9A
:1010400001221146204600F087FF642005F0A8FE2B
:1010500000220121204600F07FFF642005F0A0FE61
:1010600001221146204600F077FFBDE810406420C1
:1010700005F096BE0004004870B50B4C05460022F2
:101080000221204600F068FF00220421204600F0E3
:1010900063FF2846FFF78EFE2046BDE87040012220
:1010A000042100F059BF00000004004870B50B4C4B
:1010B000054601220221204600F04EFF00220421B5
:1010C000204600F049FF2846FFF774FE2046BDE8A1
:1010D00070400122114600F03FBF000000040048AC
:1010E00070B505460C464E20FFF7C6FFC5F3C70096
:1010F000FFF7DCFF4F20FFF7BFFFE0B2FFF7D6FF9F
:10110000200ABDE87040FFF7D1BF2DE9F041074646
:101110001C4616460D464420FFF7AEFFC7F3C70036
:10112000FFF7C4FFC6F3C700FFF7C0FF4520FFF776
:10113000A3FFE8B2FFF7BAFF280AFFF7B7FFE0B254
:10114000FFF7B4FF200ABDE8F041FFF7AFBF10B5CD
:101150002220FFF791FFF720FFF7A8FF2020FFF7DD
:101160008BFFBDE81040FFF737BF00007CB5FFF7ED
:101170000BFEFFF7F9FEFFF783FE4FF47A7005F0E0
:101180000FFE1B4D288841074FEAD00100D0491CB3
:10119000184E30884143002005F024F8040002D1A5
:1011A00015A004F077FAFF200090002332882988E8
:1011B000204603F019F9204603F034F9FF2003F02C
:1011C000A1F800210120CDE90001182314A28221F9
:1011D000782003F0C4FA2046FFF786FE214600205F
:1011E00004F0F4FF12488068BDE87C4005F0FEBDC5
:1011F000580000205A0000204661696C6564207424
:101200006F206170706C7920666F7220626C616310
:101210006B206D656D6F72792E2E2E0D0A00000009
:1012200048656C6C6F2053544D33322021212100CE
:10123000000000201CB54FF47A75284605F0B0FD7B
:101240008021002004F0CEFF04468022002104F01B
:10125000CDF9214610A004F01DFA6846FFF7C4FC42
:101260000098FFF7A4F941EC100B0CA053EC102BE5
:1012700004F010FA0198FFF79AF941EC100B0BA05B
:1012800053EC102B04F006FA00F018F82146002069
:1012900004F09CFFD1E700002573000068756D69BC
:1012A000646974793A2025660D0A000074656D70D2
:1012B0003A2025660D0A000072B6FEE700B587B039
:1012C00014216846FFF73DF8002002460590694664
:1012D0000D4801F0B7FC002205A90B4801F090FC75
:1012E0009DF802309DF801209DF8001007A004F041
:1012F000D1F99DF816309DF815209DF8171009A01A
:1013000004F0C8F907B000BDA403002054696D655E
:101310003A20253032643A253032643A253032643E
:101320000A000000446174653A20253032642D259E
:101330003032642D253032640A0000002DE9F84F68
:1013400000270446009790F85000DFF8B0930D4650
:10135000B846012811D0012684F85060206802F0B8
:101360008FFD60B1606D40F0200060655FF00107A7
:1013700084F85080384600F0D7B90220FBE769684E
:101380000C20052912D8022907D0032907D00429E7
:1013900007D0052907D0062107E0686006E0122182
:1013A00003E0182101E04FF480716960D5E9002164
:1013B000236800EA91101844036B01F01F014FF0FD
:1013C0001F0C0CFA01FCC2F3846223EA0C038A406E
:1013D00013430363206802F053FD8246206802F045
:1013E0004BFD5AEA00001DD1AA682968206802F066
:1013F00053FD20686969C268C2F3C102520091407E
:101400002A69042A0FD000EB82002B68026EDFF8F5
:10141000F0C203F0F84302EA0C020B431A4342F015
:101420000041016672E0002102F020FD40032068C7
:101430004FF0000172D002F019FD90FAA0F0B0FA5E
:1014400080F1286842036ED090FAA0F0B0FA80F0E4
:10145000814204D100221146206802F02CFD0121B6
:10146000206802F003FD400320684FF001015DD0C9
:1014700002F0FCFC90FAA0F0B0FA80F12868420378
:1014800059D090FAA0F0B0FA80F0814204D1002245
:101490000121206802F00FFD0221206802F0E6FC25
:1014A000400320684FF0020148D002F0DFFC90FAC0
:1014B000A0F0B0FA80F12868420344D090FAA0F07E
:1014C000B0FA80F0814204D100220221206802F0AB
:1014D000F2FC0321206802F0C9FC400320684FF0B1
:1014E000030133D002F0C2FC90FAA0F0B0FA80F110
:1014F000286842032FD090FAA0F0B0FA80F0814221
:1015000004D100220321206802F0D5FC2068816804
:1015100011F0010F22D0ACE000E004E002F0A6FCE4
:10152000C0F384618DE7C0F3846091E702F09EFC14
:10153000C0F38461A2E7C0F38460A6E702F096FCE2
:10154000C0F38461B7E7C0F38460BBE702F08EFCB0
:10155000C0F38461CCE7C0F38460D0E72A7B2968BC
:1015600050F8B03FC1F3120C23EA0C0302F0180C40
:10157000644A22FA0CF20A4013430360E9684945C1
:1015800077D1286841031CD090FAA0F1B1FA81F11B
:10159000491C01F01F0109294FEA403132D80029C6
:1015A00012D000BF90FAA0F1B1FA81F101F101016E
:1015B00001F01F0106FA01F609D100BFC0F38461F2
:1015C00009E0C0F38461E3E7C0F38461EEE790FAD9
:1015D000A0F1B1FA81F101F1010101F01F0146EA28
:1015E000816102D1C0F3846003E090FAA0F0B0FA08
:1015F00080F000F1010000F01F0000EB400041EA24
:10160000005132E000290ED090FAA0F1B1FA81F138
:1016100001F1010101F01F0106FA01F606D100BF38
:10162000C0F3846106E0C0F38461F1E790FAA0F1B1
:10163000B1FA81F101F1010101F01F0146EA816176
:1016400002D1C0F3846003E090FAA0F0B0FA80F019
:1016500000F1010000F01F002B4A00EB400002EBFC
:10166000005041EA000141F00071AA68206802F0D0
:1016700013FC26482A6802423FF47AAE2448816867
:10168000244D254B01F0E071AA421BD10D0219D463
:1016900022689A427FF46CAE826841F4000122F025
:1016A000E0720A4382601D481D490068B0FBF1F0FA
:1016B000401C00EB4000800000E0401E009000282D
:1016C000FBD155E6174DAA4207D1CD0105D42268BA
:1016D0009A42F6D141F080710AE06FF00045EA428B
:1016E000EFD14A02EDD422689A42EAD141F4800156
:1016F000826822F0E0720A43826039E600007F408F
:1017000000F0FF03FFFF0700000020FE000008803C
:1017100000030450000052C7000004502C000020B9
:10172000400D0300000084CB18BCBDE8E08F406D85
:1017300070470068006C7047F8B54FF00005040072
:101740002E46009502D0606D10B107E00120F8BD73
:10175000204600F0C9F8A66584F8506020688168CA
:10176000C1F3407119B18168574A11408160206806
:101770008168C1F3007189B98168544A114041F010
:1017800080518160524853490068B0FBF1F040003D
:10179000801C00E0401E00900028FBD1206881687A
:1017A000C1F3007141B9616D41F010016165A16D36
:1017B00041F00101A165012502F062FB616DC906DE
:1017C00000D430B1606D40F01000606501252846FE
:1017D000F8BD606D20F4807040F002006065206804
:1017E000806810F0010F0BD13B48806810F0010FAA
:1017F00006D13A486168826822F47C120A4382600A
:10180000E168606B627E0843A16841EA42310843A7
:1018100094F8201040EA0140012904D1A18C304AFB
:1018200002EB41410843A16A29B101F47071E26AF7
:10183000014342EA01002168CA682A4B1A40024368
:10184000CA60206802F01CFB0646206802F014FB08
:10185000304315D1207E94F83010800340EA4100D7
:101860002168CA6844F202039A430243CA6094F8AA
:10187000380001280CD02068016921F001010161C4
:10188000206901282068016B21F00F0111D013E0BD
:10189000D4E90F010843D4E9111211430843216828
:1018A0000A6940F2FC739A43104340F0010008615A
:1018B000E6E7E269521E11430163606D20F0020009
:1018C00040F00100606582E7C0FFFF5FC0FFFF7F5F
:1018D0002C000020400D03000000045000030450C1
:1018E0000000FEFF07C0F0FF10B59EB004461421B3
:1018F00017A8FEF726FD5C216846FEF722FD1D496C
:101900002068884233D14FF48040009080031490C7
:1019100003200190012002901420039007200490DE
:10192000022005900690C0050790684600F022FC52
:1019300008B1FFF7C1FC1048C16C41F40051C1640B
:10194000C16C01F400511C91C16C41F00101C164F2
:10195000C06C17A900F001001C90102017900B20FC
:101960001890002019904FF0904000F005FA1EB03A
:1019700010BD000000000450001002402DE9F041AD
:10198000044640690E4608280AD02068C068C0078F
:1019900008D0606D40F0200060650120BDE8F08156
:1019A000082500E0042500F0DDFA074614E0701C6D
:1019B00012D000F0D7FAC01BB04200D866B9206838
:1019C0000068284208D1606D40F004006065002086
:1019D00084F850000320E1E7206800682842E6D040
:1019E000606D40F400706065206802F04DFA80B1CF
:1019F000607E70B92068006800070AD5606D20F429
:101A000080706065606DC00403D4606D40F00100BB
:101A100060652068C168082D05D0490401D40C21F7
:101A200001600020BAE70821FAE7000010B504467B
:101A3000006802F025FA10B10221084610BD94F8A2
:101A4000500001280CD0012084F850002046FEF7F9
:101A5000C1FF01004FF0000004D084F85000ECE713
:101A6000022010BD626D40F601639A4342F4807219
:101A70006265626DD20404D5A26D22F00602A265F1
:101A800000E0A06523681C221A6084F850002068DA
:101A9000C268920105D5626D22F4005242F4805270
:101AA00062658268024B1A40121D8260C5E7000021
:101AB000C0FFFF7F10B5044690F85000012808D001
:101AC000012084F8500003212046FEF7D9FE10B112
:101AD0000BE0022010BD2046FEF744FF28B9616DDF
:101AE00021F4885141F001016165002184F8501012
:101AF00010BD10B590F825100022022905D0042150
:101B0000C16380F82420012010BD01680B6823F018
:101B10000E030B6001680B6823F001030B6090F863
:101B20004410046C01F01C03012101FA03F363600B
:101B300080F8251080F82420104610BD10B590F8CC
:101B400025100024022903D00421C16301241AE0D6
:101B500001680A6822F00E020A6001680A6822F031
:101B600001020A6090F84410036C01F01C0201218C
:101B700001FA02F25A6080F82510002180F8241042
:101B8000816B01B18847204610BDC06B7047F0B42F
:101B9000016C0C6801680D6890F8442002F01C0686
:101BA000042202FA06F3234211D06B070FD50B680B
:101BB0009B0603D40B6823F004030B6090F84410D9
:101BC00001F01C018A40016C4A60016B1DE0022398
:101BD00003FA06F727424FF0000C4FF0010218D02D
:101BE000AF0716D50C68A40605D40C6824F00A04C7
:101BF0000C6080F8252090F8441001F01C018B4007
:101C0000016C4B6080F824C0C16A00291AD0F0BC76
:101C100008470823B340234214D02B0712D50B6882
:101C200023F00E030B6090F84410036C01F01C01CC
:101C300002FA01F15960C26380F8252080F824C0BF
:101C4000416BE2E7F0BC704770B568B12B4C03689C
:101C500014212B4AA34209D22A4C1C44B4FBF1F1B3
:101C60008900C0E910210BE0012070BD234C6442C3
:101C70001C44B4FBF1F18900416420490839016436
:101C8000022180F825101C6847F6F0718C43D0E9DA
:101C900002152943D0E90456354329438569294370
:101CA000C5692943056A2943214319608168B1F553
:101CB000804F19D0036C0F21934202D152F8A83FF4
:101CC00002E00E4AA032136890F8444004F01C046D
:101CD000A1408B43136090F84430416803F01C032B
:101CE00099401368194311600021C163012280F8F3
:101CF000252080F82410084670BD0000080402402A
:101D000000000240F8FFFDBF70B5044690F82400C3
:101D1000002501280CD0012084F8240094F82560C7
:101D20000020012E06D084F824000225284670BD2C
:101D3000022070BD022684F82560E06320680668F2
:101D400026F0010606602046FFF756F8206B0028B3
:101D50002068016802D041F00E0106E021F0040184
:101D600001602068016841F00A0101602068016893
:101D700041F001010160D9E72DE9F04FDFF8AC91A6
:101D800000230325A9F1040B85B04FF0010C0F27A8
:101D900009F1040AABF1040EBFE000BF0CFA03F630
:101DA000324075D00C7904F00304012C01D0022CD0
:101DB0001BD1846800945C0005FA04F80494009C2C
:101DC00024EA08040094D1F80C80049C08FA04F872
:101DD000009C48EA0408C0F808804468B4430E79BF
:101DE000C6F300169E40264346600C79E443A407E0
:101DF0000AD0C4684FEA430805FA08F6B4438E686F
:101E000006FA08F62643C6600C7904F00304022C97
:101E100010D1DC0800EB84040294246A5E074FEAC8
:101E2000D66807FA08F6B4430E6906FA08F62643A0
:101E3000029C266204684FEA430805FA08F6B44398
:101E40000E7906F0030606FA08F6264306604C688B
:101E500014F4403F60D0364C266E46F001062666EC
:101E6000246E23F0030604F001040094314C344442
:101E70000294A4689E074FEA167807FA08F6B4435E
:101E8000B0F1904F05D02C4EB04204D1012612E0A3
:101E900042E000260FE0294EB04201D102260AE0BE
:101EA000274EB04201D1032605E0264EB04201D1B3
:101EB000042600E0072606FA08F62643029CA660E0
:101EC000D9F800604C46D1F8048096435FEAC828F0
:101ED00000D516432660DAF800405646D1F8048053
:101EE00094435FEA882800D514433460DBF800404F
:101EF0005E46D1F8048094435FEA883800D51443E5
:101F00003460DEF800407646D1F8048094435FEAFE
:101F1000C83800D5144334605B1C0A6832FA03F4F5
:101F20007FF43CAF05B000F00FB80000080401409A
:101F30000010024000000140000400480008004872
:101F4000000C00480010004830BCBDE8C08F00699C
:101F5000084000D0012070470AB18161704781625A
:101F60007047000001488068704700002000002092
:101F70000248816802781144816070472000002087
:101F800010B50024032000F09FF80F2000F008F89F
:101F900008B1012401E000F04FF8204610BD000018
:101FA00030B505461F4887B0816D41F0100181654D
:101FB000806D06A900F01000009001A800F0DAFA88
:101FC0000498B0B100F0F6FA40001749174AB0FB88
:101FD000F1F11748491E0260416040F2E7320021EA
:101FE000C0E903218160816101F091F9040003D00F
:101FF00015E000F0DFFAE8E70D4801F0BBF9040056
:102000000DD1362000F032F8102D07D200222946DB
:10201000362000F039F80748056000E0012407B0D9
:10202000204630BD0010024040420F00001000402A
:10203000AC080020240000200B4882B0016E41F063
:1020400001010166016E01F001010091816D41F015
:1020500080518165806D002200F0805000900F213A
:10206000901E02B000F010B800100240002809DBFA
:1020700000F01F02012191404009800000F1E020A2
:10208000C0F8001170470000F0B40E4B1B680C46FE
:10209000C3F30223C3F10705042D00D90425191D3C
:1020A000072901D2002300E0DB1E012606FA05F114
:1020B000491E214099409E40761E16403143F0BC97
:1020C00003F0F8BA0CED00E0064900F007020868DA
:1020D0004FF6FF03184040EA0220034A104308600D
:1020E000704700000CED00E00000FA051649B0F55D
:1020F000007F0868C0F3412009D0022805D0086895
:1021000020F4C06040F4806008600020704701281F
:10211000FBD0086820F4C06040F4007008600B48F1
:102120003222006850430A4AB0FBF2F0401C00E043
:10213000401E4A69520501D50028F9D14869400579
:10214000E3D5032070470000007000402C00002001
:1021500040420F000248006800F4C0607047000071
:10216000007000400248016841F4807101607047CE
:10217000007000402DE9F84F044600270088A84D64
:102180003E46000515D5606C60B1B0F5000F04D077
:10219000B0F5400F2BD001270AE0E86840F480300A
:1021A000E86024E00021201D02F030FB07001ED073
:1021B0003E46206880033AD5A86D4FF00008C00065
:1021C00009D4A86D40F08050A865A86D4FF00108B3
:1021D00000F080500090DFF84CA2DAF8001041F4D3
:1021E0008071CAF80010FFF7BDFE814610E0D5F8F7
:1021F0008800616C20F440000843C5F88800D8E7E7
:10220000FFF7B0FEA0EB0900022801D9032705E083
:10221000DAF80000C005F3D5002F7DD04FEA07069D
:10222000B8F1000F03D0A86D20F08050A865207889
:10223000C00707D0D5F88800216A20F003000843C2
:10224000C5F888002078800707D5D5F88800616A2E
:1022500020F00C000843C5F888002078400707D517
:10226000D5F88800A16A20F030000843C5F888003E
:102270002078800607D5D5F88800E16A20F4406010
:102280000843C5F888002088800507D5D5F8880060
:10229000E16B20F440200843C5F888002088400501
:1022A00007D5D5F88800216C20F440100843C5F804
:1022B00088002078400607D5D5F88800216B20F4E7
:1022C00040500843C5F888002078000607D5D5F8A7
:1022D0008800616B20F440400843C5F888002088DE
:1022E000C00507D5D5F88800A16B20F4403008431D
:1022F000C5F8880020684FF0006700034FF0806841
:1023000050D5D5F88800A16C20F040600843C5F88E
:102310008800A06CB84200E005E03BD1E86840F4DA
:102320008010E8603EE0D5F8900010F4407014D0C2
:10233000A16D814211D0D5F89000D5F8901020F40D
:10234000407041F48031C5F89010D5F8901021F418
:102350008031C5F89010C5F89000C00711D0FFF784
:1023600001FE074641F2883907E000BFFFF7FAFD9A
:10237000C11B494501D9032652E7D5F890008007D3
:10238000F4D5D5F89000A16D20F440700843C5F84D
:10239000900045E7404505D10121201D02F036FAA5
:1023A00000B106462068400317D5D5F88800E16CD7
:1023B00020F040600843C5F88800E06CB84204D1C2
:1023C000E86840F48010E86007E0404505D101214D
:1023D000201D02F01BFA00B106462088400411D5EA
:1023E000D5F88800216D20F040500843C5F88800DA
:1023F000206DB0F1805F05D10221201D02F006FAA8
:1024000000B106462088000406D555F8880F616D96
:1024100020F0804008432860304600F005B80000F6
:10242000001002400070004018BCBDE8E08F0000C2
:102430002DE9F0470F4605006BD0494E306800F09B
:102440000700B84209D2306820F0070038433060F6
:10245000306800F00700B8425BD12878414C800713
:102460000AD5A868A16801F0F001884204D9A168E2
:1024700021F0F0010143A1602878C0072CD06868E2
:10248000032811D0022812D0216898B149050029EB
:102490003FDAA16821F003010143A160FFF762FD6B
:1024A000804641F2883910E021688901EFE7216810
:1024B0008903ECE78907EAE7FFF754FDA0EB080181
:1024C000494502D90320BDE8F087A068696800F09B
:1024D0000C00B0EB810FEFD1287880070AD5A868EF
:1024E000A16801F0F001884204D2A16821F0F00156
:1024F0000143A160306800F00700B8420BD9306892
:1025000020F0070038433060306800F00700B84220
:1025100001D00120D7E72878400705D5A068E968F1
:1025200020F4E0600843A0602878000706D5A06882
:10253000296920F4605040EAC100A06000F05EF814
:10254000A168094AC1F30311515C01F01F01C840A1
:102550000649086006480068BDE8F047FFF720BD5F
:102560000020024000100240CC7A00082C0000201D
:10257000240000200F2202600C4A936803F003033A
:102580004360936803F0F0038360936803F4E063AF
:10259000C36092684FF4E06303EAD2020261044828
:1025A000006800F00700086070470000001002405B
:1025B000002002400548064900688968054AC1F3C1
:1025C0000221515C01F01F01C84070472C0000201F
:1025D000001002400C7B0008054806490068896825
:1025E000054AC1F3C221515C01F01F01C840704788
:1025F0002C000020001002400C7B000870B525491B
:10260000002318468A68CC6812F00C0204F0030616
:10261000214C4FEA640509D00C2A05D0042A32D097
:10262000082A00D1284670BD012E10D10B681B0767
:1026300004D4D1F89430C3F3032302E00B68C3F34E
:102640000313164E56F82330DAB10C2AEBD1C868C2
:1026500000F00300022818D0032818D01846CA68D2
:10266000CB68C2F30212C3F306234343521CB3FBED
:10267000F2F2C868C0F34160401C4000B2FBF0F0C9
:1026800070BD184670BD204670BD2046E7E728465D
:10269000E5E70000001002400024F400DC7A0008A6
:1026A0002DE9F84304006FD0FA4DA86800F00C063D
:1026B000E86800F003072078C00664D576B10C2ED8
:1026C00001D1012F0AD0A069002828687AD040F0F3
:1026D00001002860FFF746FC80465DE0286880071F
:1026E00002D5A0690028DED0216A2868000703D53A
:1026F000286800F0F00004E0D5F89400F02202EA27
:102700001010814216D9084602F016F900283BD174
:10271000286840F0080028602868216A20F0F0004E
:10272000084328606868E16920F47F4040EA01209E
:10273000686016E0286840F0080028602868216A70
:1027400020F0F000084328606868E16920F47F40C9
:1027500040EA0120686026B9206A02F0EDF80028FE
:10276000D5D1FFF74BFFA968CB4AC1F30311515CE8
:1027700001F01F01C840C9490860C9480068FFF757
:102780000FFC00287ED12EE0CAE000BFFFF7EAFB75
:10279000A0EB0800022876D828688007F6D52868BC
:1027A00040F0080028602868216A20F0F000084303
:1027B00028606868E16920F47F4040EA0120686091
:1027C00011E0FFE720F001002860FFF7CBFB804617
:1027D00006E000BFFFF7C6FBA0EB08000228DAD82E
:1027E00028688007F6D42078C00740D0082E18D07B
:1027F0000C2E01D1032F14D06068B0F5803F17D0A4
:10280000B0F5A02F286817D020F480302860286801
:1028100020F4802028606068E0B1FFF7A3FB8046C9
:1028200014E02868800322D56068002878D01EE074
:10283000286840F48030EDE740F480202860F7E716
:10284000FFF790FBA0EB08006428A4D82868800359
:10285000F6D50CE0FFF786FB804605E0FFF782FB2C
:10286000A0EB0800642896D828688003F6D4207866
:1028700080073BD5042E11D00C2E01D1022F0DD094
:10288000E06801E0AAE1FFE0002828681ED040F4DB
:1028900080702860FFF766FB07460CE0286840055B
:1028A0000CD5E0680028C1D008E000BFFFF75AFB54
:1028B000C01B022893D828684005F7D56868217C9A
:1028C00020F0F85040EA016068600FE020F480706A
:1028D0002860FFF747FB074605E000BFFFF742FB14
:1028E000C01B0228B1D828684005F7D4207800071B
:1028F00029D560690028D5F8940012D040F0010075
:10290000C5F89400FFF72EFB074604E0FFF72AFB0B
:10291000C01B022899D8D5F894008007F6D512E09C
:102920002BE120F00100C5F89400FFF71BFB0746E0
:1029300005E000BFFFF716FBC01B022885D8D5F8BD
:1029400094008007F6D42078400766D5A86D00274C
:10295000C00008D4A86D40F08050A865A86D01277C
:1029600000F0805000904F480168C90512D40168FA
:10297000814641F480710160FFF7F4FA804605E07A
:10298000FFF7F0FAA0EB080002287DD8D9F8000084
:10299000C005F5D5A068012816D00528D5F8900007
:1029A00017D020F00100C5F89000D5F8900020F075
:1029B000040000BFC5F89000A06841F28839C0B19A
:1029C000FFF7D0FA80460FE0D5F8900040F0010004
:1029D000F0E740F00400C5F89000F5E7FFF7C2FA11
:1029E000A0EB080149454FD8D5F890008007F5D5F0
:1029F0000EE0FFF7B7FA804606E000BFFFF7B2FA35
:102A0000A0EB080149453FD8D5F890008007F5D4E0
:102A10001FB1A86D20F08050A8652078800628D5C9
:102A2000606A0028D5F8980012D040F00100C5F87F
:102A30009800FFF797FA074605E000BFFFF792FA04
:102A4000C01B022820D8D5F898008007F6D510E0E2
:102A500020F00100C5F89800FFF784FA074604E06B
:102A6000FFF780FAC01B02280ED8D5F8980080071F
:102A7000F6D4A06AF0B3022816D00C2E7DD02868B8
:102A800020F08070286000E0A7E0FFF76BFA0446B2
:102A9000A6E0000000100240CC7A00082C000020C4
:102AA0002400002000700040E868E26A00F00301A2
:102AB000914228D1216B00F0700209011039914236
:102AC00021D1626B00F4FE41B1EB022F1BD194F8CF
:102AD000382000F07841B1EBC26F14D1A18F00F41F
:102AE000C00249084905A1F5001191420BD194F8A3
:102AF000401000E06AE04908490600F0C060A1F11A
:102B0000007181424BD00C2E73D02868400170D4E4
:102B1000286820F080702860FFF724FA064604E059
:102B2000FFF720FA801B022857D828688001F7D4C5
:102B3000F4E90B016FF00F0202EB01110843218A47
:102B40005204490802EB4151A26841EA02210843BC
:102B5000217D4FF07E42490802EB41610843217B11
:102B600040EAC160E968244A11400843E8602868E7
:102B700040F080702860E86800E03AE040F0807043
:102B8000E860FFF7EFF9044605E000BFFFF7EAF958
:102B9000001B022821D828688001F7D527E0286883
:102BA000800124D4286840F080702860E86840F0F4
:102BB0008070E860FFF7D6F9044604E0FFF7D2F929
:102BC000001B022809D828688001F7D50FE000BF54
:102BD000FFF7C8F9001B022802D90320BDE8F883DB
:102BE00028688001F4D4E86804490840E8600020BF
:102BF000F4E70120F2E700008C809D01FCFFEEFE6F
:102C000010B500680B4641680D480140080CD870AB
:102C1000C1F304245C7001F03F049C70C1F34231A5
:102C2000197052B901F0C6FED870587801F0C2FE92
:102C30005870987801F0BEFE9870002010BD00001A
:102C40003FFFFF0010B50B460168896A59600168B3
:102C50000969C1F30E019960006801680D480140DF
:102C6000C1F305401870C1F306245C7001F07F04C5
:102C70009C70890DD97052B901F09CFE187058787B
:102C800001F098FE5870987801F094FE987000203A
:102C900010BD00007F7F7F0010B504004FF00100E1
:102CA00044D094F8210028B9002084F82000204660
:102CB00000F040F8022084F821002168CA20486210
:102CC000216853204862204601F08AFE00282DD159
:102CD00020688168164A11408160216888686268AE
:102CE000A369104322691A43104388602168E06891
:102CF000086120680169228941EA02410161204698
:102D000001F092FE002811D12168CA6C22F0030262
:102D1000CA646269E16911432268D36C1943D164C2
:102D20002268FF215162012184F8211010BD0000AA
:102D3000BFFF8FFF10B598B004465C216846FDF7D1
:102D400000FB0B492068884210D14FF400300090FE
:102D5000401216906846FFF70DFA08B1FEF7ACFA7C
:102D6000044850F8901F41F40041016018B010BDB4
:102D7000002800400010024070B5044690F8200082
:102D80000B4601281BD0012684F82060022084F81D
:102D90002100B2B19878D97840EA0145587819787D
:102DA000000240EA413005432168CA204862216898
:102DB00053204862204601F013FED0B120E00220EB
:102DC00070BD5878C10603D500F0EF000A30587086
:102DD000D87801F0F8FD0504587801F0F4FD45EAD3
:102DE0000025987801F0EFFD0543187845EA403555
:102DF000DAE70848054020684560204601F014FEE7
:102E00002268FF21516208B984F82160002184F80A
:102E1000201070BD3FFFFF002DE9F041044690F8FF
:102E2000200090460D46012811D0012784F820701B
:102E3000022084F821002168CA20486221685320BA
:102E40004862204601F0CCFD002618B129E002209E
:102E5000BDE8F0812068B8F1000F80684FEA40605B
:102E600024D0002800DBEE70A8782978EA7840EAC0
:102E700001406978090241EA825108431849084033
:102E8000216808602068816821F480218160D5E98B
:102E90000301084321688A6810438860204601F0D6
:102EA000C3FD2268FF215162A0B115E0002800DBBC
:102EB000EE70287801F087FD0304687801F083FD47
:102EC00043EA0023A87801F07EFD0343E87843EA53
:102ED0008050D3E784F8217084F82060B8E70000C0
:102EE0007F7F7F0070B504460068C16821F0A001B3
:102EF000C160FFF737F805464FF47A7607E000BF68
:102F0000FFF730F8401BB04201D9032070BD2068A4
:102F1000C0688006F4D5002070BD70B5040009D0EB
:102F2000606A002540B125616561A56294F85D0085
:102F300040B10CE0012070BD6068B0F5827FF4D034
:102F4000E561F2E784F85C50204600F057F8022073
:102F500084F85D002068016821F040010160E168AB
:102F60004FF4E062914201D9002001E04FF480501B
:102F7000B1F5706F02D0914200D0A562A18822897C
:102F800001F4827102F404421143227C02F0020235
:102F90001143227D02F001021143228B02F40072E0
:102FA0001143227F02F03802114394F8202002F0EE
:102FB00080021143228D02F40052114322681160F5
:102FC000A169042202EA114194F8242000F48050FF
:102FD00002F01002114394F8342002F00802114369
:102FE000A28902F4706211430143206841602566A2
:102FF000012084F85D00002070BD000070B586B02F
:10300000044614216846FDF79CF9214E25680021ED
:103010002048022203230524B54219D1056E45F448
:1030200080550566056E05F480550595C56C45F01F
:103030000105C564C06C02AD00F00100059085E893
:103040001A00A020CDE9000269464FF090401AE036
:10305000114EB54219D1856D45F480458565856D64
:1030600005F480450595C56C45F00205C564C06C46
:1030700002AD00F00200059085E81A00B000CDE92D
:10308000000269460548FEF777FE06B070BD0000F5
:1030900000300140001002400038004000040048A9
:1030A0002DE9F05F044690F85C0000270A9E1D465B
:1030B00092468B464FF0010901280ED0012084F87A
:1030C0005C00FEF74FFF804694F85D0061680128C0
:1030D0000CD0B1F5827F07D102E0022000F011B9D7
:1030E000A16809B9042801D0022700E1BBF1000F53
:1030F00024D0BAF1000F21D005B394F85D00042864
:1031000002D0052084F85D0000202066C4F840A0AD
:10311000A4F84650A4F84450C4F838B0E587A58711
:10312000E0642065E0684FF4E061884201D8012D39
:1031300006D92068426822F4805205E00127D6E0D3
:103140002068426842F48052426020680268520659
:1031500003D4026842F040020260E068884260687E
:1031600045D908B1012D3AD1A06B21680088C8600B
:10317000A06B801CA063E08F401EE0872FE02068DA
:10318000816889070FD5E18F69B1B9F1010F0AD1C3
:10319000A16B0988C160A06B801CA063E08F401EFA
:1031A000E0874FF0000920688168C9070FD0B4F8A4
:1031B000461061B1C068216C0880206C801C2064BE
:1031C000B4F84600401EA4F846004FF00109FEF78F
:1031D000C9FEA0EB0800B04201D3701C75D1E08F8E
:1031E0000028CCD1B4F846000028C8D176E008B158
:1031F000012D6CD1E08F0128A06B08D921680088CF
:10320000C860A06B801CA063E08F801E07E021686F
:1032100000780873A06B401CA063E08F401EE0871D
:1032200055E02068816889071AD5E18FC1B1B9F1ED
:10323000010F15D1E18F0129A16B07D90988C16060
:10324000A06B801CA063E08F801E06E009780173EC
:10325000A06B401CA063E08F401EE0874FF0000988
:1032600020688168C90728D0B4F8461029B3B4F89B
:103270004610012914D9C068216C0880206C801C7C
:103280002064B4F84600801EA4F84600B4F8460056
:10329000012810D82068416841F4805141600AE05B
:1032A000007B216C0870206C401C2064B4F8460040
:1032B000401EA4F846004FF00109FEF753FEA0EBB4
:1032C0000800B04202D3701C01D018E0BEB1E08FFC
:1032D0000028A6D1B4F846000028A2D142463146C3
:1032E000204601F0E3FB10B10127202020660120D9
:1032F00084F85D00002084F85C003846EEE6032781
:10330000F5E730BCBDE8C09F70477047704710B507
:10331000040003D094F83D0010B107E0012010BD77
:10332000002084F83C00204600F022F8022084F8B7
:103330003D00211D206801F019FD012084F848009E
:1033400084F83E0084F83F0084F8400084F841008F
:1033500084F8420084F8430084F8440084F845006F
:1033600084F8460084F8470084F83D00002010BD32
:103370007047000090F83D10012901D001207047EE
:10338000022180F83D100168CA6842F00102CA605B
:1033900000680B49884205D0B0F1804F02D009493E
:1033A000884207D18168084A1140062906D0B1F544
:1033B000803F03D0016841F00101016000207047A7
:1033C000002C01400040014007000100704770B52B
:1033D0000446006801694FF00005C943890715D408
:1033E000C168C943890711D4E91E01610120207712
:1033F000206880698007204602D0FFF7E7FF04E0DD
:1034000000F0A7F8204600F0A5F8257720680169AC
:10341000C943490717D4C168C943490713D46FF09A
:1034200004010161022020772068806910F4407F48
:10343000204602D0FFF7CAFF04E000F08AF82046D9
:1034400000F088F8257720680169C943090716D478
:10345000C168C943090712D46FF008010161042053
:1034600020772068C0698007204602D0FFF7AEFFB2
:1034700004E000F06EF8204600F06CF82577206834
:103480000169C943C90617D4C168C943C90613D421
:103490006FF010010161082020772068C06910F4E6
:1034A000407F204602D0FFF791FF04E000F051F882
:1034B000204600F04FF8257720680169C943C90705
:1034C00008D1C168C943C90704D1891E01612046DA
:1034D00000F042F820680169C943090609D4C168AF
:1034E000C943090605D46FF0800101612046FFF74A
:1034F0000CFF20680169C943C90509D4C168C943E3
:10350000090605D46FF4807101612046FFF7FCFEC7
:1035100020680169C943490609D4C168C9434906FD
:1035200005D46FF040010161204600F01FF82068CB
:103530000169C94389060BD4C168C943890607D408
:103540006FF0200101612046BDE87040FFF7DEBE4C
:1035500070BD70477047000000680349884201D180
:10356000FEF706BD7047000000100040704770472E
:10357000704770B50446806FE66F216889684FF028
:103580001005090618D5212816D12068083050E802
:10359000001F21F0800140E80012002AF5D1E06E02
:1035A00038B1FEF7A6FA20B1E06EFEF7EEFA202859
:1035B00021D0204601F06BFD20688068400618D5B8
:1035C000222E16D12068083050E8001F21F040015B
:1035D00040E80012002AF5D1206F38B1FEF789FAD1
:1035E00020B1206FFEF7D1FA202804D0204601F048
:1035F00029FD002070BDC4F88050032070BD7047C5
:103600002DE9F04102680446D0691168936840F6DC
:103610000F0528424FF0000505D186067ED58E069F
:103620007CD5616E1BE1994F03F001060F403743D3
:1036300074D0C70709D0CF0507D501271762D4F882
:10364000802042F00102C4F8802082070AD5DA0700
:1036500008D0276802223A62D4F8802042F004029F
:10366000C4F8802042070AD5DA0708D0236804226C
:103670001A62D4F8802042F00202C4F880200207C7
:103680000CD501F02002324308D0236808221A62C8
:10369000D4F8802042F00802C4F8802002050BD53F
:1036A0004A0109D523684FF400621A62D4F88020D9
:1036B00042F02002C4F88020D4F88020002A35D0BF
:1036C000800605D5880603D5616E09B12046884776
:1036D000D4F8800021688968490602D410F0280FC8
:1036E00026D0204601F0AEFC2068806840061AD53E
:1036F0002068083050E8001F21F0400140E8001227
:10370000002AF5D1206F70B161498163206FFEF707
:1037100015FA00280AD0206F816B01E00EE02046E8
:10372000BDE8F04108472046FFF769FFBDE8F0819A
:103730002046FFF764FFC4F88050F7E7276E202685
:10374000012F7BD1C70679D5CF0677D5102010621F
:1037500020688068400641D5216F086840680004F1
:10376000000CE3D0B4F858208242DFD9A4F85A0004
:103770000868006880062AD4206850E8001F21F4F9
:10378000807140E80012002AF6D12068083050E825
:10379000001F21F0010140E80012002AF5D1206845
:1037A000083050E8001F21F0400140E80012002AD4
:1037B000F5D1E6672566216851E8000F20F010007A
:1037C00041E80002002AF6D1206FFEF792F9B4F822
:1037D0005800B4F85A10401A81B22AE0B4F85800E0
:1037E000B4F85A10401A81B2B4F85A0000289DD09B
:1037F00000299BD0226852E8000F20F4907042E824
:103800000003002BF6D12068083050E8002F22F08A
:10381000010240E80023002BF5D1E66725666566C6
:10382000226852E8000F20F0100042E80003002B4D
:10383000F6D12046FFF79BFE78E7FFE7C70209D5E0
:103840005B0207D54FF4801010622046BDE8F041BE
:10385000FFF78EBE020606D50A0604D5A16E002922
:103860007FF45DAF62E74006E6D54806E4D5204622
:10387000026852E8001F21F0400142E80013002BCB
:10388000F6D18667856600F015FA4FE7200100043F
:10389000FD4E000810B5040002D0A06F10B107E083
:1038A000012010BD002084F87400204600F026F8A6
:1038B0002420A0672068016821F0010101602046F2
:1038C00001F0F2FB0128ECD0606A10B1204601F053
:1038D00083FA2068416821F4904141602068816842
:1038E00021F02A0181602068016841F00101016036
:1038F0002046BDE8104001F0D3BA00002DE9F047A2
:103900009EB00646142117A8FCF71BFD5C216846F3
:10391000FCF717FD62493068624C032702254FF01F
:1039200007094FF0904A4FF00008884259D1012012
:103930000090CDF820806846FEF71CFC08B1FDF72A
:10394000BBFC206E40F480402066206E00F4804076
:103950001C90E06C40F00100E064E06C19AA00F0FB
:1039600001001C904FF4C060CDE91705444682E881
:10397000900217A95046FEF7FFF94C4F4A484FF006
:1039800080083860C7E90154C7E9034820207C61FA
:10399000C7E9064038463C62FEF756F908B1FDF724
:1039A0008BFC3767BE62414F3F4848371438E7E821
:1039B00002051020A7E811013C4847F81449483097
:1039C000BC61FC613C62FEF73FF908B1FDF774FC95
:1039D000F766002207212520BE62FEF755FB252051
:1039E0002AE0334988422CD16846CDF824800095DE
:1039F000FEF7C0FB08B1FDF75FFCA06D40F400309E
:103A0000A065A06D00F400301C90E06C40F0010057
:103A1000E064E06C17A900F001001C900C2081E824
:103A20002101CDE91A795046FEF7A6F900220721B7
:103A30002620FEF729FB2620FEF718FB1EB0BDE866
:103A4000F0871C498842F9D10420CDF828800090E5
:103A50006846FEF78FFB08B1FDF72EFCA06D40F421
:103A60008020A065A06D00F480201C90E06C40F0E8
:103A70000200E064E06C17A900F002001C904FF413
:103A8000406081E82101CDE91A790B48FEF774F90D
:103A9000002208212720FEF7F7FA2720CCE70000B4
:103AA0000038014000100240580002401C0800206D
:103AB00000440040004800400004004830B4C36F98
:103AC000202B20D1E1B1DAB190F87430012B1AD05B
:103AD000012380F87430002303660C4C0368A34272
:103AE0000BD05B681B0208D5046854E8003F43F024
:103AF000806344E80035002DF6D130BC01F0D4BB22
:103B0000012030BC70470220FBE70000008000402D
:103B10001CB500680D49884217D10D48012101707C
:103B20000021019101A9002300911A4619468068DD
:103B300003F094FD0198002807D006494FF080500B
:103B40000860BFF34F8FBFF36F8F1CBD003801407B
:103B50001400002004ED00E0704700002DE9F84358
:103B60000446806F1F4616460D4620284FD1CDB122
:103B7000C6B194F87400012849D0012084F874007B
:103B80004FF00008C4F880802120A067FEF7EAF912
:103B9000A4F850608146A4F85260A068B0F5805F38
:103BA00003D004E00120BDE8F883206928B12E4647
:103BB0005FF0000584F8748010E00026FAE78021A9
:103BC000204601F0C3FBB8B9C6B116F8010B216855
:103BD0000885B4F85200401EA4F85200B4F8520010
:103BE0004B464FF0000200970028E8D14FF040010B
:103BF000204601F0ABFB30B10320D4E735F8020BCF
:103C0000C0F30800E3E72020A0670020CBE70220F4
:103C1000C9E7000070B50446806F202841D169B320
:103C200062B394F8740001283BD0012084F874003A
:103C3000E164A4F85020A4F852200025C4F8805074
:103C40002120A067E06ED8B11749C162E16E174824
:103C500013460863E16E16484863E06E8563266884
:103C6000E16C06F12802E06EFEF74EF840B110203C
:103C7000C4F8800004F8745F20206060012070BDEB
:103C800021684020086284F874502068083050E8A9
:103C9000001F41F0800140E80012002AF5D1002009
:103CA00070BD022070BD0000F94F00083B500008B5
:103CB000114F000800680349884202D102490020E0
:103CC0004870704700380140140000207047FEE73C
:103CD0002DE9F041234E0F46804600240122802129
:103CE0003046FEF739F900256006040E0122402116
:103CF0003046FEF731F96420FDF7AEF880213046FA
:103D0000FEF725F908B144F00104002240213046B5
:103D1000FEF722F96420FDF79FF86D1CEDB2082D27
:103D2000E2D387F0010280213046FEF715F9012227
:103D300040213046FEF710F96420FDF78DF800228F
:103D400040213046FEF708F96420FDF785F801228E
:103D500080213046FEF700F988F800400120BDE8D8
:103D6000F08100000004004810B5104C01228021B1
:103D70002046FEF7F1F8012240212046FEF7ECF83C
:103D80006420FDF769F8002280212046FEF7E4F860
:103D90006420FDF761F8002240212046FEF7DCF8A0
:103DA000BDE810406420FDF757B80000000400484B
:103DB00010B50C4C002280212046FEF7CDF80122E0
:103DC00040212046FEF7C8F86420FDF745F801229F
:103DD00080212046FEF7C0F8BDE810406420FDF7C2
:103DE0003BB800000004004870B51F4E0546002493
:103DF000EA0980213046FEF7AFF86806050E012279
:103E000040213046FEF7A8F86420FDF725F800228F
:103E100040213046FEF7A0F86420FDF71DF8641C31
:103E2000E4B2082CE4D30122802134463046FEF768
:103E300093F8012240212046FEF78EF86420FDF71A
:103E40000BF880212046FEF782F850B100250022B1
:103E500040212046FEF780F86420FCF7FDFF28464D
:103E600070BD0125F3E700000004004800EB81006D
:103E7000006E00F0F84070478068C0F3C0007047E3
:103E80008068C0F380007047C06810F4406F01D0B4
:103E90000020704701207047042303EAD15310B576
:103EA00018444369C1F3045107248C40A3438A405A
:103EB0001343436110BD00EB8100016E21F000410E
:103EC000114301667047000030B587B0182168467D
:103ED000FCF737FA184817490024C0E90014846039
:103EE0000425C460C0E90445047644760121C1611B
:103EF00080F820408462C46280F83040446380F8D7
:103F00003840FDF719FC08B1FDF7D6F90B480090D1
:103F100006200190022002907F200594CDE9030540
:103F200069460548FDF70AFA002801D0FDF7C4F9F3
:103F300007B030BD00000450400300200002B0254F
:103F40000D4808B5816C41F001018164806C00224C
:103F500000F00100009005210E20FEF795F80E20DC
:103F6000FEF784F8002206210F20FEF78DF8BDE849
:103F700008400F20FEF77AB80010024000B587B065
:103F80001C2206496846FCF7C3F90021684602F086
:103F90004CF90349086007B000BD0000B07A000882
:103FA000100000202DE9F04186B014216846FCF78E
:103FB000C8F94448C16C41F00401C164C16C01F00E
:103FC00004010591C16C41F08001C164C16C01F034
:103FD00080010591C16C41F00101C164C16C01F027
:103FE00001010591C16C41F00201C164C06C4FF048
:103FF000904700F00200059000224FF4817138468E
:10400000FDF7AAFFDFF8C080002241F26731404689
:10401000FDF7A2FF012208214046FDF79DFF002485
:104020000225CDE90054694628480294FDF7A4FE14
:104030000126CDE90056CDE9026569463846FDF70F
:104040009BFE40208DE8310069463846FDF794FE1E
:1040500041F24700CDE9000669464046CDE90245F8
:10406000FDF78AFEE801CDE9000669463846CDE94C
:104070000245FDF781FE4FF418408DE85100694676
:104080003846FDF779FE28200090CDE901646946A5
:1040900040460394FDF770FE9020CDE90004694688
:1040A00040460294FDF768FE4FF4407000901120E6
:1040B0000395CDE9010669464046FDF75DFE06B071
:1040C000BDE8F0810010024000040048001C0048D8
:1040D00010B586B014216846FCF733F91F48002458
:1040E0001D490594C0E900147F218160FF21C0E9CA
:1040F000031444618461C461FEF7CEFD08B1FDF78D
:10410000DBF811208DF800002D208DF8010017201C
:104110008DF8020003940022694610480494FEF7CB
:104120007BFE08B1FDF7C8F806208DF814000220C8
:104130008DF815000F208DF8160019208DF8170046
:10414000002205A90548FEF717FE002801D0FDF75B
:10415000B3F806B010BD000000280040A403002002
:10416000124810B5104901604FF48271416000217E
:104170004FF4E062C0E902124FF400720161C0E93D
:1041800005122022C0E9072107224162C0E90A1274
:10419000016308214163FEF7C0FE002803D0BDE89B
:1041A0001040FDF789B810BD00300140C803002061
:1041B000124810B5104901604FF48271416000212E
:1041C0004FF4E062C0E902124FF400720161C0E9ED
:1041D00005121822C0E9072107224162C0E90A122C
:1041E000016308214163FEF798FE002803D0BDE873
:1041F0001040FDF761B810BD003800402C040020CD
:104200001CB5012002F0B8FF1749002348600420C4
:104210000831CDE90001820114A1174803F0C2F969
:10422000174C16480C2120604FF4E12060600020FC
:10423000A060E060C4E90401A061E0612062606206
:104240002046FFF727FB08B1FDF736F82068016824
:1042500041F01001016002B04FF40072BDE810405F
:1042600008490748FFF72ABC14000020526563651F
:104270006976655461736B00556D00080038014024
:1042800090060020900400200D4810B50B490160F5
:104290004FF4E1314160002181600C22C160C0E92E
:1042A00004128161C16101624162FFF7F3FA0028E3
:1042B00003D0BDE81040FCF7FFBF10BD0044004034
:1042C000140700200D4810B50B4901604FF4E1318F
:1042D0004160002181600C22C160C0E9041281614B
:1042E000C16101624162FFF7D5FA002803D0BDE841
:1042F0001040FCF7E1BF10BD0048004098070020C7
:10430000FEE7FEE730B52849CA8A022A0AD0042A05
:104310001DD0062A01D0072A18D140EA0010002239
:10432000C3B23CE00022C3B20DE0002006E000BFB3
:1043300002FB04040D68401C80B22B554C8A844259
:10434000F6D8521C92B2888A9042EED830BD8301D2
:1043500043EA0013002243EA80030343DBB20CE08C
:10436000002005E002FB04040D68401C80B22B55C0
:104370004C8A8442F6D8521C92B2888A9042EFD876
:1043800030BD002006E000BF02FB04040D68401CA5
:1043900080B22B554C8A8442F6D8521C92B2888A3D
:1043A0009042EED830BD0000400D0020530700D0F1
:1043B000012303EBD20313FB02F2D3B2027840785D
:1043C000812A05D3402803D3FF2801D0FF2A09D131
:1043D0000020024604E000BF401C01F8012BC0B2DF
:1043E0009842F9D37047000070B50D4C049E00252B
:1043F000206021816281A6810220E0824E074FEA7F
:10440000D10000D0401C6082A282E381258223B1CA
:10441000B42B02D0A280E18070BDA180E28070BD8B
:10442000400D00200149086070470000400D002049
:10443000F0B43C4CA388834234D3E3888B4231D31D
:104440002346E7891E895D89CFB15A2F1AD0B42F30
:104450001CD0B7F5877F42D10B46281A401E80B288
:10446000218AD9B1012916D0022904D0032936D1D5
:10447000F11A491E8BB2281A401E80B20EE0034684
:104480000846EDE7711A491E8BB2E9E7301A401E63
:1044900083B2681AE2E7F11A491E8BB29E4201D339
:1044A000854203D2F0BC20A001F0F4B81D49E58A92
:1044B0004C8A0968022D14D0042D23D0062D01D07A
:1044C000072D0CD1444304EB5300DB075B0FF025B1
:1044D000DD400C5C1201AC43DA4022430A54F0BCCC
:1044E0007047444304EBD3058024002A485D03F061
:1044F000070224FA02F402D004434C55EFE7A0432C
:104500004855ECE7444304EB930094079B075D0F89
:104510000A5CC023EB409A43230EEB4013430B5439
:10452000DDE70000400D002044656275673A2045D4
:104530007863656564696E6720646973706C61791E
:1045400020626F756E6461726965730D0A00000008
:104550002DE9F05F8846DDE90ABA8146102B04D0C8
:10456000182B04D0302B05D103E0344C02E0344C3E
:1045700000E0344C344885884D4502D3C18841451C
:1045800004D200F083B831A001F084B8A088302BA9
:104590004FEA40710CD001B1012101EBD000203A6B
:1045A00010FB02F0E188484321680F18002640E024
:1045B00001B1012101EBD000303AF1E700252FE0F5
:1045C000387805F007028021D1400840BBF1000F88
:1045D0000CD0BAF1010F1DD0A8B100BF08EB060046
:1045E00081B209EB050080B200220AE0BAF1010FA6
:1045F0000DD040B108EB060081B209EB050080B296
:10460000FF22FFF715FFE843400706D006E0002829
:10461000E4D0EFE70028EDD0E0E77F1C6D1CADB2E1
:10462000A088A842CCD82079400700D07F1C761CF7
:10463000B6B2E088B042C1D800F02DB85C000020CE
:10464000640000206C000020400D0020446562756D
:10465000673A205061696E745F44726177436861A4
:104660007220496E70757420657863656564732087
:10467000746865206E6F726D616C20646973706C14
:1046800061792072616E67650D0A000030BCBDE87B
:10469000C05FFFF778BF30BCBDE8C09F2DE9FF4F7A
:1046A00093B01C46DDF884B013460D46894660077A
:1046B00000D0012000EBD40010FB04F000F0FF0A52
:1046C0000C2C03D0102C01D0182C42D12246694664
:1046D0001846FFF76BFE002639E000BF1DF8067094
:1046E0004FF00008209818B1BBF1010F0CD010E07A
:1046F000BBF1010F04D1002229461398FFF798FE61
:1047000038060DD5FF2207E0FF2229461398FFF750
:104710008FFE380604D5002229461398FFF788FE3D
:1047200078066D1C070EADB2A5EB0900A04205D1BD
:1047300013984D46401C80B2139006E008F101002A
:1047400000F0FF08B8F1080FCCD3761CF6B256453E
:10475000C4D317B000F000B830BCBDE8C08F2DE95D
:10476000FC5F05461C4617460E461046DDF834B081
:10477000FBF7F2FD6043397880B2A84600291FD0CC
:1047800008EB000A3019A0EB04093A78802A19D9FD
:10479000AAEB0400A84202DA301986B24546B145B8
:1047A0000EDB0C99CDE9001B23463A4631462846DC
:1047B000FFF774FF281917F8021F85B20029E4D10A
:1047C00000F01EB8AAEB5400A84202DA301986B2F3
:1047D0004546B145F4DB0D2A0DD00C99CDE9001BFF
:1047E000234631462846FFF7B3FE05EB540085B259
:1047F00017F8011FE2E7301986B245467F1CF4E73F
:104800003CBCBDE8C09F7047704700002DE9F041F7
:10481000444C05468846E0680026810728680DD08C
:10482000E16801F00301814216D1A8B1E06869682E
:10483000C0F30210401C88420ED120E0012804D0B1
:10484000022805D0032807D108E02168890701E084
:1048500021684905002907DB01265FE021688903FB
:1048600002D421684903F5E7E1686A686FF00F0335
:1048700021F0730103EB021211430143E160206850
:1048800020F080602060FDF76DFB074605E000BF6B
:10489000FDF768FBC01B022837D820680001F7D459
:1048A000B8F1000F18D0B8F1010F1DD0287D4FF0DE
:1048B0007E41400801EB4060A96840EA012021697F
:1048C000194A114008432061206840F08060206050
:1048D000FDF748FB07461AE0A868297B000240EA7A
:1048E000C1602169114AECE7288A1149400801EBAF
:1048F0004050A96840EA012021690E4AE1E700BF63
:10490000FDF730FBC01B022801D9032606E0206812
:104910000001F5D52069A969084320613046BDE84A
:10492000F081000000100240FF80FFF9FF80FF07C8
:104930000000E0FFFF809FFFF8B51C4D06460024F5
:10494000A86DC00002D5FDF705FC0DE0A86D40F094
:104950008050A865A86D00F080500090FDF7FAFB2C
:10496000A96D21F08051A965B0F5007F04D0802E9B
:1049700007D94FF003040AE0802E08D9A02E01D8F1
:1049800004E001D1022402E0702E00D10124084885
:10499000016821F0070121430160006800F0070071
:1049A000A04201D00120F8BD0020F8BD0010024057
:1049B00000200240010901EB810100F00F0000EB33
:1049C0004100C0B270470022014602E00A39C9B274
:1049D000521C0A29FAD2100741EA10607047000001
:1049E0002DE9F041044600680025C168490617D446
:1049F000691EC160FDF7B6FA06464FF47A780327C0
:104A000008E000BFFDF7AEFA801B404502D9032540
:104A100084F821702068C068400601D4032DF1D1CC
:104A20002846BDE8F08100002DE9F0410646134814
:104A30000025016821F080010160041F20684FF00B
:104A40000307800607D43046FEF74CFA90B186F88B
:104A5000217003250EE0206820F020002060304601
:104A6000FEF740FA10B186F821700325206840F067
:104A7000200020602846BDE8F08100000C2800409E
:104A800001B582B000208DF80400401E0090012383
:104A900001AA02A90448FEF703FB08B1FF200EBDDE
:104AA0009DF804000EBD00002C040020F8B515464A
:104AB0000E460B460092044600224FF4C05100F00F
:104AC00019F888B93346002280212046009500F06D
:104AD00085F848B9334600224FF4C061204600955E
:104AE00000F008F8002804D0206E40F02000206676
:104AF0000320F8BD2DE9FE4F4FF0000A98461746F7
:104B00000E4604460C9D8DF804A0FDF72BFA411BC0
:104B1000A8EB0105FDF726FA814620684FF4C06B2B
:104B20000C3002902A480068C0EBC00000EB800007
:104B3000000D6843009043E05E4506D12FB902980E
:104B400000788DF804009DF80400B8F1FF3F37D0DD
:104B5000FDF708FAA0EB0900A84203D215B10098AE
:104B600058B32BE02068416821F0E00141606068A3
:104B7000B0F5827F0BD1A068B0F5004F02D0B0F540
:104B8000806F04D12068016821F040010160A06AB3
:104B9000B0F5005F09D12068016821F4005101607F
:104BA0002068016841F400510160012084F85D0033
:104BB00084F85CA0032000F00DB80025401E009092
:104BC000206880683040B842B6D10020F3E700008A
:104BD0002C0000201EBCBDE8E08F00002DE9F8434A
:104BE0001E46914688460446089DFDF7BBF9401BCA
:104BF000351AFDF7B7F9074625480068C0F3CB30F2
:104C0000684338E0701C37D0FDF7ACF9C01BA842F0
:104C100003D215B1009860B32CE02068416821F000
:104C2000E00141606068B0F5827F0BD1A068B0F50B
:104C3000004F02D0B0F5806F04D12068016821F0E8
:104C400040010160A06AB0F5005F09D120680168E9
:104C500021F4005101602068016841F400510160B5
:104C6000012084F85D00002084F85C000320BDE88A
:104C7000F8830025401E00902068816838EA010012
:104C800004D000214945BDD10020F0E70121F9E71A
:104C90002C000020012001F0BCFAFBE710B55020E9
:104CA00080F31188BFF34F8FBFF36F8F02F066FD63
:104CB00018B104494FF080500860002080F311883B
:104CC00010BD000004ED00E010B596B04421684628
:104CD000FBF737FB142111A8FBF733FB4FF40070EF
:104CE000FDF704FA08B172B6FEE7FDF73BFA174884
:104CF00050F8901F21F01801016005200090000479
:104D00000121CDE90101022003240A90CDE90B41E4
:104D100014210D910721CDE90E1010906846FDF782
:104D2000BFFC08B172B6FEE70F20CDE911040020E8
:104D3000139014901590042111A8FDF779FB002819
:104D400001D072B6FEE716B010BD000000100240A0
:104D50000248016841F470010160704788ED00E08D
:104D60000148FEF734BB0000AC08002070B50268B3
:104D7000164B4FF08046984201D0B04203D122F04A
:104D800070044A682243124C124D984205D0B0423A
:104D900003D0A04201D0A84203D122F44076CA68D1
:104DA00032434E6922F08002324302608A68C26256
:104DB0000A688262984203D0A04201D0A84201D181
:104DC000096901630121416170BD0000002C0140AF
:104DD000004001400044014090F82410C90706D06B
:104DE00001684A68836A22F400321A434A6090F8E4
:104DF0002410890706D501684A68C36A22F4803204
:104E00001A434A6090F82410490706D501684A6899
:104E1000036B22F480221A434A6090F82410090799
:104E200006D501684A68436B22F400421A434A607F
:104E300090F82410C90606D501688A68836B22F4AD
:104E400080521A438A6090F82410890606D50168BA
:104E50008A68C36B22F400521A438A6090F82410C7
:104E6000490611D501684A68036C22F480121A437E
:104E70004A60016CB1F5801F06D101684A68436C35
:104E800022F4C0021A434A6090F82410090606D59D
:104E900001684A68806C22F4002202434A6070472D
:104EA000F8B500260446C0F88060FDF75BF80546BB
:104EB000206800686FF07E47000708D52B46002267
:104EC0004FF400112046009700F040FA60B92068C6
:104ED000006840070AD52B4600224FF48001204687
:104EE000009700F033FA08B10320F8BD2020A06736
:104EF000E067266684F874600020F8BD10B5806A0B
:104F00000021A0F85A10A0F85210FEF778FB10BD4F
:104F100070B5846AA06FE56F216889684FF000065C
:104F2000090606D5212804D1A4F85260204600F0D5
:104F3000AEF820688068400606D5222D04D1A4F87A
:104F40005A60204600F07EF8D4F8800040F010004F
:104F5000C4F880002046FEF752FB70BD10B5014634
:104F6000806A0968096889062DD40021A0F85A10C2
:104F7000016851E8002F22F4807241E80023002BE1
:104F8000F6D10168083151E8002F22F0010241E812
:104F90000023002BF5D10168083151E8002F22F0E1
:104FA000400241E80023002BF5D12021C167016EAA
:104FB000012908D1026852E8001F21F0100142E8DF
:104FC0000013002BF6D1016E012902D0FEF7A0FDDF
:104FD00010BDB0F85810FEF7CAFA10BD10B5806ABF
:104FE000016E012902D0FEF7B7FD10BDB0F85810D0
:104FF0004908FEF7BCFA10BD10B50146806A096881
:105000000968890616D40021A0F8521001680831F9
:1050100051E8002F22F0800241E80023002BF5D157
:10502000026852E8001F41F0400142E80013002BE3
:10503000F6D110BDFEF73EFE10BD10B5806AFEF73A
:1050400045FE10BD016851E8002F22F4907241E83E
:105050000023002BF6D10168083151E8002F22F01F
:10506000010241E80023002BF5D1016E012908D18E
:10507000026852E8001F21F0100142E80013002BE3
:10508000F6D12021C16700210166416670470268A0
:1050900052E8001F21F0C00142E80013002BF6D1B6
:1050A00020218167704700002DE9F0410446016826
:1050B00080682269E3691043626900251A4310433E
:1050C000714F0A68714B1A4002430A6020684168B8
:1050D000E26821F44051114341602168A069B9425E
:1050E00001D0226A10438A6822F4306202438A6047
:1050F0006749236867488B420DD1D0F8880010F0CB
:10510000030006D0012847D0022843D0032830D11D
:1051100044E001212EE060498B420BD1D0F8880099
:1051200010F00C0034D0042836D0082832D00C28D7
:105130001FD133E059498B420BD1D0F8880010F0D1
:10514000300025D0102827D0202823D0302810D197
:1051500024E0BB420DD1D0F8880010F4406017D095
:10516000B0F5806F18D0B0F5006F13D0B0F5406F78
:1051700014D010214A4A00264FF40040BB422FD1E0
:1051800071B102290FD004290FD0082973D10FE083
:105190000021EFE70221EDE70421EBE70821E9E731
:1051A000FDF708FA03E0104602E0FDF727FAE8B33E
:1051B000626802EB420181425DD8B0EB023F5AD8EF
:1051C000010E03025008181871410023FBF76CF818
:1051D000344AA0F5407191424DD82168C8604BE037
:1051E000E3694FF6EF77834228D1092943D2DFE8FC
:1051F00001F005080B420D4242421000FDF7DAF9BA
:1052000006E0FDF7E9F903E0104602E0FDF7F6F9E4
:1052100060B14100606801EB5001B1FBF0F0A0F11A
:105220001001B94227D84FF6F07100E024E00140A8
:10523000C0F3420001432068C1601DE009291AD271
:10524000DFE801F005080B190D1919191000FDF719
:10525000B1F906E0FDF7C0F903E0104602E0FDF702
:10526000CDF948B1616800EB5100B0FBF1F0A0F15D
:105270001001B94205D9012566662846A666BDE833
:10528000F08180B2A9E7000000800040F369FFEFE1
:105290000038014000100240004400400048004037
:1052A0000024F400FFFC0F0070B54165A0F8582001
:1052B00000250446C0F880502220E067206FD8B156
:1052C0001F49C162216F1F4813460863216F1E48A2
:1052D0004863206F8563666D216832462431206FF4
:1052E000FCF712FD40B11020C4F8800004F8745F90
:1052F0002020A060012070BD84F87450206940B166
:10530000216851E8000F40F4807041E80002002A53
:10531000F6D12068083050E8001F41F0010140E854
:105320000012002AF5D12068083050E8001F41F033
:10533000400140E80012002AF5D1002070BD0000B5
:105340005D4F0008DD4F0008114F00082DE9F047C0
:105350009A4617460E4604464FF000094FF02008C3
:10536000089D4AE0681C48D0FCF7FCFDA0EB0A0051
:10537000A8422AD84DB32068016849073DD5C069C5
:10538000C043000539D421684FF4006008622068EA
:1053900050E8001F21F4D07140E80012002AF6D135
:1053A0002068083050E8001F21F0010140E8001299
:1053B000002AF5D1C4F87880C4F87C80C4F88080D5
:1053C00084F874900320BDE8F087216851E8000F4D
:1053D00020F4D07041E80002002AF6D1206808309D
:1053E00050E8001F21F0010140E80012002AF5D129
:1053F000C4F87880C4F87C80E2E72068C06936EAA7
:10540000000004D00020B842ACD00020DBE701202F
:10541000F9E700002DE9F0410F4C0E4607464FF02A
:10542000FF31606801F0C8FF012813D1207848B12E
:1054300000252570628809493846FAF769FF6088B7
:10544000306065806068BDE8F04100231A46194667
:1054500001F002BFBDE8F08114000020900400209C
:1054600070B50C460646B1F5007F18D80C4D4FF0CC
:10547000FF31686801F0A0FF012810D1A2B23146C7
:105480000848FEF7C7FB10B107A000F003F96868F1
:10549000BDE8704000231A46194601F0DDBE70BD1C
:1054A00014000020900600205553415254312044EE
:1054B0004D412053656E64204572726F72210D0A52
:1054C00000000000074910B54FF4007201F50070AC
:1054D000FEF7F4FA002804D0BDE8104002A000F066
:1054E000D9B810BD90040020555341525431204486
:1054F0004D412052656365697665204572726F7211
:10550000210D0A0010B500F013F8BDE81040014865
:10551000FEF776B8900600200148FEF771B800004B
:10552000140700200148FEF76BB800009807002020
:105530001CB51B48FEF764F8194C2068C169C943C3
:10554000C9062BD4102101622046FEF712F8206F05
:1055500000684068C0F50071124841804188C9B1B7
:105560004188B1F5007F15D801210170002101911A
:1055700001A9002300911A461946806802F06EF8CE
:10558000019838B108494FF080500860BFF34F8F41
:10559000BFF36F8FBDE81C40FFF794BF1CBD000038
:1055A000900600201400002004ED00E0FEE700005B
:1055B00010B5012211024FF09040FCF7CDFC00F035
:1055C00042F8044908800146BDE8104002A000F0FE
:1055D00061B8000030000020464C4153485F494408
:1055E0003A20305825580D0A000000002DE9F041FE
:1055F00015460C4606464FF480774FF0904800223F
:1056000039464046FCF7A8FC0320FFF739FAC4F3FB
:105610000740FFF735FAC4F30720FFF731FAE0B28D
:10562000FFF72EFA002405E0FF20FFF729FA305596
:10563000641CA4B2AC42F7D339464046BDE8F04101
:105640000122FCF789BC70B500244FF480754FF03F
:105650009046224629463046FCF77EFC9020FFF714
:105660000FFA0020FFF70CFA0020FFF709FA0020DC
:10567000FFF706FAFF20FFF703FA44EA0024FF20B1
:10568000FFF7FEF90443012229463046FCF764FC8B
:10569000204670BD0FB4054B10B503A9044A02980B
:1056A00000F0EEF810BC5DF814FB0000BD5F0008D0
:1056B000E80000200907090E002804DB00F1E020C3
:1056C00080F80014704700F00F0000F1E02080F82F
:1056D000141D704702E008C8121F08C1002AFAD141
:1056E00070477047002001E001C1121F002AFBD162
:1056F000704700002DE9FF5F82B00021DDE9043032
:10570000020DDDF840B0034318D044F61050A2F269
:10571000FF3242431514119801281FD0A5EB0B004E
:10572000401C5FEA000A4FF000064E4FDFF8389148
:10573000B046504615D5CAF1000413E01198012473
:105740004AA3012801D16FEA0B010298119AC0E91E
:105750000031C0E9024206B000F08EB8CBF1000083
:10576000DFE704460021404A491842EB0450CDE9E6
:10577000001012E0E00707D032463B46404649465B
:10578000FAF7A0FE8046894632463B461046194647
:10579000FAF798FE06460F466410002CEAD1DDE9C0
:1057A0000401DDE90023BAF1000F06DAFAF78AFEF8
:1057B00042464B46FAF786FE05E0FAF7AFFF42464F
:1057C0004B46FAF7ABFF04460E460022284BFBF788
:1057D0002DF803D84FF0FF30014607E00022254B9B
:1057E00020463146FAF7BFFDFBF707F8102409E021
:1057F000002C0ADB0A220023FAF756FD039B303205
:105800001A55641E50EA0102F2D1641C039AC4F1D5
:1058100011031444119A012A03D0012208430DD127
:105820000AE0084304D000204FF0110B119072E7FA
:10583000A3EB0B056D1E0DE05B4504DD4FF0000290
:1058400005F1010504E003DA4FF00002A5F10105BE
:10585000002AECD002981199C0E90231C0E9004554
:1058600079E70000000014400000F03F3000000025
:105870000000F0430000E03F30BCBDE8C09F0000E6
:105880002DE9FF4F95B09A46884606460025EEE181
:10589000252877D100242746F94A0121039400E006
:1058A000044316F8013F203B01FA03F01042F7D100
:1058B00030782A2811D06FF02F033078A0F1300211
:1058C000092A16D8039A44F0020402EB820203EB81
:1058D00042021044761C0390EFE758F8042B039221
:1058E000002A03DA504244F40054039044F00204C6
:1058F000761C30782E2816D116F8010F44F00404D7
:105900002A280DD06FF02F023078A0F13003092B38
:1059100009D807EB870302EB4303C718761CF3E7AC
:1059200058F8047B761C30786C280FD006DC4C28A5
:1059300017D068280DD06A2814D104E0742810D03C
:105940007A280FD10DE044F400140AE044F48014E6
:1059500001E044F440147278824202D104F58014CC
:10596000761C761C307866280BD013DC582877D04C
:1059700009DC002875D04528F6D04628F4D0472801
:105980001AD193E118E0632835D0642879D06528CE
:1059900012D18BE1702873D008DC6728F1D0692818
:1059A0006FD06E280DD06F2806D1ACE073282CD0B4
:1059B000752874D0782853D05246179990476D1C9B
:1059C00054E1C4F30250022809D003280DD0D8F8BE
:1059D000001004280DD00D6008F1040846E1D8F845
:1059E0000010EA17C1E90052F6E7D8F800100D8060
:1059F000F2E70D70F0E718F8041B8DF80010002096
:105A00008DF80100EB46012003E058F804BB4FF08D
:105A1000FF3061074FF0000102D40DE009F10101F0
:105A20008946B9420FDA8145F8DB1BF809100029D5
:105A3000F4D108E009F1010189468142FADB1BF843
:105A400009100029F6D103985346A0EB0907214617
:105A50003846179A00F083FA284400EB090507E05E
:105A600044E008E10DE01BF8010B524617999047FE
:105A7000B9F10109F7D2534621463846179AF2E0A8
:105A800039E00A21C4F302524FF0000B0091022AC0
:105A900006D058F8040BC117032A09D00AE023E006
:105AA00008F1070020F00702F2E80201904605E045
:105AB00000B2C117042A01D140B2C117002906DA89
:105AC0000A460021404261EB02012D2202E022053C
:105AD00004D52B228DF80420012203E0E20701D037
