:020000040800F2
:10000000781C00108502000803420008C73C000865
:1000100001420008050D0008D1540008000000004E
:10002000000000000000000000000000A501000822
:10003000A10E00080000000001020008794B000832
:100040009F0200089F0200089F0200089F0200080C
:100050009F0200089F0200089F0200089F020008FC
:100060009F0200089F0200089F0200089F020008EC
:100070009F0200089F0200082D0E0008390E00089C
:100080009F0200089F0200089F0200089F020008CC
:100090009F0200089F0200089F0200089F020008BC
:1000A0009F020008254C00089F0200089F020008DC
:1000B0009F02000800000000000000009F020008EE
:1000C0009F0200089F0200089F0200089F0200088C
:1000D0009F02000835540008495400089F02000898
:1000E000451100089F020008000000000000000009
:1000F0000000000000000000000000000000000000
:10010000000000009F020008000000009F0200089D
:1001100000000000000000009F0200089F0200088D
:100120009F0200089F0200089F0200089F0200082B
:100130009F02000800000000000000000000000016
:100140009F0200089F0200089F02000800000000B4
:100150009F0200089F0200089F0200089F020008FB
:100160009F0200089F0200089F0200080000000094
:100170009F0200089F02000800000000000000002D
:100180009F0200089F0200089F020008DFF810D0BD
:1001900000F006FC00480047E55F0008AFF3008070
:1001A000781C00102C4B1968086800F05AB880F3CE
:1001B0000988BFF36F8F4FF0000080F311887047FC
:1001C0000000000008480068006880F308884FF0CD
:1001D000000080F3148862B661B6BFF34F8FBFF39F
:1001E0006F8F00DF00BF00BF08ED00E0DFF80C00FC
:1001F000016841F470010160704700BF88ED00E0C4
:10020000EFF30980BFF36F8F134B1A681EF0100FC6
:1002100008BF20ED108A20E9F04F106009B44FF0BC
:10022000500080F31188BFF34F8FBFF36F8F06F03C
:10023000EDFF4FF0000080F3118809BC19680868D1
:1002400000F014B81EF0100F08BF00F014B880F3CF
:100250000988BFF36F8F7047D4000010EFF305805B
:10026000704730C8B0E8C04FFFF7A1BF30C8B0E852
:10027000C04FFFF7E7BFB0EC088AB0EC08CAFFF741
:10028000E6BF00000648804706480047FEE7FEE755
:10029000FEE7FEE7FEE7FEE7FEE7FEE7FEE7FEE736
:1002A000154C00088D0100082DE9F05F054600207F
:1002B00092469B4688460646814640241BE02846D7
:1002C00041464746224600F064FA53465A46C01A51
:1002D000914110D311461846224600F04BFA2D1AD0
:1002E00067EB01084F4622460120002100F042FA48
:1002F00017EB00094E41201EA4F10104DFDC484643
:1003000031462A46434600F000B830BCBDE8C09FE5
:1003100040EA01039B0703D009E008C9121F08C087
:10032000042AFAD203E011F8013B00F8013B521E07
:10033000F9D27047D2B201E000F8012B491EFBD27E
:1003400070470022F6E710B513460A4604461946E0
:10035000FFF7F0FF204610BDCAB2401E10F8011F83
:100360008A4202D00029F9D100207047421C10F8BF
:10037000011B0029FBD1801A704730B505460020CB
:10038000034600E05B1C934205D2EC5CC85C201A7B
:1003900001D1002CF6D130BD2DE9F04791460F4632
:1003A00080460446002614F8015B2DB100F014FAD3
:1003B0000068405DC007F6D12B2D02D02D2D18D03E
:1003C000641E4A463946204600F00AFA27B13968C9
:1003D000A14201D1C7F8008071054FF002040BD58E
:1003E0004042002803DD05F0FBF80460A007BDE8EB
:1003F000F08746F48066E4E70028F8DA05F0F0F8C4
:1004000004606FF00040F2E770B5064605F0E8F8CA
:10041000046805460A2200213046FFF7BDFF2C6024
:1004200070BD2DE9FE4F804681EA0300C00F0C46E7
:10043000009021F0004123F00045B8EB0200A941F3
:1004400005D24046214690461C460B46024623F004
:100450000040104347D0270DC7F30A00C3F30A51E9
:100460000290401A019040286BDAC3F3130040F465
:10047000801B0098924620B10023D2EB030A63EB65
:100480000B0B01985946C0F14002504600F072F93A
:1004900006460D4650465946019A00F08AF910EB7F
:1004A00008006141002487EA115284EAE7731A4385
:1004B00040D0009A62B3019A012A4FEA075215DC34
:1004C000001B61EB02014FF0004202EA0752CDE946
:1004D0000042001C41F5801132462B4600F0E1F944
:1004E00003B000F045B840462146F9E7001B61EB38
:1004F0000201001C41F5801300185B412018A2F591
:10050000001747EB030140EAD570B6196D4111E0C1
:100510006D084FEA360645EAC0754FEA0752001BE0
:1005200061EB0201001C41F5801149084FEA3000DF
:100530000019514132462B4603B000F01CB800F0C0
:10054000A1B90098012240000023D0EB020263EB26
:10055000E073009821464FEAE074B8EB000061EBCD
:100560000401E9E783F000435BE781F0004158E7CD
:1005700030BCBDE8C08F30BCBDE8C04FFFF7DFBF67
:100580002DE9FE4F81EA030404F0004421F000410C
:1005900000944FF0000B23F0004350EA01045ED0BA
:1005A00052EA03045BD0C3F30A54C1F30A552C4446
:1005B000A4F2F3340194A0FB0254C1F3130141F4FB
:1005C0008011C3F3130343F4801301FB024400FBC7
:1005D000034E840A970A44EA815447EA8357A4FBEE
:1005E000076802958D0A05FB07854FEA932C04FBEB
:1005F0000C542705029D4FEA065847EA1637B5EB1B
:1006000008056EEB070C870E920E47EA811742EA47
:100610008312A7FB0201B6EB0B0164EB00042B0D68
:1006200043EA0C335E1844EB1C50DA465146E7FBB4
:100630000201C5F313044FEA0B3343EA14534FEAA4
:100640000432019C43EA0603A4F10C040294009CCA
:10065000CDE900B400F025F903B000F003B80020A4
:100660000146F9E730BCBDE8C08F2DE9F04D81EAC5
:10067000030404F0004B21F0004514464FF0000A3B
:1006800023F0004150EA050220D054EA01021DD0B7
:10069000C5F30A570246C5F31303C1F31300C1F3B0
:1006A0000A5640F4801543F48013A7EB0608101B8C
:1006B000D64608F2FD3873EB050002D308F10108B5
:1006C00001E092185B41B8F1000F03DA0020014607
:1006D000BDE8F08D00204FF48011064684460EE000
:1006E000171B73EB050705D3121B63EB05030643CA
:1006F0004CEA010C49084FEA300092185B4150EA7D
:100700000107EDD152EA030012D082EA040083EA25
:100710000501084305D0101BAB4106D2012200237E
:1007200006E000224FF0004302E06FF00102531098
:100730001AEB06004CEB085110EB0A0041EB0B01E1
:10074000BDE8F04D00F09EB830B50B4601460020E4
:100750002022012409E021FA02F59D4205D303FA83
:1007600002F5491B04FA02F52844151EA2F1010204
:10077000F1DC30BD202A04DB203A00FA02F100202F
:1007800070479140C2F1200320FA03F319439040CF
:100790007047202A04DB203A21FA02F0002170473A
:1007A00021FA02F3D040C2F12002914008431946D9
:1007B0007047202A06DBCB17203A41FA02F043EAC1
:1007C000E07306E041FA02F3D040C2F1200291400A
:1007D000084319467047000000487047A4AA000863
:1007E0002DE9F05F82460078002715468B460AF116
:1007F0000104B946302801D09DB113E014F8010B73
:100800000127782803D0582801D045B10AE00DB15E
:10081000102D07D10027102514F8010B02E0082540
:1008200000E00A250026B0460EE005FB080005FBA7
:1008300006F1012701EB10461FFA80F8B6F5803F5C
:1008400000D3B94614F8010B294600F0BBF8002884
:10085000EBDABBF1000F05D00FB1641E00E0544687
:10086000CBF80040B9F1000F06D004F0B9FE022128
:100870000160C81E00F003B848EA0640FAE730BC41
:10088000BDE8C09F10B5141E73F1000408DA401CC7
:1008900041F1000192185B411A4301D120F001009F
:1008A00010BD2DE9F04D92469B4611B1B1FA81F28F
:1008B00002E0B0FA80F220329046FFF75BFF044678
:1008C0000F4640EA0A0041EA0B0153465A460843E4
:1008D00013D0114653EA010019D0C8F14002504626
:1008E000FFF757FF05460E46504659464246FFF76A
:1008F00041FF084305D0012004E020463946BDE809
:10090000F08D0020054346EAE0762C4337430A98F1
:100910006305E40AA0EB08000022FD0A44EA4754FC
:100920000A3002D500200146E9E7010510196941A6
:10093000DDE9084500196941BDE8F04DA2E7C1F3C2
:100940000A52C1F3130140F2FF3341F480119A427D
:1009500002DA00200146704740F233439A42A2F285
:10096000334202DC5242FFF714BFFFF703BF00001F
:1009700030B5041E71F1000404DB4FF00044404226
:1009800064EB0101141E73F1000405DB1C464FF0FB
:100990000043524263EB0403994208BF904230BDCA
:1009A000064C074D06E0E06840F0010394E80700BC
:1009B00098471034AC42F6D3FFF7ECFBE4AB0008E9
:1009C00014AC00083A2800D2303820F02002412A26
:1009D00001D3A2F13700884201D34FF0FF307047B6
:1009E00070B58C1810F8015B15F0070301D110F8F1
:1009F000013B2A1106D110F8012B03E010F8016B1E
:100A000001F8016B5B1EF9D12B0705D40023521EA0
:100A10000DD401F8013BFAE710F8013BCB1A921C08
:100A200003E013F8015B01F8015B521EF9D5A14206
:100A3000D8D3002070BD00002DE9F04106463D21CD
:100A40003046FFF789FC88B1002100F8011B0746FA
:100A500000240E4D04EB4400402255F8201030468F
:100A6000FFF78BFC40B1641C042CF3D33146BDE886
:100A7000F04107A004F094BD04EB440005EB8000B6
:100A800041683846BDE8F041084700007400001096
:100A9000556E6B6E6F776E20636F6D6D616E643A2D
:100AA0002025730A41542B48454C503D31200A0003
:100AB00070B50DA004F074FD0024114E04EB440544
:100AC00010A056F8251004F06BFD06EB85050EA06E
:100AD000A96804F065FD11A0A96804F061FD641C1B
:100AE000042CEBD370BD0000417661696C61626CCF
:100AF0006520415420636F6D6D616E64733A0A0026
:100B00007400001025730A00446573637269707481
:100B1000696F6E3A2025730A000000004578616D08
:100B2000706C652075736167653A2025730A0A0049
:100B300070B5C0B04FF48076184C194D15E03246B0
:100B40006846E16804F0D4FC3146684604F020FCB5
:100B50002868C169C9434906FBD4E06800F5807084
:100B6000E0602069A0F5807020612069B042E6D87D
:100B7000206968B182B26846E16804F0B9FC684651
:100B8000216904F005FC2868C169C9434906FBD402
:100B900000202061E06040B070BD000060000010E7
:100BA000D006001070B505462C212846FFF7D4FB6F
:100BB0000446ACB100202070102200212846FFF727
:100BC000EBFB0A4DE860601CFFF71EFC2861024643
:100BD00007A0E96804F0E4FCBDE87040FFF7A8BF97
:100BE000BDE870400AA004F0DBBC0000600000100B
:100BF00052656164416464723A20307825582C2033
:100C00004461746553697A653A2025640A000000DE
:100C1000496E76616C696420617267756D656E748A
:100C200020666F722041542B536574577269746546
:100C30000A00000070B505462C212846FFF78CFB02
:100C40000446D4B100202070102200212846FFF76E
:100C5000A3FB0C4D6860601CFFF7D6FBA860024642
:100C600009A0696804F09CFCD5E9010100F022FBB1
:100C7000BDE870400CA004F093BCBDE870400DA02E
:100C800004F08EBC600000105772697465416464A2
:100C9000723A20307825582C204461746553697A63
:100CA000653A2025640A00004572617365204F4B48
:100CB0000D0A0000496E76616C6964206172677587
:100CC0006D656E7420666F722041542B53657457A6
:100CD000726974650A00000002490120087002A0D0
:100CE00004F05EBC60000010466C61736857726966
:100CF0007465446174655461736B2052756E0D0A9E
:100D000000000000FEE7000008B54FF09045194CC8
:100D100026E06278012A02D0022A21D110E016A032
:100D200004F03EFC01220221284601F0D3F96420A0
:100D300006F014F900220221284601F0CBF90FE059
:100D400014A004F02DFC01220221284601F0C2F972
:100D5000142006F003F900220221284601F0BAF916
:100D600005F06EFE0090BDF800002080217800297B
:100D7000F6D0CEE750000010427574746F6E2025D7
:100D8000642073686F727420707265737365640A8F
:100D900000000000427574746F6E202564206C6F33
:100DA0006E6720707265737365640A0000B505484C
:100DB00000680549884203D100F008F8012000BD11
:100DC000002000BDF0BF0020EFBEADDE01490020D5
:100DD00008607047F0BF002010B5094C00220221C6
:100DE000204601F077F900220421204601F072F933
:100DF00001221146204601F06DF9002010BD0000CF
:100E00000004004801B582B000200190401E00900F
:100E1000012301AA02A9044802F022F908B1FF2027
:100E20000EBD9DF804000EBD08040010014800F03E
:100E300045BE0000A4080010014800F03FBE0000BD
:100E40005C08001030B590F8444004F01C05012403
:100E5000AC40056C6C60046863608368102B04D040
:100E6000036899600068C26030BD03689A600068DA
:100E7000C16030BD08480168C90103D4016841F070
:100E80008071016005480168C90703D1016841F01C
:100E90000101016070470000FCED00E0001000E07F
:100EA000704700002DE9F0411749088842074FEAD2
:100EB000D00500D06D1C4F88242000F0C9F8002612
:100EC0000AE0002404E0FF2000F0DCF8641CA4B277
:100ED000AC42F8D3761CB6B2BE42F2D3262000F064
:100EE000B7F800260AE0002404E0FF2000F0CAF86A
:100EF000641CA4B2AC42F8D3761CB6B2BE42F2D3A4
:100F0000BDE8F04100F00FB9D00000102DE9F04726
:100F100007461C49088842074FEAD00500D06D1CDF
:100F2000B1F80280242000F093F800260EE000249F
:100F300006FB05F906E0381919F8000000F0A2F8E0
:100F4000641CA4B2AC42F6D3761CB6B24645EED3CE
:100F5000262000F07DF800260EE0002406FB05F9AF
:100F600006E0381919F8000000F08CF8641CA4B2EF
:100F7000AC42F6D3761CB6B24645EED3BDE8F04798
:100F800000F0D1B8D000001010B500F043F800F028
:100F900033F8122000F05CF800F02EF8FF2000F08B
:100FA00057F8212000F054F8402000F06BF80020A2
:100FB00000F068F83C2000F04BF8052000F062F8E3
:100FC000112000F045F8032000F05CF80948418842
:100FD0000088491E8BB2401E82B20021084600F0F4
:100FE00080F80021084600F067F8BDE8104000F0E6
:100FF00003B80000D000001010B54FF0904402E09C
:101000000A2005F0ABFF4021204601F05CF80128E2
:10101000F6D010BD10B50D4C01221146204601F04E
:1010200059F8642005F09AFF00220121204601F0C2
:1010300051F8642005F092FF01221146204601F08C
:1010400049F8BDE81040642005F088BF000400485E
:1010500070B505460A4C00220221204601F03AF8FC
:1010600000220421204601F035F82846FFF7CAFE89
:101070002046BDE870400122042101F02BB8000099
:101080000004004870B505460A4C012202212046A2
:1010900001F020F800220421204601F01BF8284628
:1010A000FFF7B0FE2046BDE870400122114601F076
:1010B00011B800000004004870B505460C464E20EB
:1010C000FFF7C6FFC5F3C700FFF7DCFF4F20FFF7B0
:1010D000BFFFE0B2FFF7D6FF200ABDE87040FFF780
:1010E000D1BF2DE9F04107460C4616461D46442067
:1010F000FFF7AEFFC7F3C700FFF7C4FFC6F3C70093
:10110000FFF7C0FF4520FFF7A3FFE0B2FFF7BAFFEC
:10111000200AFFF7B7FFE8B2FFF7B4FF280ABDE8DF
:10112000F041FFF7AFBF10B52220FFF791FFF72086
:10113000FFF7A8FF2020FFF78BFFBDE81040FFF767
:101140005BBF00000449086802054FF4006000D549
:10115000086000F0D7BE00001404014072B6FEE73C
:10116000144A107F1449012801D003280FD10B68BD
:1011700023F400730B600B6843F400630B600B688F
:1011800023F400630B600B6843F400730B600228C8
:1011900001D003280BD1086840F48050086008682B
:1011A00020F480500860086840F4806008600020E7
:1011B000107770472800001000200240C107054842
:1011C00003D0416941F004014161416941F480313A
:1011D000416170470020024008494A69C0B222F4C8
:1011E0007E7242EAC0004861486940F002004861EE
:1011F000486940F480304861704700000020024098
:1012000010B505494C6944F001044C610260BFF31C
:101210006F8F436010BD00000020024010B54022D7
:10122000084B5C6944F480245C61EFF3108372B670
:1012300010C910C0521ED2B2002AF9D183F310880F
:1012400010BD00000020024070B5044600F048FFC9
:101250000546154E08E0601C06D000F041FF401B1B
:10126000A04201D3032070BD3069C003F3D43069BC
:101270000E49084088B10E494A6802434A60810F0E
:1012800004D0B16900F040421143B161810002D045
:1012900020F040403061012070BD3069C00701D0AE
:1012A00001203061002070BD00200240FAC302001E
:1012B0002800001070B586B0002601964218B2F5DD
:1012C000802F06D301460FA004F06AF9012006B072
:1012D00070BD00F58030C40A4FF6FF701044C50A97
:1012E00000F0FAFD0296012003900494281B401C94
:1012F000059001A902A800F009FD044600F084FD54
:101300002046E4E777726974655F61646472206502
:10131000727220307825780D0A0000002DE9FC4714
:1013200080460D46174600260020009001900024BC
:10133000E819B0F5802F05D313A004F031F901208E
:1013400000F040B8DFF8649019E008EB0400016891
:1013500000914068019000F0BFFDDDE9002305EB3E
:101360000901002000F05AFD064600F04DFD1EB1B7
:101370000FA004F015F904E008350834A4B2BC420B
:10138000E3D33046DCE7000057726974654164645A
:1013900072202B204E756D42797465546F577269B7
:1013A0007465206572720D0A0000000000000108DB
:1013B000466C617368205772697465204572720DBE
:1013C0000A0000000CBCBDE8F08700002DE9F84FD2
:1013D00004460D46002600270097DFF8C89394F8CE
:1013E0005000012811D04FF0010884F85080206887
:1013F00002F00EFD58B1606D40F0200060650126DE
:1014000084F85070304600F0E1B90220FBE76868CC
:10141000052809D8022827D0032828D0042829D055
:1014200005282AD006206860A98820682A6801F467
:10143000407300EB9310036B01F01F014FF01F0C82
:101440000CFA01FCC2F3846223EA0C038A401343C2
:101450000363206802F0DCFC8246206802F0D0FCC6
:101460005AEA000A0DD09AE00C206860DCE71220EE
:101470006860D9E718206860D6E74FF4807068602C
:10148000D2E7AA682968206802F0C6FC20686A6969
:10149000C168C1F3C10149008A40296904290FD0FC
:1014A0002B6800EB8100016EDFF8FCC203F0F8430B
:1014B00001EA0C011343194341F0004101666EE05B
:1014C000002102F097FC40036ED00021206802F05A
:1014D00091FC90FAA0F0B0FA80F1286842036AD03B
:1014E00090FAA0F0B0FA80F0814204D100221146B7
:1014F000206802F0A0FC0121206802F07BFC400380
:101500005CD00121206802F075FC90FAA0F0B0FADE
:1015100080F12868420358D090FAA0F0B0FA80F029
:10152000814204D100220121206802F084FC0221C2
:10153000206802F05FFC40034AD00221206802F0DC
:1015400059FC90FAA0F0B0FA80F12868420346D026
:1015500090FAA0F0B0FA80F0814204D1002202217A
:10156000206802F068FC0321206802F043FC40037D
:1015700038D00321206802F03DFC90FAA0F0B0FAC8
:1015800080F12868420334D090FAA0F0B0FA80F0DD
:10159000814204D100220321206802F04CFC206823
:1015A00002F032FC40B3B0E00021206802F022FCDF
:1015B000C0F3846191E7C0F3846095E7012120685E
:1015C00002F018FCC0F38461A3E7C0F38460A7E7CE
:1015D0000221206802F00EFCC0F38461B5E7C0F37D
:1015E0008460B9E70321206802F004FCC0F3846141
:1015F000C7E7C0F38460CBE720682A7B296850F8EE
:10160000B03FC1F3120C23EA0C0302F0180C674A36
:1016100022FA0CF20A4013430360E868484574D18B
:101620002868410319D090FAA0F1B1FA81F1491C60
:1016300001F01F01092931D84103002910D090FA87
:10164000A0F1B1FA81F101F1010101F01F0108FAE5
:1016500001F808D1C0F3846109E0C0F38461E6E7D2
:10166000C0F38461EFE790FAA0F1B1FA81F101F1E2
:10167000010101F01F0148EA816102D1C0F38460D9
:1016800003E090FAA0F0B0FA80F000F1010000F061
:101690001F0000EB400041EA005132E04FEA4031C8
:1016A00000290DD090FAA0F1B1FA81F101F1010108
:1016B00001F01F0108FA01F805D1C0F3846106E0CA
:1016C000C0F38461F2E790FAA0F1B1FA81F101F17F
:1016D000010101F01F0148EA816102D1C0F3846079
:1016E00003E090FAA0F0B0FA80F000F1010000F001
:1016F0001F00A0F10A0000EB400041EA005040F05A
:101700000071AA68206802F087FB29482968014215
:101710003FF476AE274A906800F0E070264D274BE4
:10172000A9421ED105021CD4216899427FF468AEFB
:1017300040F40000916821F0E0710143916020487D
:1017400020490068B0FBF1F0401C00EB4000800035
:10175000009002E00098401E009000980028F9D107
:101760004EE6194DA9420CD1C5010AD4216899420F
:10177000F6D140F08070916821F0E07101439160F2
:101780003EE66FF00045E942EAD14102E8D4216823
:101790009942E5D140F48000916821F0E071014365
:1017A00091602DE600007F4000F0FF03FFFF07007F
:1017B0000000088000030450000052C700000450DD
:1017C00048000010400D0300000084CB18BCBDE8A9
:1017D000E08F0000F8B50446002500260096002C96
:1017E00002D0606D10B107E00120F8BD204600F086
:1017F000CDF8A66584F8506020688168C1F3407117
:1018000019B181685A4A1140816020688168C1F32A
:101810000071A1B98168574A114041F0805181603F
:10182000554856490068B0FBF1F0401C400000905C
:1018300002E00098401E009000980028F9D120682E
:101840008168C1F3007141B9616D41F010016165BA
:10185000A16D41F00101A165012502F0D9FA616D88
:10186000C90600D430B1606D40F0100060650125FC
:101870002846F8BD606D20F4807040F0020060657D
:10188000206802F0C1FA58B93D488068C0F30000F2
:1018900030B960683B498A6822F47C1202438A604E
:1018A000E168606B627E0843A16841EA4231084307
:1018B00094F8201040EA0140012903D1A18C491E6F
:1018C00040EA4140A16A29B101F47071E26A014322
:1018D00042EA01002168CA682B4B1A400243CA60E1
:1018E000206802F095FA0646206802F089FA06435D
:1018F00015D1207E94F83010800340EA4101206821
:10190000C26844F202039A430A43C26094F8380062
:10191000012813D02068016921F0010101612069CB
:1019200001281CD02068016B21F00F010163606D5C
:1019300020F0020040F00100606599E7D4E90F1043
:101940000143D4E91102104301432068026940F2C7
:10195000FC739A43114341F001010161DFE7206804
:10196000016BE26921F00F01521E11430163DEE7B2
:10197000C0FFFF5FC0FFFF7F48000010400D030065
:10198000000004500003045007C0F0FF10B59EB0E3
:101990000446142119A8FEF7D4FC5C2102A8FEF726
:1019A000D0FC1D492068884233D14FF4804002901A
:1019B00080031690032003900120049014200590CA
:1019C00007200690022007900890C005099002A801
:1019D00000F084FC08B1FFF7C1FB1048C16C41F472
:1019E0000051C164C16C01F400510191C16C41F01E
:1019F0000101C164C06C00F0010001901020199039
:101A00000B201A9000201B9019A94FF0904000F075
:101A100085FA1EB010BD0000000004500010024006
:101A200010B590F825100023022905D00421C163C8
:101A300080F82430012010BD01680A6822F00E02EF
:101A40000A6001680A6822F001020A6090F84410F6
:101A5000012201F01C0402FA04F1046C616080F8B8
:101A6000252080F82430184610BD10B5002490F8C9
:101A70002510022903D00421C16301241AE0016862
:101A80000A6822F00E020A6001680A6822F0010268
:101A90000A6090F84410012301F01C0203FA02F1DD
:101AA000026C516080F82530002180F82410816B91
:101AB00001B18847204610BDC06B7047F0B4016C7F
:101AC0000A6801680B6890F84440042604F01C047E
:101AD00006FA04F5154215D05D0713D50A6892067B
:101AE00003D40A6822F004020A6090F8441001F05E
:101AF0001C0106FA01F5016C4D60016B002941D013
:101B0000F0BC08474FF0020C0CFA04F616424FF0F6
:101B100000074FF0010519D09E0717D50A689206F5
:101B200005D40A6822F00A020A6080F8255090F86D
:101B3000441001F01C010CFA01F6016C4E6080F8B3
:101B40002470C16A00291DD0F0BC08470826A640B1
:101B5000164217D01A0715D50A6822F00E020A603D
:101B600090F84410026C01F01C0105FA01F151607B
:101B7000C56380F8255080F82470416B002901D09E
:101B8000F0BC0847F0BC704770B500280DD0334C4E
:101B900001681423324AA14209D2324C0C44B4FBEE
:101BA000F3F39B00436402640BE0012070BD2B4CF7
:101BB00064420C44B4FBF3F39B004364274B083BA3
:101BC0000364022380F825300B6847F6F074A343C2
:101BD000D0E902452C43D0E9045635432C438569AE
:101BE0002C43C5692C43056A2C431C430C60816857
:101BF000B1F5804F29D0016C0F23914212D152F8D8
:101C0000A81F90F8444004F01C04A34099431160BD
:101C100090F84430416803F01C039940136819435D
:101C2000116012E00D49A0310A6890F8444004F0B8
:101C30001C04A3409A430A6090F84430426803F0C1
:101C40001C039A400B681A430A600021243081610A
:101C5000012242700170002070BD000008040240A3
:101C600000000240F8FFFDBF70B50446002594F85F
:101C7000240001280CD0012084F8240094F8256069
:101C80000020012E06D084F824000225284670BDCD
:101C9000022070BD022684F82560E0632068066893
:101CA00026F0010606602046FFF7CCF8206B28B12D
:101CB0002068016841F00E01016009E020680168B8
:101CC00021F0040101602068016841F00A0101600F
:101CD0002068016841F001010160D7E710B50A48AA
:101CE0004FF0FF318163C16300228263C2630164EC
:101CF000026481628262C162C2620163026300F0B7
:101D000053FA002010BD0000001002402DE9F05FE2
:101D100004468846384F387801280BD001253D709D
:101D20004CF2503B5846FFF78FFA06464FF0000A38
:101D30001EB15DE0022000F063B8C7F804A0DFF830
:101D4000BC90D9F8000080050ED5D9F800004005F8
:101D500008D5D9F8000020F48060C9F800000320FD
:101D6000387710E03D770EE0D9F80000400508D53F
:101D7000D9F8000020F48060C9F80000022038770C
:101D800001E087F81CA02068012807D04FF0FF3041
:101D9000C8F80000A56840F2FA3B22E06068FFF74F
:101DA0000DFA5846FFF750FA0646D9F8140020F00D
:101DB0000400C9F8140019E028466168FFF70CFA1E
:101DC0004CF25030FFF740FA0646D9F8140020EAEA
:101DD0000B00C9F81400300002D0C8F8005005E02C
:101DE0006D1CD4E902010844A842E5D8FFF7B8F910
:101DF00087F800A030469EE728000010002002402F
:101E000030BCBDE8C09F00000348416941F000417B
:101E10004161002070470000002002402DE9FF5F73
:101E2000074614461D460026DFF89C9099F80000EE
:101E300001280CD0012089F800004CF25030FFF747
:101E400003FA8046B346B8F1000F04D038E0022010
:101E500004B000F03DB8C9F804B0DFF870A0DAF8BB
:101E60000000400509D5DAF8000020F48060CAF8C7
:101E70000000022089F81C0001E089F81CB027B19D
:101E8000012F09D0022F07D00DE022462B460198E2
:101E9000FFF7B6F9012606E021460198FFF7BEF9E3
:101EA000022F00D17E044CF25030FFF7CDF980466E
:101EB00026B1DAF81400B043CAF81400FFF750F95D
:101EC00089F800B04046C3E7280000100020024017
:101ED00030BCBDE8C09F0000002006494A69002AC6
:101EE00007DA054A8A60054A8A604969002900DAEA
:101EF000012070470020024023016745AB89EFCDE8
:101F00007047000010B504490A68024202D0086018
:101F1000FFF7F6FF10BD0000140401402DE9F84F53
:101F20000022DFF880914FF0010803274FF00F0CDB
:101F300009F1040AA9F1040BACE008FA02F52B4000
:101F4000002B72D00C7904F00304012C01D0022C78
:101F500015D18668540007FA04FE26EA0E06D1F869
:101F60000CE00EFA04FE4EEA060EC0F808E04468E3
:101F7000AC430D79C5F300159540254345600C79B8
:101F8000E443A40708D0C568540007FA04F6B54333
:101F90008E68A6402E43C6600C7904F00304022C20
:101FA00011D1D40800EB8406356A5407E40E0CFA0C
:101FB00004FE25EA0E05D1F810E00EFA04FE4EEA02
:101FC000050EC6F820E00568540007FA04F6B5438C
:101FD0000E7906F00306A6402E4306604C6814F402
:101FE000403F56D0304C256E45F001052566246EE5
:101FF00004F0010400942D4C22F003052E19B5685D
:1020000094074FEA147E0CFA0EF4A543B0F1904FFA
:1020100004D0274CA04203D1012412E0002410E098
:10202000244CA04202D102240BE032E0224CA04218
:1020300001D1032405E0214CA04201D1042400E099
:10204000072404FA0EF42C43B460D9F800409C43F2
:102050004D68ED0200D51C43C9F80040DAF8004095
:102060009C434D68AD0200D51C43CAF80040DBF824
:1020700000409C434D68AD0300D51C43CBF80040A5
:10208000084D083D2C689C434E68F60300D51C4360
:102090002C60521C0B6833FA02F47FF44EAF00F050
:1020A0000FB8000008040140001002400000014089
:1020B0000004004800080048000C004800100048D8
:1020C00018BCBDE8E08F0069084201D001207047CC
:1020D00000207047002A01D08161704781627047FB
:1020E00001488068704700001C00001002488168A9
:1020F00002781144816070471C00001010B5002464
:10210000032000F09BF80F2000F008F808B101242C
:1021100001E000F04BF8204610BD000030B587B05C
:1021200005461C48016E41F400610166006E00F432
:102130000060009001A902A800F052FB00F086FBAD
:102140001549B0FBF1F1491E1548144A026040F2EE
:10215000E732C2604160002202618260826101F068
:10216000BBF8044694B90E4801F0DEF804466CB999
:10217000192000F035F8102D07D200222946192029
:1021800000F03CF80748056000E0012407B0204655
:1021900030BD00000010024040420F00002C014002
:1021A000EC0A0010200000107047000082B00B48BD
:1021B000016E41F001010166016E01F00101019122
:1021C000816D41F080518165806D00F080500190FB
:1021D00000220F21901E02B000F010B80010024043
:1021E000002809DB00F01F02012191404009800016
:1021F00000F1E020C0F8001170470000F0B40D4677
:102200000D4B1B68C3F30223C3F10704042C00D950
:102210000424191D072901D2002300E0DB1E01263A
:1022200006FA04F1491E294099409E40761E164048
:102230003143F0BC03F0C4B90CED00E000F007013D
:10224000054A10684FF6FF03184040EA0120034991
:1022500008431060704700000CED00E00000FA0534
:102260001749B0F5007F0CD00868C0F34120022860
:1022700005D0086820F4C06040F480600860002049
:1022800070470868C0F341200128F8D0086820F49E
:10229000C06040F4007008600A4832220068504371
:1022A000094AB0FBF2F0401C00E0401E4A695205AA
:1022B00001D50028F9D148694005E0D503207047D1
:1022C000007000404800001040420F0002480068C3
:1022D00000F4C06070470000007000402DE9F84F26
:1022E0000446002500272088A54E00050AD5606C0D
:1022F00058B3B0F5000F23D0B0F5400F00D0012542
:102300004DB32F46206880037AD54FF00008B06D9A
:10231000C00009D4B06D40F08050B065B06D00F0E1
:10232000805000904FF00108DFF858A2DAF8000062
:1023300040F48070CAF80000FFF7D2FE81461BE02F
:10234000F06840F48030F060DAE70021201D02F0F0
:1023500015FA0546D4E7D6F88800616C20F44000F1
:102360000843C6F88800CDE7FFF7BAFEA0EB0900E6
:10237000022801D9032503E0DAF80000C005F3D5EF
:1023800025B12F46B8F1010F36D039E0D6F89000CC
:1023900000F4407080B1A16D81420DD056F8900FCD
:1023A00020F44070316841F480313160316821F4AB
:1023B0008031316046F89009C00711D0FFF790FED8
:1023C000814641F2883A07E0FFF78AFEA0EB090058
:1023D000504501D9032503E0D6F890008007F3D5D6
:1023E0000DB12F46CEE7D6F89000A16D20F44070D5
:1023F0000843C6F89000C5E7B06D20F08050B06586
:102400002078C00707D0D6F88800216A20F00300A2
:102410000843C6F888002078800707D5D6F88800DA
:10242000616A20F00C000843C6F888002078400755
:1024300007D5D6F88800A16A20F030000843C6F816
:1024400088002078800607D5D6F88800E16A20F455
:1024500040600843C6F888002088800507D5D6F874
:102460008800E16B20F440200843C6F888002088EB
:10247000400507D5D6F88800216C20F440100843A9
:10248000C6F888002078400607D5D6F88800216B6A
:1024900020F440500843C6F888002078000607D58D
:1024A000D6F88800616B20F440400843C6F88800E5
:1024B0002088C00507D5D6F88800A16B20F44030ED
:1024C0000843C6F8880020684FF0006500034FF00D
:1024D000806817D5D6F88800A16C20F040600843CA
:1024E000C6F88800A06CA84204D1F06840F48010BF
:1024F000F06007E0404505D10121201D02F03EF9C2
:1025000000B107462068400317D5D6F88800E16C73
:1025100020F040600843C6F88800E06CA84204D16F
:10252000F06840F48010F06007E0404505D10121DB
:10253000201D02F023F900B107462088400411D580
:10254000D6F88800216D20F040500843C6F8880076
:10255000206DB0F1805F05D10221201D02F00EF93F
:1025600000B107462088000406D556F8880F616D33
:1025700020F0804008433060384600F005B8000085
:10258000001002400070004018BCBDE8E08F000061
:102590002DE9F04704460D46002C17D0DFF84C819A
:1025A000D8F8000000F00700A84211D2D8F80000C7
:1025B00020F007002843C8F80000D8F8000000F019
:1025C0000700A84204D00120BDE8F0870120FBE706
:1025D0002078474E80070AD5A068B16801F0F00165
:1025E000884204D9B16821F0F0010143B16020783C
:1025F000C00732D06068032807D002280AD070B123
:102600003168490510D40120DEE7316889010BD417
:102610000120D9E73168890306D40120D4E7316865
:10262000890701D40120CFE7B16821F003010143FC
:10263000B160FFF755FD074641F2883906E0FFF724
:102640004FFDC01B484501D90320BDE7B068616854
:1026500000F00C00B0EB810FF1D1207880070AD593
:10266000A068B16801F0F001884204D2B16821F09D
:10267000F0010143B160D8F8000000F00700A84263
:102680000ED9D8F8000020F007002843C8F8000051
:10269000D8F8000000F00700A84201D0012093E71D
:1026A0002078400705D5B068E16820F4E060084371
:1026B000B0602078000706D5B068216920F460502A
:1026C00040EAC100B06000F0D3F8B168094AC1F334
:1026D0000311515C01F01F01C84007490860074819
:1026E0000068BDE8F047FFF719BD00000020024078
:1026F00000100240047D0008480000102000001077
:102700002DE9F041314C206840F001002060FFF7D6
:10271000E7FC054607E0FFF7E3FC401B022802D96F
:102720000320BDE8F08120688007F4D5206820F000
:10273000F00040F0600020600027A7602549244891
:10274000086025480068FFF7E9FC08B10120E8E7C8
:10275000FFF7C6FC054641F2883606E0FFF7C0FCED
:10276000401BB04201D90320DBE7A06810F00C0F3A
:10277000F4D12068194908402060FFF7B1FC0546F4
:1027800006E0FFF7ADFC401B022801D90320C8E793
:10279000206810F0206FF4D1E760E06840F48050CA
:1027A000E0602761206940F480502061206820F4B7
:1027B00080202060A7614FF0FF302062D4F89400A1
:1027C00040F40000C4F894000020AAE70010024082
:1027D00000093D004800001020000010FFF4FEFA40
:1027E0000F2202600B4A936803F00303436093686F
:1027F00003F0F0038360936803F4E063C3609268BE
:1028000002F46052D20802610348006800F0070039
:102810000860704700100240002002400148006834
:10282000704700004800001000B5FFF7F7FF0549AA
:102830008968054AC1F30221515C01F01F01C840BB
:1028400000BD000000100240447D000800B5FFF705
:10285000E5FF05498968054AC1F3C221515C01F0D1
:102860001F01C84000BD000000100240447D000868
:1028700070B500220020244B996801F00C01DC683F
:1028800004F00304214D6E10002908D00C2901D159
:10289000012C04D0042913D0082913D013E01A689E
:1028A000120704D4D3F89420C2F3032202E01A687A
:1028B000C2F30312164C54F8222021B9104602E04C
:1028C000284600E030460C2918D1D86800F00300F3
:1028D000022814D0032814D01046D968C1F302117D
:1028E000491CDA68C2F306224243B2FBF1F0D96810
:1028F000C1F34161491C4900B0FBF1F070BD2846AD
:10290000EBE73046E9E70000001002400024F40045
:10291000147D00082DE9F8430446002C0DD0FA4E32
:10292000B06800F00C05F06800F003072078C006DE
:102930006AD595B10C2D03D004E00120BDE8F883E1
:10294000012F0AD0A06900287DD0306840F0010036
:102950003060FFF7C5FB80465FE03068800701D537
:10296000A06938B1206A3168090705D5316801F0DE
:10297000F00106E00120E1E7D6F8941001F470615F
:102980000909884216D901F099FF08B10120D5E75D
:10299000306840F0080030603068216A20F0F000B4
:1029A000084330607068E16920F47F4040EA01200C
:1029B000706017E0306840F0080030603068216ACD
:1029C00020F0F000084330607068E16920F47F4037
:1029D00040EA012070602DB9206A01F06FFF08B154
:1029E0000120ABE7FFF744FFB168C84AC1F3031108
:1029F000515C01F01F01C840C5490860C548006826
:102A0000FFF78CFB002899D130E0FFF769FBA0EBC2
:102A10000800022801D9032090E730688007F4D528
:102A2000306840F0080030603068216A20F0F00023
:102A3000084330607068E16920F47F4040EA01207B
:102A4000706013E0FFE7306820F001003060FFF7AE
:102A500047FB804607E0FFF743FBA0EB0800022896
:102A600001D903206AE730688007F4D42078C007D2
:102A70004AD0082D18D00C2D01D1032F14D0606836
:102A8000B0F5803F17D0B0F5A02F19D0306820F4F2
:102A900080303060306820F480203060606820B37F
:102AA000FFF71EFB80461CE0306880032CD5606871
:102AB00050BB012042E7306840F480303060EDE7E1
:102AC000306840F480203060306840F480303060FE
:102AD000E4E7FFF705FBA0EB0800642801D9032019
:102AE0002CE730688003F4D50EE0FFF7F9FA804652
:102AF00007E0FFF7F5FAA0EB0800642801D90320EE
:102B00001CE730688003F4D42078800742D5042D78
:102B10000DD00C2D01D1022F09D0E06840B33068F0
:102B200040F480703060FFF7DBFA074615E030684C
:102B3000400501D5E06838B17068217C20F0F8507C
:102B400040EA0160706025E00120F7E6FFF7C8FA6F
:102B5000C01B022801D90320F0E630684005F5D5F6
:102B60007068217C20F0F85040EA0160706011E04C
:102B7000306820F480703060FFF7B2FA074606E054
:102B8000FFF7AEFAC01B022801D90320D6E6306851
:102B90004005F5D4207800072CD56069A8B1D6F897
:102BA000940040F00100C6F89400FFF799FA074638
:102BB00006E0FFF795FAC01B022801D90320BDE605
:102BC000D6F894008007F4D514E0D6F8940020F0ED
:102BD0000100C6F89400FFF783FA074606E0FFF706
:102BE0007FFAC01B022801D90320A7E6D6F894007B
:102BF0008007F4D42078400776D54FF00008B06DF8
:102C0000C00009D4B06D40F08050B065B06D00F0E8
:102C1000805000904FF00108DFF8FC90D9F80000D8
:102C2000C00514D4D9F8000040F48070C9F8000041
:102C3000FFF756FA074606E0FFF752FAC01B0228D4
:102C400001D903207AE6D9F80000C005F4D5A068C0
:102C5000012813D0052818D056F8900F20F0010055
:102C60003060306820F0040046F89009A06841F216
:102C7000883710B3FFF734FA814619E0D6F8900090
:102C800040F00100C6F89000F0E756F8900F40F0D1
:102C900004003060306840F0010046F89009E5E734
:102CA000FFF71EFAA0EB0900B84201D9032045E660
:102CB000D6F890008007F3D50FE0FFF711FA8146B0
:102CC00007E0FFF70DFAA0EB0900B84201D9032095
:102CD00034E6D6F890008007F3D4B8F1010F03D1A1
:102CE000B06D20F08050B0652078800637D5606ADE
:102CF00000B3D6F8980040F00100C6F89800FFF73E
:102D0000EFF9074611E0000000100240047D0008C2
:102D1000480000102000001000700040FFF7E0F9AC
:102D2000C01B022801D9032008E6D6F898008007C6
:102D3000F4D514E0D6F8980020F00100C6F8980009
:102D4000FFF7CEF9074606E0FFF7CAF9C01B0228D5
:102D500001D90320F2E5D6F898008007F4D4A06AE0
:102D6000F0B3022809D00C2D76D0306820F08070A6
:102D70003060FFF7B5F904469DE0F068E26A00F0C4
:102D800003014FF0FF37914224D1216B00F0700214
:102D9000491EB2EB011F1DD1626B00F4FE41B1EB85
:102DA000022F17D194F8382000F07841B1EBC26FB0
:102DB00010D1A28F00F4C00107EB5202B1EB425FC9
:102DC00008D194F8401000F0C06007EB5101B0EB5F
:102DD000416F4FD00C2D4BD03068400103D500E03F
:102DE00061E00120AAE5306820F080703060FFF7D4
:102DF00077F9054606E0FFF773F9401B022801D971
:102E000003209BE530688001F5D454F82C1F6068DE
:102E1000228A401E41EA0010A16807EB5202090213
:102E200041EA42510843217D07EB510140EA4160EC
:102E3000217B40EAC160F168244A11400843F060F8
:102E4000306840F080703060F06840F08070F06072
:102E5000FFF746F9044607E036E0FFF741F9001BAB
:102E6000022801D9032069E530688001F5D529E001
:102E7000012063E53068800124D4306840F0807020
:102E80003060F06840F08070F060FFF729F9044688
:102E900006E0FFF725F9001B022801D903204DE5C4
:102EA00030688001F5D50DE0FFF71AF9001B022804
:102EB00001D9032042E530688001F5D4F068044967
:102EC0000840F060002039E5012037E58C809D0145
:102ED000FCFFEEFE70B50446002C09D0606A0025A8
:102EE00040B125616561A56294F85D0040B10CE0D8
:102EF000012070BD6068B0F5827FF4D0E561F2E733
:102F000084F85C50204600F057F8022084F85D00F9
:102F10002068016821F040010160E1684FF4E0623F
:102F2000914201D9002001E04FF48050B1F5706F5B
:102F300002D0914200D0A562A188228901F4827159
:102F400002F404421143227C02F002021143227D6A
:102F500002F001021143228B02F400721143227F1E
:102F600002F03802114394F8202002F0800211434D
:102F7000228D02F40052114322681160A1690422DB
:102F800002EA114194F8242000F4805002F010026B
:102F9000114394F8342002F008021143A28902F48C
:102FA000706211430143206841602566012084F866
:102FB0005D00002070BD000070B586B0044614218D
:102FC00001A8FDF7BEF9224E216800222148022304
:102FD00003240525B1421CD1016E41F480510166E4
:102FE000016E01F480510091C16C41F00101C16496
:102FF000C06C00F001000090A020019002930392A9
:103000000494059501A94FF09040FEF787FF06B0A4
:1030100070BD114EB142FAD1816D41F4804181659C
:10302000816D01F480410091C16C41F00201C164E5
:10303000C06C00F002000090B00001900293039277
:103040000494059501A90548FEF768FFDFE7000035
:1030500000300140001002400038004000040048E9
:103060002DE9F05F04460A9E8A4693461F460125D5
:103070004FF0000894F85C0001280ED0012084F87D
:103080005C00FFF72DF8814694F85D006168012827
:103090000DD0B1F5827F07D102E0022000F016B911
:1030A000A16809B9042802D04FF0020804E1BAF17E
:1030B000000F26D0BBF1000F23D0380021D094F8A8
:1030C0005D00042802D0052084F85D000020206601
:1030D000C4F840B0A4F84670A4F84470C4F838A00E
:1030E000E787A787E0642065E0684FF4E0618842E5
:1030F00001D8012F08D92068426822F4805242602A
:1031000007E04FF00108D7E02068426842F480529F
:10311000426020680268520603D4026842F040020E
:103120000260E068884246D9606808B1012F3AD150
:10313000A06B21680088C860A06B801CA063E08F32
:10314000401EE0872FE02068816889070DD5E18F58
:1031500059B1012D09D1A16B0988C160A06B801CF8
:10316000A063E08F401EE087002520688168C907C2
:103170000ED0B4F8461059B1C068216C0880206C9C
:10318000801C2064B4F84600401EA4F846000125C7
:10319000FEF7A6FFA0EB0900B04204D3701C02D0DA
:1031A0004FF0030888E0E08F0028CCD1B4F8460047
:1031B0000028C8D176E0606808B1012F6BD1E08F9C
:1031C00001280AD9A06B21680088C860A06B801C08
:1031D000A063E08F801EE0875DE0A06B216800782F
:1031E0000873A06B401CA063E08F401EE08752E094
:1031F0002068816889071AD5E18FC1B1012D16D1E8
:10320000E18F012909D9A16B0988C160A06B801CDD
:10321000A063E08F801EE08708E0A16B097801734E
:10322000A06B401CA063E08F401EE0870025206853
:103230008168C90726D0B4F8461019B3B4F846100F
:10324000012913D9C06854F8401F08802068801CE9
:103250002060E088801EE080E088403C012810D893
:103260002068416841F4805141600AE0007B216C94
:103270000870206C401C2064B4F84600401EA4F87E
:1032800046000125FEF72CFFA0EB0900B04201D358
:10329000701C18D1BEB1E08F0028A9D1B4F8460047
:1032A0000028A5D14A463146204601F05DFB18B101
:1032B0004FF001082020206601205C34607000205F
:1032C00020704046EAE64FF00308F5E730BCBDE861
:1032D000C09F70477047704710B50446002C03D05C
:1032E00094F83D0010B107E0012010BD002084F8E3
:1032F0003C00204600F017F8022084F83D00211D14
:10330000206801F095FC01203D34E0726070A070EF
:10331000E07020716071A071E07120726072A07223
:103320002070002010BD704790F83D10012901D099
:1033300001207047022180F83D100168CA6842F000
:103340000102CA6000680E49884205D0B0F1804F82
:1033500002D00C4988420CD181680B4A11400629E1
:103360000BD0B1F5803F08D0016841F00101016048
:1033700003E0016841F00101016000207047000096
:10338000002C01400040014007000100704770B56B
:103390000446206801694FF00005C943890716D427
:1033A000C168C943890712D4E91E01610120207751
:1033B00020688069800703D02046FFF7E7FF05E01B
:1033C000204600F0AAF8204600F0A8F825772068EB
:1033D0000169C943490718D4C168C943490714D4CE
:1033E0006FF004010161022020772068806910F4E9
:1033F000407F03D02046FFF7C9FF05E0204600F0DC
:103400008CF8204600F08AF8257720680169C943C6
:10341000090717D4C168C943090713D46FF008011D
:103420000161042020772068C069800703D020460E
:10343000FFF7ACFF05E0204600F06FF8204600F0F3
:103440006DF8257720680169C943C90618D4C16899
:10345000C943C90614D46FF0100101610820207718
:103460002068C06910F4407F03D02046FFF78EFF2C
:1034700005E0204600F051F8204600F04FF825778F
:1034800020680169C943C90708D1C168C943C90790
:1034900004D1891E0161204600F042F820680169CC
:1034A000C943090609D4C168C943090605D46FF0A8
:1034B000800101612046FFF70DFF20680169C943C3
:1034C000C90509D4C168C943090605D46FF48071E0
:1034D00001612046FFF7FDFE20680169C9434906E6
:1034E00009D4C168C943490605D46FF040010161A0
:1034F000204600F01FF820680169C94389060BD4F3
:10350000C168C943890607D46FF0200101612046D4
:10351000BDE87040FFF7DFBE70BD70477047000028
:1035200000680349884201D1FEF7E0BD7047000002
:10353000002C014070477047704770B50446A06F7B
:10354000E66F216889684FF01005090618D5212813
:1035500016D12068083050E8001F21F0800140E8B3
:103560000012002AF5D1E06E38B1FEF759FA20B109
:10357000E06EFEF7A1FA202809D0204601F0FCFCFD
:103580002068806840061DD5222E04D01AE0C4F8B9
:103590008050032070BD2068083050E8001F21F0E3
:1035A000400140E80012002AF5D1206F38B1FEF743
:1035B00037FA20B1206FFEF77FFA202804D020468A
:1035C00001F0A4FC002070BDC4F88050032070BD41
:1035D000704700002DE9F04104462268D069116867
:1035E000936840F60F0500EA0506002E0AD185060D
:1035F00008D58D0606D5616E00297DD02046BDE830
:10360000F04108470025002E77D0994F03F00106BE
:103610000F40374371D0C70709D0CF0507D5012721
:103620001762D4F8802042F00102C4F8802082079B
:103630000AD5DA0708D0276802223A62D4F8802037
:1036400042F00402C4F8802042070AD5DA0708D005
:10365000236804221A62D4F8802042F00202C4F8DF
:10366000802002070CD501F02002324308D02368E5
:1036700008221A62D4F8802042F00802C4F88020A0
:1036800002050BD54A0109D523684FF400621A627E
:10369000D4F8802042F02002C4F88020D4F88020A2
:1036A000002A35D0800605D5880603D5616E09B19C
:1036B00020468847D4F8800021688968490602D4EA
:1036C00010F0280F2AD0204601F020FC20688068E6
:1036D00040061FD52068083050E8001F21F0400147
:1036E00040E80012002AF5D1206F70B16149816372
:1036F000206FFEF7BAF901E00AE015E0002807D0D4
:10370000206F816BBDE8F04108472046FFF760FF5E
:10371000BDE8F0812046FFF75BFFF9E72046FFF7A1
:1037200057FFC4F88050F3E7266E012E7FD1C606FE
:103730007DD5CE067BD510201062206880684FF0C2
:103740002003400644D5216F0868406880B20028F5
:10375000DED0B4F858208242DAD9A4F85A000868BA
:10376000006880062AD4206850E8001F21F4807188
:1037700040E80012002AF6D12068083050E8001F07
:1037800021F0010140E80012002AF5D1206808303C
:1037900050E8001F21F0400140E80012002AF5D156
:1037A000E3672566206850E8001F21F0100140E81B
:1037B0000012002AF6D1206FFEF732F9B4F8580053
:1037C000B4F85A10401A81B22046FFF7B4FE9FE7C2
:1037D00034F8580F6188401A81B26088583C00283C
:1037E00096D0002994D0206850E8002F22F49072DF
:1037F00040E80026002EF6D12068083050E8002F5F
:1038000022F0010240E80026002EF5D1E36725668C
:103810006566206850E8002F22F0100240E800237F
:10382000002BF6D12046FFF786FE71E7FFE7C502C1
:1038300009D55B0207D54FF4801010622046BDE821
:10384000F041FFF779BE020608D50A0606D5A16E3B
:103850000029BCD02046BDE8F04108474006B6D557
:103860004806B4D52046BDE8F04101F074BB000025
:1038700020010004C54D000810B50446002C02D0FC
:10388000A06F10B107E0012010BD002084F8740083
:10389000204600F027F82420A0672068016821F066
:1038A00001010160204601F073FB012818D0606A15
:1038B00010B1204601F0F2F92068416821F49041EE
:1038C00041602068816821F02A01816020680168D8
:1038D00041F0010101602046BDE8104001F042BA0C
:1038E000012010BD2DE9F0479EB00446142119A80F
:1038F000FCF727FD5C2102A8FCF723FD6249206844
:10390000624D032600274FF007094FF0904A4FF011
:10391000020888425DD1012002900A9702A8FEF7B2
:10392000DDFC08B1FDF71AFC286E40F480402866E3
:10393000286E00F480400190E86C40F00100E864DB
:10394000E86C00F0010001904FF4C0601990CDF8D0
:1039500068801B971C96CDF8749019A95046FEF705
:10396000DDFA4C4D4A482860C5F80480AF60EF602E
:1039700080262E616F61AF612020E8612F622846AA
:10398000FEF702F908B1FDF7E9FB2567AC62404894
:10399000404D143848352860C5F804801020A860D0
:1039A000EF602E616F61AF61EF612F622846FEF715
:1039B000EBF808B1FDF7D2FBE566AC620022072107
:1039C0002520FEF71BFC2520FEF70AFC1EB0BDE8F3
:1039D000F087314988422DD1CDF808800B9702A895
:1039E000FEF77CFC08B1FDF7B9FBA86D40F4003090
:1039F000A865A86D00F400300190E86C40F001006B
:103A0000E864E86C00F0010001900C201990CDF8FA
:103A100068801B971C96CDF8749019A95046FEF744
:103A20007DFA002207212620FEF7E8FB2620FEF77C
:103A3000D7FBCBE719498842C8D1042002900C97E4
:103A400002A8FEF74BFC08B1FDF788FBA86D40F417
:103A50008020A865A86D00F480200190E86C40F0FB
:103A60000200E864E86C00F0020001904FF440604E
:103A70001990CDF868801B971C96CDF8749019A901
:103A80000748FEF74BFAA1E700380140001002405A
:103A9000580002405C08001000440040004800400C
:103AA0000004004830B4C36F202B02D0022030BC89
:103AB0007047E1B1DAB190F87430012B19D00123CD
:103AC00080F87430002303660B4C0368A3420BD0CC
:103AD0005B681B0208D5036853E8004F44F080641C
:103AE00043E80045002DF6D130BC01F079BB012040
:103AF000DDE70220DBE70000008000401CB5006825
:103B00000D49884217D10D48012101700021019112
:103B100001A9002300911A461946006903F0A6FE88
:103B20000198002807D006494FF080500860BFF385
:103B30004F8FBFF36F8F1CBD00380140080000108D
:103B400004ED00E070472DE9F84304460E461546A3
:103B50001F46A06F202802D00220BDE8F883CEB116
:103B6000C5B194F87400012816D0012084F87400BF
:103B70004FF00009C4F880902120A067FEF7B0FA4A
:103B80008046A4F85050A4F85250A068B0F5805F69
:103B900004D005E00120E0E70220DEE7206920B143
:103BA0003546002684F8749015E00025FAE7434670
:103BB000002280212046009701F064FB08B1032019
:103BC000CBE7B5B1216815F8010B0885B4F85200B0
:103BD000401EA4F85200B4F852000028E7D1434632
:103BE000002240212046009701F04CFB40B1032009
:103BF000B3E736F8020B2168C0F308000885E5E753
:103C00002020A0670020A8E770B50446A06F2028F8
:103C100001D0022070BD69B362B394F8740001282A
:103C20002AD001204C3484F828002160A280E28050
:103C3000002565632120E062206A4C3CF0B1184900
:103C4000C162E16E17480863E16E17484863E06E91
:103C500085632668134628363246E16CE06EFEF72F
:103C600003F858B110207434E060257020206060A3
:103C7000012070BD012070BD022070BD2168402070
:103C8000086284F874502068083050E8001F41F042
:103C9000800140E80012002AF5D1002070BD00002C
:103CA000C14E0008034F0008D94D000800680349C1
:103CB000884202D102490020487070470038014014
:103CC000080000107047FEE710B510480168406812
:103CD0000F4A104B0A449A4205D30F4A914202D828
:103CE000B1F1805F04D20DA001F05AFC002010BD9C
:103CF000064949420144B1F5403F05D301460DA0B4
:103D000001F04EFC002010BD012010BD0000010894
:103D1000FFBFFFEFFFBFFF0F000001206170705376
:103D20007461636B506F696E746572203A307825E8
:103D3000780000000D0A6170705265736574486107
:103D40006E646C65723A30782578000070B51E4D4F
:103D50002C681E481E492044884205D31D488442D1
:103D600002D8B4F1805F05D22146BDE870401AA0A8
:103D700001F016BC72B600214FF0E02001614161F4
:103D800081610020421E810001F1E021C1F8802103
:103D9000C1F88022401C0828F5D3BFF34F8FBFF332
:103DA0006F8FFEF7ADFCFDF799FF1148016821F018
:103DB0008071016001688901FCD484F30888686817
:103DC00062B68047FEE7000000000108FFBFFFEF7A
:103DD000FFBFFF0F00000120617070537461636BBF
:103DE000506F696E746572203A3078257800000053
:103DF0000010024000EB8100006E00F0F8407047B8
:103E00008068C0F3C00070478068C0F3000070474E
:103E10008068C0F38000704710B501F0007300EBBC
:103E2000D3504369C1F3045107248C40A3438A4013
:103E30001343436110BD00EB8100016E21F000418E
:103E4000114301667047000030B587B0182101A802
:103E5000FCF777FA18481749016000244460846031
:103E6000C460046104254561047644760121C16182
:103E700080F820408462C46280F83040446380F857
:103E80003840FDF7A7FC08B1FDF768F90B48019031
:103E900006200290022003907F200490059506944E
:103EA00001A90548FDF792FA002801D0FDF756F95F
:103EB00007B030BD00000450A40300100002B0257C
:103EC00008B50D48816C41F001018164806C00F0FF
:103ED00001000090002209210E20FEF78FF90E202C
:103EE000FEF77EF9002209210F20FEF787F9BDE8D1
:103EF00008400F20FEF774B90010024000B587B0EB
:103F00001C2206496846FCF703FA0021684602F0C5
:103F10003FFA0349086007B000BD0000E87C0008D4
:103F2000040000102DE9F04387B0142102A8FCF72B
:103F300008FA4848C16C41F00401C164C16C01F049
:103F400004010191C16C41F08001C164C16C01F0B8
:103F500080010191C16C41F00101C164C16C01F0AB
:103F600001010191C16C41F00201C164C06C00F01B
:103F7000020001904FF0904800224FF481714046BA
:103F8000FEF7A8F8DFF8D09041F207070022394683
:103F90004846FEF79FF8012228214846FEF79AF886
:103FA0000226029600240394049402A92B48FDF7EC
:103FB000B5FF0296012503950495059602A9404692
:103FC000FDF7ACFF402002900394049602A94046FE
:103FD000FDF7A4FF029703950494059602A94846AD
:103FE000FDF79CFF2802029003950494059602A910
:103FF0004046FDF793FFE80202904FF488100390CB
:10400000049502A94046FDF789FF4FF41040029045
:104010000394049502A94046FDF780FF28200290F2
:1040200003950495059402A94846FDF777FF1020F3
:1040300002900394049402A94846FDF76FFF002202
:1040400009212820FEF7DAF82820FEF7C9F807B082
:10405000BDE8F0830010024000040048001C004846
:1040600010B51248104901604FF48271416000217F
:1040700081604FF4E062C260016141614FF40072FF
:1040800082612022C2610162416281620722C262B2
:10409000016308214163FEF71DFF002803D0BDE83E
:1040A0001040FDF75BB810BD00300140080400105F
:1040B00010B51248104901604FF48271416000212F
:1040C00081604FF4E062C260016141614FF40072AF
:1040D00082611822C2610162416281620722C2626A
:1040E000016308214163FEF7F5FE002803D0BDE817
:1040F0001040FDF733B810BD003800406C040010CC
:104100001CB5012003F02CF91749C86001F110001B
:104110000621CDE9001000234FF4807213A1164848
:1041200003F040FB164C154820604FF4E13060600E
:104130000020A060E06020610C216161A061E0616D
:10414000206260622046FFF797FB08B1FDF706F892
:104150004FF400720B490A48FFF7A4FC206801687D
:1041600041F0100101601CBD08000010526563653C
:104170006976655461736B009D6E000800380140DC
:10418000D0060010D004001010B50D480B49016096
:104190004FF4E131416000218160C16001610C2276
:1041A00042618161C16101624162FFF765FB0028E4
:1041B00003D0BDE81040FCF7D1BF10BD0044004063
:1041C0005407001010B50D480B4901604FF416510B
:1041D000416000218160C16001610C224261816106
:1041E000C16101624162FFF747FB002803D0BDE8CF
:1041F0001040FCF7B3BF10BD00480040D8070010C6
:10420000FEE7FEE770B5274CE18A02290AD00429AF
:104210001CD0062901D0072917D1002140EA00103F
:10422000C3B23AE00021C3B20CE0002005E001FB7C
:1042300002022568AB54401C80B2628A8242F6D8E2
:10424000491C89B2A08A8842EFD870BD002213E0D1
:104250000021830143EA001343EA80030343DDB2F4
:1042600005E002FB03132668F554491C89B2638AF2
:104270008B42F6D8521C92B2A18A9142E8D870BD06
:10428000002005E001FB02022568AB54401C80B20F
:10429000628A8242F6D8491C89B2A08A8842EFD845
:1042A00070BD0000B8120010530701D0012300E0D8
:1042B000002303EBD2035343DAB203784078812B17
:1042C00005D3402803D3FF2801D0FF2B08D10020BD
:1042D000002303E001F8013B401CC0B29042F9D337
:1042E0007047000070B5049E0C4C002520602181B1
:1042F0006281A6810220E0824E074FEAD10000D001
:10430000401C6082A282E381258223B1B42B02D0BB
:10431000A280E18070BDA180E28070BDB812001063
:104320000149086070470000B8120010F0B4424E16
:10433000B388834202D3F3888B4203D2F0BC3FA000
:1043400001F02EB93C4DF3892C896D8903B35A2BAA
:1043500021D0B42B23D0B3F5877F48D10B46281A40
:10436000401E80B2318A59B101291FD0022921D0C3
:1043700003293CD1E11A491E8BB2281A401E80B293
:104380009C4201D3854219D2F0BC2CA001F008B99F
:1043900003460846E6E7611A491E8BB2E2E7201A97
:1043A000401E83B2681A401E80B2DBE7E11A491E44
:1043B0008BB2E5E7281A401E80B2E1E71E49F58A74
:1043C0004C8A0968022D14D0042D24D0062D01D06A
:1043D000072D0CD1444304EB53000C5CDB075B0F4F
:1043E000F025DD40AC431201DA4022430A54F0BC10
:1043F0007047444304EBD3000C5C80252AB103F0E2
:104400000702D54025430D54F1E703F00702D540DC
:10441000AC430C54EBE7444304EB930002F0030578
:104420000C5C9A07520FC023D3409C43AB01D3408E
:1044300023430B54DBE70000B8120010446562759B
:10444000673A20457863656564696E6720646973BF
:10445000706C617920626F756E6461726965730D4D
:104460000A0000002DE9F05F8146DDF82CB08A4695
:104470000C2B0BD0102B04D0182B04D0302B05D1D3
:1044800003E0414E02E0414E00E0414E4148818848
:10449000494502D3C088504504D200F09DB83EA0E3
:1044A00001F07EB8302B04D0B08841070ED0012136
:1044B0000DE0B088410701D0012100E0002101EBAF
:1044C000D000303AF1885043484306E0002101EB28
:1044D000D000203AF18850434843316801EB00088E
:1044E00000254BE000243FE098F8007004F007013D
:1044F0008020C84007400A9818B1BBF1010F18D0BE
:1045000021E0BBF1010F09D147B90AEB050081B2E7
:1045100009EB040080B20022FFF708FFEFB10AEBBD
:10452000050081B209EB040080B2FF22FFF7FEFE16
:1045300013E047B90AEB050081B209EB040080B231
:10454000FF22FFF7F3FE47B10AEB050081B209EB4A
:10455000040080B20022FFF7E9FEE043400701D1EA
:1045600008F10108641CA4B2B088A042BCD830791C
:10457000400701D008F101086D1CADB2F088A842D7
:10458000B0D800F02EB80000B8000010C000001035
:10459000C8000010B812001044656275673A2050D8
:1045A00061696E745F447261774368617220496E1D
:1045B0007075742065786365656473207468652020
:1045C0006E6F726D616C20646973706C61792072BA
:1045D000616E67650D0A000030BCBDE8C05FFFF783
:1045E0005EBF30BCBDE8C09F2DE9F04F93B083465D
:1045F000DDF874A00D4614461F46A946780701D081
:10460000012000E0002000EBD7007843C0B200900A
:104610000C2F03D0102F01D0182F46D13A4601A9F4
:104620002046FFF741FE4FF000083BE001A810F8DC
:10463000084000261C9818B1BAF1010F10D014E000
:10464000BAF1010F04D1002229465846FFF76EFE49
:10465000200611D5FF2229465846FFF767FE0BE0DA
:10466000FF2229465846FFF761FE200604D50022A6
:1046700029465846FFF75AFE6006040E6D1CADB27F
:10468000A5EB0900B84205D14D460BF1010B1FFA0D
:104690008BFB03E0761CF6B2082ECBD308F10108A1
:1046A00008F0FF0800988045C0D313B000F000B8B0
:1046B00030BCBDE8C08F2DE9FC5F05460E461746AD
:1046C0001C463846FBF752FE60431FFA80FBA846A3
:1046D000B2464FF000091EE0B9F1000F20D04FF0B4
:1046E000000908EB0B01081BA84202DA301986B258
:1046F00045460AEB0401081BB0420FDBDDE90C0163
:10470000CDE9000123463A4631462846FFF76CFFC3
:10471000BF1C281985B23A78002ADDD100F028B8EC
:10472000802A02D94FF00109F5E708EB0B01A1EB54
:104730005400A84202DA301986B245460AEB040159
:10474000081BB042EADB0D2A0DD0DDE90C01CDE9F2
:104750000001234631462846FFF784FE7F1C05EB07
:10476000540085B2D7E7301986B245467F1CF5E77D
:104770003CBCBDE8C09F7047704700002DE9F04188
:10478000054688460024494EF068810728680ED007
:10479000F16801F00301814207D130B1F068696826
:1047A000C0F30210401C884225D0012423E00128D8
:1047B00006D0022809D003280CD0012494B11AE0B5
:1047C00031688907FAD40124F8E731684905F5D43E
:1047D0000124F3E731688903F0D431684903EDD44B
:1047E0000124EBE7F16821F073026968491E42EA8F
:1047F00001110143F16074BB306820F080603060CB
:10480000FDF76EFC074606E0FDF76AFCC01B0228B8
:1048100001D9032402E030680001F5D4DCB9B8F115
:10482000000F19D04FF0FF30B8F1010F1FD0A96869
:104830002A7D090200EB520041EA406031691C4ABE
:10484000114008433061306840F080603060FDF70F
:1048500047FC07461FE026E0A868297B000240EAE3
:10486000C1603169134A114008433061EBE7A96820
:104870002A8A090200EB520041EA405031690E4A8F
:10488000114008433061DEE7FDF72AFCC01B022817
:1048900001D9032402E030680001F5D51CB9306964
:1048A000A969084330612046BDE8F081001002404C
:1048B000FF80FFF9FF80FF07FF809FFFF8B50546E7
:1048C00000241D4EB06DC00002D5FDF7FFFC0DE0C9
:1048D000B06D40F08050B065B06D00F08050009039
:1048E000FDF7F4FCB16D21F08051B165B0F5007FAA
:1048F00004D0802D0AD94FF003040DE0802D0BD990
:10490000A02D01D9022407E0012405E001D10224F1
:1049100002E0702D00D101240848016821F0070150
:1049200021430160006800F00700A04201D001208F
:10493000F8BD0020F8BD0000001002400020024039
:1049400001B582B000200190401E0090012301AA11
:1049500002A90448FEF784FB08B1FF200EBD9DF8B4
:1049600004000EBD6C040010F8B504460E46154652
:10497000334600224FF4C0512046009500F026F83F
:1049800028B1206E40F0200020660320F8BD334699
:10499000002280212046009500F08CF828B1206E7E
:1049A00040F0200020660320F8BD334600224FF47B
:1049B000C0612046009500F009F828B1206E40F053
:1049C000200020660320F8BD0020F8BD2DE9FC5F23
:1049D00004460C9D0E46174698464FF0000BCDF846
:1049E00000B0FDF77DFB401BA8EB0005FDF778FB51
:1049F0008146D4F800A00AF10C0A2B480068C0EBED
:104A0000C00000EB8000000D6843019044E0B6F563
:104A1000C06F05D127B99AF8000000909DF80000FA
:104A2000B8F1FF3F38D0FDF75BFBA0EB0900A842CF
:104A300003D215B1019858B32BE02068416821F0EA
:104A4000E00141606068B0F5827F0BD1A068B0F5ED
:104A5000004F02D0B0F5806F04D12068016821F0CA
:104A600040010160A06AB0F5005F09D120680168CB
:104A700021F4005101602068016841F40051016097
:104A8000012084F85D0084F85CB0032000F00EB8CB
:104A900000250198401E0190206880683040B8428F
:104AA000B5D10020F2E70000480000103CBCBDE892
:104AB000C09F00002DE9F84304460F4691461E466C
:104AC000089DFDF70DFB401B351AFDF709FB8046DD
:104AD00026480068C0F3CB30684300903AE0701C71
:104AE00038D0FDF7FDFAA0EB0800A84203D215B1BB
:104AF000009858B32BE02068416821F0E001416044
:104B00006068B0F5827F0BD1A068B0F5004F02D08D
:104B1000B0F5806F04D12068016821F04001016088
:104B2000A06AB0F5005F09D12068016821F4005146
:104B300001602068016841F40051016001205C348B
:104B40006070002020700320BDE8F88300250098E5
:104B5000401E00902068806837EA000004D00020E2
:104B60004845BCD10020EFE70120F9E748000010DC
:104B7000012001F000FCFBE710B5502080F3118804
:104B8000BFF34F8FBFF36F8F02F00AFF18B10449D4
:104B90004FF080500860002080F3118810BD0000A5
:104BA00004ED00E010B596B0442105A8FBF7C9FB61
:104BB00014216846FBF7C5FB4FF40070FDF750FB6E
:104BC00008B1FCF7CBFA012105914FF4A020069023
:104BD00002200F90032410941191142112910721A7
:104BE00013911490159005A8FDF794FE08B1FCF7F9
:104BF000B5FA0F20009001940020029003900490D9
:104C000004216846FDF7C4FC002801D0FCF7A6FA91
:104C100016B010BD0248016841F470010160704790
:104C200088ED00E00148FEF7B2BB0000EC0A00107E
:104C3000F0B50268164C4FF08047A04201D0B84250
:104C400003D122F070034A681A43124D124EA0425B
:104C500005D0B84203D0A84201D0B04203D122F41B
:104C60004073CA681A434B6922F080021A430260FB
:104C70008A68C2620A688262A04203D0A84201D058
:104C8000B04201D10969016301214161F0BD000019
:104C9000002C0140004001400044014090F82410E5
:104CA000C90706D001684A68836A22F400321A43B1
:104CB0004A6090F82410890706D501684A68C36ADB
:104CC00022F480321A434A6090F82410490706D52E
:104CD00001684A68036B22F480221A434A6090F804
:104CE0002410090706D501684A68436B22F4004284
:104CF0001A434A6090F82410C90606D501688A68EC
:104D0000836B22F480521A438A6090F8241089063B
:104D100006D501688A68C36B22F400521A438A6080
:104D200090F82410490611D501684A68036C22F4F2
:104D300080121A434A60016CB1F5801F06D10168E8
:104D40004A68436C22F4C0021A434A6090F8241067
:104D5000090606D501684A68806C22F400220243E5
:104D60004A607047F8B504460025C4F88050FDF746
:104D7000B7F90746206800686FF07E4600070AD53D
:104D80003B4600224FF400112046009600F07AFACC
:104D900008B10320F8BD2068006840070AD53B46EB
:104DA00000224FF480012046009600F06BFA08B113
:104DB0000320F8BD2020A067E067256684F87450C2
:104DC0000020F8BD10B5806A0021A0F85A10A0F8A4
:104DD0005210FEF7FDFB10BD70B5846AA06FE56F41
:104DE000216889684FF00006090606D5212804D1FC
:104DF000A4F85260204600F0BFF8206880684006A2
:104E000006D5222D04D1A4F85A60204600F07EF881
:104E1000D4F8800040F01000C4F880002046FEF76F
:104E2000D7FB70BD10B50146886A09680968890614
:104E30002DD40021A0F85A10016851E8002F22F467
:104E4000807241E80023002BF6D10168083151E857
:104E5000002F22F0010241E80023002BF5D1016868
:104E6000083151E8002F22F0400241E80023002BD6
:104E7000F5D12021C167016E012908D1016851E8EF
:104E8000002F22F0100241E80023002BF6D1016E22
:104E9000012902D0FEF732FE10BDB0F85810FEF71F
:104EA0004AFB10BD10B5806A016E012902D0FEF7E1
:104EB00049FE10BDB0F858104908FEF73CFB10BD84
:104EC00010B50146886A09680968890616D4002168
:104ED000A0F852100168083151E8002F22F080023A
:104EE00041E80023002BF5D1016851E8002F42F082
:104EF000400241E80023002BF6D110BDFEF7D6FE9C
:104F000010BD10B5806AFEF7DDFE10BD016851E8E6
:104F1000002F22F4907241E80023002BF6D10168A3
:104F2000083151E8002F22F0010241E80023002B54
:104F3000F5D1016E012908D1016851E8002F22F056
:104F4000100241E80023002BF6D12021C167002187
:104F500001664166704710B5016851E8002F22F0E4
:104F6000400241E80023002BF6D120218167002177
:104F70008166FEF79BFE10BD016851E8002F22F00C
:104F8000C00241E80023002BF6D120218167704741
:104F90002DE9F04104460025894B20682269A1686B
:104FA000E66911436269324311430268854E32401B
:104FB0000A43026020684168E26821F440511143CD
:104FC0004160A0692168994201D0226A10438A6831
:104FD00022F4306202438A607B4922687B488A421D
:104FE00014D1D0F8880010F0030007D0012809D0B0
:104FF000022805D0032807D0102152E0012150E0FB
:1050000002214EE004214CE008214AE070498A4226
:1050100014D1D0F8880010F00C0007D0042809D073
:10502000082805D00C2807D010213AE0002138E0EC
:10503000022136E0042134E0082132E065498A4249
:1050400014D1D0F8880010F0300007D0102809D013
:10505000202805D0302807D0102122E0002120E0B0
:1050600002211EE004211CE008211AE09A4217D117
:10507000D0F8880010F440600AD0B0F5806F0BD0F3
:10508000B0F5006F06D0B0F5406F07D0102108E0F2
:10509000002106E0022104E0042102E0082100E0F2
:1050A00010214D4800264FF4004C9A422DD191B169
:1050B000022905D0042911D0082912D00020012589
:1050C00000B3626802EB4201814202D8B0EB023FBA
:1050D00009D901256FE0FDF7A7FBF1E7FDF7C8FB54
:1050E000EEE76046ECE7010E030250081818714124
:1050F0000023FBF7D9F8394AA0F54071914202D854
:105100002168C86057E0012555E0E2694FF6EF7766
:1051100062452BD1092911D2DFE801F005081210F0
:105120000B1010100E00FDF77FFB09E0FDF78EFB62
:1051300006E0FDF79DFB03E0604601E0002001254D
:10514000B8B34100606801EB5001B1FBF0F0A0F191
:105150001001B94208D84FF6F0710140C0F3420087
:1051600001432068C16026E0012524E0092911D20D
:10517000DFE801F0050812100B1010100E00FDF70B
:1051800053FB09E0FDF762FB06E0FDF771FB03E06E
:10519000604601E00020012558B1616800EB510034
:1051A000B0FBF1F0A0F11001B94203D8216880B240
:1051B000C86000E001256666A6662846BDE8F08165
:1051C00000800040F369FFEF00380140001002400A
:1051D00000440040004800400024F400FFFC0F00A1
:1051E00070B504466165A4F858200025C4F88050C5
:1051F0002220E067206F00281BD01F49C162216F69
:105200001E480863216F1E484863206F8563606DE8
:1052100021681346266F024624313046FCF724FDF0
:1052200038B110207434E06025702020A060012087
:1052300070BD84F87450206940B1206850E8001FA8
:1052400041F4807140E80012002AF6D1206808304D
:1052500050E8001F41F0010140E80012002AF5D19A
:105260002068083050E8001F41F0400140E800127B
:10527000002AF5D1002070BD254E0008A54E00087B
:10528000D94D00082DE9F0470446089D884691460F
:105290009A460027202648E0681C46D0FCF720FFED
:1052A000A0EB0A00A84227D835B320680168490757
:1052B0003BD5C069C043000537D421684FF4006076
:1052C0000862206850E8001F21F4D07140E8001205
:1052D000002AF6D12068083050E8001F21F00101B3
:1052E00040E80012002AF5D174346660A660E660DA
:1052F00027700320BDE8F087206850E8001F21F4E4
:10530000D07140E80012002AF6D12068083050E839
:10531000001F21F0010140E80012002AF5D1A66724
:10532000E66784F874700320E4E72068C06938EA0F
:10533000000004D000204845AED00020DAE701206C
:10534000F9E700002DE9F04107460E460E4C4FF0FC
:10535000FF31E06802F02AF9012813D1207848B122
:1053600000252570628809493846FAF7D1FF608820
:1053700030606580E068BDE8F04100231A461946B8
:1053800002F062B8BDE8F08108000010D0040010FF
:1053900070B506460C46B4F5007F18D80C4D4FF09A
:1053A000FF31E86802F002F9012810D1A2B23146BB
:1053B0000848FEF729FC10B107A000F0F1F8E868F2
:1053C000BDE8704000231A46194602F03DB870BD92
:1053D00008000010D00600105553415254312044AB
:1053E0004D412053656E64204572726F72210D0A23
:1053F0000000000010B507494FF4007201F500707D
:10540000FEF750FB002804D0BDE8104002A000F0D9
:10541000C7B810BDD0040010555341525431204438
:105420004D412052656365697665204572726F72E1
:10543000210D0A0010B500F00DF8BDE8104001483C
:10544000FEF7C8B8D00600100148FEF7C3B8000048
:10545000540700101CB51B48FEF7BCF8194C206817
:10546000C169C943C9062BD4102101622046FEF749
:1054700064F8206F00684068C0F5007112484180F0
:105480004188C9B14188B1F5007F15D8012101706B
:105490000021019101A9002300911A4619460069D3
:1054A00002F0E4F9019838B108494FF080500860E3
:1054B000BFF34F8FBFF36F8FBDE81C40FFF79ABF5C
:1054C0001CBD0000D00600100800001004ED00E034
:1054D000FEE7000010B5012211024FF09040FCF7EA
:1054E000F9FD00F032F80149088010BD4C000010B1
:1054F0002DE9F04105460C4616464FF480774FF0F3
:105500009048002239464046FCF7E4FD0320FFF7AF
:1055100017FAC4F30740FFF713FAC4F30720FFF7A5
:105520000FFAE0B2FFF70CFA002405E0FF20FFF7C6
:1055300007FA2855641CA4B2B442F7D33946404652
:10554000BDE8F0410122FCF7C5BD2DE9F041002482
:105550004FF480764FF09047002231463846FCF7F2
:10556000B9FD9020FFF7ECF90020FFF7E9F90020E2
:10557000FFF7E6F90020FFF7E3F9FF20FFF7E0F976
:1055800044EA0025FF20FFF7DBF940EA0504012289
:1055900031463846FCF79EFD2046BDE8F08100000C
:1055A0000FB4054B10B503A9044A029800F0F2F8B5
:1055B00010BC5DF814FB0000CD5F0008480100102E
:1055C0000907090E002804DB00F1E02080F8001430
:1055D000704700F00F0000F1E02080F8141D7047C4
:1055E000004870474C01001002E008C8121F08C1B3
:1055F000002AFAD170477047002001E001C1121F54
:10560000002AFBD1704700002DE9FF5F82B0002126
:10561000DDE90430020DDDF840B0034318D044F654
:105620001050A2F2FF3242431514119801281FD0E6
:10563000A5EB0B00401C5FEA000A4FF000064E4F3E
:10564000DFF83891B046504615D5CAF1000413E092
:10565000119801244AA3012801D16FEA0B01029895
:10566000119AC0E90031C0E9024206B000F08EB8DC
:10567000CBF10000DFE704460021404A491842EB25
:105680000450CDE9001012E0E00707D032463B4657
:1056900040464946FAF774FF8046894632463B4603
:1056A00010461946FAF76CFF06460F466410002CA8
:1056B000EAD1DDE90401DDE90023BAF1000F06DAE1
:1056C000FAF75EFF42464B46FAF75AFF05E0FAF753
:1056D000CCFF42464B46FAF7C8FF04460E4600226E
:1056E000284BFBF745F903D84FF0FF30014607E0A0
:1056F0000022254B20463146FAF793FEFBF71FF9AF
:10570000102409E0002C0ADB0A220023FAF7CCFD62
:10571000039B30321A55641E50EA0102F2D1641C18
:10572000039AC4F111031444119A012A03D00122EF
:1057300008430DD10AE0084304D000204FF0110BBC
:10574000119072E7A3EB0B056D1E0DE05B4504DDC8
:105750004FF0000205F1010504E003DA4FF000020A
:10576000A5F10105002AECD002981199C0E9023197
:10577000C0E9004579E70000000014400000F03F58
:10578000300000000000F0430000E03F30BCBDE806
:10579000C09F00002DE9FF4F95B09A468846064607
:1057A0000025EEE1252877D100242746F94A01217A
:1057B000039400E0044316F8013F203B01FA03F094
:1057C0001042F7D130782A2811D06FF02F033078AB
:1057D000A0F13002092A16D8039A44F0020402EB21
:1057E000820203EB42021044761C0390EFE758F864
:1057F000042B0392002A03DA504244F4005403902D
:1058000044F00204761C30782E2816D116F8010FC9
:1058100044F004042A280DD06FF02F023078A0F154
:105820003003092B09D807EB870302EB4303C718A2
:10583000761CF3E758F8047B761C30786C280FD080
:1058400006DC4C2817D068280DD06A2814D104E053
:10585000742810D07A280FD10DE044F400140AE027
:1058600044F4801401E044F440147278824202D17E
:1058700004F58014761C761C307866280BD013DC77
:10588000582877D009DC002875D04528F6D046285E
:10589000F4D047281AD193E118E0632835D0642862
:1058A00079D0652812D18BE1702873D008DC672885
:1058B000F1D069286FD06E280DD06F2806D1ACE0EA
:1058C00073282CD0752874D0782853D05246179955
:1058D00090476D1C54E1C4F30250022809D00328FC
:1058E0000DD0D8F8001004280DD00D6008F1040880
:1058F00046E1D8F80010EA17C1E90052F6E7D8F8F7
:1059000000100D80F2E70D70F0E718F8041B8DF819
:10591000001000208DF80100EB46012003E058F84C
:1059200004BB4FF0FF3061074FF0000102D40DE0DF
:1059300009F101018946B9420FDA8145F8DB1BF80C
:1059400009100029F4D108E009F1010189468142DA
:10595000FADB1BF809100029F6D103985346A0EB97
:10596000090721463846179A00F083FA284400EBCD
:10597000090507E044E008E10DE01BF8010B524681
:1059800017999047B9F10109F7D253462146384695
:10599000179AF2E039E00A21C4F302524FF0000BEB
:1059A0000091022A06D058F8040BC117032A09D027
:1059B0000AE023E008F1070020F00702F2E8020104
:1059C000904605E000B2C117042A01D140B2C117C8
:1059D000002906DA0A460021404261EB02012D222D
:1059E00002E0220504D52B228DF80420012203E0D9
:1059F000E20701D02022F7E7914657E00A2100E0B4
:105A000010214FF0000B00910BE010214FF0000B24
:105A100044F004040827009103E008204FF0000B35
:105A20000090C4F30252022A05D058F8040B00215A
:105A3000032A08D008E008F1070020F00702F2E886
:105A40000201904603E080B2042A00D1C0B24FF0B8
:105A5000000922072AD53278702A07D0DDF800C065
:105A60008CF0100C5CEA0B0C05D00EE040228DF897
:105A70000420012208E050EA010306D030238DF80B
:105A800004308DF8052002229146009B83F0080324
:105A900053EA0B030AD150EA010201D1620705D58E
:105AA00030228DF804204FF001097F1E3278582AE9
:105AB00004D039A20C920CAA02920BE03BA2F9E7A7
:105AC0005B46009AFAF7F0FB0C9B9B5C029A521E15
:105AD0000292137050EA0102F2D1029804A9081A46
