:020000040800F2
:10000000B0230010850200087759000897510008B6
:10001000755900085D1F0008E57900080000000020
:10002000000000000000000000000000A501000822
:100030009320000800000000010200087970000809
:100040009F0200089F0200089F0200089F0200080C
:100050009F0200089F0200089F0200089F020008FC
:100060009F0200089F0200089F0200089F020008EC
:100070009F0200089F0200084D2000085920000838
:100080009F0200089F0200089F0200089F020008CC
:100090009F0200089F0200089F0200089F020008BC
:1000A0009F0200083D7100089F0200089F0200089F
:1000B0009F02000800000000000000009F020008EE
:1000C0009F0200089F0200089F0200089F0200088C
:1000D0009F020008FD780008117900089F020008BF
:1000E0005D240008F56B000800000000000000001F
:1000F0000000000000000000000000000000000000
:10010000000000009F020008000000009F0200089D
:1001100000000000000000009F0200089F0200088D
:100120009F0200089F0200089F0200089F0200082B
:100130009F02000800000000000000000000000016
:100140009F0200089F0200089F02000800000000B4
:100150009F0200089F0200089F0200089F020008FB
:100160009F0200089F0200089F0200080000000094
:100170009F0200089F02000800000000000000002D
:100180009F0200089F0200089F020008DFF810D0BD
:1001900000F024FE00480047BD8C0008AFF300804B
:1001A000B02300102C4B1968086800F05AB880F38F
:1001B0000988BFF36F8F4FF0000080F311887047FC
:1001C0000000000008480068006880F308884FF0CD
:1001D000000080F3148862B661B6BFF34F8FBFF39F
:1001E0006F8F00DF00BF00BF08ED00E0DFF80C00FC
:1001F000016841F470010160704700BF88ED00E0C4
:10020000EFF30980BFF36F8F134B1A681EF0100FC6
:1002100008BF20ED108A20E9F04F106009B44FF0BC
:10022000500080F31188BFF34F8FBFF36F8F09F039
:1002300035FE4FF0000080F3118809BC196808688A
:1002400000F014B81EF0100F08BF00F014B880F3CF
:100250000988BFF36F8F70476C010010EFF30580C2
:10026000704730C8B0E8C04FFFF7A1BF30C8B0E852
:10027000C04FFFF7E7BFB0EC088AB0EC08CAFFF741
:10028000E6BF00000648804706480047FEE7FEE755
:10029000FEE7FEE7FEE7FEE7FEE7FEE7FEE7FEE736
:1002A0002D7100088D0100082DE9F05F0546002042
:1002B00092469B4688460646814640241BE02846D7
:1002C00041464746224600F000FC53465A46C01AB3
:1002D000914110D311461846224600F0E7FB2D1A33
:1002E00067EB01084F4622460120002100F0DEFBAB
:1002F00017EB00094E41201EA4F10104DFDC484643
:1003000031462A46434600F000B830BCBDE8C09FE5
:100310002DE9FE43994615468846074601AC022959
:1003200042D3002D40D000200290A8F101004FF0F0
:10033000FF36009022E000FB057201FB05701146BC
:100340004A469047002805DC54F82600304444F81B
:10035000260013E060682A4600FB057154F8040C7F
:1003600000FB057007E00B7890F800C001F801CBA6
:1003700000F8013B521E002AF5D1764254F8040CD5
:1003800061688842D7DC4B462A463846FFF7C0FFF3
:1003900054F8040C4B46A8EB0001401C00FB057010
:1003A0002A46491EFFF7B4FF00F000B806BCBDE8BE
:1003B000F88340EA01039B0703D009E008C9121F34
:1003C00008C0042AFAD203E011F8013B00F8013B0F
:1003D000521EF9D27047D2B201E000F8012B491E3B
:1003E000FBD270470022F6E710B513460A460446D2
:1003F0001946FFF7F0FF204610BDCAB2401E10F8A4
:10040000011F8A4202D00029F9D100207047421C06
:1004100010F8011B0029FBD1801A704730B5054642
:100420000020034600E05B1C934205D2EC5CC85CF4
:10043000201A01D1002CF6D130BD00000FB400B558
:100440008DB010A909900B9000914FF0FF300A90E9
:1004500000200C9005480690054807906A4609A8B8
:100460000F9900F077FB0DB05DF814FB710B0008DD
:100470008F0B00082DE9FF5F1D464FF0FF3BD5E9CC
:10048000014691465F464FF00008A9697F1C01981C
:100490008847296A824688470028F6D1BAF1FF3F8B
:1004A0000CD024F4C064002E19DD600614D5BAF116
:1004B0002B0F09D0BAF12D0F0ED103E0584604B02E
:1004C00000F07EB844F48064A9697F1C01988847D5
:1004D000761E8246002E02DDBAF1300F03D0B9F14C
:1004E000000F26D032E0A969761E44F400747F1C08
:1004F000019888478246002E05DDBAF1780F06D0B4
:10050000BAF1580F03D0B9F1000F10D01EE0B9F1C5
:10051000000F02D0B9F1100F18D1A969761E24F48A
:1005200000747F1C019888478246102002E0082052
:1005300000E00A20814609E008FB0908A969761E47
:1005400044F400747F1C019888478246002E05DD24
:100550004946504600F0E9FA0028EDDAE9690198C9
:100560008847A00502D46FF00100A8E7E00725D175
:10057000600613D5600502D5C8F1000000E04046D2
:1005800029680A1D2A600968220501D5087015E04E
:10059000220701D5088011E008600FE02868011DDE
:1005A00029600068210502D580F8008006E0210757
:1005B00002D5A0F8008001E0C0F8008038467EE750
:1005C00030BCBDE8C09F2DE9F04791460F468046FC
:1005D0000446002614F8015B2DB100F099FA00687A
:1005E000405DC007F6D12B2D02D02D2D18D0641EF2
:1005F0004A463946204600F0DBFA27B13968A14265
:1006000001D1C7F8008071054FF002040BD54042BC
:10061000002803DD07F0AEFB0460A007BDE8F0870B
:1006200046F48066E4E70028F8DA07F0A3FB0460EC
:100630006FF00040F2E770B5064607F09BFB0468D8
:1006400005460A2200213046FFF7BDFF2C6070BD31
:100650002DE9FE4F804681EA0300C00F0C46009052
:1006600021F0004123F00045B8EB0200A94105D27A
:100670004046214690461C460B46024623F0004069
:10068000104347D0270DC7F30A00C3F30A51029065
:10069000401A019040286BDAC3F3130040F4801B2A
:1006A0000098924620B10023D2EB030A63EB0B0BB8
:1006B00001985946C0F14002504600F0F7F906464D
:1006C0000D4650465946019A00F00FFA10EB08000B
:1006D0006141002487EA115284EAE7731A4340D04B
:1006E000009A62B3019A012A4FEA075215DC001BF7
:1006F00061EB02014FF0004202EA0752CDE90042ED
:10070000001C41F5801132462B4600F0E9FA03B097
:1007100000F045B840462146F9E7001B61EB0201B5
:10072000001C41F5801300185B412018A2F500174A
:1007300047EB030140EAD570B6196D4111E06D0831
:100740004FEA360645EAC0754FEA0752001B61EBD7
:100750000201001C41F5801149084FEA30000019E0
:10076000514132462B4603B000F01CB800F0A9BA44
:100770000098012240000023D0EB020263EBE073FB
:10078000009821464FEAE074B8EB000061EB0401E9
:10079000E9E783F000435BE781F0004158E730BCB4
:1007A000BDE8C08F30BCBDE8C04FFFF7DFBF2DE90B
:1007B000FE4F81EA030404F0004421F0004100945C
:1007C0004FF0000B23F0004350EA01045ED052EAE0
:1007D00003045BD0C3F30A54C1F30A552C44A4F2BA
:1007E000F3340194A0FB0254C1F3130141F48011CE
:1007F000C3F3130343F4801301FB024400FB034ED5
:10080000840A970A44EA815447EA8357A4FB07689D
:1008100002958D0A05FB07854FEA932C04FB0C54C7
:100820002705029D4FEA065847EA1637B5EB08053B
:100830006EEB070C870E920E47EA811742EA83128D
:10084000A7FB0201B6EB0B0164EB00042B0D43EA9E
:100850000C335E1844EB1C50DA465146E7FB0201AC
:10086000C5F313044FEA0B3343EA14534FEA04323F
:10087000019C43EA0603A4F10C040294009CCDE918
:1008800000B400F02DFA03B000F003B800200146D8
:10089000F9E730BCBDE8C08F2DE9F04D81EA0304D3
:1008A00004F0004B21F0004514464FF0000A23F0FD
:1008B000004150EA050220D054EA01021DD0C5F3E0
:1008C0000A570246C5F31303C1F31300C1F30A56D6
:1008D00040F4801543F48013A7EB0608101BD6469E
:1008E00008F2FD3873EB050002D308F1010801E0BE
:1008F00092185B41B8F1000F03DA00200146BDE811
:10090000F08D00204FF48011064684460EE0171B40
:1009100073EB050705D3121B63EB050306434CEA93
:10092000010C49084FEA300092185B4150EA010778
:10093000EDD152EA030012D082EA040083EA0501F5
:10094000084305D0101BAB4106D20122002306E06C
:1009500000224FF0004302E06FF0010253101AEB47
:1009600006004CEB085110EB0A0041EB0B01BDE80F
:10097000F04D00F0A6B90EB5C10F80EAE070084452
:10098000CA07002140F233438DE80E000A460B46A9
:1009900000F0A6F903B000BD0EB540F2334102915C
:1009A0000021CDE900110A460B4600F099F903B089
:1009B00000BD70B5C1F30A5201F000450024C1F337
:1009C000130140F2FF3341F480119A4201DA002012
:1009D00070BD40F233439A42A2F2334203DC5242EA
:1009E00000F073F800E090402C43F1D0404270BD1D
:1009F00000F0004230F000400AD0C10D01F56071F6
:100A0000C0F3160042EA0151C20840071143704783
:100A1000002001467047000030B5041E71F100044B
:100A200004DB4FF00044404264EB0101141E73F1FB
:100A3000000405DB1C464FF00043524263EB040305
:100A40008B4208BF824230BD01F0004330B421F038
:100A5000004150EA010206D00A0DA2F56072C1F30E
:100A60001301002A02DC30BC00207047440F44EA26
:100A7000C104C100E01830BC00EBC25000F0EAB87D
:100A800030B50B46014600202022012409E021FA5E
:100A900002F59D4205D303FA02F5491B04FA02F55B
:100AA0002844151EA2F10102F1DC30BD202A04DB2E
:100AB000203A00FA02F1002070479140C2F1200371
:100AC00020FA03F3194390407047202A04DB203AB0
:100AD00021FA02F00021704721FA02F3D040C2F15E
:100AE00020029140084319467047202A06DBCB17A5
:100AF000203A41FA02F043EAE07306E041FA02F3D9
:100B0000D040C2F1200291400843194670470000CE
:100B100000487047BCE2000810B50446FFF7F8FF34
:100B20000068005D00F0010010BD3A2800D23038A6
:100B300020F02002412A01D3A2F13700884201D3DC
:100B40004FF0FF30704700000268114413780160D5
:100B500018467047D160044951610449116200216F
:100B60001161114600F04CB9490B0008190B00083F
:100B7000426842B1016811F8013B23B1521EC0E93D
:100B80000012184670470121C160881E70474268F4
:100B90005AB1C368016843B983688B4205D0491EC6
:100BA000521CC0E90012002070474FF0FF30704720
:100BB0002DE9F05F82460078002715468B460AF142
:100BC0000104B946302801D09DB113E014F8010B9F
:100BD0000127782803D0582801D045B10AE00DB18B
:100BE000102D07D10027102514F8010B02E008256D
:100BF00000E00A250026B0460EE005FB080005FBD4
:100C000006F1012701EB10461FFA80F8B6F5803F88
:100C100000D3B94614F8010B2946FFF786FF0028D8
:100C2000EBDABBF1000F05D00FB1641E00E05446B3
:100C3000CBF80040B9F1000F06D007F09BF8022175
:100C40000160C81E00F003B848EA0640FAE730BC6D
:100C5000BDE8C09F0029A8BF7047401C490008BFDD
:100C600020F00100704710B4B0FA80FC00FA0CF0DC
:100C700050EA010404BF10BC704749B1CCF1200414
:100C800021FA04F411FA0CF118BF012121430843A1
:100C9000A3EB0C01CB1D4FEA00614FEA102042BFCD
:100CA000002010BC704700EBC35010440029A4BFC3
:100CB00010BC7047401C490008BF20F0010010BC68
:100CC000704710B5141E73F1000408DA401C41F19E
:100CD000000192185B411A4301D120F0010010BDC0
:100CE0002DE9F04D92469B4611B1B1FA81F202E036
:100CF000B0FA80F220329046FFF7D8FE04460F4645
:100D000040EA0A0041EA0B0153465A46084313D011
:100D1000114653EA010019D0C8F140025046FFF7CE
:100D2000D4FE05460E46504659464246FFF7BEFEE3
:100D3000084305D0012004E020463946BDE8F08D87
:100D40000020054346EAE0762C4337430A986305C2
:100D5000E40AA0EB08000022FD0A44EA47540A30E6
:100D600002D500200146E9E7010510196941DDE9D6
:100D7000084500196941BDE8F04DA2E7C1F30A52E8
:100D8000C1F3130140F2FF3341F480119A4202DAB9
:100D900000200146704740F233439A42A2F23342A8
:100DA00002DC5242FFF791BEFFF780BE30B5041E51
:100DB00071F1000404DB4FF00044404264EB010198
:100DC000141E73F1000405DB1C464FF00043524231
:100DD00063EB0403994208BF904230BD064C074DB7
:100DE00006E0E06840F0010394E8070098471034FB
:100DF000AC42F6D3FFF7CEF994EE0008C4EE00083B
:100E00002DE9F34F8BB04FF0000801F10C000C46B8
:100E10004FF0010B46460DF1080A0190626901216D
:100E200001989047051E2DD0252D2CD0216A88478A
:100E3000C0B16269012101989047216A8847002862
:100E4000F7D1411E62690198904700E0761CA169C4
:100E50000B988847216A88470028F7D1E1690B98E9
:100E60008847DBE7A1690B9888470746A84201D16C
:100E7000761CD3E7E1690B9888477F1C02D1B8F153
:100E8000000F6FD047E1002762693D46394601985F
:100E900090472A2804D162690121019890470125D1
:100EA000DFF888926269012101989047A0F1300132
:100EB0000A290AD24F45E5DC07EB870100EB410721
:100EC000303FDFD445F01005ECE7E90601D46FF0C0
:100ED00000476C280AD04C2814D0682815D06A28FE
:100EE0000DD074281CD07A281AD01DE06269012127
:100EF000019890476C2802D045F0040514E045F0B5
:100F000002050DE045F020050AE062690121019823
:100F10009047682802D045F0080505E045F40065D3
:100F20006269012101989047C4E9015765283DD0C5
:100F300019DC58287AD00CDC452837D004DC252869
:100F400026D0412831D131E046282FD047282CD156
:100F50002CE05B2877D0612828D063287CD06428D7
:100F600023D15AE0D1E06F2848D008DC66281DD094
:100F700067281BD0692821D06E2816D127E0702859
:100F800045D0732868D0752847D078280DD14DE01A
:100F9000A1690B988847054625283FF469AFE169A8
:100FA0000B9888476D1C3FF46AAFB4E023466A464D
:100FB0006FF001000B99AFF300809FE045F0400017
:100FC0006060A80723464FF0000236D43EE0E807F1
:100FD0007FF447AF2068011D21600068290501D515
:100FE00006701BE7290701D5068017E7A90703D577
:100FF000F117C0E9006111E706600FE745F0400016
:101000006060A80723464FF0080216D41EE040F6A1
:101010000E0125EA0100606016E045F040006060C6
:10102000A80723464FF00A0207D40FE045F040001E
:101030006060A80708D5234610226FF001000B99C5
:10104000AFF300805AE007E0234610226FF0010062
:101050000B99FFF70FFA51E04FF000094F464B464E
:10106000632802D05B2807D041E02079C00601D474
:101070000120A06001273AE06269012101989047B0
:101080005E2805D14FF001096269494601989047F1
:10109000216939B900210A46534643F82120491CE9
:1010A0000829FADBB0B3216969B9C11700EBD16235
:1010B00053110AEB830122F01F02821A01200B68F0
:1010C000904003430B6062690121019890475D28BD
:1010D000E8D1B9F1000F09D00020514651F8202085
:1010E000D24341F82020401C0828F7DB02AB2246FF
:1010F00000976FF001000B99AFF3008000280CDA25
:10110000401C08D1BBF1000F05D04FF0FF300DB0EF
:1011100000F00EB8FFE74046F9E7E90701D108F112
:10112000010806444FF0000B78E60000CCCCCC0C54
:1011300030BCBDE8C08F70B58C1810F8015B15F09D
:10114000070301D110F8013B2A1106D110F8012B39
:1011500003E010F8016B01F8016B5B1EF9D12B075E
:1011600005D40023521E0DD401F8013BFAE710F814
:10117000013BCB1A921C03E013F8015B01F8015B01
:10118000521EF9D5A142D8D3002070BD9FED241A7C
:10119000B5EE002A4EF290630021B7EE004AC0F689
:1011A000000320EE010A30EE020ABDEEC01AB5EED1
:1011B000C00A11EE100AF1EE10FA9FED1A1AB8BF2C
:1011C000013802EE100AB8EEC22A30EE420A9FED54
:1011D000162A20EE010ABDEEC01A11EE100A30EEFA
:1011E000021A0246B1EB502F18BF002202EE102A5D
:1011F00003EB8203B1EB502F18BFB0EE410AB8EEFB
:10120000421A93ED002A93ED013A30EE410A34EE92
:10121000401A20EE030A21EE021A31EE000A70474E
:1012200083F9223E00000044000000C49FED221A12
:101230004EF290630021B7EE004AC0F6000320EEA4
:10124000010ABDEEC01AB5EEC00A11EE100AF1EEA9
:1012500010FA9FED1A1AB8BF013802EE100AB8EE64
:10126000C22A30EE420A9FED162A20EE010ABDEE98
:10127000C01A11EE100A30EE021A0246B1EB502FDE
:1012800018BF002202EE102A03EB8203B1EB502FAD
:1012900018BFB0EE410AB8EE421A93ED002A93ED62
:1012A000013A30EE410A34EE401A20EE030A21EEF4
:1012B000021A31EE000A704783F9223E0000004412
:1012C000000000C42DE9F041044600270D460068E7
:1012D00004F018F90646206804F010F930435DD098
:1012E0002068C1682E4E890105D5617E012902D191
:1012F000217E01290BD0022D1DD0206804F002F9B7
:10130000B8B120688168C1F3400169B111E00125DD
:10131000244902E08F4232D27F1C0268D243520637
:10132000F8D440210160E8E78168314041F01001C4
:101330008160012D11D0206804F0E0F848B12068E8
:101340008168C1F3400121B98168314041F0200139
:101350008160022D08D0032D04D0042501F054FF34
:10136000064617E00C25F9E70825F7E701F04CFFE2
:10137000801B05280ED92068806828420AD0606D3D
:1013800040F010006065A06D40F00100A0650120F4
:10139000BDE8F081206880682842E7D10020F7E7A7
:1013A000C0FFFF7F000040A370B50446006881685D
:1013B0008268C1F3400112F0010F28D039BB816867
:1013C00001F00D01012914D18168124A1140891CD4
:1013D000816021680320086001F016FF054612E0D5
:1013E00001F012FF401B02280DD920688068C00759
:1013F00009D0606D40F010006065A06D40F0010004
:10140000A065012070BD20688068C007E8D1002079
:1014100070BD0000C0FFFF7FF8B5044600200090BB
:101420002068816811F0010F41D18168214A114281
:101430002ED18168D5432940491C81601E488068AF
:1014400000F0E07000020DD51C481D490068B0FB9B
:10145000F1F0401C00EB4000800000E0401E0090D6
:101460000028FBD101F0D0FE06461BE0816811F098
:10147000010F03D181682940491C816001F0C4FE3D
:10148000801B02280ED920680068C043C00709D01D
:10149000606D40F010006065A06D40F00100A06537
:1014A0000120F8BD20680168C943C907DED10020CA
:1014B000F8BD00003F00008000030450B0000010A1
:1014C000400D03002DED048B0122254F160300244F
:1014D0003146384601F092FE9FED228ADFED228AE6
:1014E000B0EE009A4FF47A78204801F0D1FB322117
:1014F0001E4801F075FB1D4801F04BFA800503D52D
:101500001A4801F048FA85B200EE105AB8EE400AC7
:1015100020EE080A20EE280A20EE090A10EE100A32
:10152000FFF766FA41EC100B11A053EC102B06F0FC
:1015300001FC404608F0D2FA641CA4B2052C02D08B
:101540000A2C02D007E0002201E0002401223146EB
:10155000384601F053FE054801F0DEFBC4E7000009
:1015600000040048CDCC1C400000803998040010D5
:10157000204144312076616C7565203D2025312E57
:10158000336656200D0A000010B586B01421684657
:10159000FEF728FF11200190012002900220039005
:1015A0004020234C00906946204601F037FD802002
:1015B00000906946204601F031FD0122402120467D
:1015C00001F01CFE01228021204601F017FE03F0ED
:1015D0000DFF702003F04AFF30B3BA2003F046FF3E
:1015E00010B303F027FF142008F078FA142008F055
:1015F00075FA03F0FBFE702003F038FFA0B1BE20A7
:1016000003F034FF80B1082003F030FF60B1002008
:1016100003F02CFF40B103F00DFF0A2008F05EFA42
:1016200000F07EF806B010BD03F004FF0020F9E7DB
:10163000000400487CB5054600200090019003F0AE
:10164000D5FE702003F012FFF0B3AC2003F00EFFC4
:10165000D0B3332003F00AFFB0B3002003F006FF3D
:1016600090B303F0E7FE00F05BF800284AD003F0E7
:10167000BDFE712003F0FAFE30B300246E4601E097
:10168000052C01D2012100E00021301903F062FE97
:10169000D0B1641CE4B2062CF2D303F0CBFE9DF86B
:1016A00001009DF80210000340EA01109DF80310AC
:1016B0009DF8042040EA11100907090B41EA0221B4
:1016C0009DF80520114300E01DE000EE100ADFED5B
:1016D000100A9FED101AB8EE400A012020EE200AF1
:1016E00020EE010A9FED0C1A85ED000A00EE101A9B
:1016F000B8EE400A60EE200A9FED080A10EE810A5B
:1017000085ED010A7CBD03F095FE00207CBD000044
:10171000000080350000C8420000484300004842F5
:1017200038B54FF47A7400BF03F060FE712003F007
:101730009DFE60B10021684603F00CFE38B103F055
:1017400079FE9DF80000000605D4012038BD03F0A5
:1017500071FE002038BD022008F0C0F92046641E4A
:10176000E2D238BD1CB5FEF766FF144C012803D049
:10177000002812D012A01CE01AA006F0DBFA2068A4
:1017800008B121A015E00220CDE900040023802249
:1017900026A1294808F08EFE1CBD28A006F0CAFA32
:1017A000206828B108F0C0F90020206023A000E0E4
:1017B00029A0BDE81C4006F0BDBA000004000010DE
:1017C000496E76616C696420617267756D656E74CF
:1017D00020666F722041542B4144435F56616C7503
:1017E000650A00004144432056616C7565205461D0
:1017F000736B20616C72656164792072756E6E69BD
:101800006E672E0D0A0000004144432056616C753E
:1018100065205461736B20616C726561647920721C
:10182000756E6E696E672E0A000000004144435FCA
:1018300056616C7565000000C514000841444320E2
:1018400056616C7565205461736B2073746F707092
:1018500065642E0A000000004144432056616C7507
:1018600065205461736B206973206E6F74207275EC
:101870006E6E696E672E0A002DE9F04106463D2125
:10188000FEF7BBFD90B1002100F8011B0F4F05468C
:101890000C4600BF04EB4400402257F820103046AD
:1018A000FEF7BCFD40B1641C082CF3D33146BDE803
:1018B000F04107A006F03EBA04EB440007EB8000BD
:1018C00041682846BDE8F04108470000DC000010F0
:1018D000556E6B6E6F776E20636F6D6D616E643ADF
:1018E0002025730A41542B48454C503D31200A00B5
:1018F0007CB5FEF7A0FE154D154C012803D000283D
:1019000013D014A015E01CA006F014FAA07808B1BA
:1019100022A00EE00220CDE90005C201002327A18C
:10192000294808F0C7FD01200EE0A078012804D066
:1019300026A0BDE87C4006F0FDB9286808F0F4F860
:101940002AA006F0F7F90020A0707CBD0800001066
:10195000C8000010496E76616C6964206172677519
:101960006D656E7420666F722041542B4550445F44
:10197000746573740A0000004550445F74657374A5
:10198000205461736B20616C72656164792072759B
:101990006E6E696E672E0D0A000000004550445FB0
:1019A00074657374205461736B20616C726561643B
:1019B000792072756E6E696E672E0A004550445F1D
:1019C0007465737400000000CF2300084550445F25
:1019D00074657374205461736B206973206E6F7427
:1019E0002072756E6E696E672E0A00004550445F66
:1019F00074657374205461736B2073746F707065B9
:101A0000642E0A007CB5FEF716FE174D174C012810
:101A100003D0002813D016A018E01EA006F08AF903
:101A2000607808B124A011E00220CDE90005002370
:101A3000802229A12B4808F03DFD012011E02AA0B9
:101A400006F078F96078012804D02DA0BDE87C402C
:101A500006F070B9286808F067F823A006F06AF964
:101A6000002060707CBD00000C000010C800001059
:101A7000496E76616C696420617267756D656E741C
:101A800020666F722041542B4558505F7465737403
:101A90000A00000045585020746573742054617327
:101AA0006B20616C72656164792072756E6E696E0F
:101AB000672E0D0A000000004558502074657374AD
:101AC000205461736B20616C72656164792072755A
:101AD0006E6E696E672E0A004558505F74657374A8
:101AE00000000000FD230008455850207465737401
:101AF000205461736B2073746F707065642E0A00DC
:101B00004558502074657374205461736B20697359
:101B1000206E6F742072756E6E696E672E0A0000FB
:101B200070B50DA006F006F9114D002404EB440633
:101B300010A055F8261006F0FDF805EB86060EA05D
:101B4000B16806F0F7F811A0B16806F0F3F8641C6C
:101B5000082CEBD370BD0000417661696C61626C4A
:101B60006520415420636F6D6D616E64733A0A00A5
:101B7000DC00001025730A00446573637269707499
:101B8000696F6E3A2025730A000000004578616D88
:101B9000706C652075736167653A2025730A0A00C9
:101BA00070B5194CC0B04FF48076184D206915E01F
:101BB00032466846E16805F06EFF3146684605F03A
:101BC0004BFE2868C169C9434906FBD4E06800F5AB
:101BD0008070E0602069A0F580702061B042E7D895
:101BE00068B182B26846E16805F055FF6846216930
:101BF00005F032FE2868C169C9434906FBD40020BC
:101C00002061E06040B070BDC8000010E80700101F
:101C100010B58CB00DF1040C0BAC0AAB09AA08A9E5
:101C20008CE81E0007A9009106AB05AA0DA1FEF7DE
:101C300005FC072801D0124804E00B98411E072933
:101C400004D3104806F076F80CB010BDDDE9091297
:101C50000091CDE9012005AC94E80F0005F03AF8B9
:101C6000F2E700002534642D2532642D25326420EE
:101C70002532643A2532643A253264202564000016
:101C800018E30008CCE2000870B505462C21FEF7E9
:101C9000B4FB040015D00020207001461022284615
:101CA000FEF791FC094DE860601CFEF7C4FC28615A
:101CB000024607A0E96806F03DF8BDE87040FFF76E
:101CC0006FBFBDE870400AA006F034B8C80000102D
:101CD00052656164416464723A20307825582C2042
:101CE0004461746553697A653A2025640A000000EE
:101CF000496E76616C696420617267756D656E749A
:101D000020666F722041542B536574577269746555
:101D10000A00000070B505462C21FEF76EFB04009A
:101D200017D000202070014610222846FEF74BFCF9
:101D30000A4D6860601CFEF77EFCA860024608A0A1
:101D4000696805F0F7FFD5E9010105F04CFE0CA02C
:101D500000E00EA0BDE8704005F0ECBFC800001028
:101D60005772697465416464723A20307825582C42
:101D7000204461746553697A653A2025640A00003D
:101D80004572617365204F4B0D0A0000496E766104
:101D90006C696420617267756D656E7420666F7220
:101DA0002041542B53657457726974650A00000012
:101DB00002490120087002A005F0BCBFC800001055
:101DC000466C6173685772697465446174655461E7
:101DD000736B2052756E0D0A0000000010B505F0FF
:101DE00061F903F021FC03F0EDFB124800F0AEFEB8
:101DF00003F0ACFB104802F06BFB03F0EBFC0F4868
:101E000002F066FB03F00EFD0D4802F0E1FF0D4805
:101E100002F0DEFF0C4802F0DBFF03F02BFD03F0C5
:101E20006DFD03F089FD05F0A2FEBDE81040FFF74F
:101E3000ABBB0000980400102005001084050010C2
:101E4000E80700106C080010F008001010B500F052
:101E500096FABDE8104005F007BE00002DE9FC41F0
:101E60000C46054605F0C0F8B5F5A07F01D8F02C6A
:101E700004D9BDE8FC4125A005F05CBF4FF4A57175
:101E8000002007F01FF85FEA000802D125A005F046
:101E900051FFFF20009000231E225A21404603F0EC
:101EA000F5FD404603F010FEFF2003F065FD01271D
:101EB0000026CDE90076182324A23946384604F0DE
:101EC00028FBCDE90076182322A201214E2004F040
:101ED00020FB2148CDE9007690F8502018230121FD
:101EE000322004F035FC04F11E0080B2009005F1B0
:101EF0005A0083B2A2B2A9B2404600F037F9414677
:101F0000BDE8FC41002006F0D1BF00007873746189
:101F10007274206F722079737461727420657272AA
:101F2000200D0A004661696C656420746F20617041
:101F3000706C7920666F7220626C61636B206D65D6
:101F40006D6F72792E2E2E0D0A0000004261743AD8
:101F50000000000025000000F0010010FEE7000076
:101F600008B5164C4FF0904507F00CFB0090BDF8FB
:101F70000000208021780029F6D06078012813D055
:101F80000228F1D10EA005F0D5FE0122022128463B
:101F900001F034F95FF0140007F0A0FD00220221E7
:101FA000284601F02BF9DFE70BA005F0C3FE012264
:101FB0000221284601F022F96420EDE7B800001064
:101FC000427574746F6E202564206C6F6E6720708C
:101FD0007265737365640A00427574746F6E2025B0
:101FE000642073686F727420707265737365640A1D
:101FF0000000000010B5094C00220221204601F02B
:10200000FDF800220421204601F0F8F801221146D3
:10201000204601F0F3F8002010BD00000004004845
:1020200001B582B000208DF80400401E009001230D
:1020300001AA02A9044802F09DFA08B1FF200EBDD2
:102040009DF804000EBD000020050010014800F0BE
:10205000D0BE0000BC090010014800F0CABE00005C
:102060007409001030B590F8444004F01C050124B8
:10207000AC40056C6C60046863608368102B036877
:1020800003D099600068C26030BD9A600068C1608A
:1020900030BD70472DE9F041174801884A074FEAE3
:1020A000D10400D0641C4688242000F0FDF80027ED
:1020B0000AE0002504E0FF2000F010F96D1CADB22D
:1020C000A542F8D37F1CBFB2B742F2D3262000F05E
:1020D000EBF800270AE0002504E0FF2000F0FEF8FE
:1020E0006D1CADB2A542F8D37F1CBFB2B742F2D38C
:1020F000BDE8F04100F04FB96801001010B500F0E4
:10210000B5F800F0A5F8122000F0CEF800F0A0F825
:10211000FF2000F0C9F8212000F0C6F8402000F0B0
:10212000DDF8002000F0DAF83C2000F0BDF80520D2
:1021300000F0D4F8112000F0B7F8032000F0CEF83A
:10214000094841880088491E8BB2401E82B2002196
:10215000084600F0F2F80021084600F0D9F8BDE882
:10216000104000F075B80000680100102DE9F0473C
:102170001646814601F0070C03F007070CEB070237
:10218000CC08D808089D082A01D1BC4506D82AB138
:10219000591A490702D0590700D0401C011BAA1B3D
:1021A0004A43A0F1010897B291206D1E00F07CF81F
:1021B000002000F093F8002000F090F83C2000F0A0
:1021C00073F8802000F08AF8112000F06DF80320E9
:1021D00000F084F8442000F067F8E0B200F07EF8E8
:1021E00008F0FF0000F07AF8452000F05DF8F0B24A
:1021F00000F074F8C6F30020804600F06FF8E8B2F3
:1022000000F06CF8C5F3002000F068F84E2000F0F4
:102210004BF8E0B200F062F84F2000F045F8F0B261
:1022200000F05CF8404600F059F800F011F8242066
:1022300000F03AF8002405E019F8040000F04EF828
:10224000641CA4B2BC42F7D3BDE8F04700F0B1B8BB
:1022500010B54FF0904402E00A2007F03FFC402107
:10226000204600F0C6FF0128F6D010BD10B50D4C79
:1022700001221146204600F0C1FF642007F02EFC29
:1022800000220121204600F0B9FF642007F026FC5F
:1022900001221146204600F0B1FFBDE81040642045
:1022A00007F01CBC0004004870B50B4C054600222A
:1022B0000221204600F0A2FF00220421204600F067
:1022C0009DFF2846FFF7ACFE2046BDE87040012286
:1022D000042100F093BF00000004004870B50B4CCF
:1022E000054601220221204600F088FF0022042139
:1022F000204600F083FF2846FFF792FE2046BDE807
:1023000070400122114600F079BF0000000400482F
:1023100070B505460C464E20FFF7C6FFC5F3C70053
:10232000FFF7DCFF4F20FFF7BFFFE0B2FFF7D6FF5C
:10233000200ABDE87040FFF7D1BF2DE9F041074604
:102340001C4616460D464420FFF7AEFFC7F3C700F4
:10235000FFF7C4FFC6F3C700FFF7C0FF4520FFF734
:10236000A3FFE8B2FFF7BAFF280AFFF7B7FFE0B212
:10237000FFF7B4FF200ABDE8F041FFF7AFBF10B58B
:102380001020FFF791FF0120FFF7A8FFBDE81040E4
:10239000C82007F0A3BB10B52220FFF785FFF72068
:1023A000FFF79CFF2020FFF77FFFBDE81040FFF7FD
:1023B0004FBF10B52220FFF777FFFF20FFF78EFFFA
:1023C0002020FFF771FFBDE81040FFF741BF08B5BF
:1023D000FFF710FEFFF792FEFFF75CFE65264FF455
:1023E000A00447F23055012265231146204600968D
:1023F00004F03CFA284607F071FBF4E74FF47A75D5
:102400000E4C284607F06AFB0C48FFF713F92068CA
:10241000FEF7EEFA41EC100B09A053EC102B05F07F
:1024200089FC6068FEF7E4FA41EC100B08A053EC5D
:10243000102B05F07FFC00F01DF8E2E714000010FF
:1024400068756D69646974793A2025660D0A000023
:1024500074656D703A2025660D0A000010B54FF4C2
:10246000006000F0CFFDBDE8104005F057BA72B62D
:10247000FEE7000000B587B014216846FDF7B2FF03
:102480000020024605906946104801F071FD0022C7
:1024900005A90E4801F04AFD9DF802309DF8012083
:1024A0009DF800100AA005F045FC9DF816309DF837
:1024B00015209DF817100CA005F03CFC9DF8141099
:1024C0000FA005F037FC07B000BD0000FC040010B1
:1024D00054696D653A20253032643A253032643AC9
:1024E000253032640A000000446174653A202530CA
:1024F00032642D253032642D253032640A0000000C
:102500005765656B6461793A2025640A0000000014
:10251000F8B500260446009690F850000D460128B4
:102520000BD0012084F850002046FEF73DFF01004B
:10253000606D04D040F010002BE00220F8BD20F4C4
:10254000885040F00200606520688268134B1A4092
:1025500005F080431A4342F0004282604FF4912319
:1025600020680EE0009A521C00929A4209D3606DD6
:1025700020F0020040F01000606584F850600120F7
:10258000F8BD8268D20FEDD1606D20F0020040F0FE
:102590000100606584F850600846F8BDC0FFFF3F49
:1025A0002DE9F84F00270446009790F85000DFF817
:1025B000B0930D46B846012811D0012684F850602A
:1025C000206802F09FFF60B1606D40F02000606500
:1025D0005FF0010784F85080384600F0D7B9022038
:1025E000FBE769680C20052912D8022907D00329C6
:1025F00007D0042907D0052907D0062107E0686025
:1026000006E0122103E0182101E04FF480716960B7
:10261000D5E90021236800EA91101844036B01F00A
:102620001F014FF01F0C0CFA01FCC2F3846223EA75
:102630000C038A4013430363206802F063FF824661
:10264000206802F05BFF5AEA00001DD1AA682968E1
:10265000206802F063FF20686969C268C2F3C102A2
:10266000520091402A69042A0FD000EB82002B68A7
:10267000026EDFF8F0C203F0F84302EA0C020B43EB
:102680001A4342F00041016672E0002102F030FF7F
:10269000400320684FF0000172D002F029FF90FA49
:1026A000A0F0B0FA80F1286842036ED090FAA0F052
:1026B000B0FA80F0814204D100221146206802F075
:1026C0003CFF0121206802F013FF400320684FF017
:1026D00001015DD002F00CFF90FAA0F0B0FA80F199
:1026E0002868420359D090FAA0F0B0FA80F08142F5
:1026F00004D100220121206802F01FFF022120687E
:1027000002F0F6FE400320684FF0020148D002F0CC
:10271000EFFE90FAA0F0B0FA80F12868420344D0AE
:1027200090FAA0F0B0FA80F0814204D10022022198
:10273000206802F002FF0321206802F0D9FE400366
:1027400020684FF0030133D002F0D2FE90FAA0F0DF
:10275000B0FA80F1286842032FD090FAA0F0B0FAC6
:1027600080F0814204D100220321206802F0E5FEBE
:102770002068816811F0010F22D0ACE000E004E095
:1027800002F0B6FEC0F384618DE7C0F3846091E788
:1027900002F0AEFEC0F38461A2E7C0F38460A6E756
:1027A00002F0A6FEC0F38461B7E7C0F38460BBE724
:1027B00002F09EFEC0F38461CCE7C0F38460D0E7F2
:1027C0002A7B296850F8B03FC1F3120C23EA0C03AE
:1027D00002F0180C644A22FA0CF20A401343036018
:1027E000E968494577D1286841031CD090FAA0F1E7
:1027F000B1FA81F1491C01F01F0109294FEA40316A
:1028000032D8002912D000BF90FAA0F1B1FA81F1BC
:1028100001F1010101F01F0106FA01F609D100BF23
:10282000C0F3846109E0C0F38461E3E7C0F384612D
:10283000EEE790FAA0F1B1FA81F101F1010101F0A6
:102840001F0146EA816102D1C0F3846003E090FA7F
:10285000A0F0B0FA80F000F1010000F01F0000EBE2
:10286000400041EA005132E000290ED090FAA0F178
:10287000B1FA81F101F1010101F01F0106FA01F63F
:1028800006D100BFC0F3846106E0C0F38461F1E7C4
:1028900090FAA0F1B1FA81F101F1010101F01F01FB
:1028A00046EA816102D1C0F3846003E090FAA0F0AF
:1028B000B0FA80F000F1010000F01F002B4A00EB9D
:1028C000400002EB005041EA000141F00071AA68AB
:1028D000206802F023FE26482A6802423FF47AAEBE
:1028E00024488168244D254B01F0E071AA421BD198
:1028F0000D0219D422689A427FF46CAE826841F4CA
:10290000000122F0E0720A4382601D481D49006800
:10291000B0FBF1F0401C00EB4000800000E0401EE6
:1029200000900028FBD155E6174DAA4207D1CD01F2
:1029300005D422689A42F6D141F080710AE06FF026
:102940000045EA42EFD14A02EDD422689A42EAD128
:1029500041F48001826822F0E0720A43826039E625
:1029600000007F4000F0FF03FFFF0700000020FE93
:102970000000088000030450000052C7000004500B
:10298000B0000010400D0300000084CB18BCBDE86F
:10299000E08F406D70470068006C7047F8B54FF0ED
:1029A000000504002E46009502D0606D10B107E0CE
:1029B0000120F8BD204600F0C9F8A66584F85060F3
:1029C00020688168C1F3407119B18168574A11408C
:1029D000816020688168C1F3007189B98168544AB7
:1029E000114041F080518160524853490068B0FB6A
:1029F000F1F04000801C00E0401E00900028FBD158
:102A000020688168C1F3007141B9616D41F0100126
:102A10006165A16D41F00101A165012502F072FD22
:102A2000616DC90600D430B1606D40F01000606582
:102A300001252846F8BD606D20F4807040F002004A
:102A400060652068806810F0010F0BD13B488068FA
:102A500010F0010F06D13A486168826822F47C12B6
:102A60000A438260E168606B627E0843A16841EAC4
:102A70004231084394F8201040EA0140012904D172
:102A8000A18C304A02EB41410843A16A29B101F40B
:102A90007071E26A014342EA01002168CA682A4B68
:102AA0001A400243CA60206802F02CFD06462068E6
:102AB00002F024FD304315D1207E94F830108003BD
:102AC00040EA41002168CA6844F202039A43024383
:102AD000CA6094F8380001280CD02068016921F000
:102AE00001010161206901282068016B21F00F01BB
:102AF00011D013E0D4E90F010843D4E911121143B6
:102B0000084321680A6940F2FC739A43104340F07D
:102B100001000861E6E7E269521E11430163606D3E
:102B200020F0020040F00100606582E7C0FFFF5F17
:102B3000C0FFFF7FB0000010400D030000000450F4
:102B4000000304500000FEFF07C0F0FF10B59EB068
:102B50000446142117A8FDF745FC5C216846FDF7E3
:102B600041FC1D492068884233D14FF480400090D9
:102B70008003149003200190012002901420039000
:102B800007200490022005900690C0050790684633
:102B900000F058FC08B1FFF76AFC1048C16C41F422
:102BA0000051C164C16C01F400511C91C16C41F031
:102BB0000101C164C06C17A900F001001C90102035
:102BC00017900B201890002019904FF0904000F0C3
:102BD00025FA1EB010BD0000000004500010024095
:102BE0002DE9F041044640690E4608280AD02068C5
:102BF000C068C00708D0606D40F02000606501200B
:102C0000BDE8F081082500E0042500F0FDFA074644
:102C100014E0701C12D000F0F7FAC01BB04200D8CC
:102C200066B920680068284208D1606D40F0040051
:102C30006065002084F850000320E1E72068006808
:102C40002842E6D0606D40F400706065206802F0B4
:102C50005DFC80B1607E70B92068006800070AD50D
:102C6000606D20F480706065606DC00403D4606D99
:102C700040F0010060652068C168082D05D0490456
:102C800001D40C2101600020BAE70821FAE7000016
:102C900010B50446006802F035FC10B10221084668
:102CA00010BD94F8500001280CD0012084F8500089
:102CB0002046FEF7B1FB01004FF0000004D084F87D
:102CC0005000ECE7022010BD626D40F601639A43AC
:102CD00042F480726265626DD20404D5A26D22F066
:102CE0000602A26500E0A06523681C221A6084F831
:102CF00050002068C268920105D5626D22F400522E
:102D000042F4805262658268024B1A40121D826052
:102D1000C5E70000C0FFFF7F10B5044690F85000E3
:102D2000012808D0012084F8500003212046FEF736
:102D3000C9FA10B10BE0022010BD2046FEF734FBAB
:102D400028B9616D21F4885141F0010161650021CC
:102D500084F8501010BD10B590F8251000220229FB
:102D600005D00421C16380F82420012010BD016832
:102D70000B6823F00E030B6001680B6823F001035E
:102D80000B6090F84410046C01F01C03012101FA5F
:102D900003F3636080F8251080F82420104610BDEE
:102DA00010B590F825100024022903D00421C16336
:102DB00001241AE001680A6822F00E020A60016824
:102DC0000A6822F001020A6090F84410036C01F0D6
:102DD0001C02012101FA02F25A6080F8251000213C
:102DE00080F82410816B01B18847204610BDC06B6C
:102DF0007047F0B4016C0C6801680D6890F84420CD
:102E000002F01C06042202FA06F3234211D06B07DB
:102E10000FD50B689B0603D40B6823F004030B60EB
:102E200090F8441001F01C018A40016C4A60016B6B
:102E30001DE0022303FA06F727424FF0000C4FF083
:102E4000010218D0AF0716D50C68A40605D40C688B
:102E500024F00A040C6080F8252090F8441001F05A
:102E60001C018B40016C4B6080F824C0C16A0029B2
:102E70001AD0F0BC08470823B340234214D02B07D4
:102E800012D50B6823F00E030B6090F84410036C0E
:102E900001F01C0102FA01F15960C26380F825209B
:102EA00080F824C0416BE2E7F0BC704770B568B1B0
:102EB0002B4C036814212B4AA34209D22A4C1C44F0
:102EC000B4FBF1F18900C0E910210BE0012070BDD5
:102ED000234C64421C44B4FBF1F189004164204955
:102EE00008390164022180F825101C6847F6F0714A
:102EF0008C43D0E902152943D0E9045635432943D0
:102F000085692943C5692943056A29432143196015
:102F10008168B1F5804F19D0036C0F21934202D123
:102F200052F8A83F02E00E4AA032136890F84440DD
:102F300004F01C04A1408B43136090F844304168B6
:102F400003F01C0399401368194311600021C16309
:102F5000012280F8252080F82410084670BD00006A
:102F60000804024000000240F8FFFDBF70B50446AF
:102F700090F82400002501280CD0012084F82400BA
:102F800094F825600020012E06D084F82400022544
:102F9000284670BD022070BD022684F82560E063DB
:102FA0002068066826F0010606602046FFF75AF8FA
:102FB000206B00282068016802D041F00E0106E075
:102FC00021F0040101602068016841F00A010160FC
:102FD0002068016841F001010160D9E770B504463D
:102FE00000F012F90546601C02D004480078044441
:102FF00000F00AF9401BA042FAD370BDA4000010F3
:1030000070470000044910B50A68024202D0086007
:10301000FFF7F6FF10BD0000140401402DE9F04F4A
:10302000DFF8AC9100230325A9F1040B85B04FF024
:10303000010C0F2709F1040AABF1040EBFE000BF39
:103040000CFA03F6324075D00C7904F00304012C1D
:1030500001D0022C1BD1846800945C0005FA04F8AE
:103060000494009C24EA08040094D1F80C80049C89
:1030700008FA04F8009C48EA0408C0F8088044688C
:10308000B4430E79C6F300169E40264346600C7981
:10309000E443A4070AD0C4684FEA430805FA08F6D7
:1030A000B4438E6806FA08F62643C6600C7904F02D
:1030B0000304022C10D1DC0800EB84040294246A7F
:1030C0005E074FEAD66807FA08F6B4430E6906FAB7
:1030D00008F62643029C266204684FEA430805FA74
:1030E00008F6B4430E7906F0030606FA08F62643FE
:1030F00006604C6814F4403F60D0364C266E46F0B3
:1031000001062666246E23F0030604F001040094F1
:10311000314C34440294A4689E074FEA167807FAAB
:1031200008F6B443B0F1904F05D02C4EB04204D114
:10313000012612E042E000260FE0294EB04201D104
:1031400002260AE0274EB04201D1032605E0264EB2
:10315000B04201D1042600E0072606FA08F626430D
:10316000029CA660D9F800604C46D1F804809643D2
:103170005FEAC82800D516432660DAF800405646B4
:10318000D1F8048094435FEA882800D51443346062
:10319000DBF800405E46D1F8048094435FEA88384B
:1031A00000D514433460DEF800407646D1F8048040
:1031B00094435FEAC83800D5144334605B1C0A6846
:1031C00032FA03F47FF43CAF05B000F00FB8000012
:1031D00008040140001002400000014000040048C3
:1031E00000080048000C00480010004830BCBDE852
:1031F000C08F0069084000D0012070470AB181618A
:103200007047816270470000014880687047000085
:10321000A400001002488168027811448160704760
:10322000A400001010B50024032000F099F80F202E
:1032300000F008F808B1012401E000F049F8204648
:1032400010BD000030B505461C4887B0016E41F442
:1032500000610166006E06A900F40060009001A8FC
:1032600000F0F0FA00F020FB1549164AB0FBF1F12E
:103270001548491E0260416040F2E7320021C0E972
:1032800003218160816101F0ACFA040012D10E4883
:1032900001F0DAFA04000DD1192000F033F8102DF6
:1032A00007D200222946192000F03AF807480560A5
:1032B00000E0012407B0204630BD000000100240AD
:1032C00040420F00002C0140040C0010A800001028
:1032D0000B4882B0016E41F001010166016E01F000
:1032E00001010091816D41F080518165806D002266
:1032F00000F0805000900F21901E02B000F010B836
:1033000000100240002809DB00F01F02012191405B
:103310004009800000F1E020C0F800117047000073
:10332000F0B40E4B1B680C46C3F30223C3F1070530
:10333000042D00D90425191D072901D2002300E01E
:10334000DB1E012606FA05F1491E214099409E40E8
:10335000761E16403143F0BC04F0FCBC0CED00E0DE
:10336000064900F0070208684FF6FF03184040EADC
:103370000220034A10430860704700000CED00E093
:103380000000FA051649B0F5007F0868C0F3412037
:1033900009D0022805D0086820F4C06040F480609D
:1033A0000860002070470128FBD0086820F4C06046
:1033B00040F4007008600B483222006850430A4A0B
:1033C000B0FBF2F0401C00E0401E4A69520501D5F6
:1033D0000028F9D148694005E3D503207047000073
:1033E00000700040B000001040420F000B490A6816
:1033F00022F00702921C0A6009490A6842F004029E
:103400000A60012807D040BF20BF20BF086820F015
:1034100004000860704730BFF8E70000007000400B
:1034200010ED00E00248006800F4C0607047000042
:10343000007000400248016841F4807101607047EB
:10344000007000402DE9F84F044600270088A84D81
:103450003E46000515D5606C60B1B0F5000F04D094
:10346000B0F5400F2BD001270AE0E86840F4803027
:10347000E86024E00021201D03F052FA07001ED06E
:103480003E46206880033AD5A86D4FF00008C00082
:1034900009D4A86D40F08050A865A86D4FF00108D0
:1034A00000F080500090DFF84CA2DAF8001041F4F0
:1034B0008071CAF80010FFF7A7FE814610E0D5F82A
:1034C0008800616C20F440000843C5F88800D8E704
:1034D000FFF79AFEA0EB0900022801D9032705E0B7
:1034E000DAF80000C005F3D5002F7DD04FEA0706BB
:1034F000B8F1000F03D0A86D20F08050A8652078A7
:10350000C00707D0D5F88800216A20F003000843DF
:10351000C5F888002078800707D5D5F88800616A4B
:1035200020F00C000843C5F888002078400707D534
:10353000D5F88800A16A20F030000843C5F888005B
:103540002078800607D5D5F88800E16A20F440602D
:103550000843C5F888002088800507D5D5F888007D
:10356000E16B20F440200843C5F88800208840051E
:1035700007D5D5F88800216C20F440100843C5F821
:1035800088002078400607D5D5F88800216B20F404
:1035900040500843C5F888002078000607D5D5F8C4
:1035A0008800616B20F440400843C5F888002088FB
:1035B000C00507D5D5F88800A16B20F4403008433A
:1035C000C5F8880020684FF0006700034FF080685E
:1035D00050D5D5F88800A16C20F040600843C5F8AC
:1035E0008800A06CB84200E005E03BD1E86840F4F8
:1035F0008010E8603EE0D5F8900010F4407014D0E0
:10360000A16D814211D0D5F89000D5F8901020F42A
:10361000407041F48031C5F89010D5F8901021F435
:103620008031C5F89010C5F89000C00711D0FFF7A1
:10363000EBFD074641F2883907E000BFFFF7E4FDE4
:10364000C11B494501D9032652E7D5F890008007F0
:10365000F4D5D5F89000A16D20F440700843C5F86A
:10366000900045E7404505D10121201D03F058F9A0
:1036700000B106462068400317D5D5F88800E16CF4
:1036800020F040600843C5F88800E06CB84204D1DF
:10369000E86840F48010E86007E0404505D101216A
:1036A000201D03F03DF900B106462088400411D5E5
:1036B000D5F88800216D20F040500843C5F88800F7
:1036C000206DB0F1805F05D10221201D03F028F9A3
:1036D00000B106462088000406D555F8880F616DB4
:1036E00020F0804008432860304600F005B8000014
:1036F000001002400070004018BCBDE8E08F0000E0
:103700002DE9F0470F4605006BD0494E306800F0B8
:103710000700B84209D2306820F007003843306013
:10372000306800F00700B8425BD12878414C800730
:103730000AD5A868A16801F0F001884204D9A168FF
:1037400021F0F0010143A1602878C0072CD06868FF
:10375000032811D0022812D0216898B14905002908
:103760003FDAA16821F003010143A160FFF74CFD9E
:10377000804641F2883910E021688901EFE721682D
:103780008903ECE78907EAE7FFF73EFDA0EB0801B4
:10379000494502D90320BDE8F087A068696800F0B8
:1037A0000C00B0EB810FEFD1287880070AD5A8680C
:1037B000A16801F0F001884204D2A16821F0F00173
:1037C0000143A160306800F00700B8420BD93068AF
:1037D00020F0070038433060306800F00700B8423E
:1037E00001D00120D7E72878400705D5A068E9680F
:1037F00020F4E0600843A0602878000706D5A068A0
:10380000296920F4605040EAC100A06000F05EF831
:10381000A168094AC1F30311515C01F01F01C840BE
:103820000649086006480068BDE8F047FFF70ABD92
:10383000002002400010024000B50008B000001057
:10384000A80000100F2202600C4A936803F00303E3
:103850004360936803F0F0038360936803F4E063CC
:10386000C36092684FF4E06303EAD2020261044845
:10387000006800F007000860704700000010024078
:10388000002002400548064900688968054AC1F3DE
:103890000221515C01F01F01C8407047B0000010C8
:1038A0000010024040B500080548064900688968D4
:1038B000054AC1F3C221515C01F01F01C8407047A5
:1038C000B00000100010024040B5000870B5254956
:1038D000002318468A68CC6812F00C0204F0030634
:1038E000214C4FEA640509D00C2A05D0042A32D0B5
:1038F000082A00D1284670BD012E10D10B681B0785
:1039000004D4D1F89430C3F3032302E00B68C3F36B
:103910000313164E56F82330DAB10C2AEBD1C868DF
:1039200000F00300022818D0032818D01846CA68EF
:10393000CB68C2F30212C3F306234343521CB3FB0A
:10394000F2F2C868C0F34160401C4000B2FBF0F0E6
:1039500070BD184670BD204670BD2046E7E728467A
:10396000E5E70000001002400024F40010B5000854
:103970002DE9F84304006FD0FA4DA86800F00C065A
:10398000E86800F003072078C00664D576B10C2EF5
:1039900001D1012F0AD0A069002828687AD040F010
:1039A00001002860FFF730FC80465DE02868800752
:1039B00002D5A0690028DED0216A2868000703D557
:1039C000286800F0F00004E0D5F89400F02202EA44
:1039D0001010814216D9084603F038F800283BD170
:1039E000286840F0080028602868216A20F0F0006C
:1039F000084328606868E16920F47F4040EA0120BC
:103A0000686016E0286840F0080028602868216A8D
:103A100020F0F000084328606868E16920F47F40E6
:103A200040EA0120686026B9206A03F00FF80028F8
:103A3000D5D1FFF74BFFA968CB4AC1F30311515C05
:103A400001F01F01C840C9490860C9480068FFF774
:103A5000F9FB00287ED12EE0CAE000BFFFF7D4FBBF
:103A6000A0EB0800022876D828688007F6D52868D9
:103A700040F0080028602868216A20F0F000084320
:103A800028606868E16920F47F4040EA01206860AE
:103A900011E0FFE720F001002860FFF7B5FB80464A
:103AA00006E000BFFFF7B0FBA0EB08000228DAD861
:103AB00028688007F6D42078C00740D0082E18D098
:103AC0000C2E01D1032F14D06068B0F5803F17D0C1
:103AD000B0F5A02F286817D020F48030286028681F
:103AE00020F4802028606068E0B1FFF78DFB8046FD
:103AF00014E02868800322D56068002878D01EE092
:103B0000286840F48030EDE740F480202860F7E733
:103B1000FFF77AFBA0EB08006428A4D8286880038C
:103B2000F6D50CE0FFF770FB804605E0FFF76CFB75
:103B3000A0EB0800642896D828688003F6D4207883
:103B400080073BD5042E11D00C2E01D1022F0DD0B1
:103B5000E06801E0AAE1FFE0002828681ED040F4F8
:103B600080702860FFF750FB07460CE0286840058E
:103B70000CD5E0680028C1D008E000BFFFF744FB87
:103B8000C01B022893D828684005F7D56868217CB7
:103B900020F0F85040EA016068600FE020F4807087
:103BA0002860FFF731FB074605E000BFFFF72CFB5D
:103BB000C01B0228B1D828684005F7D42078000738
:103BC00029D560690028D5F8940012D040F0010092
:103BD000C5F89400FFF718FB074604E0FFF714FB55
:103BE000C01B022899D8D5F894008007F6D512E0BA
:103BF0002BE120F00100C5F89400FFF705FB074614
:103C000005E000BFFFF700FBC01B022885D8D5F8F0
:103C100094008007F6D42078400766D5A86D002769
:103C2000C00008D4A86D40F08050A865A86D012799
:103C300000F0805000904F480168C90512D4016817
:103C4000814641F480710160FFF7DEFA804605E0AD
:103C5000FFF7DAFAA0EB080002287DD8D9F80000B7
:103C6000C005F5D5A068012816D00528D5F8900024
:103C700017D020F00100C5F89000D5F8900020F092
:103C8000040000BFC5F89000A06841F28839C0B1B7
:103C9000FFF7BAFA80460FE0D5F8900040F0010037
:103CA000F0E740F00400C5F89000F5E7FFF7ACFA44
:103CB000A0EB080149454FD8D5F890008007F5D50D
:103CC0000EE0FFF7A1FA804606E000BFFFF79CFA7E
:103CD000A0EB080149453FD8D5F890008007F5D4FE
:103CE0001FB1A86D20F08050A8652078800628D5E7
:103CF000606A0028D5F8980012D040F00100C5F89D
:103D00009800FFF781FA074605E000BFFFF77CFA4D
:103D1000C01B022820D8D5F898008007F6D510E0FF
:103D200020F00100C5F89800FFF76EFA074604E09E
:103D3000FFF76AFAC01B02280ED8D5F89800800752
:103D4000F6D4A06AF0B3022816D00C2E7DD02868D5
:103D500020F08070286000E0A7E0FFF755FA0446E5
:103D6000A6E000000010024000B50008B0000010FE
:103D7000A800001000700040E868E26A00F003014B
:103D8000914228D1216B00F0700209011039914253
:103D900021D1626B00F4FE41B1EB022F1BD194F8EC
:103DA000382000F07841B1EBC26F14D1A18F00F43C
:103DB000C00249084905A1F5001191420BD194F8C0
:103DC000401000E06AE04908490600F0C060A1F137
:103DD000007181424BD00C2E73D02868400170D402
:103DE000286820F080702860FFF70EFA064604E08D
:103DF000FFF70AFA801B022857D828688001F7D4F9
:103E0000F4E90B016FF00F0202EB01110843218A64
:103E10005204490802EB4151A26841EA02210843D9
:103E2000217D4FF07E42490802EB41610843217B2E
:103E300040EAC160E968244A11400843E860286804
:103E400040F080702860E86800E03AE040F0807060
:103E5000E860FFF7D9F9044605E000BFFFF7D4F9A1
:103E6000001B022821D828688001F7D527E02868A0
:103E7000800124D4286840F080702860E86840F011
:103E80008070E860FFF7C0F9044604E0FFF7BCF972
:103E9000001B022809D828688001F7D50FE000BF71
:103EA000FFF7B2F9001B022802D90320BDE8F8830E
:103EB00028688001F4D4E86804490840E8600020DC
:103EC000F4E70120F2E700008C809D01FCFFEEFE8C
:103ED0007047704710B5144904464FF480200860BD
:103EE00020688168C9040BD5C168C90508D5C168B7
:103EF00001F0800161F4C071C1602046FFF7E9FF65
:103F00002068816889040BD5C168890508D5C16816
:103F100001F0800161F42071C1602046FFF7D8FFF5
:103F2000012084F8210010BD1404014010B5006880
:103F30000B4641680D480140080CD870C1F30424B9
:103F40005C7001F03F049C70C1F34231197052B9AA
:103F500002F05AFED870587802F056FE58709878E1
:103F600002F052FE9870002010BD00003FFFFF00DD
:103F700010B50B460168896A596001680969C1F387
:103F80000E019960006801680D480140C1F30540C9
:103F90001870C1F306245C7001F07F049C70890DD9
:103FA000D97052B902F030FE1870587802F02CFE29
:103FB0005870987802F028FE9870002010BD00001C
:103FC0007F7F7F0010B504004FF0010044D094F8CB
:103FD000210028B9002084F82000204600F040F895
:103FE000022084F821002168CA20486221685320F9
:103FF0004862204602F01EFE00282DD1206881680C
:10400000164A11408160216888686268A36910437C
:1040100022691A43104388602168E06808612068BB
:104020000169228941EA02410161204602F026FE2F
:10403000002811D12168CA6C22F00302CA646269A7
:10404000E16911432268D36C1943D1642268FF21CE
:104050005162012184F8211010BD0000BFFF8FFFC5
:1040600010B598B004465C216846FCF7BBF90F49CF
:104070002068884218D14FF400300090401216900A
:104080006846FFF7DFF908B1FEF7F1F9084850F884
:10409000901F41F40041016000220A212920FFF70E
:1040A0003FF92920FFF72EF918B010BD0028004075
:1040B000001002402DE9F05F044690F820000B4606
:1040C000012844D0012084F82000022084F8210037
:1040D0002068002680684FEA4060BAB3002800DB01
:1040E000DE7098781978DA7840EA01405978090248
:1040F00041EA8251084393F8241040EA0165186AA6
:104100005F680543586921680543D8690743CA2099
:104110004862216853204862986A4FF0FF08B0F562
:10412000807F20684FF0030B4FF47A7A81682BD0A0
:1041300021F4007181602068C16801F0800161F4A0
:104140002071C160FFF760F8814652E002E0022072
:1041500000F078B8002800DBDE70187802F05DFD12
:104160000504587802F059FD45EA0025987802F0D8
:1041700054FD0543D87845EA805593F8240002F0B1
:104180004CFD45EA0065BAE721F480718160206842
:10419000C16801F0800161F4C071C160FFF734F8BB
:1041A000814605E0FFF730F8A0EB0900504517D82D
:1041B0002068C068C007F5D02068C56120684764E2
:1041C0002068816841F4807181602068816841F4D1
:1041D00080511FE0FFF718F8A0EB0900504508D9FF
:1041E0002168C1F8248084F821B084F8206003207D
:1041F000AEE72068C0688007ECD5206805622068BB
:1042000087642068816841F400718160206881685A
:1042100041F4005181600A48016841F48021016045
:1042200007480830016841F4802101602168C1F825
:104230002480012084F8210084F82060002087E792
:104240000004014030BCBDE8C09F000070B50446CA
:1042500090F820000B4601281BD0012684F820602E
:10426000022084F82100B2B19878D97840EA01455B
:1042700058781978000240EA413005432168CA2085
:104280004862216853204862204602F0D3FCD0B136
:1042900020E0022070BD5878C10603D500F0EF0081
:1042A0000A305870D87802F0B8FC0504587802F04B
:1042B000B4FC45EA0025987802F0AFFC0543187875
:1042C00045EA4035DAE70848054020684560204661
:1042D00002F0D4FC2268FF21516208B984F8216001
:1042E000002184F8201070BD3FFFFF002DE9F04150
:1042F000044690F8200090460D46012811D0012771
:1043000084F82070022084F821002168CA204862C5
:10431000216853204862204602F08CFC002618B128
:1043200029E00220BDE8F0812068B8F1000F806824
:104330004FEA406024D0002800DBEE70A87829788E
:10434000EA7840EA01406978090241EA825108436B
:1043500018490840216808602068816821F480219C
:104360008160D5E90301084321688A6810438860A9
:10437000204602F083FC2268FF215162A0B115E0C3
:10438000002800DBEE70287802F047FC0304687810
:1043900002F043FC43EA0023A87802F03EFC03430A
:1043A000E87843EA8050D3E784F8217084F82060ED
:1043B000B8E700007F7F7F0070B504460068C168E1
:1043C00021F0A001C160FEF71FFF05464FF47A7689
:1043D00007E000BFFEF718FF401BB04201D90320E1
:1043E00070BD2068C0688006F4D5002070BD70B52F
:1043F000040009D0606A002540B125616561A562AD
:1044000094F85D0040B10CE0012070BD6068B0F52B
:10441000827FF4D0E561F2E784F85C50204600F03A
:1044200057F8022084F85D002068016821F04001FF
:104430000160E1684FF4E062914201D9002001E09F
:104440004FF48050B1F5706F02D0914200D0A56258
:10445000A188228901F4827102F404421143227C72
:1044600002F002021143227D02F001021143228B6D
:1044700002F400721143227F02F03802114394F8D3
:10448000202002F080021143228D02F400521143D9
:1044900022681160A169042202EA114194F82420E3
:1044A00000F4805002F01002114394F8342002F01E
:1044B00008021143A28902F470621143014320688B
:1044C00041602566012084F85D00002070BD000079
:1044D00070B586B0044614216846FBF783FF214E71
:1044E000256800212048022203230524B54219D162
:1044F000056E45F480550566056E05F480550595F5
:10450000C56C45F00105C564C06C02AD00F001004A
:10451000059085E81A00A020CDE9000269464FF019
:1045200090401AE0114EB54219D1856D45F4804591
:104530008565856D05F480450595C56C45F00205DA
:10454000C564C06C02AD00F00200059085E81A0059
:10455000B000CDE9000269460548FEF75FFD06B0F0
:1045600070BD0000003001400010024000380040E3
:10457000000400482DE9F05F044690F85C00002735
:104580000A9E1D4692468B464FF0010901280ED027
:10459000012084F85C00FEF737FE804694F85D0049
:1045A000616801280CD0B1F5827F07D102E00220BA
:1045B00000F011B9A16809B9042801D0022700E16F
:1045C000BBF1000F24D0BAF1000F21D005B394F84D
:1045D0005D00042802D0052084F85D0000202066DC
:1045E000C4F840A0A4F84650A4F84450C4F838B029
:1045F000E587A587E0642065E0684FF4E0618842C4
:1046000001D8012D06D92068426822F4805205E0C5
:104610000127D6E02068426842F480524260206858
:104620000268520603D4026842F040020260E06869
:104630008842606845D908B1012D3AD1A06B216844
:104640000088C860A06B801CA063E08F401EE087DC
:104650002FE02068816889070FD5E18F69B1B9F132
:10466000010F0AD1A16B0988C160A06B801CA063F7
:10467000E08F401EE0874FF0000920688168C9077D
:104680000FD0B4F8461061B1C068216C0880206C6E
:10469000801C2064B4F84600401EA4F846004FF089
:1046A0000109FEF7B1FDA0EB0800B04201D3701C78
:1046B00075D1E08F0028CCD1B4F846000028C8D1CD
:1046C00076E008B1012D6CD1E08F0128A06B08D9EC
:1046D00021680088C860A06B801CA063E08F801EEA
:1046E00007E0216800780873A06B401CA063E08F8E
:1046F000401EE08755E02068816889071AD5E18F60
:10470000C1B1B9F1010F15D1E18F0129A16B07D911
:104710000988C160A06B801CA063E08F801E06E04A
:1047200009780173A06B401CA063E08F401EE087F6
:104730004FF0000920688168C90728D0B4F84610F6
:1047400029B3B4F84610012914D9C068216C088037
:10475000206C801C2064B4F84600801EA4F846003B
:10476000B4F84600012810D82068416841F480510F
:1047700041600AE0007B216C0870206C401C2064C2
:10478000B4F84600401EA4F846004FF00109FEF7B9
:104790003BFDA0EB0800B04202D3701C01D018E032
:1047A000BEB1E08F0028A6D1B4F846000028A2D1FF
:1047B00042463146204602F019FB10B10127202065
:1047C0002066012084F85D00002084F85C003846F3
:1047D000EEE60327F5E730BCBDE8C09F70477047A1
:1047E000704710B5040003D094F83D0010B107E005
:1047F000012010BD002084F83C00204600F022F883
:10480000022084F83D00211D206802F09DFC01205B
:1048100084F8480084F83E0084F83F0084F84000A3
:1048200084F8410084F8420084F8430084F844008E
:1048300084F8450084F8460084F8470084F83D0079
:10484000002010BD7047000090F83D10012901D0F4
:1048500001207047022180F83D100168CA6842F0CB
:104860000102CA6000680B49884205D0B0F1804F50
:1048700002D00949884207D18168084A11400629B7
:1048800006D0B1F5803F03D0016841F0010101601D
:1048900000207047002C014000400140070001004B
:1048A000704770B50446006801694FF00005C943C0
:1048B000890715D4C168C943890711D4E91E01616C
:1048C00001202077206880698007204602D0FFF70A
:1048D000E7FF04E000F0A7F8204600F0A5F82577F0
:1048E00020680169C943490717D4C168C94349070A
:1048F00013D46FF0040101610220207720688069E1
:1049000010F4407F204602D0FFF7CAFF04E000F019
:104910008AF8204600F088F8257720680169C943A5
:10492000090716D4C168C943090712D46FF00801FA
:104930000161042020772068C0698007204602D0EA
:10494000FFF7AEFF04E000F06EF8204600F06CF8D0
:10495000257720680169C943C90617D4C168C943CE
:10496000C90613D46FF01001016108202077206878
:10497000C06910F4407F204602D0FFF791FF04E0A9
:1049800000F051F8204600F04FF8257720680169C3
:10499000C943C90708D1C168C943C90704D1891EE1
:1049A0000161204600F042F820680169C943090608
:1049B00009D4C168C943090605D46FF080010161BB
:1049C0002046FFF70CFF20680169C943C90509D4D7
:1049D000C168C943090605D46FF48071016120469E
:1049E000FFF7FCFE20680169C943490609D4C16884
:1049F000C943490605D46FF040010161204600F02B
:104A00001FF820680169C94389060BD4C168C943EE
:104A1000890607D46FF0200101612046BDE870408F
:104A2000FFF7DEBE70BD70477047000000680349A5
:104A3000884201D1FEF7EEBB70470000002C014018
:104A400070477047704770B50446806FE66F216805
:104A500089684FF01005090618D5212816D120685D
:104A6000083050E8001F21F0800140E80012002AC1
:104A7000F5D1E06E38B1FEF76EF920B1E06EFEF7C9
:104A8000B6F9202821D0204602F0FEFC206880687C
:104A9000400618D5222E16D12068083050E8001F95
:104AA00021F0400140E80012002AF5D1206F38B112
:104AB000FEF751F920B1206FFEF799F9202804D0B4
:104AC000204602F0BCFC002070BDC4F880500320DA
:104AD00070BD70472DE9F04102680446D069116845
:104AE000936840F60F0528424FF0000505D1860671
:104AF0007ED58E067CD5616E1BE1994F03F00106D1
:104B00000F40374374D0C70709D0CF0507D5012719
:104B10001762D4F8802042F00102C4F88020820796
:104B20000AD5DA0708D0276802223A62D4F8802032
:104B300042F00402C4F8802042070AD5DA0708D000
:104B4000236804221A62D4F8802042F00202C4F8DA
:104B5000802002070CD501F02002324308D02368E0
:104B600008221A62D4F8802042F00802C4F880209B
:104B700002050BD54A0109D523684FF400621A6279
:104B8000D4F8802042F02002C4F88020D4F880209D
:104B9000002A35D0800605D5880603D5616E09B197
:104BA00020468847D4F8800021688968490602D4E5
:104BB00010F0280F26D0204602F041FC20688068C3
:104BC00040061AD52068083050E8001F21F0400147
:104BD00040E80012002AF5D1206F70B1614981636D
:104BE000206FFEF7DDF800280AD0206F816B01E00E
:104BF0000EE02046BDE8F04108472046FFF769FF78
:104C0000BDE8F0812046FFF764FFC4F88050F7E765
:104C1000276E2026012F7BD1C70679D5CF0677D501
:104C20001020106220688068400641D5216F086816
:104C300040680004000CE3D0B4F858208242DFD969
:104C4000A4F85A000868006880062AD4206850E852
:104C5000001F21F4807140E80012002AF6D120687C
:104C6000083050E8001F21F0010140E80012002A3E
:104C7000F5D12068083050E8001F21F0400140E8DD
:104C80000012002AF5D1E6672566216851E8000F79
:104C900020F0100041E80002002AF6D1206FFEF754
:104CA0005AF8B4F85800B4F85A10401A81B22AE001
:104CB000B4F85800B4F85A10401A81B2B4F85A0047
:104CC00000289DD000299BD0226852E8000F20F4D4
:104CD000907042E80003002BF6D12068083050E8BD
:104CE000002F22F0010240E80023002BF5D1E667F7
:104CF00025666566226852E8000F20F0100042E841
:104D00000003002BF6D12046FFF79BFE78E7FFE774
:104D1000C70209D55B0207D54FF480101062204608
:104D2000BDE8F041FFF78EBE020606D50A0604D59F
:104D3000A16E00297FF45DAF62E74006E6D5480624
:104D4000E4D52046026852E8001F21F0400142E805
:104D50000013002BF6D18667856600F00FFA4FE747
:104D600020010004F772000810B5040002D0A06F03
:104D700010B107E0012010BD002084F87400204627
:104D800000F026F82420A0672068016821F00101C6
:104D90000160204602F084FB0128ECD0606A10B16B
:104DA000204602F016FA2068416821F490414160E3
:104DB0002068816821F02A0181602068016841F043
:104DC000010101602046BDE8104002F066BA000013
:104DD0002DE9F0479EB00646142117A8FBF702FB09
:104DE0005C216846FBF7FEFA5F4930685F4C032799
:104DF00002254FF007094FF0904A4FF00008884213
:104E000059D101200090CDF820806846FEF71AFBAA
:104E100008B1FDF72CFB206E40F480402066206E28
:104E200000F480401C90E06C40F00100E064E06C15
:104E300019AA00F001001C904FF4C060CDE91705DD
:104E4000444682E8900217A95046FEF7E7F8494F1A
:104E500047484FF080083860C7E90154C7E9034864
:104E600020207C61C7E9064038463C62FEF71EF808
:104E700008B1FDF7FCFA3767BE623E4F3C48483741
:104E80001438E7E802051020A7E81101394847F86F
:104E900014494830BC61FC613C62FEF707F808B178
:104EA000FDF7E5FAF766002207212520BE62FEF72E
:104EB00037FA25202AE0304988422CD16846CDF8BF
:104EC00024800095FEF7BEFA08B1FDF7D0FAA06D78
:104ED00040F40030A065A06D00F400301C90E06C40
:104EE00040F00100E064E06C17A900F001001C90A4
:104EF0000C2081E82101CDE91A795046FEF78EF8A1
:104F0000002207212620FEF70BFA2620FEF7FAF9E9
:104F10001EB0BDE8F08719498842F9D10420CDF8C8
:104F2000288000906846FEF78DFA08B1FDF79FFAD9
:104F3000A06D40F48020A065A06D00F480201C903E
:104F4000E06C40F00200E064E06C17A900F00200A1
:104F50001C904FF4406081E82101CDE91A7908489E
:104F6000FEF75CF8D4E70000003801400010024072
:104F700058000240740900100044004000480040FE
:104F80000004004830B4C36F202B20D1E1B1DAB166
:104F900090F87430012B1AD0012380F8743000236C
:104FA00003660C4C0368A3420BD05B681B0208D558
:104FB000046854E8003F43F0806344E80035002D66
:104FC000F6D130BC02F06CBB012030BC704702202F
:104FD000FBE70000008000401CB500680D498842D6
:104FE00017D10D48012101700021019101A9002371
:104FF00000911A461946006905F0B8FA0198002890
:1050000007D006494FF080500860BFF34F8FBFF3C1
:105010006F8F1CBD003801409000001004ED00E0CF
:10502000704700002DE9F8430446806F1F4616467E
:105030000D4620284FD1CDB1C6B194F87400012897
:1050400049D0012084F874004FF00008C4F8808033
:105050002120A067FEF7D8F8A4F850608146A4F894
:105060005260A068B0F5805F03D004E00120BDE885
:10507000F883206928B12E465FF0000584F874801B
:1050800010E00026FAE78021204602F05BFBB8B969
:10509000C6B116F8010B21680885B4F85200401E0D
:1050A000A4F85200B4F852004B464FF000020097AB
:1050B0000028E8D14FF04001204602F043FB30B118
:1050C0000320D4E735F8020BC0F30800E3E7202003
:1050D000A0670020CBE70220C9E7000070B50446B6
:1050E000806F202841D169B362B394F8740001281D
:1050F0003BD0012084F87400E164A4F85020A4F8A7
:1051000052200025C4F880502120A067E06ED8B15D
:105110001749C162E16E174813460863E16E1648ED
:105120004863E06E85632668E16C06F12802E06E54
:10513000FDF71CFF40B11020C4F8800004F8745F34
:1051400020206060012070BD21684020086284F842
:1051500074502068083050E8001F41F0800140E89A
:105160000012002AF5D1002070BD022070BD0000A1
:10517000F3730008357400080B73000800680349D6
:10518000884202D10249002048707047003801402F
:10519000900000107047FEE72DE9FC5F0D460446C5
:1051A000B0F5A07F01D8F02D04D900F0C5B84EA00D
:1051B00002F0C0BDDFF848A105F13C004FF0000946
:1051C0009AF803104FF0FF0B86B269B101297DD127
:1051D00001F004FF01F008FF4FF4D271002003F04A
:1051E00071FE07003AD03CE04FF4B471002003F0A8
:1051F00069FE5FEA000802D142A002F09BFD002395
:105200003C2230214046CDF800B000F03FFC404643
:1052100000F05AFCFF2000F0AFFB0127CDE9007938
:10522000182342A23946384601F073F9CDE90079D6
:1052300018233FA21F21012001F06BF904F1300077
:1052400083B2AAB2A1B240460096FCF78FFF414656
:10525000002003F02BFE8AF80370B9E729A002F0C2
:1052600069FD00233C2238213846CDF800B000F01B
:105270000DFC384600F028FCFF2000F07DFBDFF835
:10528000B4A0DAF83400FBF7B3FB4FF0010841ECAF
:10529000100B4346182241464046CDE9008901F0F3
:1052A0008DF9DAF83000FBF7A3FB41EC100B01237A
:1052B00018221F211846CDE9008901F07FF904F179
:1052C0006000283483B2AAB2A1B200E009E03846F7
:1052D0000096FCF74BFF394600F033B8002003F08E
:1052E000E5BD00F033B80000787374617274206F0C
:1052F000722079737461727420657272200D0A00D5
:10530000100000104661696C656420746F20617044
:10531000706C7920666F7220626C61636B206D65C2
:105320006D6F72792E2E2E0D0A00000020543A0067
:1053300052483A00F00100103CBCBDE8C05FFFF7E6
:1053400036BF3CBCBDE8C05FFFF7C8BF3CBCBDE892
:10535000C09F00002DE9F041234E0F4680460024F7
:10536000012280213046FDF749FF00256006040E2A
:10537000012240213046FDF741FF012004F0AEFB41
:1053800080213046FDF735FF08B144F001040022CA
:1053900040213046FDF732FF012004F09FFB6D1CD9
:1053A000EDB2082DE2D387F0010280213046FDF7EF
:1053B00025FF012240213046FDF720FF012004F0A7
:1053C0008DFB002240213046FDF718FF012004F03C
:1053D00085FB012280213046FDF710FF88F8004050
:1053E0000120BDE8F08100000004004810B5104C19
:1053F000012280212046FDF701FF012240212046A5
:10540000FDF7FCFE012004F069FB0022802120460C
:10541000FDF7F4FE012004F061FB0022402120464C
:10542000FDF7ECFEBDE81040012004F057BB000082
:105430000004004810B50C4C002280212046FDF7E6
:10544000DDFE012240212046FDF7D8FE012004F0B8
:1054500045FB012280212046FDF7D0FEBDE810402B
:10546000012004F03BBB00000004004870B51F4E53
:1054700005460024EA0980213046FDF7BFFE680694
:10548000050E012240213046FDF7B8FE012004F050
:1054900025FB002240213046FDF7B0FE012004F03C
:1054A0001DFB641CE4B2082CE4D3012280213446A5
:1054B0003046FDF7A3FE012240212046FDF79EFE67
:1054C000012004F00BFB80212046FDF792FE50B135
:1054D0000025002240212046FDF790FE012004F027
:1054E000FDFA284670BD0125F3E7000000040048DE
:1054F00000EB8100006E00F0F84070478068C0F358
:10550000C00070478068C0F380007047C06810F426
:10551000406F01D00020704701207047042303EA48
:10552000D15310B518444369C1F3045107248C408A
:10553000A3438A401343436110BD00EB8100016E19
:1055400021F00041114301667047000030B587B07B
:1055500018216846FAF746FF184817490024C0E9A1
:10556000001484600425C460C0E9044504764476D0
:105570000121C16180F820408462C46280F830401B
:10558000446380F83840FDF709FA08B1FCF76FFF73
:105590000B48009006200190022002907F20059485
:1055A000CDE9030569460548FCF7FAFF002801D05C
:1055B000FCF75DFF07B030BD0000045098040010F8
:1055C0000002B0250D4808B5816C41F001018164ED
:1055D000806C002200F00100009009210E20FDF7F0
:1055E0009FFE0E20FDF78EFE002209210F20FDF701
:1055F00097FEBDE808400F20FDF784BE0010024072
:1056000000B587B01C2206496846FAF7D2FE002191
:10561000684603F07AFC0349086007B000BD00004B
:10562000E4B400088C0000102DE9F04186B014218C
:105630006846FAF7D7FE4548C16C41F00401C164E1
:10564000C16C01F004010591C16C41F08001C1649D
:10565000C16C01F080010591C16C41F00101C16490
:10566000C16C01F001010591C16C41F00201C164FE
:10567000C06C4FF0904700F00200059000224FF4FC
:1056800081713846FDF7BAFDDFF8C480002241F28F
:10569000E7314046FDF7B2FD012208214046FDF703
:1056A000ADFD02250124CDE9005469463846CDE917
:1056B0000245FDF7B3FC40200026CDE9000669460F
:1056C00002953846FDF7AAFC41F2C70003958DE824
:1056D000510069464046FDF7A1FC200203958DE884
:1056E000510069463846FDF799FCE00200904FF4FE
:1056F0008810CDE9010469463846FDF78FFCF813A0
:10570000CDE90006694602943846FDF787FC28205B
:105710008DE85100694640460396FDF77FFC4FF443
:105720004070009001AA112082E83100694640468D
:10573000FDF774FC002209212820FDF7F1FD282047
:10574000FDF7E0FD06B0BDE8F0810000001002406A
:105750000004004810B590B014210BA8FAF742FEDF
:1057600000242C216846FAF73DFE18481649C0E986
:1057700000147F218160FF21C0E90314446184612A
:10578000C461FEF71FFC08B1FCF771FE8DF8004004
:105790008DF801400E488DF80240CDE9044001200B
:1057A0008DF82400000203940A9001940794089451
:1057B000012269460548FEF77DFC002801D0FCF770
:1057C00056FE10B010BD000000280040FC04001080
:1057D00000808080124810B5104901604FF482713A
:1057E000416000214FF4E062C0E902124FF4007200
:1057F0000161C0E905122022C0E9072107224162A8
:10580000C0E90A12016308214163FEF7F0FD002898
:1058100003D0BDE81040FCF72ABE10BD00300140A7
:1058200020050010124810B5104901604FF4827134
:10583000416000214FF4E062C0E902124FF40072AF
:105840000161C0E905121822C0E90721072241625F
:10585000C0E90A12016308214163FEF7C8FD002870
:1058600003D0BDE81040FCF702BE10BD0038004078
:10587000840500101CB5012004F0B8FB1749002373
:105880004FF48072C86010310620CDE9000114A1E8
:10589000164804F00FFE174C15480C2120604FF4F9
:1058A000E12060600020A060E060C4E90401A06124
:1058B000E061206260622046FFF756FA08B1FCF70B
:1058C000D6FD4FF400720C490A48FFF75BFB2068D5
:1058D000016841F0100101601CBD00009000001043
:1058E000526563656976655461736B00219A00089F
:1058F00000380140E8070010E80500100D4810B519
:105900000B4901604FF4E1314160002181600C22BC
:10591000C160C0E904128161C16101624162FFF7A7
:1059200023FA002803D0BDE81040FCF7A0BD10BD4D
:10593000004400406C0800100D4810B50B49016090
:105940004FF4E1314160002181600C22C160C0E967
:1059500004128161C16101624162FFF705FA00280A
:1059600003D0BDE81040FCF782BD10BD00480040E8
:10597000F0080010FEE7FEE730B52849CA8A022A7F
:105980000AD0042A1DD0062A01D0072A18D140EADD
:1059900000100022C3B23CE00022C3B20DE00020A0
:1059A00006E000BF02FB04040D68401C80B22B55CA
:1059B0004C8A8442F6D8521C92B2888A9042EED821
:1059C00030BD830143EA0013002243EA800303430E
:1059D000DBB20CE0002005E002FB04040D68401C73
:1059E00080B22B554C8A8442F6D8521C92B2888AD7
:1059F0009042EFD830BD002006E000BF02FB040457
:105A00000D68401C80B22B554C8A8442F6D8521C3B
:105A100092B2888A9042EED830BD0000D0130010B8
:105A200070B50022094B0DE0002106E002FB0414D2
:105A30001E68055D491C355589B25C8A8C42F5D8D3
:105A4000521C92B2998A9142EED870BDD0130010C8
:105A5000530700D0012303EBD20313FB02F2D3B2AE
:105A600002784078812A05D3402803D3FF2801D04B
:105A7000FF2A09D10020024604E000BF401C01F8C3
:105A8000012BC0B29842F9D37047000070B50D4C9D
:105A9000049E0025206021816281A6810220E0828F
:105AA0004E074FEAD10000D0401C6082A282E38101
:105AB000258223B1B42B02D0A280E18070BDA180E9
:105AC000E28070BDD01300100149086070470000EB
:105AD000D0130010F0B43C4CA388834234D3E38845
