:020000040801F1
:10000000583E001085020108357001082965010875
:1000100031700108D5210108619B01080000000032
:10002000000000000000000000000000A501010821
:10003000B52601080000000001020108258D010815
:100040009F0201089F0201089F0201089F02010808
:100050009F0201089F0201089F0201089F020108F8
:100060009F0201089F0201089F0201089F020108E8
:10007000E5220108F52201080523010815230108DE
:100080009F0201089F0201089F0201089F020108C8
:100090009F0201089F0201089F0201089F020108B8
:1000A0009F020108398E01089F0201089F02010882
:1000B0009F02010800000000000000009F020108EC
:1000C0009F0201089F0201089F0201089F02010888
:1000D0009F0201086598010879980108899901082B
:1000E000B52B01089F02010800000000000000007D
:1000F0000000000000000000000000000000000000
:10010000000000009F020108000000009F0201089B
:1001100000000000000000009F0201089F0201088B
:100120009F0201089F0201089F0201089F02010827
:100130009F02010800000000000000000000000015
:100140009F0201089F0201089F02010800000000B1
:100150009F0201089F0201089F0201089F020108F7
:100160009F0201089F0201089F0201080000000091
:100170009F0201089F02010800000000000000002B
:100180009F0201089F0201089F020108DFF810D0BA
:1001900000F024FE00480047E5AE0108AFF3008000
:1001A000583E00102C4B1968086800F05AB880F3CC
:1001B0000988BFF36F8F4FF0000080F311887047FC
:1001C0000000000008480068006880F308884FF0CD
:1001D000000080F3148862B661B6BFF34F8FBFF39F
:1001E0006F8F00DF00BF00BF08ED00E0DFF80C00FC
:1001F000016841F470010160704700BF88ED00E0C4
:10020000EFF30980BFF36F8F134B1A681EF0100FC6
:1002100008BF20ED108A20E9F04F106009B44FF0BC
:10022000500080F31188BFF34F8FBFF36F8F0CF036
:10023000F5FA4FF0000080F3118809BC19680868CE
:1002400000F014B81EF0100F08BF00F014B880F3CF
:100250000988BFF36F8F704784000010EFF30580AB
:10026000704730C8B0E8C04FFFF7A1BF30C8B0E852
:10027000C04FFFF7E7BFB0EC088AB0EC08CAFFF741
:10028000E6BF00000648804706480047FEE7FEE755
:10029000FEE7FEE7FEE7FEE7FEE7FEE7FEE7FEE736
:1002A000D18D01088D0101082DE9F05F0546002080
:1002B00092469B4688460646814640241BE02846D7
:1002C00041464746224600F000FC53465A46C01AB3
:1002D000914110D311461846224600F0E7FB2D1A33
:1002E00067EB01084F4622460120002100F0DEFBAB
:1002F00017EB00094E41201EA4F10104DFDC484643
:1003000031462A46434600F000B830BCBDE8C09FE5
:100310002DE9FE43994615468846074601AC022959
:1003200042D3002D40D000200290A8F101004FF0F0
:10033000FF36009022E000FB057201FB05701146BC
:100340004A469047002805DC54F82600304444F81B
:10035000260013E060682A4600FB057154F8040C7F
:1003600000FB057007E00B7890F800C001F801CBA6
:1003700000F8013B521E002AF5D1764254F8040CD5
:1003800061688842D7DC4B462A463846FFF7C0FFF3
:1003900054F8040C4B46A8EB0001401C00FB057010
:1003A0002A46491EFFF7B4FF00F000B806BCBDE8BE
:1003B000F88340EA01039B0703D009E008C9121F34
:1003C00008C0042AFAD203E011F8013B00F8013B0F
:1003D000521EF9D27047D2B201E000F8012B491E3B
:1003E000FBD270470022F6E710B513460A460446D2
:1003F0001946FFF7F0FF204610BDCAB2401E10F8A4
:10040000011F8A4202D00029F9D100207047421C06
:1004100010F8011B0029FBD1801A704730B5054642
:100420000020034600E05B1C934205D2EC5CC85CF4
:10043000201A01D1002CF6D130BD00000FB400B558
:100440008DB010A909900B9000914FF0FF300A90E9
:1004500000200C9005480690054807906A4609A8B8
:100460000F9900F077FB0DB05DF814FB710B0108DC
:100470008F0B01082DE9FF5F1D464FF0FF3BD5E9CB
:10048000014691465F464FF00008A9697F1C01981C
:100490008847296A824688470028F6D1BAF1FF3F8B
:1004A0000CD024F4C064002E19DD600614D5BAF116
:1004B0002B0F09D0BAF12D0F0ED103E0584604B02E
:1004C00000F07EB844F48064A9697F1C01988847D5
:1004D000761E8246002E02DDBAF1300F03D0B9F14C
:1004E000000F26D032E0A969761E44F400747F1C08
:1004F000019888478246002E05DDBAF1780F06D0B4
:10050000BAF1580F03D0B9F1000F10D01EE0B9F1C5
:10051000000F02D0B9F1100F18D1A969761E24F48A
:1005200000747F1C019888478246102002E0082052
:1005300000E00A20814609E008FB0908A969761E47
:1005400044F400747F1C019888478246002E05DD24
:100550004946504600F0E9FA0028EDDAE9690198C9
:100560008847A00502D46FF00100A8E7E00725D175
:10057000600613D5600502D5C8F1000000E04046D2
:1005800029680A1D2A600968220501D5087015E04E
:10059000220701D5088011E008600FE02868011DDE
:1005A00029600068210502D580F8008006E0210757
:1005B00002D5A0F8008001E0C0F8008038467EE750
:1005C00030BCBDE8C09F2DE9F04791460F468046FC
:1005D0000446002614F8015B2DB100F099FA00687A
:1005E000405DC007F6D12B2D02D02D2D18D0641EF2
:1005F0004A463946204600F0DBFA27B13968A14265
:1006000001D1C7F8008071054FF002040BD54042BC
:10061000002803DD09F0CCFB0460A007BDE8F087EB
:1006200046F48066E4E70028F8DA09F0C1FB0460CC
:100630006FF00040F2E770B5064609F0B9FB0468B8
:1006400005460A2200213046FFF7BDFF2C6070BD31
:100650002DE9FE4F804681EA0300C00F0C46009052
:1006600021F0004123F00045B8EB0200A94105D27A
:100670004046214690461C460B46024623F0004069
:10068000104347D0270DC7F30A00C3F30A51029065
:10069000401A019040286BDAC3F3130040F4801B2A
:1006A0000098924620B10023D2EB030A63EB0B0BB8
:1006B00001985946C0F14002504600F0F7F906464D
:1006C0000D4650465946019A00F00FFA10EB08000B
:1006D0006141002487EA115284EAE7731A4340D04B
:1006E000009A62B3019A012A4FEA075215DC001BF7
:1006F00061EB02014FF0004202EA0752CDE90042ED
:10070000001C41F5801132462B4600F0E9FA03B097
:1007100000F045B840462146F9E7001B61EB0201B5
:10072000001C41F5801300185B412018A2F500174A
:1007300047EB030140EAD570B6196D4111E06D0831
:100740004FEA360645EAC0754FEA0752001B61EBD7
:100750000201001C41F5801149084FEA30000019E0
:10076000514132462B4603B000F01CB800F0A9BA44
:100770000098012240000023D0EB020263EBE073FB
:10078000009821464FEAE074B8EB000061EB0401E9
:10079000E9E783F000435BE781F0004158E730BCB4
:1007A000BDE8C08F30BCBDE8C04FFFF7DFBF2DE90B
:1007B000FE4F81EA030404F0004421F0004100945C
:1007C0004FF0000B23F0004350EA01045ED052EAE0
:1007D00003045BD0C3F30A54C1F30A552C44A4F2BA
:1007E000F3340194A0FB0254C1F3130141F48011CE
:1007F000C3F3130343F4801301FB024400FB034ED5
:10080000840A970A44EA815447EA8357A4FB07689D
:1008100002958D0A05FB07854FEA932C04FB0C54C7
:100820002705029D4FEA065847EA1637B5EB08053B
:100830006EEB070C870E920E47EA811742EA83128D
:10084000A7FB0201B6EB0B0164EB00042B0D43EA9E
:100850000C335E1844EB1C50DA465146E7FB0201AC
:10086000C5F313044FEA0B3343EA14534FEA04323F
:10087000019C43EA0603A4F10C040294009CCDE918
:1008800000B400F02DFA03B000F003B800200146D8
:10089000F9E730BCBDE8C08F2DE9F04D81EA0304D3
:1008A00004F0004B21F0004514464FF0000A23F0FD
:1008B000004150EA050220D054EA01021DD0C5F3E0
:1008C0000A570246C5F31303C1F31300C1F30A56D6
:1008D00040F4801543F48013A7EB0608101BD6469E
:1008E00008F2FD3873EB050002D308F1010801E0BE
:1008F00092185B41B8F1000F03DA00200146BDE811
:10090000F08D00204FF48011064684460EE0171B40
:1009100073EB050705D3121B63EB050306434CEA93
:10092000010C49084FEA300092185B4150EA010778
:10093000EDD152EA030012D082EA040083EA0501F5
:10094000084305D0101BAB4106D20122002306E06C
:1009500000224FF0004302E06FF0010253101AEB47
:1009600006004CEB085110EB0A0041EB0B01BDE80F
:10097000F04D00F0A6B90EB5C10F80EAE070084452
:10098000CA07002140F233438DE80E000A460B46A9
:1009900000F0A6F903B000BD0EB540F2334102915C
:1009A0000021CDE900110A460B4600F099F903B089
:1009B00000BD70B5C1F30A5201F000450024C1F337
:1009C000130140F2FF3341F480119A4201DA002012
:1009D00070BD40F233439A42A2F2334203DC5242EA
:1009E00000F073F800E090402C43F1D0404270BD1D
:1009F00000F0004230F000400AD0C10D01F56071F6
:100A0000C0F3160042EA0151C20840071143704783
:100A1000002001467047000030B5041E71F100044B
:100A200004DB4FF00044404264EB0101141E73F1FB
:100A3000000405DB1C464FF00043524263EB040305
:100A40008B4208BF824230BD01F0004330B421F038
:100A5000004150EA010206D00A0DA2F56072C1F30E
:100A60001301002A02DC30BC00207047440F44EA26
:100A7000C104C100E01830BC00EBC25000F0EAB87D
:100A800030B50B46014600202022012409E021FA5E
:100A900002F59D4205D303FA02F5491B04FA02F55B
:100AA0002844151EA2F10102F1DC30BD202A04DB2E
:100AB000203A00FA02F1002070479140C2F1200371
:100AC00020FA03F3194390407047202A04DB203AB0
:100AD00021FA02F00021704721FA02F3D040C2F15E
:100AE00020029140084319467047202A06DBCB17A5
:100AF000203A41FA02F043EAE07306E041FA02F3D9
:100B0000D040C2F1200291400843194670470000CE
:100B1000004870471010020810B50446FFF7F8FFB0
:100B20000068005D00F0010010BD3A2800D23038A6
:100B300020F02002412A01D3A2F13700884201D3DC
:100B40004FF0FF30704700000268114413780160D5
:100B500018467047D160044951610449116200216F
:100B60001161114600F04CB9490B0108190B01083D
:100B7000426842B1016811F8013B23B1521EC0E93D
:100B80000012184670470121C160881E70474268F4
:100B90005AB1C368016843B983688B4205D0491EC6
:100BA000521CC0E90012002070474FF0FF30704720
:100BB0002DE9F05F82460078002715468B460AF142
:100BC0000104B946302801D09DB113E014F8010B9F
:100BD0000127782803D0582801D045B10AE00DB18B
:100BE000102D07D10027102514F8010B02E008256D
:100BF00000E00A250026B0460EE005FB080005FBD4
:100C000006F1012701EB10461FFA80F8B6F5803F88
:100C100000D3B94614F8010B2946FFF786FF0028D8
:100C2000EBDABBF1000F05D00FB1641E00E05446B3
:100C3000CBF80040B9F1000F06D009F0B9F8022155
:100C40000160C81E00F003B848EA0640FAE730BC6D
:100C5000BDE8C09F0029A8BF7047401C490008BFDD
:100C600020F00100704710B4B0FA80FC00FA0CF0DC
:100C700050EA010404BF10BC704749B1CCF1200414
:100C800021FA04F411FA0CF118BF012121430843A1
:100C9000A3EB0C01CB1D4FEA00614FEA102042BFCD
:100CA000002010BC704700EBC35010440029A4BFC3
:100CB00010BC7047401C490008BF20F0010010BC68
:100CC000704710B5141E73F1000408DA401C41F19E
:100CD000000192185B411A4301D120F0010010BDC0
:100CE0002DE9F04D92469B4611B1B1FA81F202E036
:100CF000B0FA80F220329046FFF7D8FE04460F4645
:100D000040EA0A0041EA0B0153465A46084313D011
:100D1000114653EA010019D0C8F140025046FFF7CE
:100D2000D4FE05460E46504659464246FFF7BEFEE3
:100D3000084305D0012004E020463946BDE8F08D87
:100D40000020054346EAE0762C4337430A986305C2
:100D5000E40AA0EB08000022FD0A44EA47540A30E6
:100D600002D500200146E9E7010510196941DDE9D6
:100D7000084500196941BDE8F04DA2E7C1F30A52E8
:100D8000C1F3130140F2FF3341F480119A4202DAB9
:100D900000200146704740F233439A42A2F23342A8
:100DA00002DC5242FFF791BEFFF780BE30B5041E51
:100DB00071F1000404DB4FF00044404264EB010198
:100DC000141E73F1000405DB1C464FF00043524231
:100DD00063EB0403994208BF904230BD064C074DB7
:100DE00006E0E06840F0010394E8070098471034FB
:100DF000AC42F6D3FFF7CEF9841C0208C41C0208EB
:100E00002DE9F34F8BB04FF0000801F10C000C46B8
:100E10004FF0010B46460DF1080A0190626901216D
:100E200001989047051E2DD0252D2CD0216A88478A
:100E3000C0B16269012101989047216A8847002862
:100E4000F7D1411E62690198904700E0761CA169C4
:100E50000B988847216A88470028F7D1E1690B98E9
:100E60008847DBE7A1690B9888470746A84201D16C
:100E7000761CD3E7E1690B9888477F1C02D1B8F153
:100E8000000F6FD047E1002762693D46394601985F
:100E900090472A2804D162690121019890470125D1
:100EA000DFF888926269012101989047A0F1300132
:100EB0000A290AD24F45E5DC07EB870100EB410721
:100EC000303FDFD445F01005ECE7E90601D46FF0C0
:100ED00000476C280AD04C2814D0682815D06A28FE
:100EE0000DD074281CD07A281AD01DE06269012127
:100EF000019890476C2802D045F0040514E045F0B5
:100F000002050DE045F020050AE062690121019823
:100F10009047682802D045F0080505E045F40065D3
:100F20006269012101989047C4E9015765283DD0C5
:100F300019DC58287AD00CDC452837D004DC252869
:100F400026D0412831D131E046282FD047282CD156
:100F50002CE05B2877D0612828D063287CD06428D7
:100F600023D15AE0D1E06F2848D008DC66281DD094
:100F700067281BD0692821D06E2816D127E0702859
:100F800045D0732868D0752847D078280DD14DE01A
:100F9000A1690B988847054625283FF469AFE169A8
:100FA0000B9888476D1C3FF46AAFB4E023466A464D
:100FB0006FF001000B99AFF300809FE045F0400017
:100FC0006060A80723464FF0000236D43EE0E807F1
:100FD0007FF447AF2068011D21600068290501D515
:100FE00006701BE7290701D5068017E7A90703D577
:100FF000F117C0E9006111E706600FE745F0400016
:101000006060A80723464FF0080216D41EE040F6A1
:101010000E0125EA0100606016E045F040006060C6
:10102000A80723464FF00A0207D40FE045F040001E
:101030006060A80708D5234610226FF001000B99C5
:10104000AFF300805AE007E0234610226FF0010062
:101050000B99FFF70FFA51E04FF000094F464B464E
:10106000632802D05B2807D041E02079C00601D474
:101070000120A06001273AE06269012101989047B0
:101080005E2805D14FF001096269494601989047F1
:10109000216939B900210A46534643F82120491CE9
:1010A0000829FADBB0B3216969B9C11700EBD16235
:1010B00053110AEB830122F01F02821A01200B68F0
:1010C000904003430B6062690121019890475D28BD
:1010D000E8D1B9F1000F09D00020514651F8202085
:1010E000D24341F82020401C0828F7DB02AB2246FF
:1010F00000976FF001000B99AFF3008000280CDA25
:10110000401C08D1BBF1000F05D04FF0FF300DB0EF
:1011100000F00EB8FFE74046F9E7E90701D108F112
:10112000010806444FF0000B78E60000CCCCCC0C54
:1011300030BCBDE8C08F70B58C1810F8015B15F09D
:10114000070301D110F8013B2A1106D110F8012B39
:1011500003E010F8016B01F8016B5B1EF9D12B075E
:1011600005D40023521E0DD401F8013BFAE710F814
:10117000013BCB1A921C03E013F8015B01F8015B01
:10118000521EF9D5A142D8D3002070BD9FED241A7C
:10119000B5EE002A41F280430021B7EE004AC0F6C6
:1011A000020320EE010A30EE020ABDEEC01AB5EECF
:1011B000C00A11EE100AF1EE10FA9FED1A1AB8BF2C
:1011C000013802EE100AB8EEC22A30EE420A9FED54
:1011D000162A20EE010ABDEEC01A11EE100A30EEFA
:1011E000021A0246B1EB502F18BF002202EE102A5D
:1011F00003EB8203B1EB502F18BFB0EE410AB8EEFB
:10120000421A93ED002A93ED013A30EE410A34EE92
:10121000401A20EE030A21EE021A31EE000A70474E
:1012200083F9223E00000044000000C49FED221A12
:1012300041F280430021B7EE004AC0F6020320EEDF
:10124000010ABDEEC01AB5EEC00A11EE100AF1EEA9
:1012500010FA9FED1A1AB8BF013802EE100AB8EE64
:10126000C22A30EE420A9FED162A20EE010ABDEE98
:10127000C01A11EE100A30EE021A0246B1EB502FDE
:1012800018BF002202EE102A03EB8203B1EB502FAD
:1012900018BFB0EE410AB8EE421A93ED002A93ED62
:1012A000013A30EE410A34EE401A20EE030A21EEF4
:1012B000021A31EE000A704783F9223E0000004412
:1012C000000000C42DE9F05F044688464FF0000995
:1012D0004746206805F0DFFB8246206805F0C7FB23
:1012E0008346BAF1000F02D1BBF1000F72D0206823
:1012F000C06800F0007000B3607E01281DD1207E20
:1013000001281AD101270FE0334881450AD3606DC7
:1013100040F010006065A06D40F00100A065012064
:1013200000F05EB809F1010920680068C0F3801080
:101330000028E9D0402021680860022F10D02068E2
:1013400005F0A9FB60B1206805F096FB40B9206864
:101350008168224A114041F01001816000BF00BF46
:10136000012F10D0206805F082FB60B1206805F0E5
:1013700083FB40B920688168184A114041F0200180
:10138000816000BF00BF022F03D0032F03D10C25C3
:1013900003E0082501E0042500BF00BF02F042FE83
:1013A000064612E002F03EFE801B05280DD920689B
:1013B0008068284048B1606D40F010006065A06D05
:1013C00040F00100A0650120AAE72068806828405D
:1013D0000028E7D10020A3E7000040A3C0FFFF7F63
:1013E00030BCBDE8C09F000070B50446206805F021
:1013F00043FB0646206805F044FB98B396BB206883
:10140000806800F00D0001280AD1206881681A4A1E
:101410001140891C816000BF03202168086009E039
:10142000606D40F010006065A06D40F00100A065A7
:10143000012070BD02F0F6FD054614E002F0F2FD59
:10144000401B02280FD92068806800F0010050B1CD
:10145000606D40F010006065A06D40F00100A06577
:101460000120E6E705E02068806800F00100002820
:10147000E4D10020DDE70000C0FFFF7F38B504465F
:1014800000200090206805F0FCFA00284FD1206869
:1014900080682849084048B1606D40F010006065E0
:1014A000A06D40F00100A065012038BD206805F066
:1014B000CDFA00BF2048806800F0E07000F4000022
:1014C00080B11E4800681E49B0FBF1F0401C00EBE3
:1014D00040008000009002E00098401E00900098BC
:1014E0000028F9D102F09EFD05461AE0206805F0BB
:1014F000C8FA10B9206805F0A9FA02F093FD401B64
:1015000002280ED92068006800F0010048B9606D1B
:1015100040F010006065A06D40F00100A065012062
:10152000C3E72068006800F001000028DED000203A
:10153000BBE700003F000080000304509C00002037
:10154000400D03002DED028B0024012211032748DA
:1015500002F062FD48E0264802F0C3F93221244837
:1015600002F05CF9224801F0FEFF00F40070B0F5D3
:10157000007F03D11E4801F0F9FF85B200EE105A3A
:10158000B8EE400ADFED1B0A20EE200A9FED1A1A82
:10159000C0EE010AB0EE000A20EE800A10EE106ADA
:1015A0003046FFF725FA41EC180B53EC182B13A02B
:1015B00008F0D2FB4FF47A700AF0A6FE601C84B2E9
:1015C000052C06D100224FF48051084802F024FD7A
:1015D00007E00A2C05D1002401221103034802F080
:1015E0001BFD034802F0C7F9B5E7000000040048FE
:1015F00064030010CDCC1C400000804520414431E4
:101600002076616C7565203D2025312E336656208D
:101610000D0A000000B585B014216846FEF7E2FE11
:1016200011200190012002900220039040200090A0
:101630006946244802F008FC802000906946214851
:1016400002F002FC012240211E4802F0E5FC0122CA
:1016500080211C4802F0E0FC00F0C6F810B9002020
:1016600005B000BD44F6206001F026F805F0EAF868
:10167000702005F05BF918B905F026F90020EFE7B6
:10168000BE2005F053F918B905F01EF90020E7E770
:10169000082005F04BF918B905F016F90020DFE72E
:1016A000002005F043F918B905F00EF90020D7E73E
:1016B00005F00AF942F2107000F0FEFF00F0AFF8FA
:1016C000CEE70000000400482DE9FC41054600205B
:1016D0000090019005F0B6F8702005F027F920B9C8
:1016E00005F0F2F80020BDE8FC81AC2005F01EF901
:1016F00018B905F0E9F80020F5E7332005F016F9F0
:1017000018B905F0E1F80020EDE7002005F00EF92A
:1017100018B905F0D9F80020E5E705F0D5F800F094
:101720007EF808B90020DEE705F08CF8712005F09E
:10173000FDF818B905F0C8F80020D4E7002410E03F
:10174000052C01DA012200E0002211460DEB040015
:1017500004F0E4FF18B905F0B7F80020C3E7601CF7
:10176000C4B2062CECDB05F0AFF89DF801000003D5
:101770009DF8021040EA01109DF8031040EA21167E
:101780009DF803000007000B9DF8041040EA0120BB
:101790009DF8051040EA010700EE106AF8EE400AD5
:1017A0009FED0D1A80EE810ADFED0C0A20EE200A73
:1017B00085ED000A00EE107AB8EE400A9FED061A99
:1017C000C0EE010A9FED061A9FED060A10EE810A8F
:1017D00085ED010A012086E7000080490000C8422B
:1017E000000048430000484210B505F02BF8702077
:1017F00005F09CF818B905F067F8002010BDBA2074
:1018000005F094F818B905F05FF80020F6E705F048
:101810005BF844F6206000F04FFF0120EEE738B59A
:101820004FF47A7400BF05F00DF8712005F07EF8D2
:1018300018B905F049F8002038BD0021684604F0C9
:101840006DFF18B905F040F80020F5E705F03CF809
:101850009DF8000000F0800008B90120ECE74FF48B
:10186000FA6000F029FF201EA4F10104DBD100BFC3
:10187000E2E700007CB505462846FEF7DCFE04469C
:10188000012C14D117A008F067FA1F48006850B95E
:101890001D48022100238022CDE900101BA11E4813
:1018A0000BF0A6FB1DE01DA008F056FA19E0002C75
:1018B00014D123A008F050FA1348006850B1124820
:1018C00000680AF04FFD00200F4908601CA008F0D6
:1018D00043FA06E021A008F03FFA02E027A008F052
:1018E0003BFA7CBD4144432056616C7565205461D0
:1018F000736B20616C72656164792072756E6E69BC
:101900006E672E0D0A000000000000204144435F76
:1019100056616C756500000045150108414443207F
:1019200056616C7565205461736B20616C726561E2
:1019300064792072756E6E696E672E0A0000000071
:101940004144432056616C7565205461736B20736C
:10195000746F707065642E0A0000000041444320DB
:1019600056616C7565205461736B206973206E6FCE
:10197000742072756E6E696E672E0A00496E76610C
:101980006C696420617267756D656E7420666F7234
:101990002053542B4144435F56616C75650A000027
:1019A0002DE9F04106463D213046FEF726FD05466D
:1019B000E5B1002028706F1C002414E004EB440003
:1019C0000D4A52F8201040223046FEF727FD48B954
:1019D00004EB4400084A02EB80004168384688471F
:1019E000BDE8F081641C092CE8D300BF314603A098
:1019F00008F0B2F900BFF3E7B8000020556E6B6E37
:101A00006F776E20636F6D6D616E643A2025730A87
:101A100053542B48454C503D31200A007CB50546B7
:101A20002846FEF708FE0446012C17D117A008F03F
:101A300093F91F48007868B91E4802210023CA01A3
:101A4000CDE900101CA11F480BF0D2FA0120184963
:101A500008701AE01CA008F07FF916E094B9144849
:101A6000007801280AD1134800680AF07BFC1EA008
:101A700008F072F900200E49087006E020A008F076
:101A80006BF902E026A008F067F97CBD4550445F81
:101A900074657374205461736B20616C726561644A
:101AA000792072756E6E696E672E0D0A0000000057
:101AB00025010020040000204550445F74657374C4
:101AC000000000000F2B01084550445F74657374DB
:101AD000205461736B20616C72656164792072754A
:101AE0006E6E696E672E0A004550445F74657374AC
:101AF000205461736B2073746F707065642E0A00DC
:101B00004550445F74657374205461736B2069732E
:101B1000206E6F742072756E6E696E672E0A0000FB
:101B2000496E76616C696420617267756D656E746B
:101B300020666F722053542B4550445F7465737454
:101B40000A0000007CB505462846FEF774FD0446F1
:101B5000012C17D119A008F0FFF82148007868B9C6
:101B60002048022100238022CDE900101EA1214837
:101B70000BF03EFA01201A4908701EE01EA008F082
:101B8000EBF81AE0002C15D123A008F0E5F8144872
:101B9000007801280AD1134800680AF0E3FB1EA070
:101BA00008F0DAF800200E49087006E020A008F0DE
:101BB000D3F802E026A008F0CFF87CBD45585020AD
:101BC00074657374205461736B20616C7265616419
:101BD000792072756E6E696E672E0D0A0000000026
:101BE00024010020080000204558505F746573747C
:101BF000000000003D2B01084558502074657374A7
:101C0000205461736B20616C726561647920727518
:101C10006E6E696E672E0A004558502074657374A5
:101C2000205461736B2073746F707065642E0A00AA
:101C30004558502074657374205461736B20697328
:101C4000206E6F742072756E6E696E672E0A0000CA
:101C5000496E76616C696420617267756D656E743A
:101C600020666F722053542B4558505F746573740F
:101C70000A00000070B5054611A008F06DF80024B8
:101C80001AE004EB4400144A52F8201013A008F0A4
:101C900063F804EB4400104A02EB8000816810A056
:101CA00008F05AF804EB44000B4A02EB800081680C
:101CB00010A008F051F8641C092CE2D370BD00009C
:101CC000417661696C61626C6520535420636F6D6D
:101CD0006D616E64733A0A00B800002025730A0033
:101CE0004465736372697074696F6E3A2025730A74
:101CF000000000004578616D706C65207573616748
:101D0000653A2025730A0A0000B5C1B01FE04FF400
:101D100080722148016801A807F082FF4FF48071AA
:101D200001A807F04DFD00BF1C480068C069C0F362
:101D300080100028F8D01848006800F58070164917
:101D4000086017480068A0F58070154908601448BD
:101D50000068B0F5807FDAD811480068A0B110485B
:101D6000008882B20C48016801A807F059FF0C48AE
:101D7000016801A807F024FD00BF08480068C06999
:101D8000C0F380100028F8D00020054908600249FF
:101D9000086041B000BD000030010020C8190010EB
:101DA0003401002070B504462046FEF744FC054689
:101DB000012D05D113A007F0CFFF07F019F820E09F
:101DC00016A007F0C9FF00BF00BF00BF00BF00BFE3
:101DD000BFF34F8F00BF00BF00BF1548006800F47D
:101DE000E06014490843001D1149086000BF00BFAE
:101DF00000BFBFF34F8F00BF00BF00BF00BF00BFD9
:101E0000FDE770BD5265426F6F7420746F20426FA2
:101E10006F744C6F61646572000000005265426F20
:101E20006F7420746F2055736572204170700000CC
:101E30000CED00E00000FA0510B58CB0044605A8D2
:101E400006A907AA08ABCDE90132CDE9031009A81C
:101E50000AAB0BAA11A100902046FEF7EFFA072863
:101E600017D10598012802DB0598072804DD1248E0
:101E700007F072FF0CB010BDDDE906210598CDE931
:101E800000120290DDE90832DDE90A1006F056FD85
:101E900002E00A4807F060FF00BFEBE72534642D3D
:101EA0002532642D253264202532643A2532643A85
:101EB0002532642025640000201002086C100208FE
:101EC00070B505462C212846FEF797FA0446BCB1AA
:101ED00000202070102200212846FEF774FB0A49DA
:101EE0000860601CFEF7A7FB084908600846026806
:101EF0000548016806A007F02FFFFFF705FF02E085
:101F00000BA007F029FF70BD300100203401002034
:101F100052656164416464723A20307825582C20FF
:101F20004461746553697A653A2025640A000000AB
:101F3000496E76616C696420617267756D656E7457
:101F400020666F722053542B536574577269746501
:101F50000A00000070B505462C212846FEF74DFA10
:101F60000446F4B100202070102200212846FEF71C
:101F70002AFB0E490860601CFEF75DFB0C490860F7
:101F800008460268094801680AA007F0E5FE08480B
:101F900001680648006807F0E5FD0EA007F0DCFECA
:101FA00002E00FA007F0D8FE70BD0000280100205D
:101FB0002C0100205772697465416464723A2030C4
:101FC0007825582C204461746553697A653A202538
:101FD000640A00004572617365204F4B0D0A0000D2
:101FE000496E76616C696420617267756D656E74A7
:101FF00020666F722053542B536574577269746551
:102000000A00000010B5044601200349087003A02F
:1020100007F0A2FE10BD0000B4000020466C617302
:10202000685772697465446174655461736B2052BA
:10203000756E0D0A0000000010B506F08DFE04F06C
:10204000EFFD04F0A7FD124801F094FB04F060FDE1
:10205000104803F0BFF904F0DDFE0F4803F0BAF9B1
:1020600004F002FF0D4803F023FF0D4803F020FFAA
:102070000C4803F01DFF04F021FF04F06BFF04F097
:1020800089FF00F0FBFA07F035FEFFF7C3FA10BD39
:1020900064030010BC01002020020020C8190010B9
:1020A0004C1A0010D01A001010B500F00BFD07F00C
:1020B000A1FD10BD7CB504460D4606F0DDFD4FF0D8
:1020C000FF312F4800680AF071FE012855D1B4F5A0
:1020D000A07F01D8F02D03D92AA007F03DFE7CBDDA
:1020E0004FF4A571002009F049F8064616B92BA057
:1020F00007F032FEFF2000231E225A2100903046B6
:1021000005F06AF8304605F0ABF8FF2004F094FFC4
:102110000020012118232BA2CDE90010084605F06C
:10212000C3FF00200121182328A2CDE900104E2072
:1021300005F0BAFF00200121CDE90010244890F8F5
:1021400042201823322006F003F905F11E0080B268
:10215000009004F15A0083B2AAB2A1B2304600F056
:1021600043FB3146002008F0F7FF00231A461946CA
:10217000034800680AF0D6FC00BF00BFAFE70000CC
:1021800014000010787374617274206F7220797378
:102190007461727420657272200D0A004661696C68
:1021A000656420746F206170706C7920666F722096
:1021B000626C61636B206D656D6F72792E2E2E0DD2
:1021C0000A0000004261743A00000000250000008F
:1021D000CC00001000BFFEE708B53AE009F080FC33
:1021E00000901C48BDF8001001800078002830D015
:1021F00018484078012814D11648017816A007F035
:10220000ABFD012202214FF0904001F005FF642058
:102210000AF07AF8002202214FF0904001F0FCFE13
:1022200017E00C484078022813D10A48017811A021
:1022300007F092FD012202214FF0904001F0ECFEE8
:1022400014200AF061F8002202214FF0904001F0C2
:10225000E3FEC3E7A4000020427574746F6E20256E
:10226000642073686F727420707265737365640A9A
:1022700000000000427574746F6E202564206C6F3E
:102280006E6720707265737365640A0010B5002272
:102290000221074801F0C0FE00220421044801F099
:1022A000BBFE01221146024801F0B6FE002010BD1F
:1022B0000004004801B582B009F0AAFD0020019099
:1022C000401E012301AA02A90090054803F0F0F87E
:1022D00008B1FF200EBD09F0C5FD9DF80400F9E727
:1022E000BC01002010B5024801F0C8FB10BD000081
:1022F0002C1C001010B5024801F0C0FB10BD0000FE
:10230000E41B001010B5024801F0B8FB10BD00003E
:102310009C1B001010B5024801F0B0FB10BD00007E
:10232000541B001030B590F8444004F01C05012403
:10233000AC40056C6C60046863608468102C04D148
:102340000468A2600468E16003E00468A1600468B6
:10235000E26030BD7CB5044604F096FAD02004F06B
:1023600027FB18B904F0CAFA00207CBD002004F055
:102370001FFB18B904F0C2FA0020F6E704F084FA53
:10238000D12004F015FB18B904F0B8FA0020ECE7EE
:1023900000250AE0062D01D0012200E000221146AE
:1023A0000DEB050004F004FA6D1C072DF2DB04F0C0
:1023B000A5FA9DF8001001F07F0008F089F920705F
:1023C0009DF8010008F084F960709DF8021001F09A
:1023D0003F0008F07DF9A0709DF8030008F078F93F
:1023E00020729DF8040008F073F9E0709DF8050074
:1023F000C6099DF8051001F01F0008F069F9207169
:102400009DF8060008F064F906EBC60101EB061121
:102410004FF4FA6202EB81010844E0800120A4E756
:1024200000B585B014216846FDF7DCFF112001904E
:1024300001200290022003900002009069460D489E
:1024400001F002FD4FF4807000906946094801F0E8
:10245000FBFC01225102074801F0DEFD01221102BE
:10246000044801F0D9FD44F6206000F025F9012070
:1024700005B000BD0004004870B505460C4604F0E8
:1024800003FAD02004F094FA18B904F037FA0020C7
:1024900070BD284604F08CFA18B904F02FFA002019
:1024A000F6E704F0F1F9D12004F082FA18B904F04B
:1024B00025FA0020ECE70021204604F079F90646D1
:1024C00004F01CFA3046E3E71CB5044601A90E20CF
:1024D000FFF7D2FF08B900201CBD9DF8040020F0D2
:1024E0005C000190052C31D2DFE804F003090F1ADB
:1024F00025009DF8040040F00400019028E09DF8BC
:10250000040020F00400019022E09DF8040040F057
:10251000080001909DF8040020F00400019017E0ED
:102520009DF8040040F0100001909DF8040020F098
:10253000040001900CE09DF8040040F018000190A8
:102540009DF8040020F00400019001E00020C3E7A2
:1025500000BF9DF804100E2000F06EF808B90020AE
:10256000BAE769460E20FFF787FF9DF800009DF847
:102570000410884201D10120AEE70020ACE77CB511
:102580000446207808F051F900F07F008DF8000033
:10259000607808F04AF98DF80100A07808F045F954
:1025A0008DF80200207A08F040F98DF80300E078F9
:1025B00008F03BF98DF80400E088B0F5FA6F01DB14
:1025C000012000E000200646207908F02EF940EABC
:1025D000C610C0B28DF80500E088642190FBF1F2CE
:1025E00001FB1200C5B2284608F01FF98DF806005D
:1025F00004F04AF9D02004F0DBF918B904F07EF9B0
:1026000000207CBD002004F0D3F918B904F076F95D
:102610000020F6E7002509E01DF8050004F0C8F9E0
:1026200018B904F06BF90020EBE76D1C072DF3DB04
:1026300004F064F90120E4E770B505460C4604F0A7
:1026400023F9D02004F0B4F918B904F057F90020A8
:1026500070BD284604F0ACF918B904F04FF9002019
:10266000F6E7204604F0A4F918B904F047F9002071
:10267000EEE704F043F90120EAE700000B480068A8
:1026800000F0807028B90948006840F08070074960
:1026900008600748006800F0010028B90448006895
:1026A00040F001000249086070470000FCED00E0C6
:1026B000001000E07047000030B507490A68074C79
:1026C0002468074DB4FBF5F404FB00F300BF0C686D
:1026D000A41A9C42FBD330BD041000E09C000020F3
:1026E00040420F002DE9F041204B1A88D31702EB2E
:1026F0005373DB10A2EBC30333B91C4B1988CB1700
:1027000001EB5373DB1006E0184B1888C31700EB7E
:102710005373DB105B1C9CB215480588242000F025
:102720006BF900260AE0002704E0FF2000F07CF9A6
:10273000781C87B2A742F8DB701C86B2AE42F2DB8F
:10274000262000F059F900260AE0002704E0FF20C7
:1027500000F06AF9781C87B2A742F8DB701C86B2D9
:10276000AE42F2DB00F0B9F9BDE8F0818000001064
:102770008200001010B500F023F900F013F91220C8
:1027800000F03AF900F00EF9FF2000F035F92120B1
:1027900000F032F9402000F047F9002000F044F941
:1027A0003C2000F029F9052000F03EF9112000F04E
:1027B00023F9032000F038F909480088401E83B24D
:1027C00008480088401E82B20021084600F058F9EF
:1027D0000021084600F040F900F0E4F810BD0000C8
:1027E00082000010800000102DE9FF4F81B00D46DF
:1027F00016461C460E9F4FEAE57B05EB5B7B4FEAD6
:10280000EB0BA5EBCB0B4FEAE47E04EB5E7E4FEACD
:10281000EE0EA4EBCE0EF344BBF1080F12D1AC4682
:102820004FEAE57B05EB5B7B4FEAEB0BA5EBCB0BB4
:102830004FEAE47E04EB5E7E4FEAEE0EA4EBCE0E92
:10284000F3451FDC4FEAE57B05EB5B7B4FEAEB0BC7
:10285000A5EBCB0B4FEAE47E04EB5E7E4FEAEE0E77
:10286000A4EBCE0EF344BBF1000F0BD0601B4FEA7C
:10287000E07B00EB5B7B4FEAEB0BA0EBCB0BBBF100
:10288000000F0CD12846E91705EB5171C1F3CF05B4
:102890002046E11704EB5171C1F3CF041BE0284639
:1028A000E91705EB5171C1F3CF010D462246E3173D
:1028B00004EB5373DB10A4EBC3032BB92146CB17F6
:1028C00001EB5373DB1005E02046E31704EB537371
:1028D000DB105B1C9CB2601B1FFA80F8B81B00FB6E
:1028E00008F080B20090601E84B2781E87B29120FA
:1028F00000F082F8002000F097F8002000F094F833
:102900003C2000F079F8802000F08EF8112000F0D3
:1029100073F8032000F088F8442000F06DF8E8B266
:1029200000F082F8E0B200F07FF8452000F064F893
:10293000F0B200F079F8C6F3002000F075F8F8B2B4
:1029400000F072F8C7F3002000F06EF84E2000F09F
:1029500053F8E8B200F068F84F2000F04DF8F0B2FC
:1029600000F062F8C6F3002000F05EF800F01AF8FC
:10297000242000F041F84FF0000908E0019911F817
:10298000090000F051F809F101001FFA80F90098E0
:102990008145F3DB00F0AEF805B000F000B830BCC4
:1029A000BDE8C08F10B502E00A2009F0ADFC40215F
:1029B0004FF0904001F028FB0128F5D010BD000039
:1029C00010B5012211460B4801F026FB642009F0E6
:1029D0009BFC00220121074801F01EFB642009F046
:1029E00093FC01221146034801F016FB642009F014
:1029F0008BFC10BD0004004810B5044600220221E3
:102A0000084801F009FB00220421064801F004FBFC
:102A10002046FFF74FFC01220421024801F0FCFA96
:102A200010BD00000004004810B504460122022138
:102A3000084801F0F1FA00220421064801F0ECFAFE
:102A40002046FFF737FC01221146024801F0E4FA64
:102A500010BD00000004004870B505460C464E202D
:102A6000FFF7CAFFC5F3C700FFF7DEFF4F20FFF7F0
:102A7000C3FFE0B2FFF7D8FF200AFFF7D5FF70BD14
:102A80002DE9F04106460C4617461D464420FFF747
:102A9000B3FFC6F3C700FFF7C7FFC7F3C700FFF7D1
:102AA000C3FF4520FFF7A8FFE0B2FFF7BDFF200AF4
:102AB000FFF7BAFFE8B2FFF7B7FF280AFFF7B4FF46
:102AC000BDE8F08110B51020FFF796FF0120FFF759
:102AD000ABFFC82009F018FC10BD10B52220FFF78D
:102AE0008BFFF720FFF7A0FF2020FFF785FFFFF700
:102AF00059FF10BD10B52220FFF77EFFFF20FFF722
:102B000093FF2020FFF778FFFFF74CFF10BD08B5BB
:102B1000FFF7BCFBFFF72EFEFFF7E4FD0CE065209E
:102B200003460122114600904FF4A00005F09EFCE0
:102B300047F2305009F0E8FBF1E700002DED028B81
:102B400026E04FF47A7009F0DFFB1248FEF7BCFD77
:102B5000104890ED000A10EE101A0846FDF748FFE5
:102B600041EC180B53EC182B0BA007F0F5F80948B3
:102B700090ED010A10EE101A0846FDF739FF41ECFE
:102B8000180B53EC182B08A007F0E6F800F0DEF95C
:102B9000D7E700000C00002068756D6964697479DE
:102BA0003A2025660D0A000074656D703A2025668E
:102BB0000D0A000010B50F48006800F4006028B14D
:102BC0004FF400600B49086006F0E8FE0948006811
:102BD00000F4005028B14FF400500649086006F098
:102BE00009FF4FF4006001F021F94FF4005001F0AB
:102BF0001DF910BD1404014072B600BFFEE70000CD
:102C00001B49087F012801D0032816D119490968FA
:102C100021F40071174A116000BF1146096841F4A0
:102C2000006111601146096821F40061116000BF64
:102C30001146096841F400711160022801D003288F
:102C400011D100BF0B49096841F48051094A116054
:102C50001146096821F48051116000BF11460968CE
:102C600041F4806111600021014A11777047000032
:102C70003C0000100020024010B50849496941F0AD
:102C80000101064C6161026000BF00BF00BFBFF3DD
:102C90006F8F00BF00BF00BF436010BD0020024027
:102CA000F0B50246402314460D460C4E766946F4B4
:102CB00080260A4F7E6100BFEFF31086304672B661
:102CC00000BF2E682660241D2D1D5E1EF3B2002B52
:102CD000F7D100BF80F3108800BFF0BD0020024094
:102CE00070B5054601F09EF9064608E0681C30B153
:102CF00001F098F9801BA84201D3032070BD194848
:102D0000006900F480300028F0D1164800691649A7
:102D100000EA0104CCB115484068204313494860DB
:102D200000BF04F0404030B10E48806904F04041DB
:102D300008430C49886124F0404018B124F0404019
:102D40000849086100BF0120D8E70648006900F083
:102D5000010020B100BF01200249086100BF00202E
:102D6000CCE7000000200240FAC302003C00001043
:102D70002DE9FC5F80460D4614464FF0000A002105
:102D8000009101912819B0F5802F05D351A006F0CC
:102D9000E3FF012000F0D6B856480088002856DD31
:102DA00055480068534909880844A84204D053A0F4
:102DB00006F0D2FF0120EDE74E480088C0F1080080
:102DC0001FFA80FB5C4501DB584600E020460746C1
:102DD0005549484A128888183A464146FDF7E9FAAB
:102DE0004448008838444349088008460088082839
:102DF00025D14D4903C9CDE9000100F0FDFF3E4852
:102E0000DDE90023006849490144002000F094FFF7
:102E1000824600F087FFBAF1000F0AD044A006F006
:102E20009BFF002033490880401E3349086050460C
:102E3000B0E700202F490880401E2F490860B844A1
:102E40003D44E01B84B20CB90020A3E700BF20463C
:102E5000E11704EB5171C1F3CF0600271DE008EB29
:102E6000C700016800914068019000F0C5FF2F483D
:102E7000284400EBC7010020DDE9002300F05CFFDF
:102E8000824600F04FFFBAF1000F04D028A006F0F0
:102E900063FF50467EE7781C87B2B742DFDB2046EF
:102EA000E11704EB5171C910A4EBC1011FFA81F9BC
:102EB000B9F1000F0CDD08EBC6014A461A48FDF7D0
:102EC00078FA0C48A0F8009005EBC6000A490860A3
:102ED00050465FE757726974652061646472657378
:102EE00073206F7574206F662072616E67650D0ABE
:102EF00000000000280000102C00001041646472E3
:102F0000657373206E6F7420636F6E74696E756F76
:102F1000757320776974682062756666657265648A
:102F200020646174610D0A00200000100000010897
:102F3000466C617368207772697465206572726F80
:102F4000720D0A003CBCBDE8C09F000000B587B010
:102F5000142102A8FDF746FA00200190002202A9E0
:102F6000104802F0F9F8002201A90E4802F0CEF84C
:102F70009DF80A309DF809209DF808100AA006F077
:102F8000EBFE9DF806309DF805209DF807100CA07B
:102F900006F0E2FE9DF804100FA006F0DDFE07B07B
:102FA00000BD00009801002054696D653A2025306D
:102FB00032643A253032643A253032640A00000027
:102FC000446174653A20253032642D253032642DF9
:102FD000253032640A0000005765656B6461793AF8
:102FE0002025640A00000000F8B504460D460020C4
:102FF000009000BF94F85000012801D10220F8BDD4
:10300000012084F8500000BF2046FEF7EDF9064687
:103010008EBB606D20F4885040F00200606520682F
:1030200081681B4A114005F0804242F00042114382
:10303000816000BF13E00098401C00900098B0F53C
:10304000912F0CD3606D20F0020040F010006065FD
:1030500000BF002084F8500000BF0120CFE72068A7
:103060008168C90F0029E6D1606D20F0020040F0B0
:103070000100606504E0FFE7606D40F010006065EE
:1030800000BF002084F8500000BF3046B7E70000C2
:10309000C0FFFF3F2DE9F84F05460C464FF0000AF0
:1030A00000200090FE49E068884200D000E000BFA8
:1030B00000BF95F85000012802D1022000F050BA5C
:1030C000012085F8500000BF286803F0E4FC0028C8
:1030D00072D1606805281AD86068022806D00328D3
:1030E00007D0042808D005280DD108E00C20606026
:1030F0000CE01220606009E01820606006E04FF4E8
:103100008070606002E00620606000BF00BF296838
:10311000D4E9002001F1300CC0F3012B0CEB8B0340
:10312000D3F800C000F01F0E4FF01F0B0BFA0EFB80
:103130002CEA0B0C00F01F0BC2F3846E0EFA0BFE90
:103140004CEA0E0CC3F800C000BF286803F0A3FCD3
:103150008146286803F08BFC8046B9F1000F2AD124
:10316000B8F1000FFBD1A2682168286803F0AAFC1F
:1031700060692968C968C1F3C101490000FA01F713
:103180002069042819D028682268216900F1600CA0
:103190000CEB8103D3F800C0DFF808B30CEA0B0C8A
:1031A00002F0F84B4BF0004B4BEA070B4CEA0B0CD0
:1031B000C3F800C000BFA8E0B8E10021286803F010
:1031C0004DFCC0F3120030B90021286803F046FC22
:1031D000C0F3846007E00021286803F03FFC90FA08
:1031E000A0F0B0FA80F02168C1F3120119B921688A
:1031F000C1F3846104E0216891FAA1F1B1FA81F18F
:10320000884204D100221146286803F075FC012190
:10321000286803F023FCC0F3120030B901212868AC
:1032200003F01CFCC0F3846007E00121286803F070
:1032300015FC90FAA0F0B0FA80F02168C1F31201F9
:1032400019B92168C1F3846104E0216891FAA1F100
:10325000B1FA81F1884204D100220121286803F0EB
:103260004BFC0221286803F0F9FBC0F3120030B9CF
:103270000221286803F0F2FBC0F3846007E002211A
:10328000286803F0EBFB90FAA0F0B0FA80F0216818
:10329000C1F3120119B92168C1F3846104E0216806
:1032A00091FAA1F1B1FA81F1884204D10022022100
:1032B000286803F021FC0321286803F0CFFBC0F34A
:1032C000120030B90321286803F0C8FBC0F3846002
:1032D00007E00321286803F0C1FB90FAA0F0B0FAE0
:1032E00080F02168C1F3120119B92168C1F384612A
:1032F00004E0216891FAA1F1B1FA81F1884204D188
:1033000000220321286803F0F7FB286803F0B9FBCB
:10331000002870D12868E2682168D0F8B0C0C1F3F5
:1033200012032CEA030C02F0180B5F4B23FA0BF389
:103330000B404CEA030CC0F8B0C000BF5849E0682D
:10334000884258D12368C3F312031BB92368C3F31F
:10335000846304E0236893FAA3F3B3FA83F35B1C5A
:1033600003F01F03092B3ED82368C3F312031BB9D4
:103370002368C3F3846304E0236893FAA3F3B3FAE6
:1033800083F35B1C03F01F034FF0010C0CFA03FCEA
:103390002368C3F312031BB92368C3F3846304E0F7
:1033A000236893FAA3F3B3FA83F35B1C03F01F03C0
:1033B0004CEA836C2368C3F312031BB92368C3F37D
:1033C000846304E0236893FAA3F3B3FA83F35B1CEA
:1033D00003F01F0303EB43034FF0000B4BEA0353CF
:1033E0004CEA03033FE02368C3F3120323B92368C5
:1033F000C3F3846305E03BE0236893FAA3F3B3FAD5
:1034000083F35B1C03F01F034FF0010C0CFA03FC69
:103410002368C3F312031BB92368C3F3846304E076
:10342000236893FAA3F3B3FA83F35B1C03F01F033F
:103430004CEA836C2368C3F312031BB92368C3F3FC
:10344000846304E0236893FAA3F3B3FA83F35B1C69
:1034500003F01F030A3B03EB43034FF0007B4BEAEF
:1034600003534CEA03031946A268286803F02AFBB9
:103470000E492068084078B300BF0D48806800F00E
:10348000E07600BF0B49206888422DD106F4000089
:1034900050BB0949286888424ED146F400010DE02E
:1034A00000007F4000F0FF03FFFF070000000880DE
:1034B00000030450000052C700000450224803F0EB
:1034C00015FB224800682249B0FBF1F0401C00EBDC
:1034D00040008000009003E016E00098401E00903D
:1034E00000980028F9D127E01A49206888420CD1B9
:1034F00006F0807048B91849286888421CD146F007
:103500008071114803F0F2FA16E0144920688842ED
:1035100012D106F4800078B90F49286888420BD18F
:1035200046F48001084803F0E1FA05E0686D40F0D8
:10353000200068654FF0010A00BF002085F85000A8
:1035400000BF5046BAE50000000304509C00002074
:10355000400D0300000084CB0000045001000080F7
:1035600018BCBDE8E08F0146486D70470146086809
:10357000006C70472DE9F84304464FF00009002025
:10358000009014B90120BDE8F883206920B1202003
:10359000005D012800D100BF606D30B9204600F009
:1035A000E9F80020A06584F8500020688168C1F324
:1035B000407131B120688168674A1140816000BF65
:1035C00000BF206803F062FAB0B920688168634ADE
:1035D000114041F08051816000BF6148006861493D
:1035E000B0FBF1F0401C4000009002E00098401E4B
:1035F000009000980028F9D1206803F047FA48B9F4
:10360000606D40F010006065A06D40F00100A065A5
:103610004FF00109206803F03EFA0646606D00F0A5
:10362000100000287ED1002EFCD1606D20F4807047
:1036300040F002006065206803F023FA68B94A4848
:1036400003F01FFA48B960684849896821F47C1181
:103650000143464A916000BF00BF607E616B41EA52
:103660004030E1680843A16808432021095D40EA31
:1036700001452020005D012803D1A08C401E45EAB1
:103680004045A06A28B1208D00F47070E16A0843BB
:1036900005432068C0683649084028432168C8604F
:1036A000206803F0F8F98046206803F0E0F9074647
:1036B000B8F1000F2CD127BB207E002141EA8031D8
:1036C00094F8300041EA40052068C06844F20201E5
:1036D000884328432168C86094F83800012811D134
:1036E000E06B40F00101206C0843616C0843A16C61
:1036F00008432168096940F2FC729143084321683C
:10370000086105E02068006920F001002168086177
:10371000206901280BD12068006B20F00F00E169BF
:10372000491E00E010E008432168086305E02068B6
:10373000006B20F00F0021680863606D20F002002C
:1037400040F00100606505E0606D40F010006065CC
:103750004FF00109484616E7C0FFFF5FC0FFFF7F3B
:103760009C000020400D03000000045000030450A2
:1037700007C0F0FF10B59EB00446142119A8FCF74D
:1037800031FE5C2102A8FCF72DFE22492068884208
:103790003DD14FF4804002908003169003200390A7
:1037A000012104911421059107210691022107911D
:1037B0000891C905099102A800F0A0FD08B1FFF722
:1037C0001BFA00BF1448C06C40F400501249C86492
:1037D0000846C06C00F40050019000BF00BF00BF5D
:1037E0000846C06C40F00100C8640846C06C00F098
:1037F0000100019000BF00BF102019900B201A900B
:1038000000201B9019A94FF0904000F01DFB1EB046
:1038100010BD000000000450001002402DE9F041EE
:1038200004460E466069082801D108250CE020688E
:10383000C06800F0010030B1606D40F020006065AC
:103840000120BDE8F081042500F0ECFB074616E0FE
:10385000701CA0B100F0E6FBC01BB04200D876B9E6
:1038600020680068284050B9606D40F00400606531
:1038700000BF002084F8500000BF0320E1E720686B
:10388000006828400028E3D0606D40F40070606557
:10389000206803F005F998B1607E88B92068006857
:1038A00000F0080008280BD1606D20F4807060657E
:1038B000606D00F4805018B9606D40F001006065E3
:1038C0002068D0F80C80082D03D1082021680860FA
:1038D00005E008F4804010B90C2021680860002041
:1038E000AFE770B50446206803F0D5F800283FD153
:1038F00000BF94F85000012801D1022070BD0120C2
:1039000084F8500000BF2046FDF7B8FD054655BBC2
:10391000606D40F60161884340F480706065606DC1
:1039200000F48050B0F5805F04D1A06D20F0060057
:10393000A06501E00020A0651C202168086000BF90
:10394000002084F8500000BF2068C06800F00070BC
:1039500028B1606D20F4005040F48050606520680C
:1039600003F0A8F805E000BF002084F8500000E054
:1039700002252846C2E770B5044600BF94F85000FF
:10398000012801D1022070BD012084F8500000BF41
:1039900003212046FDF796FC054655B92046FDF764
:1039A00023FD05462DB9606D20F4885040F00100DC
:1039B000606500BF002084F8500000BF2846E2E7A1
:1039C0000146002291F82500022808D00420C8638F
:1039D00000BF002081F8240000BF01207047086864
:1039E000006820F00E000B6818600868006820F07E
:1039F00001000B68186091F8440000F01C030120DE
:103A000098400B6C5860012081F8250000BF002011
:103A100081F8240000BF1046E0E770B50446002599
:103A200094F82500022803D00420E063012520E05B
:103A30002068006820F00E00216808602068006897
:103A400020F001002168086094F8440000F01C0197
:103A500001208840216C4860012084F8250000BFC7
:103A6000002084F8240000BFA06B10B12046A16B99
:103A70008847284670BD0146C86B704770B504463C
:103A8000206C05682068066894F8440000F01C016A
:103A9000042088402840E0B106F00400C8B1206846
:103AA000006800F0200028B92068006820F00400B9
:103AB0002168086094F8440000F01C01042088404C
:103AC000216C4860206B002856D02046216B884727
:103AD00052E094F8440000F01C0102208840284085
:103AE00018B306F0020000B32068006800F0200060
:103AF00040B92068006820F00A00216808600120B1
:103B000084F8250094F8440000F01C01022088404D
:103B1000216C486000BF002084F8240000BFE06AE8
:103B200050B32046E16A884726E094F8440000F04C
:103B30001C01082088402840F0B106F00800D8B1E8
:103B40002068006820F00E002168086094F84400A6
:103B500000F01C0101208840216C48600120E063D6
:103B600084F8250000BF002084F8240000BF606BAB
:103B700010B12046616B884770BD000010B501464A
:103B800009B9012010BD3E4B086898420BD23D4B4D
:103B90000868C01A1423B0FBF3F080004864394869
:103BA000083808640AE0364B0868C01A1423B0FBD2
:103BB000F3F080004864324808380864022081F835
:103BC00025000868026847F6F0708243D1E90203D5
:103BD00018430B6918434B6918438B691843CB6929
:103BE00018430B6A18430243086802608868B0F5FE
:103BF000804F3AD0234B083B086C98421BD1D0F839
:103C0000A80091F8443003F01C040F23A34098430C
:103C10001C4BA033186091F8443003F01C03486833
:103C20009840184B083BD3F8A8301843154B083B75
:103C3000C3F8A80019E01248A030006891F8443099
:103C400003F01C040F23A34098430D4BA0331860CE
:103C500091F8443003F01C0348689840084BA033A7
:103C60001B681843064BA03318600020C86301206E
:103C700081F82500002081F8240000BF82E70000C1
:103C800008040240080002402DE9F04104460D46B8
:103C900016461F464FF0000800BF94F82400012884
:103CA00002D10220BDE8F081012084F8240000BF89
:103CB00094F8250001282CD1022084F8250000204A
:103CC000E0632068006820F00100216808603B463E
:103CD000324629462046FEF725FB206B30B120688E
:103CE000006840F00E00216808600BE02068006862
:103CF00020F00400216808602068006840F00A0095
:103D0000216808602068006840F0010021680860B0
:103D100006E000BF002084F8240000BF4FF0020836
:103D20004046BFE70348406940F000400149486110
:103D300000207047002002402DE9F04704468846E5
:103D400015461E464FF0000900BF2948007801289B
:103D500002D10220BDE8F08701202549087000BF8C
:103D60004CF25030FEF7BCFF0746002F38D12049F7
:103D700048602048006800F4806048B11D48006831
:103D800020F480601B49086002201949087702E08E
:103D90000020174908773CB92A4633464046FEF7CB
:103DA0006BFF4FF001090BE0012C01D0022C07D171
:103DB00029464046FEF774FF022C01D14FF48029BA
:103DC0004CF25030FEF78CFF0746B9F1000F05D0DA
:103DD0000848406920EA090006494861FEF710FFDB
:103DE00000BF00200249087000BF3846B2E700005B
:103DF0003C0000100020024000200849496901F001
:103E0000004151B10649054A916006499160114649
:103E1000496901F0004101B10120704700200240D2
:103E200023016745AB89EFCD7047000010B504460C
:103E300004480068204020B1024804602046FFF793
:103E4000F3FF10BD1404014078B503460A46002173
:103E5000C5E001268E40156805EA0604002C73D0E3
:103E6000157905F00305012D04D0157905F003053A
:103E7000022D13D198684E000325B540A8434E008B
:103E8000D568B54028439860586801258D40A843FF
:103E90001579C5F300158D4028435860157905F054
:103EA0000305032D09D0D8684E000325B540A8436B
:103EB0004E009568B5402843D860157905F0030594
:103EC000022D13D1CE0803F1200555F826004D0729
:103ED000EE0E0F25B540A8434E07F60E1569B54006
:103EE0002843CE0803F1200545F8260018684E0047
:103EF0000325B540A843157905F003054E00B540EC
:103F000028431860556805F44035002D66D000BF81
:103F1000364D2D6E45F00105344E356635462D6E15
:103F200005F00105009500BF00BF4FEAB6358E08C9
:103F300055F826008D072E0F0F25B540A843B3F185
:103F4000904F02D1002515E048E0294DAB4201D148
:103F500001250FE0274DAB4201D102250AE0264D95
:103F6000AB4201D1032505E0244DAB4201D104252C
:103F700000E007258E07360FB5402843204D8E08F8
:103F800045F826001F4D2868A043556805F48015A4
:103F900005B120431B4D28602D1D2868A04355689E
:103FA00005F4001505B12043164D2D1D2860154D53
:103FB0002D1F2868A043556805F4003505B120433E
:103FC000104D2D1F28602D1F2868A043556805F44B
:103FD000803505B120430B4D083D2860491C15680C
:103FE000CD40002D7FF435AF78BD000000100240B9
:103FF0000004004800080048000C00480010004879
:104000000800014008040140024613690B400BB14F
:10401000012000E0002070470AB1816100E0816268
:104020007047000001480068704700003000001031
:10403000034800680349097808440149086070474B
:10404000300000103800001010B50024032000F0EC
:10405000D3F80F2000F008F808B1012401E000F0C7
:1040600051F8204610BD0000F0B587B00446002589
:1040700000BF1F48006E40F400601D4908660846F6
:10408000006E00F40060009000BF00BF01A902A80C
:1040900000F0D2FB00F00AFC07461648B7FBF0F030
:1040A000461E15481549086040F2E7311348C160C3
:1040B0004660002101618160816101F05DFB054680
:1040C00095B90E4801F090FB05466DB9192000F036
:1040D0003DF8102C07D200222146192000F04AF8A2
:1040E0000748046000E00125284607B0F0BD000045
:1040F0000010024040420F00002C014084020020CA
:104100003400001008B500BF0F48006E40F00100F9
:104110000D4908660846006E00F00100009000BFDF
:1041200000BF00BF0846806D40F08050886508469B
:10413000806D00F08050009000BF00BF00220F2172
:10414000901E00F017F808BD001002400146084616
:1041500000280DDB00BF00BF00F01F0301229A40C2
:1041600043099B0003F1E023C3F8002100BF00BF17
:1041700000BF70472DE9F05F80460D4616460027C8
:1041800005F0FAFD074639462A46334601F0070096
:10419000C0F1070ABAF1040F02D94FF0040A01E096
:1041A000C0F1070AD14600F1040ABAF1070F02D2A2
:1041B0004FF0000A01E0A0F1030AD4464FF0010AD3
:1041C0000AFA09FAAAF1010A0AEA020A0AFA0CFA38
:1041D0004FF0010B0BFA0CFBABF1010B0BEA030BDD
:1041E0004AEA0B042146404605F0CEFD00F000B837
:1041F00030BCBDE8C09F000000BF00F00702064BC6
:1042000019684FF6FF031940044B0B4343EA0221A0
:10421000014B196000BF70470CED00E00000FA058B
:104220000246B2F5007F2AD11D48006800F4C06044
:10423000B0F5007F32D01A48006820F4C06040F426
:104240000070174B18601748006832235843164B0C
:10425000B0FBF3F0411C00E0491E1148406900F436
:104260008060B0F5806F01D10029F5D10C4840691C
:1042700000F48060B0F5806F10D1032070470848CB
:10428000006800F4C060B0F5806F07D00448006893
:1042900020F4C06040F48060014B18600020EDE71E
:1042A000007000409C00002040420F000D4909684A
:1042B00021F00701891C0B4A11600B49096841F084
:1042C0000401094A1160012801D130BF02E040BF5A
:1042D00020BF20BF0449096821F00401024A11608F
:1042E000704700000070004010ED00E002480068D8
:1042F00000F4C06070470000007000402DE9F843F2
:1043000004460025A846208800F40060B0F5006F40
:1043100026D1606C68B1B0F5000F03D0B0F5400F46
:104320000ED10CE0D548C06840F48030D349C86055
:1043300008E00021201D04F02DF9054602E001E00F
:10434000012500BF00BF55B9CC488830006820F473
:104350004000616C0843C949C1F8880000E0A846E4
:10436000206800F40030B0F5003F75D14FF000092F
:10437000C248806D012121EA107078B100BFBF48AA
:10438000806D40F08050BD4988650846806D00F022
:104390008050009000BF00BF4FF00109B84800688E
:1043A00040F48070B6490860FFF73CFE074606E01F
:1043B000FFF738FEC01B022801D9032505E0B048ED
:1043C000006800F480700028F2D000BF7DBBAB48CD
:1043D0009030006800F44076CEB1A06DB04216D0A7
:1043E000A6489030006820F44076A448D0F89000A9
:1043F00040F48030A149C1F890000846D0F8900000
:1044000020F48030C1F890000846C0F8906006F0B3
:104410000100A8B1FFF706FE074609E0FFF702FE1C
:10442000C01B41F28831884202D9032507E016E01B
:1044300092489030006800F002000028EED000BFE3
:104440005DB98E489030006820F44070A16D08433B
:104450008A49C1F8900003E00CE0A84600E0A846B5
:10446000B9F1010F05D18548806D20F08050834956
:10447000886500BF207800F0010048B17F4888308F
:10448000006820F00300216A08437C49C1F88800D5
:10449000207800F00200022809D1784888300068AE
:1044A00020F00C00616A08437449C1F88800207844
:1044B00000F00400042809D170488830006820F01A
:1044C0003000A16A08436D49C1F88800207800F0E7
:1044D0002000202809D169488830006820F4406015
:1044E000E16A08436549C1F88800208800F400703B
:1044F000B0F5007F09D161488830006820F4402081
:10450000E16B08435D49C1F88800208800F48060B1
:10451000B0F5806F09D159488830006820F4401008
:10452000216C08435549C1F88800207800F040000C
:10453000402809D151488830006820F44050216B50
:1045400008434E49C1F88800207800F08000802898
:1045500009D14A488830006820F44040616B084324
:104560004649C1F88800208800F48070B0F5807F4B
:1045700009D142488830006820F44030A16B0843DC
:104580003E49C1F88800206800F40020B0F5002FF3
:104590001FD13A488830006820F04060A16C084381
:1045A000364988310860A06CB0F1006F06D13348FD
:1045B000C06840F480103149C8600AE0A06CB0F1D6
:1045C000806F06D10121201D03F0E4FF054605B1EF
:1045D000A846206800F48020B0F5802F1FD127481E
:1045E0008830006820F04060E16C0843234988313E
:1045F0000860E06CB0F1006F06D12048C06840F45C
:1046000080101E49C8600AE0E06CB0F1806F06D1EE
:104610000121201D03F0BEFF054605B1A8462088F4
:1046200000F48040B0F5804F14D114488830006801
:1046300020F04050216D0843104988310860206DFA
:10464000B0F1805F06D10221201D03F0A3FF0546D3
:1046500005B1A846208800F40040B0F5004F09D10C
:1046600006488830006820F08040616D08430349A7
:10467000C1F888004046BDE8F88300000010024001
:10468000007000402DE9F04104460D4614B90120A8
:10469000BDE8F0816348006800F00700A8420ED230
:1046A0006048006820F0070028435E49086008461B
:1046B000006800F00700A84201D00120E8E7207858
:1046C00000F0020002280ED15749A068896801F065
:1046D000F001884207D95448806820F0F000A168B2
:1046E000084351498860207800F0010078B3606881
:1046F000032806D14C48006800F00070D8B90120AA
:10470000C6E76068022806D14748006800F4003018
:1047100088B90120BCE7606830B94348006800F000
:10472000020040B90120B3E73F48006800F4806010
:1047300008B90120ACE73C48806820F003006168BC
:10474000084339498860FFF76DFC064609E010E030
:10475000FFF768FC801B41F28831884201D90320B1
:1047600096E73148806800F00C006168B0EB810F7B
:10477000EED1207800F0020002280ED12A49A0686C
:10478000896801F0F001884207D22748806820F04C
:10479000F000A1680843244988602248006800F0BE
:1047A0000700A8420ED91F48006820F007002843E0
:1047B0001C4908600846006800F00700A84201D0C4
:1047C000012065E7207800F00400042807D116488E
:1047D000806820F4E060E16808431349886020782D
:1047E00000F00800082808D10F48806820F46050C5
:1047F000216940EAC1000C49886000F069F80A4963
:104800008968C1F30311094A515C01F01F01C840D6
:104810000749086007480068FFF726FC0746384646
:1048200036E70000002002400010024054E2010878
:104830009C000020340000100F2202600D4A926894
:1048400002F0030242600B4A926802F0F0028260BA
:10485000084A926802F4E062C260064A926802F472
:104860006052D2080261044A126802F007020A602C
:10487000704700000010024000200240014800681C
:10488000704700009C00002000B5FFF7F7FF0549C6
:104890008968C1F30221044A515C01F01F01C8403C
:1048A00000BD00000010024064E2010800B5FFF7FF
:1048B000E5FF05498968C1F3C221044A515C01F052
:1048C0001F01C84000BD00000010024064E2010862
:1048D000F0B500230020DFF8D4C0DCF808C00CF0ED
:1048E0000C01DFF8C8C0DCF80CC00CF0030719B1EC
:1048F0000C291ED1012F1CD1DFF8B0C0DCF800C09C
:104900000CF0080CBCF1000F06D1DFF8A0C0DCF8F9
:1049100094C0CCF3032305E0DFF890C0DCF800C0BE
:10492000CCF30313DFF888C05CF8233041B9184694
:1049300006E0042901D11F4802E0082900D11E48E1
:104940000C2932D1DFF864C0DCF80CC00CF0030491
:10495000012C09D0022C02D0032C04D101E0154A0D
:1049600004E0154A02E000BF1A4600BF00BFDFF8AE
:104970003CC0DCF80CC0CCF3021C0CF10106DFF8E3
:104980002CC0DCF80CC0CCF3062C0CFB02FCBCFBEE
:10499000F6F2DFF818C0DCF80CC0CCF3416C0CF177
:1049A000010C4FEA4C05B2FBF5F0F0BD00100240DF
:1049B0006CE201080024F40000127A002DE9F843AB
:1049C000044614B90120BDE8F883F948806800F076
:1049D0000C06F748C06800F00307207800F01000CC
:1049E000102877D11EB10C2E76D1012F74D1F0484A
:1049F000006800F0020018B1A06908B90120E2E7E0
:104A0000EB48216A006800F0080020B1E84800681F
:104A100000F0F00005E0E6489430006800F47060B3
:104A2000000981421FD9206A03F078FE08B10120F5
:104A3000C9E700BFDE48006840F00800DC490860B4
:104A40000846006820F0F000216A0843D849086051
:104A500000BF0846406820F47F40E16940EA012039
:104A6000D34948601FE000BFD148006840F008000B
:104A7000CF4908600846006820F0F000216A08432A
:104A8000CB49086000BF0846406820F47F40E169D8
:104A900040EA0120C64948602EB9206A03F03EFE74
:104AA00008B101208FE7FFF713FFC1498968C1F3FF
:104AB0000311C04A515C01F01F01C840BE490860A3
:104AC000BE480068FFF7D0FA8046B8F1000F4ED01C
:104AD000404678E74BE0FFE7A06980B3B448006840
:104AE00040F00100B2490860FFF79CFA054606E075
:104AF000FFF798FA401B022801D9032063E7AC486E
:104B0000006800F002000028F2D000BFA84800684A
:104B100040F00800A64908600846006820F0F00050
:104B2000216A0843A249086000BF0846406820F493
:104B30007F40E16940EA01209D49486017E0FFE7B6
:104B40009B48006820F0010099490860FFF76AFA65
:104B5000054606E0FFF766FA401B022801D903204C
:104B600031E79348006800F002000028F2D1207875
:104B700000F0010000285CD0082E03D00C2E0AD1D2
:104B8000032F08D18A48006800F4003088B36068B9
:104B900078BB012017E700BF6068B0F5803F06D101
:104BA0008348006840F48030814908601AE06068FA
:104BB000B0F5A02F0BD17E48006840F480207C49DE
:104BC00008600846006840F4803008600AE07848D1
:104BD000006820F48030764908600846006820F4B8
:104BE0008020086000BF606890B1FFF71BFA05469F
:104BF00007E01EE0FFF716FA401B642801D90320E6
:104C0000E1E66B48006800F400300028F2D010E0C4
:104C1000FFF708FA054606E0FFF704FA401B642890
:104C200001D90320CFE66248006800F40030002874
:104C3000F2D1207800F00200022852D1042E03D0D5
:104C40000C2E14D1022F12D15948006800F4806054
:104C500018B1E06808B90120B5E65548406820F071
:104C6000F850217C40EA01605149486039E0E06831
:104C700000B34F48006840F480704D490860FFF76A
:104C8000D1F9054606E0FFF7CDF9401B022801D90E
:104C9000032098E64648006800F480600028F2D0BF
:104CA0004348406820F0F850217C40EA01604049C8
:104CB000486016E03E48006820F480703C49086077
:104CC000FFF7B0F9054606E0FFF7ACF9401B0228F4
:104CD00001D9032077E63648006800F48060002898
:104CE000F2D1207800F00800082836D16069D0B1F0
:104CF0002F489430006840F001002D49C1F894001D
:104D0000FFF790F9054606E0FFF78CF9401B0228F3
:104D100001D9032057E626489430006800F00200CD
:104D20000028F1D019E022489430006820F00100FA
:104D30001F49C1F89400FFF775F9054606E0FFF733
:104D400071F9401B022801D903203CE61848943031
:104D5000006800F002000028F1D1207800F0040083
:104D6000042872D14FF000091148806D00F0805086
:104D700078B900BF0E48806D40F080500C498865BE
:104D80000846806D00F08050009000BF00BF4FF0DB
:104D900001090B48006800F4807000BB08480068F7
:104DA00040F4807006490860FFF73CF9054610E0C2
:104DB0000010024054E201089C0000203400001062
:104DC00000700040FFF72EF9401B022801D9032094
:104DD000F9E5CA48006800F480700028F2D000BFEE
:104DE000A068012808D1C648006840F00100C44905
:104DF0009039C1F8900021E0A06805280FD1C04883
:104E0000006840F00400BE499039C1F8900008469F
:104E1000D0F8900040F00100C1F890000EE0B848D2
:104E2000006820F00100B6499039C1F890000846AA
:104E3000D0F8900020F00400C1F8900000BFA068F6
:104E4000A0B1FFF7EFF8054609E02EE0FFF7EAF81A
:104E5000401B41F28831884201D90320B3E5A848BC
:104E6000006800F002000028F0D012E0FFF7DAF846
:104E7000054608E0FFF7D6F8401B41F2883188422A
:104E800001D903209FE59E48006800F00200002839
:104E9000F0D1B9F1010F07D199489038806D20F019
:104EA000805097499039886500BF207800F0200035
:104EB000202838D1606AD8B191480830006840F0A5
:104EC00001008F499039C1F89800FFF7ABF805460B
:104ED00006E0FFF7A7F8401B022801D9032072E57E
:104EE00087480830006800F002000028F1D01AE07E
:104EF00083480830006820F0010081499039C1F8EA
:104F00009800FFF78FF8054606E0FFF78BF8401B87
:104F1000022801D9032056E579480830006800F0DE
:104F200002000028F1D1A06A00287DD0A06A0228E2
:104F30007BD173489038C76807F00301E06A81426B
:104F400025D107F07001206B401EB1EB001F1ED170
:104F500007F4FE41606BB1EB002F18D107F07841E8
:104F60003820005DB1EBC06F11D107F4C001A08FF4
:104F70000122C2EB5000B1EB405F08D107F0C061E5
:104F80004020005DC2EB5000B1EB406F66D00C2EAC
:104F900062D05B489038006800F0806008B1012062
:104FA00011E557489038006820F0807054499039D6
:104FB0000860FFF737F8054606E0FFF733F8401BB7
:104FC000022801D90320FEE44D489038006800F023
:104FD00000700028F1D1D4E90B10401E41EA001105
:104FE000606B41EA0021A08F0122C2EB500041EA30
:104FF00040514020005DC2EB500041EA4061382042
:10500000005D41EAC0603E499039C9683D4A11409F
:1050100008433B499039C8600846006840F08070FA
:1050200008600846C06801E053E03DE040F0807051
:10503000C860FEF7F7FF054606E0FEF7F3FF401BEA
:10504000022801D90320BEE42D489038006800F002
:1050500000700028F1D04FE00120B4E428489038D7
:10506000006800F00070A0BB25489038006840F050
:1050700080702349903908600846C06840F080700D
:10508000C860FEF7CFFF054606E0FEF7CBFF401BEA
:10509000022801D9032096E419489038006800F0EE
:1050A00000700028F1D027E00C2E23D0144890384F
:1050B000006820F08070124990390860FEF7B2FF56
:1050C000054607E0FEF7AEFF401B022802D9032089
:1050D00079E411E00A489038006800F00070002878
:1050E000F0D107489038C068074908400449903912
:1050F000C86001E0012066E4002064E40070004024
:10510000901002408C809D01FCFFEEFE70B50546BC
:105110000B461646286840680E4900EA0104200C38
:10512000D870C4F30420587004F03F009870C4F3A2
:10513000423018705EB9D87803F0A0FBD870587868
:1051400003F09CFB5870987803F098FB987000204F
:1051500070BD00003FFFFF0070B504460B461646C9
:105160002068806A586020680069C0F30E0098606B
:10517000206800680E4900EA0105C5F30540187073
:10518000C5F30620587005F07F009870A80DD87000
:105190005EB9187803F072FB1870587803F06EFB54
:1051A0005870987803F06AFB9870002070BD00007A
:1051B0007F7F7F0070B504460125002C4DD094F808
:1051C000210028B9002084F82000204600F04AF889
:1051D000022084F8210000BFCA20216848625320C1
:1051E0002168486200BF204603F052FB0546A5BB7C
:1051F000206880681A4908402168886021696068D1
:105200000843A169084321688968084321688860C8
:105210002168E068086120680169208941EA00404E
:1052200021680861204603F055FB0546ADB92068AA
:10523000C06C20F003002168C8646169E06908431C
:105240002168C96C08432168C86400BFFF20216839
:10525000486200BF012084F82100284670BD00008C
:10526000BFFF8FFF10B598B004465C2101A8FBF783
:10527000B9F80C492068884212D14FF400300190EF
:105280000012179001A8FFF739F808B1FDF7B4FC38
:105290000548006840F4004003499039C1F8900087
:1052A00018B010BD002800409010024070B50446B0
:1052B0002068C06820F0A0002168C860FEF7B2FE38
:1052C000054607E0FEF7AEFE401BB0F57A7F01D938
:1052D000032070BD2068C06800F020000028F1D0D5
:1052E0000020F6E770B504460CB9012070BD606A75
:1052F00038B96068B0F5827F00D105E00021E16136
:1053000002E00021216161610021A16294F85D0049
:1053100028B9002084F85C00204600F05BF80220E9
:1053200084F85D002068006820F040002168086073
:10533000E068B0F5E06F01D9002501E04FF4805539
:10534000E068B0F5706F05D0E068B0F5E06F01D0AF
:105350000021A162A08800F48270218901F4044137
:105360000843217C01F002010843217D01F0010185
:105370000843218B01F400710843217F01F03801BB
:1053800008432021095D01F080010843218D01F4CB
:1053900000510843216808600421A06901EA104017
:1053A00094F8241001F01001084394F8341001F02F
:1053B00008010843A18901F47061084305F4805194
:1053C00008432168486000202066012084F85D00C1
:1053D00000208BE710B586B00446142101A8FBF726
:1053E00001F82F49206888422AD100BF2D48006E5D
:1053F00040F480502B4908660846006E00F4805047
:10540000009000BF00BF00BF0846C06C40F0010024
:10541000C8640846C06C00F00100009000BF00BFE7
:10542000A02001900220029000200390032004900D
:105430000520059001A94FF09040FEF705FD2DE0F5
:1054400019492068884229D100BF1648806D40F470
:105450008040144988650846806D00F480400090C3
:1054600000BF00BF00BF0846C06C40F00200C86427
:105470000846C06C00F00200009000BF00BF4FF46F
:1054800060400190022002900020039003200490CD
:105490000520059001A90548FEF7D6FC06B010BD11
:1054A0000030014000100240003800400004004875
:1054B0002DE9FF5F0446894692461D460E9E012057
:1054C00001900020009000BF94F85C00012803D1F7
:1054D000022004B000F04AB9012084F85C0000BF4B
:1054E000FEF7A0FD074694F85D0002906068039007
:1054F000A846AB46029801280BD00398B0F5827FEE
:1055000004D1A06810B90298042802D002200090AB
:1055100022E1B9F1000F03D0BAF1000F00D015B9A4
:105520000120009018E194F85D00042802D00520C5
:1055300084F85D0000202066C4F840A0A4F846501E
:10554000A4F84450C4F83890E587A587E064206546
:10555000E068B0F5E06F02D8BBF1010F06D9206812
:10556000406820F480502168486005E02068406869
:1055700040F48050216848602068006800F04000D6
:10558000402805D02068006840F04000216808608D
:10559000E068B0F5E06F4ED9606810B1B8F1010F66
:1055A00009D1A06B00882168C860A06B801CA06333
:1055B000E08F401EE08736E02068806800F002003F
:1055C000022810D1E08F70B1019801280BD1A06B97
:1055D00000882168C860A06B801CA063E08F401E1B
:1055E000E087002001902068806800F0010080B111
:1055F000B4F8460068B12068C068216C0880206C4F
:10560000801C2064B4F84600401EA4F84600012027
:105610000190FEF707FDC01BB04204D3701C10B10F
:105620000320009098E0E08F0028C5D1B4F8460030
:105630000028C1D185E0606810B1B8F1010F17D121
:10564000E08F01280AD9A06B00882168C860A06B90
:10565000801CA063E08F801EE08709E0A06B0078CB
:1056600021680873A06B401CA063E08F401EE08798
:1056700060E02068806800F0020002281ED1E08F00
:10568000E0B10198012819D1E08F01280AD9A06B57
:1056900000882168C860A06B801CA063E08F801E1A
:1056A000E08709E0A06B007821680873A06B401CBC
:1056B000A063E08F401EE087002001902068806892
:1056C00000F0010058B3B4F8460040B3B4F8460007
:1056D000012816D92068C068216C0880206C801CC5
:1056E0002064B4F84600801EA4F84600B4F84600D2
:1056F000012812D82068406840F480502168486032
:105700000BE02068007B216C0870206C401C20643A
:10571000B4F84600401EA4F8460001200190FEF7B0
:1057200081FCC01BB04201D3701C00B916B9032024
:10573000009011E0E08F00289BD1B4F846000028CB
:1057400097D13A463146204603F05EF918B1012060
:1057500000902020206600BF012084F85D0000BF7B
:10576000002084F85C0000BF0098B2E630BCBDE8C1
:10577000C09F70477047704710B504460CB90120B0
:1057800010BD94F83D0028B9002084F83C00204664
:1057900000F029F8022084F83D00211D206803F064
:1057A00053FB012084F8480000BF84F83E0001212B
:1057B0003F2001554020015541200155422001550F
:1057C0004320015500BF00BF012084F8440045205C
:1057D0000155462001554720015500BF012084F89E
:1057E0003D000020CCE77047014691F83D000128BC
:1057F00001D001207047022081F83D000868C06890
:1058000040F001000B68D860124B0868984207D03E
:105810000868B0F1804F03D00F4B0868984210D150
:10582000086880680D4B00EA0302062A0FD0B2F523
:10583000803F0CD00868006840F001000B681860D9
:1058400005E00868006840F001000B68186000205F
:10585000D0E70000002C014000400140070001009B
:10586000704710B5044620680069C0F34000D8B105
:105870002068C068C0F34000B0B16FF0020021683A
:105880000861012020772068806900F0030018B1CA
:105890002046FFF7E5FF05E0204600F0BEF8204671
:1058A00000F0BCF80020207720680069C0F3800079
:1058B000D8B12068C068C0F38000B0B16FF00400B8
:1058C00021680861022020772068806900F4407018
:1058D00018B12046FFF7C4FF05E0204600F09DF810
:1058E000204600F09BF80020207720680069C0F374
:1058F000C000D8B12068C068C0F3C000B0B16FF07C
:10590000080021680861042020772068C06900F041
:10591000030018B12046FFF7A3FF05E0204600F082
:105920007CF8204600F07AF8002020772068006993
:10593000C0F30010D8B12068C068C0F30010B0B147
:105940006FF0100021680861082020772068C06986
:1059500000F4407018B12046FFF782FF05E02046B2
:1059600000F05BF8204600F059F80020207720680E
:10597000006900F0010058B12068C06800F0010023
:1059800030B16FF0010021680861204600F048F84E
:1059900020680069C0F3C01058B12068C068C0F327
:1059A000C01030B16FF08000216808612046FFF719
:1059B000E1FE20680069C0F3002058B12068C0688B
:1059C000C0F3C01030B16FF48070216808612046C8
:1059D000FFF7CFFE20680069C0F3801058B120683F
:1059E000C068C0F3801030B16FF0400021680861DA
:1059F000204600F021F820680069C0F3401058B13B
:105A00002068C068C0F3401030B16FF020002168FA
:105A100008612046FFF7AFFE10BD704770470000D9
:105A200010B5044603492068884201D1FEF700FB07
:105A300010BD0000002C014070477047704770B5E2
:105A40000446A56FE66F2068806800F0800080281B
:105A500023D1212D21D100BF00BF2168083151E899
:105A6000001F21F080002168083141E80002002A6F
:105A7000F3D100BFE06E68B1E06EFDF7A1FF48B161
:105A8000E06EFDF7F8FF202804D11020C4F8800054
:105A9000032070BD204603F0F3FB2068806800F00F
:105AA0004000402823D1222E21D100BF00BF216811
:105AB000083151E8001F21F040002168083141E819
:105AC0000002002AF3D100BF206F68B1206FFDF7FC
:105AD00077FF48B1206FFDF7CEFF202804D11020BA
