:020000040800F2
:100000006065002085020008ED4B000847450008A8
:10001000E94B0008510D0008AD5D0008000000002C
:10002000000000000000000000000000A501000822
:10003000DD0E000800000000010200088D500008DD
:100040009F0200089F0200089F0200089F0200080C
:100050009F0200089F0200089F0200089F020008FC
:100060009F0200089F0200089F0200089F020008EC
:10007000350E0008450E0008550E0008650E0008F4
:100080009F0200089F0200089F0200089F020008CC
:100090009F0200089F0200089F0200089F020008BC
:1000A0009F020008495100089F0200089F020008B3
:1000B0009F02000800000000000000009F020008EE
:1000C0009F0200089F0200089F0200089F0200088C
:1000D0009F020008555B0008695B0008795C000816
:1000E000E10E00089F020008000000000000000070
:1000F0000000000000000000000000000000000000
:10010000000000009F020008000000009F0200089D
:1001100000000000000000009F0200089F0200088D
:100120009F0200089F0200089F0200089F0200082B
:100130009F02000800000000000000000000000016
:100140009F0200089F0200089F02000800000000B4
:100150009F0200089F0200089F0200089F020008FB
:100160009F0200089F0200089F0200080000000094
:100170009F0200089F02000800000000000000002D
:100180009F0200089F0200089F020008DFF810D0BD
:1001900000F0FEFB00480047E1670008AFF3008075
:1001A000606500202C4B1968086800F05AB880F38D
:1001B0000988BFF36F8F4FF0000080F311887047FC
:1001C0000000000008480068006880F308884FF0CD
:1001D000000080F3148862B661B6BFF34F8FBFF39F
:1001E0006F8F00DF00BF00BF08ED00E0DFF80C00FC
:1001F000016841F470010160704700BF88ED00E0C4
:10020000EFF30980BFF36F8F134B1A681EF0100FC6
:1002100008BF20ED108A20E9F04F106009B44FF0BC
:10022000500080F31188BFF34F8FBFF36F8F07F03B
:10023000EFFD4FF0000080F3118809BC19680868D1
:1002400000F014B81EF0100F08BF00F014B880F3CF
:100250000988BFF36F8F7047C4000020EFF305805B
:10026000704730C8B0E8C04FFFF7A1BF30C8B0E852
:10027000C04FFFF7E7BFB0EC088AB0EC08CAFFF741
:10028000E6BF00000648804706480047FEE7FEE755
:10029000FEE7FEE7FEE7FEE7FEE7FEE7FEE7FEE736
:1002A000355100088D0100082DE9F05F054600205A
:1002B00092469B4688460646814640241BE02846D7
:1002C00041464746224600F05DFA53465A46C01A58
:1002D000914110D311461846224600F044FA2D1AD7
:1002E00067EB01084F4622460120002100F03BFA4F
:1002F00017EB00094E41201EA4F10104DFDC484643
:1003000031462A46434600F000B830BCBDE8C09FE5
:1003100040EA01039B0703D009E008C9121F08C087
:10032000042AFAD203E011F8013B00F8013B521E07
:10033000F9D27047D2B201E000F8012B491EFBD27E
:1003400070470022F6E710B513460A4604461946E0
:10035000FFF7F0FF204610BDCAB2401E10F8011F83
:100360008A4202D00029F9D10020704730B50546F5
:100370000020034600E05B1C934205D2EC5CC85CA5
:10038000201A01D1002CF6D130BD2DE9F04791465D
:100390000F4680460446002614F8015B2DB100F09C
:1003A00013FA0068405DC007F6D12B2D02D02D2D29
:1003B00018D0641E4A463946204600F009FA27B193
:1003C0003968A14201D1C7F8008071054FF00204DD
:1003D0000BD54042002803DD05F076FD0460A00740
:1003E000BDE8F08746F48066E4E70028F8DA05F017
:1003F0006BFD04606FF00040F2E770B5064605F053
:1004000063FD046805460A2200213046FFF7BDFF60
:100410002C6070BD2DE9FE4F804681EA0300C00FBD
:100420000C46009021F0004123F00045B8EB02009B
:10043000A94105D24046214690461C460B4602463D
:1004400023F00040104347D0270DC7F30A00C3F341
:100450000A510290401A019040286BDAC3F313004E
:1004600040F4801B0098924620B10023D2EB030A8F
:1004700063EB0B0B01985946C0F14002504600F067
:1004800072F906460D4650465946019A00F08AF91F
:1004900010EB08006141002487EA115284EAE773F7
:1004A0001A4340D0009A62B3019A012A4FEA0752D8
:1004B00015DC001B61EB02014FF0004202EA07521B
:1004C000CDE90042001C41F5801132462B4600F078
:1004D000E0F903B000F045B840462146F9E7001BBB
:1004E00061EB0201001C41F5801300185B412018EC
:1004F000A2F5001747EB030140EAD570B6196D412C
:1005000011E06D084FEA360645EAC0754FEA07521A
:10051000001B61EB0201001C41F5801149084FEA04
:1005200030000019514132462B4603B000F01CB890
:1005300000F0A0B90098012240000023D0EB020295
:1005400063EBE073009821464FEAE074B8EB0000DB
:1005500061EB0401E9E783F000435BE781F00041D0
:1005600058E730BCBDE8C08F30BCBDE8C04FFFF7D6
:10057000DFBF2DE9FE4F81EA030404F0004421F0BF
:10058000004100944FF0000B23F0004350EA0104B7
:100590005ED052EA03045BD0C3F30A54C1F30A5598
:1005A0002C44A4F2F3340194A0FB0254C1F31301D0
:1005B00041F48011C3F3130343F4801301FB02449D
:1005C00000FB034E840A970A44EA815447EA8357A2
:1005D000A4FB076802958D0A05FB07854FEA932C5B
:1005E00004FB0C542705029D4FEA065847EA1637CC
:1005F000B5EB08056EEB070C870E920E47EA8117E4
:1006000042EA8312A7FB0201B6EB0B0164EB000484
:100610002B0D43EA0C335E1844EB1C50DA4651466E
:10062000E7FB0201C5F313044FEA0B3343EA14530B
:100630004FEA0432019C43EA0603A4F10C0402943D
:10064000009CCDE900B400F024F903B000F003B839
:1006500000200146F9E730BCBDE8C08F2DE9F04D20
:1006600081EA030404F0004B21F0004514464FF0EA
:10067000000A23F0004150EA050220D054EA0102AA
:100680001DD0C5F30A570246C5F31303C1F3130087
:10069000C1F30A5640F4801543F48013A7EB060813
:1006A000101BD64608F2FD3873EB050002D308F1A3
:1006B000010801E092185B41B8F1000F03DA002055
:1006C0000146BDE8F08D00204FF4801106468446B7
:1006D0000EE0171B73EB050705D3121B63EB050335
:1006E00006434CEA010C49084FEA300092185B417E
:1006F00050EA0107EDD152EA030012D082EA040069
:1007000083EA0501084305D0101BAB4106D2012244
:10071000002306E000224FF0004302E06FF00102E8
:1007200053101AEB06004CEB085110EB0A0041EB9A
:100730000B01BDE8F04D00F09DB830B50B46014609
:1007400000202022012409E021FA02F59D4205D370
:1007500003FA02F5491B04FA02F52844151EA2F11A
:100760000102F1DC30BD202A04DB203A00FA02F15C
:10077000002070479140C2F1200320FA03F319438F
:1007800090407047202A04DB203A21FA02F0002131
:10079000704721FA02F3D040C2F120029140084391
:1007A00019467047202A06DBCB17203A41FA02F09F
:1007B00043EAE07306E041FA02F3D040C2F12002BE
:1007C000914008431946704700487047108D000853
:1007D0002DE9F05F82460078002715468B460AF126
:1007E0000104B946302801D09DB113E014F8010B83
:1007F0000127782803D0582801D045B10AE00DB16F
:10080000102D07D10027102514F8010B02E0082550
:1008100000E00A250026B0460EE005FB080005FBB7
:1008200006F1012701EB10461FFA80F8B6F5803F6C
:1008300000D3B94614F8010B294600F0BBF8002894
:10084000EBDABBF1000F05D00FB1641E00E0544697
:10085000CBF80040B9F1000F06D005F035FB0221BE
:100860000160C81E00F003B848EA0640FAE730BC51
:10087000BDE8C09F10B5141E73F1000408DA401CD7
:1008800041F1000192185B411A4301D120F00100AF
:1008900010BD2DE9F04D92469B4611B1B1FA81F29F
:1008A00002E0B0FA80F220329046FFF75CFF044687
:1008B0000F4640EA0A0041EA0B0153465A460843F4
:1008C00013D0114653EA010019D0C8F14002504636
:1008D000FFF758FF05460E46504659464246FFF779
:1008E00042FF084305D0012004E020463946BDE818
:1008F000F08D0020054346EAE0762C4337430A9802
:100900006305E40AA0EB08000022FD0A44EA47540C
:100910000A3002D500200146E9E7010510196941B6
:10092000DDE9084500196941BDE8F04DA2E7C1F3D2
:100930000A52C1F3130140F2FF3341F480119A428D
:1009400002DA00200146704740F233439A42A2F295
:10095000334202DC5242FFF715BFFFF704BF00002D
:1009600030B5041E71F1000404DB4FF00044404236
:1009700064EB0101141E73F1000405DB1C464FF00B
:100980000043524263EB0403994208BF904230BDDA
:10099000064C074D06E0E06840F0010394E80700CC
:1009A00098471034AC42F6D3FFF7F4FB508E0008A2
:1009B000708E00083A2800D2303820F02002412AF8
:1009C00001D3A2F13700884201D34FF0FF307047C6
:1009D00070B58C1810F8015B15F0070301D110F801
:1009E000013B2A1106D110F8012B03E010F8016B2E
:1009F00001F8016B5B1EF9D12B0705D40023521EB1
:100A00000DD401F8013BFAE710F8013BCB1A921C18
:100A100003E013F8015B01F8015B521EF9D5A14216
:100A2000D8D3002070BD00002DE9F04106463D21DD
:100A30003046FFF791FC0546E5B1002028706F1C99
:100A4000002414E004EB44000D4A52F82010402228
:100A50003046FFF78BFC48B904EB4400084A02EB30
:100A60008000416838468847BDE8F081641C042C4A
:100A7000E8D300BF314603A005F0FAF900BFF3E761
:100A800084000020556E6B6E6F776E20636F6D6D06
:100A9000616E643A2025730A41542B48454C503D01
:100AA00031200A0070B5054611A005F0E1F90024D7
:100AB0001AE004EB4400144A52F8201013A005F089
:100AC000D7F904EB4400104A02EB8000816810A0C3
:100AD00005F0CEF904EB44000B4A02EB800081687C
:100AE00010A005F0C5F9641C042CE2D370BD000011
:100AF000417661696C61626C6520415420636F6D61
:100B00006D616E64733A0A008400002025730A0048
:100B10004465736372697074696F6E3A2025730A55
:100B2000000000004578616D706C65207573616729
:100B3000653A2025730A0A0000B5C1B01FE04FF4E2
:100B400080722148016801A805F040F94FF48071D6
:100B500001A804F0ADFF00BF1C480068C069C0F3E5
:100B600080100028F8D01848006800F580701649F9
:100B7000086017480068A0F580701549086014489F
:100B80000068B0F5807FDAD811480068A0B110483D
:100B9000008882B20C48016801A805F017F90C48DA
:100BA000016801A804F084FF00BF08480068C0691C
:100BB000C0F380100028F8D00020054908600249E1
:100BC000086041B000BD0000BC000020C01400203F
:100BD000C000002070B505462C212846FFF7BCFB5D
:100BE0000446BCB100202070102200212846FFF7E7
:100BF000CCFB0A490860601CFFF7FFFB084908604E
:100C0000084602680548016806A005F031F9FFF7BB
:100C100093FF02E00BA005F02BF970BDBC00002093
:100C2000C000002052656164416464723A203078EB
:100C300025582C204461746553697A653A202564EF
:100C40000A000000496E76616C6964206172677504
:100C50006D656E7420666F722041542B5365745716
:100C6000726974650A00000070B505462C2128469B
:100C7000FFF772FB044604B300202070102200210D
:100C80002846FFF782FB0F490860601CFFF7B5FBA1
:100C90000D490860084602680A4801680BA005F083
:100CA000E7F8094801680748006800F00FFA0FA04C
:100CB00005F0DEF801F0B0F902E00FA005F0D8F879
:100CC00070BD0000B4000020B800002057726974A5
:100CD00065416464723A20307825582C2044617450
:100CE0006553697A653A2025640A0000457261738C
:100CF00065204F4B0D0A0000496E76616C696420D7
:100D0000617267756D656E7420666F722041542B39
:100D100053657457726974650A00000010B5044683
:100D200001200349087003A005F0A2F810BD0000DF
:100D300080000020466C6173685772697465446175
:100D400074655461736B2052756E0D0A00000000CB
:100D500000BFFEE708B53AE006F09AFA00901C489A
:100D6000BDF8001001800078002830D01848407885
:100D7000012814D11648017816A005F079F801224F
:100D800002214FF0904001F057FA642006F078FEFF
:100D9000002202214FF0904001F04EFA17E00C487B
:100DA0004078022813D10A48017811A005F060F8B4
:100DB000012202214FF0904001F03EFA142006F08B
:100DC0005FFE002202214FF0904001F035FAC3E7A8
:100DD00070000020427574746F6E20256420736863
:100DE0006F727420707265737365640A000000008E
:100DF000427574746F6E202564206C6F6E6720706E
:100E00007265737365640A0000B50548006805499A
:100E1000884203D100F008F8012000BD0020FCE763
:100E2000F0BF0020EFBEADDE002001490860704732
:100E3000F0BF002010B5024800F08AFE10BD00008F
:100E40002417002010B5024800F082FE10BD0000FB
:100E5000DC16002010B5024800F07AFE10BD00003C
:100E60009416002010B5024800F072FE10BD00007C
:100E70004C16002030B590F8444004F01C050124C5
:100E8000AC40056C6C60046863608468102C04D10D
:100E90000468A2600468E16003E00468A16004687B
:100EA000E26030BD0B48006800F0807028B9094846
:100EB000006840F08070074908600748006800F04B
:100EC000010028B90448006840F0010002490860A8
:100ED00070470000FCED00E0001000E070470000EB
:100EE00010B50748006800F4006018B14FF40060C6
:100EF000034908604FF4006001F0A8F810BD00003D
:100F00001404014072B600BFFEE700001B49087FD1
:100F1000012801D0032816D11949096821F400716C
:100F2000174A116000BF1146096841F40061116061
:100F30001146096821F40061116000BF114609687B
:100F400041F400711160022801D0032811D100BFC3
:100F50000B49096841F48051094A1160114609683A
:100F600021F48051116000BF1146096841F480618D
:100F700011600021014A11777047000048000020ED
:100F80000020024000F0010129B10649496941F001
:100F90000401044A51610349496941F48031014A1D
:100FA0005161704700200240094A526922F47E7262
:100FB000C3B242EAC302064B5A611A46526942F072
:100FC00002025A611A46526942F480325A617047ED
:100FD0000020024010B50849496941F00101064C62
:100FE0006161026000BF00BF00BFBFF36F8F00BF31
:100FF00000BF00BF436010BD00200240F0B50246B4
:10100000402314460D460C4E766946F480260A4F5E
:101010007E6100BFEFF31086304672B600BF2E68C7
:101020002660241D2D1D5E1EF3B2002BF7D100BFDC
:1010300080F3108800BFF0BD0020024070B5054667
:1010400001F000F9064608E0681C30B101F0FAF83A
:10105000801BA84201D3032070BD1948006900F429
:1010600080300028F0D116480069164900EA0104D2
:10107000CCB11548406820431349486000BF04F0D4
:10108000404030B10E48806904F0404108430C49AB
:10109000886124F0404018B124F0404008490861BC
:1010A00000BF0120D8E70648006900F0010020B128
:1010B00000BF01200249086100BF0020CCE700000A
:1010C00000200240FAC30200480000202DE9F04150
:1010D00086B004460D46002001906019B0F5802FBF
:1010E00007D321460FA004F0C3FE012006B0BDE8DF
:1010F000F08104F58030C60A2844401EC70A00F07B
:101100008BFF00200290012003900496B81B401C26
:10111000059001A902A800F093FE804600F012FF9E
:101120004046E3E777726974655F616464722065C5
:10113000727220307825780D0A0000002DE9FC5FDE
:1011400080460D4614464FF0000A0021009101919F
:101150002819B0F5802F05D351A004F089FE012095
:1011600000F0D6B856480088002856DD554800687B
:10117000534909880844A84204D053A004F078FEDB
:101180000120EDE74E480088C0F108001FFA80FBFF
:101190005C4501DB584600E0204607465549484A71
:1011A000128888183A464146FFF7B2F8444800884A
:1011B00038444349088008460088082825D14D490D
:1011C00003C9CDE9000100F027FF3E48DDE9002317
:1011D000006849490144002000F0BEFE824600F04C
:1011E000B1FEBAF1000F0AD044A004F041FE002085
:1011F00033490880401E334908605046B0E700205C
:101200002F490880401E2F490860B8443D44E01B28
:1012100084B20CB90020A3E700BF2046E11704EB1D
:101220005171C1F3CF0600271DE008EBC70001682C
:1012300000914068019000F0EFFE2F48284400EB39
:10124000C7010020DDE9002300F086FE824600F0A1
:1012500079FEBAF1000F04D028A004F009FE504630
:101260007EE7781C87B2B742DFDB2046E11704EB4C
:101270005171C910A4EBC1011FFA81F9B9F1000F36
:101280000CDD08EBC6014A461A48FFF741F80C4846
:10129000A0F8009005EBC6000A49086050465FE7D9
:1012A00057726974652061646472657373206F7529
:1012B00074206F662072616E67650D0A0000000081
:1012C000340000203800002041646472657373208C
:1012D0006E6F7420636F6E74696E756F75732077AF
:1012E00069746820627566666572656420646174FD
:1012F000610D0A002C00002000000108466C61739B
:1013000068207772697465206572726F720D0A00C9
:101310003CBCBDE8C09F00002DE9F84F05460C46D7
:101320004FF0000A00200090FE49E068884200D09B
:1013300000E000BF00BF95F85000012802D1022054
:1013400000F050BA012085F8500000BF286803F073
:10135000C5F9002872D1606805281AD8606802288B
:1013600006D0032807D0042808D005280DD108E0AE
:101370000C2060600CE01220606009E018206060C2
:1013800006E04FF48070606002E00620606000BFFD
:1013900000BF2968D4E9002001F1300CC0F3012B13
:1013A0000CEB8B03D3F800C000F01F0E4FF01F0BA7
:1013B0000BFA0EFB2CEA0B0C00F01F0BC2F3846E31
:1013C0000EFA0BFE4CEA0E0CC3F800C000BF2868F2
:1013D00003F084F98146286803F071F98046B9F179
:1013E000000F2AD1B8F1000FFBD1A268216828684C
:1013F00003F079F960692968C968C1F3C10149003E
:1014000000FA01F72069042819D0286822682169A8
:1014100000F1600C0CEB8103D3F800C0DFF808B3D7
:101420000CEA0B0C02F0F84B4BF0004B4BEA070BAD
:101430004CEA0B0CC3F800C000BFA8E0B8E10021E3
:10144000286803F033F9C0F3120030B9002128688E
:1014500003F02CF9C0F3846007E00021286803F052
:1014600025F990FAA0F0B0FA80F02168C1F31201DA
:1014700019B92168C1F3846104E0216891FAA1F1EE
:10148000B1FA81F1884204D100221146286803F0A4
:1014900044F90121286803F009F9C0F3120030B9BA
:1014A0000121286803F002F9C0F3846007E00121FC
:1014B000286803F0FBF890FAA0F0B0FA80F02168F9
:1014C000C1F3120119B92168C1F3846104E02168F4
:1014D00091FAA1F1B1FA81F1884204D100220121EF
:1014E000286803F01AF90221286803F0DFF8C0F336
:1014F000120030B90221286803F0D8F8C0F38460E4
:1015000007E00221286803F0D1F890FAA0F0B0FAC1
:1015100080F02168C1F3120119B92168C1F3846117
:1015200004E0216891FAA1F1B1FA81F1884204D175
:1015300000220221286803F0F0F80321286803F054
:10154000B5F8C0F3120030B90321286803F0AEF8F3
:10155000C0F3846007E00321286803F0A7F890FA3D
:10156000A0F0B0FA80F02168C1F3120119B9216826
:10157000C1F3846104E0216891FAA1F1B1FA81F12B
:10158000884204D100220321286803F0C6F82868A5
:1015900003F09AF8002870D12868E2682168D0F832
:1015A000B0C0C1F312032CEA030C02F0180B5F4B1E
:1015B00023FA0BF30B404CEA030CC0F8B0C000BF99
:1015C0005849E068884258D12368C3F312031BB915
:1015D0002368C3F3846304E0236893FAA3F3B3FAA4
:1015E00083F35B1C03F01F03092B3ED82368C3F36E
:1015F00012031BB92368C3F3846304E0236893FADE
:10160000A3F3B3FA83F35B1C03F01F034FF0010C49
:101610000CFA03FC2368C3F312031BB92368C3F35A
:10162000846304E0236893FAA3F3B3FA83F35B1CA7
:1016300003F01F034CEA836C2368C3F312031BB946
:101640002368C3F3846304E0236893FAA3F3B3FA33
:1016500083F35B1C03F01F0303EB43034FF0000B0A
:101660004BEA03534CEA03033FE02368C3F312033E
:1016700023B92368C3F3846305E03BE0236893FA4E
:10168000A3F3B3FA83F35B1C03F01F034FF0010CC9
:101690000CFA03FC2368C3F312031BB92368C3F3DA
:1016A000846304E0236893FAA3F3B3FA83F35B1C27
:1016B00003F01F034CEA836C2368C3F312031BB9C6
:1016C0002368C3F3846304E0236893FAA3F3B3FAB3
:1016D00083F35B1C03F01F030A3B03EB43034FF050
:1016E000007B4BEA03534CEA03031946A2682868BF
:1016F00002F0F9FF0E492068084078B300BF0D489A
:10170000806800F0E07600BF0B49206888422DD148
:1017100006F4000050BB0949286888424ED146F4BF
:1017200000010DE000007F4000F0FF03FFFF070015
:101730000000088000030450000052C7000004505D
:10174000224802F0E4FF224800682249B0FBF1F091
:10175000401C00EB40008000009003E016E0009881
:10176000401E009000980028F9D127E01A4920680F
:1017700088420CD106F0807048B918492868884220
:101780001CD146F08071114802F0C1FF16E01449E7
:101790002068884212D106F4800078B90F49286881
:1017A00088420BD146F48001084802F0B0FF05E002
:1017B000686D40F0200068654FF0010A00BF00200E
:1017C00085F8500000BF5046BAE500000003045001
:1017D00068000020400D0300000084CB000004508E
:1017E0000100008018BCBDE8E08F00002DE9F8433F
:1017F00004464FF000090020009014B90120BDE814
:10180000F883206920B12020005D012800D100BFAD
:10181000606D30B9204600F0E9F80020A06584F83A
:10182000500020688168C1F3407131B1206881683F
:10183000674A1140816000BF00BF206802F049FF85
:10184000B0B920688168634A114041F080518160DD
:1018500000BF614800686149B0FBF1F0401C4000E6
:10186000009002E00098401E009000980028F9D1F6
:10187000206802F02EFF48B9606D40F010006065EE
:10188000A06D40F00100A0654FF00109206802F052
:1018900025FF0646606D00F0100000287ED1002E66
:1018A000FCD1606D20F4807040F00200606520681B
:1018B00002F00AFF68B94A4802F006FF48B96068BA
:1018C0004849896821F47C110143464A916000BF70
:1018D00000BF607E616B41EA4030E1680843A16867
:1018E00008432021095D40EA01452020005D0128D0
:1018F00003D1A08C401E45EA4045A06A28B1208D46
:1019000000F47070E16A084305432068C0683649F6
:10191000084028432168C860206802F0DFFE804646
:10192000206802F0CCFE0746B8F1000F2CD127BB8F
:10193000207E002141EA803194F8300041EA4005E0
:101940002068C06844F20201884328432168C860C7
:1019500094F83800012811D1E06B40F00101206CAF
:101960000843616C0843A16C08432168096940F28F
:10197000FC72914308432168086105E02068006912
:1019800020F0010021680861206901280BD120683E
:10199000006B20F00F00E169491E00E010E00843F1
:1019A0002168086305E02068006B20F00F002168C3
:1019B0000863606D20F0020040F00100606505E002
:1019C000606D40F0100060654FF00109484616E771
:1019D000C0FFFF5FC0FFFF7F68000020400D0300D5
:1019E000000004500003045007C0F0FF10B59EB083
:1019F0000446142119A8FEF7A4FC5C2102A8FEF7F6
:101A0000A0FC2249206888423DD14FF480400290DA
:101A10008003169003200390012104911421059165
:101A200007210691022107910891C905099102A891
:101A300000F056FD08B1FFF765FA00BF1448C06C0E
:101A400040F400501249C8640846C06C00F40050CD
:101A5000019000BF00BF00BF0846C06C40F001000D
:101A6000C8640846C06C00F00100019000BF00BFD0
:101A7000102019900B201A9000201B9019A94FF0EC
:101A8000904000F0F1FA1EB010BD000000000450BC
:101A9000001002400146002291F82500022808D0DB
:101AA0000420C86300BF002081F8240000BF01208B
:101AB00070470868006820F00E000B68186008681E
:101AC000006820F001000B68186091F8440000F0F5
:101AD0001C03012098400B6C5860012081F8250000
:101AE00000BF002081F8240000BF1046E0E770B579
:101AF0000446002594F82500022803D00420E06362
:101B0000012520E02068006820F00E0021680860B0
:101B10002068006820F001002168086094F8440003
:101B200000F01C0101208840216C4860012084F8ED
:101B3000250000BF002084F8240000BFA06B10B176
:101B40002046A16B8847284670BD0146C86B704788
:101B500070B50446206C05682068066894F8440057
:101B600000F01C01042088402840E0B106F0040089
:101B7000C8B12068006800F0200028B9206800681B
:101B800020F004002168086094F8440000F01C0173
:101B900004208840216C4860206B002856D02046E5
:101BA000216B884752E094F8440000F01C010220A9
:101BB0008840284018B306F0020000B3206800688F
:101BC00000F0200040B92068006820F00A00216879
:101BD0000860012084F8250094F8440000F01C01FE
:101BE00002208840216C486000BF002084F8240057
:101BF00000BFE06A50B32046E16A884726E094F8C7
:101C0000440000F01C01082088402840F0B106F094
:101C10000800D8B12068006820F00E002168086034
:101C200094F8440000F01C0101208840216C4860B9
:101C30000120E06384F8250000BF002084F8240020
:101C400000BF606B10B12046616B884770BD00001B
:101C500010B5014609B9012010BD3E4B08689842F5
:101C60000BD23D4B0868C01A1423B0FBF3F0800080
:101C700048643948083808640AE0364B0868C01AD6
:101C80001423B0FBF3F0800048643248083808643D
:101C9000022081F825000868026847F6F070824348
:101CA000D1E9020318430B6918434B6918438B6948
:101CB0001843CB6918430B6A184302430868026053
:101CC0008868B0F5804F3AD0234B083B086C9842A7
:101CD0001BD1D0F8A80091F8443003F01C040F2366
:101CE000A34098431C4BA033186091F8443003F094
:101CF0001C0348689840184B083BD3F8A830184399
:101D0000154B083BC3F8A80019E01248A030006842
:101D100091F8443003F01C040F23A34098430D4B6B
:101D2000A033186091F8443003F01C0348689840D1
:101D3000084BA0331B681843064BA03318600020E3
:101D4000C863012081F82500002081F8240000BF2D
:101D500082E7000008040240080002402DE9F0413B
:101D600004460D4616461F464FF0000800BF94F883
:101D70002400012802D10220BDE8F081012084F86E
:101D8000240000BF94F8250001282CD1022084F8FB
:101D900025000020E0632068006820F00100216831
:101DA00008603B46324629462046FFF763F8206B21
:101DB00030B12068006840F00E00216808600BE038
:101DC0002068006820F0040021680860206800682E
:101DD00040F00A00216808602068006840F00100B7
:101DE0002168086006E000BF002084F8240000BFDE
:101DF0004FF002084046BFE710B500BF4FF0FF307C
:101E00000E498863C86300BF00BF00208863C863B1
:101E100000BF401E086400200864401E8862002045
:101E20008862401EC8620020C862401E086300200D
:101E3000086300F077FA002010BD00000010024097
:101E40002DE9F04104460F4600BF3C4800780128C8
:101E500002D10220BDE8F08101203849087000BF9E
:101E60004CF25030FFF7EAF80646002E5ED13349B7
:101E700048603348006800F4007090B13048006852
:101E800000F4806048B12E48006820F480602C493E
:101E9000086003202949087715E0012027490877C1
:101EA00011E02748006800F4806048B124480068C9
:101EB00020F480602249086002202049087702E06F
:101EC00000201E490877206801280ED16068FFF7BE
:101ED00059F84CF25030FFF7B1F8064618484069FF
:101EE00020F00400164948611EE04FF0FF303860D2
:101EF000A56813E028466168FFF756F84CF25030A9
:101F0000FFF79CF806460E48406940F2FA318843D4
:101F10000B4948610EB13D6005E06D1CD4E902013A
:101F20000844A842E6D800BFFEF7F0FF00BF00203B
:101F30000249087000BF30468CE7000048000020CE
:101F4000002002400348406940F0004001494861D8
:101F500000207047002002402DE9F04704468846E3
:101F600015461E464FF0000900BF29480078012899
:101F700002D10220BDE8F08701202549087000BF8A
:101F80004CF25030FFF75AF80746002F38D120495D
:101F900048602048006800F4806048B11D4800682F
:101FA00020F480601B49086002201949087702E08C
:101FB0000020174908773CB92A4633464046FFF7C8
:101FC00009F84FF001090BE0012C01D0022C07D1D8
:101FD00029464046FFF712F8022C01D14FF4802920
:101FE0004CF25030FFF72AF80746B9F1000F05D040
:101FF0000848406920EA090006494861FEF786FF63
:1020000000BF00200249087000BF3846B2E7000058
:10201000480000200020024000200849496901F0E2
:10202000004151B10649054A916006499160114647
:10203000496901F0004101B10120704700200240D0
:1020400023016745AB89EFCD7047000010B504460A
:1020500004480068204020B1024804602046FFF791
:10206000F3FF10BD1404014078B503460A46002171
:10207000C5E001268E40156805EA0604002C73D0E1
:10208000157905F00305012D04D0157905F0030538
:10209000022D13D198684E000325B540A8434E0089
:1020A000D568B54028439860586801258D40A843FD
:1020B0001579C5F300158D4028435860157905F052
:1020C0000305032D09D0D8684E000325B540A84369
:1020D0004E009568B5402843D860157905F0030592
:1020E000022D13D1CE0803F1200555F826004D0727
:1020F000EE0E0F25B540A8434E07F60E1569B54004
:102100002843CE0803F1200545F8260018684E0044
:102110000325B540A843157905F003054E00B540E9
:1021200028431860556805F44035002D66D000BF7F
:10213000364D2D6E45F00105344E356635462D6E13
:1021400005F00105009500BF00BF4FEAB6358E08C7
:1021500055F826008D072E0F0F25B540A843B3F183
:10216000904F02D1002515E048E0294DAB4201D146
:1021700001250FE0274DAB4201D102250AE0264D93
:10218000AB4201D1032505E0244DAB4201D104252A
:1021900000E007258E07360FB5402843204D8E08F6
:1021A00045F826001F4D2868A043556805F48015A2
:1021B00005B120431B4D28602D1D2868A04355689C
:1021C00005F4001505B12043164D2D1D2860154D51
:1021D0002D1F2868A043556805F4003505B120433C
:1021E000104D2D1F28602D1F2868A043556805F449
:1021F000803505B120430B4D083D2860491C15680A
:10220000CD40002D7FF435AF78BD000000100240B6
:102210000004004800080048000C00480010004876
:102220000800014008040140024613690B400BB14D
:10223000012000E0002070470AB1816100E0816266
:102240007047000001480068704700003C00002013
:102250000348006803490978084401490860704749
:102260003C0000204400002010B50024032000F0B2
:10227000D5F80F2000F008F808B1012401E000F0C3
:1022800053F8204610BD0000F0B587B00446002585
:1022900000BF1F48006E40F400601D4908660846F4
:1022A000006E00F40060009000BF00BF01A902A80A
:1022B00000F034FC00F06CFC07461648B7FBF0F069
:1022C000461E15481549086040F2E7311348C160C1
:1022D0004660002101618160816101F0D3FA054609
:1022E00095B90E4801F006FB05466DB9192000F0BE
:1022F0003FF8102C07D200222146192000F04CF89C
:102300000748046000E00125284607B0F0BD000042
:102310000010024040420F00002C01406C1F0020C2
:10232000400000207047000008B500BF0F48006E55
:1023300040F001000D4908660846006E00F00100FB
:10234000009000BF00BF00BF0846806D40F0805085
:1023500088650846806D00F08050009000BF00BF87
:1023600000220F21901E00F017F808BD0010024057
:102370000146084600280DDB00BF00BF00F01F0328
:1023800001229A4043099B0003F1E023C3F8002196
:1023900000BF00BF00BF70472DE9F05F80460D46CB
:1023A0001646002703F074FD074639462A46334691
:1023B00001F00700C0F1070ABAF1040F02D94FF08B
:1023C000040A01E0C0F1070AD14600F1040ABAF19B
:1023D000070F02D24FF0000A01E0A0F1030AD44631
:1023E0004FF0010A0AFA09FAAAF1010A0AEA020AF6
:1023F0000AFA0CFA4FF0010B0BFA0CFBABF1010BD4
:102400000BEA030B4AEA0B042146404603F048FD61
:1024100000F000B830BCBDE8C09F000000BF00F075
:102420000702064B19684FF6FF031940044B0B4394
:1024300043EA0221014B196000BF70470CED00E038
:102440000000FA050246B2F5007F2AD11D48006857
:1024500000F4C060B0F5007F32D01A48006820F464
:10246000C06040F40070174B1860174800683223B2
:102470005843164BB0FBF3F0411C00E0491E1148D5
:10248000406900F48060B0F5806F01D10029F5D17A
:102490000C48406900F48060B0F5806F10D10320D3
:1024A00070470848006800F4C060B0F5806F07D03E
:1024B0000448006820F4C06040F48060014B18605C
:1024C0000020EDE7007000406800002040420F004F
:1024D0000248006800F4C0607047000000700040CF
:1024E0002DE9F84304460025A846208800F4006042
:1024F000B0F5006F26D1606C68B1B0F5000F03D065
:10250000B0F5400F0ED10CE0D548C06840F48030E3
:10251000D349C86008E00021201D02F06BFB05468E
:1025200002E001E0012500BF00BF55B9CC4888306A
:10253000006820F44000616C0843C949C1F8880074
:1025400000E0A846206800F40030B0F5003F75D1E7
:102550004FF00009C248806D012121EA107078B166
:1025600000BFBF48806D40F08050BD498865084677
:10257000806D00F08050009000BF00BF4FF0010957
:10258000B848006840F48070B6490860FFF75AFE0A
:10259000074606E0FFF756FEC01B022801D90325B7
:1025A00005E0B048006800F480700028F2D000BF59
:1025B0007DBBAB489030006800F44076CEB1A06D92
:1025C000B04216D0A6489030006820F44076A44867
:1025D000D0F8900040F48030A149C1F8900008463E
:1025E000D0F8900020F48030C1F890000846C0F880
:1025F000906006F00100A8B1FFF724FE074609E04D
:10260000FFF720FEC01B41F28831884202D9032522
:1026100007E016E092489030006800F002000028C1
:10262000EED000BF5DB98E489030006820F4407055
:10263000A16D08438A49C1F8900003E00CE0A84668
:1026400000E0A846B9F1010F05D18548806D20F062
:1026500080508349886500BF207800F0010048B1B0
:102660007F488830006820F00300216A08437C49D5
:10267000C1F88800207800F00200022809D17848CB
:102680008830006820F00C00616A08437449C1F882
:102690008800207800F00400042809D170488830B0
:1026A000006820F03000A16A08436D49C1F8880035
:1026B000207800F02000202809D16948883000687F
:1026C00020F44060E16A08436549C1F88800208829
:1026D00000F40070B0F5007F09D1614888300068CF
:1026E00020F44020E16B08435D49C1F88800208850
:1026F00000F48060B0F5806F09D1594888300068D7
:1027000020F44010216C08435549C1F88800207816
:1027100000F04000402809D151488830006820F47A
:102720004050216B08434E49C1F88800207800F0E2
:102730008000802809D14A488830006820F4404051
:10274000616B08434649C1F88800208800F4807016
:10275000B0F5807F09D142488830006820F44030CD
:10276000A16B08433E49C1F88800206800F40020AE
:10277000B0F5002F1FD13A488830006820F0406043
:10278000A16C0843364988310860A06CB0F1006F35
:1027900006D13348C06840F480103149C8600AE06F
:1027A000A06CB0F1806F06D10121201D02F022FA49
:1027B000054605B1A846206800F48020B0F5802FBA
:1027C0001FD127488830006820F04060E16C084342
:1027D000234988310860E06CB0F1006F06D12048D1
:1027E000C06840F480101E49C8600AE0E06CB0F197
:1027F000806F06D10121201D02F0FCF9054605B1CC
:10280000A846208800F48040B0F5804F14D11448C9
:102810008830006820F04050216D0843104988310D
:102820000860206DB0F1805F06D10221201D02F00A
:10283000E1F9054605B1A846208800F40040B0F54E
:10284000004F09D106488830006820F08040616D53
:1028500008430349C1F888004046BDE8F8830000FA
:1028600000100240007000402DE9F04104460D4682
:1028700014B90120BDE8F0816348006800F007004A
:10288000A8420ED26048006820F0070028435E4945
:1028900008600846006800F00700A84201D0012047
:1028A000E8E7207800F0020002280ED15749A0681E
:1028B000896801F0F001884207D95448806820F007
:1028C000F000A168084351498860207800F00100B9
:1028D00078B36068032806D14C48006800F00070A7
:1028E000D8B90120C6E76068022806D147480068C9
:1028F00000F4003088B90120BCE7606830B9434873
:10290000006800F0020040B90120B3E73F480068CA
:1029100000F4806008B90120ACE73C48806820F0F2
:1029200003006168084339498860FFF78BFC06465D
:1029300009E010E0FFF786FC801B41F288318842F5
:1029400001D9032096E73148806800F00C006168E7
:10295000B0EB810FEED1207800F0020002280ED1FA
:102960002A49A068896801F0F001884207D2274807
:10297000806820F0F000A16808432449886022485C
:10298000006800F00700A8420ED91F48006820F038
:10299000070028431C4908600846006800F007004B
:1029A000A84201D0012065E7207800F00400042847
:1029B00007D11648806820F4E060E16808431349B5
:1029C0008860207800F00800082808D10F48806847
:1029D00020F46050216940EAC1000C49886000F091
:1029E000E9F80A498968C1F30311094A515C01F009
:1029F0001F01C8400749086007480068FFF744FC0A
:102A00000746384636E7000000200240001002402A
:102A1000448C0008680000204000002010B53A48AF
:102A2000006840F0010038490860FFF70BFC0446DD
:102A300006E0FFF707FC001B022801D9032010BDA8
:102A40003148006800F002000028F2D02E480068EB
:102A500020F0F00040F060002B4908600020886002
:102A60002A482B4908602B480068FFF70DFC08B185
:102A70000120E4E7FFF7E6FB044608E0FFF7E2FB8E
:102A8000001B41F28831884201D90320D7E71E4854
:102A9000806800F00C000028F0D11B4800681E4937
:102AA000084019490860FFF7CDFB044606E0FFF730
:102AB000C9FB001B022801D90320C0E712480068A7
:102AC00000F020600028F2D10F49C8600846C068B5
:102AD00040F48050C860002008610846006940F456
:102AE000805008610846006820F4802008600020BB
:102AF0008861401E086204489430006840F4000079
:102B0000C1F8940000209AE70010024000093D003F
:102B10006800002040000020FFF4FEFA0F2202604F
:102B20000D4A926802F0030242600B4A926802F07A
:102B3000F0028260084A926802F4E062C260064ACB
:102B4000926802F46052D2080261044A126802F0EC
:102B500007020A6070470000001002400020024097
:102B600001480068704700006800002000B5FFF7CA
:102B7000F7FF05498968C1F30221044A515C01F05D
:102B80001F01C84000BD000000100240548C000826
:102B900000B5FFF7E5FF05498968C1F3C221044A82
:102BA000515C01F01F01C84000BD00000010024050
:102BB000548C0008F0B500230020DFF8D4C0DCF806
:102BC00008C00CF00C01DFF8C8C0DCF80CC00CF039
:102BD000030719B10C291ED1012F1CD1DFF8B0C099
:102BE000DCF800C00CF0080CBCF1000F06D1DFF8D7
:102BF000A0C0DCF894C0CCF3032305E0DFF890C05C
:102C0000DCF800C0CCF30313DFF888C05CF8233095
:102C100041B9184606E0042901D11F4802E00829FD
:102C200000D11E480C2932D1DFF864C0DCF80CC09A
:102C30000CF00304012C09D0022C02D0032C04D187
:102C400001E0154A04E0154A02E000BF1A4600BF41
:102C500000BFDFF83CC0DCF80CC0CCF3021C0CF168
:102C60000106DFF82CC0DCF80CC0CCF3062C0CFB02
:102C700002FCBCFBF6F2DFF818C0DCF80CC0CCF3A9
:102C8000416C0CF1010C4FEA4C05B2FBF5F0F0BDC4
:102C9000001002405C8C00080024F40000127A004E
:102CA0002DE9F843044614B90120BDE8F883F9483A
:102CB000806800F00C06F748C06800F00307207831
:102CC00000F01000102877D11EB10C2E76D1012F04
:102CD00074D1F048006800F0020018B1A06908B98A
:102CE0000120E2E7EB48216A006800F0080020B10B
:102CF000E848006800F0F00005E0E648943000681D
:102D000000F47060000981421FD9206A02F036F891
:102D100008B10120C9E700BFDE48006840F00800A4
:102D2000DC4908600846006820F0F000216A08438A
:102D3000D849086000BF0846406820F47F40E16938
:102D400040EA0120D34948601FE000BFD148006835
:102D500040F00800CF4908600846006820F0F00005
:102D6000216A0843CB49086000BF0846406820F448
:102D70007F40E16940EA0120C64948602EB9206AD7
:102D800001F0FCFF08B101208FE7FFF713FFC149F5
:102D90008968C1F30311C04A515C01F01F01C840AA
:102DA000BE490860BE480068FFF76EFA8046B8F179
:102DB000000F4ED0404678E74BE0FFE7A06980B3B4
:102DC000B448006840F00100B2490860FFF73AFAE1
:102DD000054606E0FFF736FA401B022801D903201A
:102DE00063E7AC48006800F002000028F2D000BFA2
:102DF000A848006840F00800A64908600846006836
:102E000020F0F000216A0843A249086000BF08468C
:102E1000406820F47F40E16940EA01209D49486014
:102E200017E0FFE79B48006820F00100994908601F
:102E3000FFF708FA054606E0FFF704FA401B0228F0
:102E400001D9032031E79348006800F00200002810
:102E5000F2D1207800F0010000285CD0082E03D0C9
:102E60000C2E0AD1032F08D18A48006800F40030E4
:102E700088B3606878BB012017E700BF6068B0F5D1
:102E8000803F06D18348006840F480308149086063
:102E90001AE06068B0F5A02F0BD17E48006840F4BE
:102EA00080207C4908600846006840F48030086053
:102EB0000AE07848006820F48030764908600846C7
:102EC000006820F48020086000BF606890B1FFF7C0
:102ED000B9F9054607E01EE0FFF7B4F9401B642886
:102EE00001D90320E1E66B48006800F400300028B7
:102EF000F2D010E0FFF7A6F9054606E0FFF7A2F9C9
:102F0000401B642801D90320CFE66248006800F422
:102F100000300028F2D1207800F00200022852D1BF
:102F2000042E03D00C2E14D1022F12D15948006860
:102F300000F4806018B1E06808B90120B5E6554892
:102F4000406820F0F850217C40EA01605149486017
:102F500039E0E06800B34F48006840F480704D49A4
:102F60000860FFF76FF9054606E0FFF76BF9401BB5
:102F7000022801D9032098E64648006800F48060E2
:102F80000028F2D04348406820F0F850217C40EA05
:102F900001604049486016E03E48006820F48070B7
:102FA0003C490860FFF74EF9054606E0FFF74AF98D
:102FB000401B022801D9032077E63648006800F458
:102FC00080600028F2D1207800F00800082836D16F
:102FD0006069D0B12F489430006840F001002D495D
:102FE000C1F89400FFF72EF9054606E0FFF72AF92D
:102FF000401B022801D9032057E626489430006878
:1030000000F002000028F1D019E022489430006856
:1030100020F001001F49C1F89400FFF713F905469D
:1030200006E0FFF70FF9401B022801D903203CE618
:1030300018489430006800F002000028F1D1207890
:1030400000F00400042872D14FF000091148806D8F
:1030500000F0805078B900BF0E48806D40F080507D
:103060000C4988650846806D00F08050009000BFD4
:1030700000BF4FF001090B48006800F4807000BBEE
:103080000848006840F4807006490860FFF7DAF8E5
:10309000054610E000100240448C00086800002043
:1030A0004000002000700040FFF7CCF8401B0228D1
:1030B00001D90320F9E5CA48006800F480700028AF
:1030C000F2D000BFA068012808D1C648006840F0CF
:1030D0000100C4499039C1F8900021E0A06805289A
:1030E0000FD1C048006840F00400BE499039C1F8D3
:1030F00090000846D0F8900040F00100C1F8900020
:103100000EE0B848006820F00100B6499039C1F8D7
:1031100090000846D0F8900020F00400C1F890001C
:1031200000BFA068A0B1FFF78DF8054609E02EE0CA
:10313000FFF788F8401B41F28831884201D903200B
:10314000B3E5A848006800F002000028F0D012E0C3
:10315000FFF778F8054608E0FFF774F8401B41F2E6
:103160008831884201D903209FE59E48006800F01D
:1031700002000028F0D1B9F1010F07D19948903829
:10318000806D20F0805097499039886500BF207885
:1031900000F02000202838D1606AD8B1914808306A
:1031A000006840F001008F499039C1F89800FFF79E
:1031B00049F8054606E0FFF745F8401B022801D90B
:1031C000032072E587480830006800F002000028FC
:1031D000F1D01AE083480830006820F001008149EE
:1031E0009039C1F89800FFF72DF8054606E0FFF783
:1031F00029F8401B022801D9032056E579480830F8
:10320000006800F002000028F1D1A06A00287DD0FB
:10321000A06A02287BD173489038C76807F0030181
:10322000E06A814225D107F07001206B401EB1EBAE
:10323000001F1ED107F4FE41606BB1EB002F18D1C7
:1032400007F078413820005DB1EBC06F11D107F471
:10325000C001A08F0122C2EB5000B1EB405F08D14A
:1032600007F0C0614020005DC2EB5000B1EB406F41
:1032700066D00C2E62D05B489038006800F0806009
:1032800008B1012011E557489038006820F080709F
:10329000544990390860FEF7D5FF054606E0FEF771
:1032A000D1FF401B022801D90320FEE44D4890388D
:1032B000006800F000700028F1D1D4E90B10401E26
:1032C00041EA0011606B41EA0021A08F0122C2EBAC
:1032D000500041EA40514020005DC2EB500041EAFD
:1032E00040613820005D41EAC0603E499039C968BC
:1032F0003D4A114008433B499039C8600846006880
:1033000040F0807008600846C06801E053E03DE08E
:1033100040F08070C860FEF795FF054606E0FEF7B6
:1033200091FF401B022801D90320BEE42D489038AC
:10333000006800F000700028F1D04FE00120B4E4F4
:1033400028489038006800F00070A0BB25489038ED
:10335000006840F080702349903908600846C068D2
:1033600040F08070C860FEF76DFF054606E0FEF78E
:1033700069FF401B022801D9032096E419489038C0
:10338000006800F000700028F1D027E00C2E23D058
:1033900014489038006820F0807012499039086015
:1033A000FEF750FF054607E0FEF74CFF401B0228E2
:1033B00002D9032079E411E00A489038006800F04F
:1033C00000700028F0D107489038C06807490840CD
:1033D00004499039C86001E0012066E4002064E4FB
:1033E00000700040901002408C809D01FCFFEEFEBA
:1033F00070B504460CB9012070BD606A38B96068C8
:10340000B0F5827F00D105E00021E16102E00021FA
:10341000216161610021A16294F85D0028B900205A
:1034200084F85C00204600F05BF8022084F85D0020
:103430002068006820F0400021680860E068B0F56E
:10344000E06F01D9002501E04FF48055E068B0F548
:10345000706F05D0E068B0F5E06F01D00021A16287
:10346000A08800F48270218901F404410843217C82
:1034700001F002010843217D01F001010843218B85
:1034800001F400710843217F01F038010843202135
:10349000095D01F080010843218D01F400510843CA
:1034A000216808600421A06901EA104094F8241002
:1034B00001F01001084394F8341001F008010843AA
:1034C000A18901F47061084305F480510843216823
:1034D000486000202066012084F85D0000208BE712
:1034E00010B586B00446142101A8FCF72AFF2F4925
:1034F000206888422AD100BF2D48006E40F48050D9
:103500002B4908660846006E00F48050009000BF0A
:1035100000BF00BF0846C06C40F00100C864084608
:10352000C06C00F00100009000BF00BFA02001901F
:1035300002200290002003900320049005200590B3
:1035400001A94FF09040FEF78FFD2DE0194920684A
:10355000884229D100BF1648806D40F4804014494C
:1035600088650846806D00F48040009000BF00BF71
:1035700000BF0846C06C40F00200C8640846C06C3A
:1035800000F00200009000BF00BF4FF460400190C7
:103590000220029000200390032004900520059053
:1035A00001A90548FEF760FD06B010BD00300140DE
:1035B0000010024000380040000400482DE9FF5F81
:1035C0000446894692461D460E9E01200190002029
:1035D000009000BF94F85C00012803D1022004B0E1
:1035E00000F04AB9012084F85C0000BFFEF72AFE13
:1035F000074694F85D00029060680390A846AB46C9
:10360000029801280BD00398B0F5827F04D1A068FE
:1036100010B90298042802D00220009022E1B9F1EA
:10362000000F03D0BAF1000F00D015B901200090AF
:1036300018E194F85D00042802D0052084F85D00AC
:1036400000202066C4F840A0A4F84650A4F84450D6
:10365000C4F83890E587A587E0642065E068B0F598
:10366000E06F02D8BBF1010F06D92068406820F452
:1036700080502168486005E02068406840F4805030
:10368000216848602068006800F04000402805D0AC
:103690002068006840F0400021680860E068B0F5EC
:1036A000E06F4ED9606810B1B8F1010F09D1A06B7D
:1036B00000882168C860A06B801CA063E08F401E5A
:1036C000E08736E02068806800F00200022810D110
:1036D000E08F70B1019801280BD1A06B00882168A0
:1036E000C860A06B801CA063E08F401EE0870020B4
:1036F00001902068806800F0010080B1B4F84600B5
:1037000068B12068C068216C0880206C801C20642F
:10371000B4F84600401EA4F8460001200190FEF7D0
:1037200091FDC01BB04204D3701C10B10320009067
:1037300098E0E08F0028C5D1B4F846000028C1D138
:1037400085E0606810B1B8F1010F17D1E08F012852
:103750000AD9A06B00882168C860A06B801CA06398
:10376000E08F801EE08709E0A06B00782168087375
:10377000A06B401CA063E08F401EE08760E02068E3
:10378000806800F0020002281ED1E08FE0B10198AD
:10379000012819D1E08F01280AD9A06B008821687F
:1037A000C860A06B801CA063E08F801EE08709E0EA
:1037B000A06B007821680873A06B401CA063E08FA9
:1037C000401EE087002001902068806800F0010022
:1037D00058B3B4F8460040B3B4F84600012816D9EF
:1037E0002068C068216C0880206C801C2064B4F8BC
:1037F0004600801EA4F84600B4F84600012812D8FE
:103800002068406840F48050216848600BE02068E0
:10381000007B216C0870206C401C2064B4F84600CA
:10382000401EA4F8460001200190FEF70BFDC01BCE
:10383000B04201D3701C00B916B90320009011E00A
:10384000E08F00289BD1B4F84600002897D13A4673
:103850003146204601F0F4FA18B1012000902020F2
:10386000206600BF012084F85D0000BF002084F8BE
:103870005C0000BF0098B2E630BCBDE8C09F704756
:103880007047704710B504460CB9012010BD94F87C
:103890003D0028B9002084F83C00204600F029F8BB
:1038A000022084F83D00211D206801F055FC012014
:1038B00084F8480000BF84F83E0001213F200155F4
:1038C000402001554120015542200155432001551A
:1038D00000BF00BF012084F8440045200155462068
:1038E00001554720015500BF012084F83D0000200C
:1038F000CCE77047014691F83D00012801D0012036
:103900007047022081F83D000868C06840F001005F
:103910000B68D860124B0868984207D00868B0F16D
:10392000804F03D00F4B0868984210D10868806818
:103930000D4B00EA0302062A0FD0B2F5803F0CD0EF
:103940000868006840F001000B68186005E008682E
:10395000006840F001000B6818600020D0E700000C
:10396000002C01400040014007000100704710B5E5
:10397000044620680069C0F34000D8B12068C068E0
:10398000C0F34000B0B16FF002002168086101206F
:1039900020772068806900F0030018B12046FFF707
:1039A000E5FF05E0204600F0BEF8204600F0BCF838
:1039B0000020207720680069C0F38000D8B120681B
:1039C000C068C0F38000B0B16FF0040021680861E6
:1039D000022020772068806900F4407018B12046EA
:1039E000FFF7C4FF05E0204600F09DF8204600F0F8
:1039F0009BF80020207720680069C0F3C000D8B190
:103A00002068C068C0F3C000B0B16FF00800216842
:103A10000861042020772068C06900F0030018B115
:103A20002046FFF7A3FF05E0204600F07CF8204683
:103A300000F07AF80020207720680069C0F30010B9
:103A4000D8B12068C068C0F30010B0B16FF01000AA
:103A500021680861082020772068C06900F4407060
:103A600018B12046FFF782FF05E0204600F05BF822
:103A7000204600F059F8002020772068006900F007
:103A8000010058B12068C06800F0010030B16FF04B
:103A9000010021680861204600F048F820680069AC
:103AA000C0F3C01058B12068C068C0F3C01030B176
:103AB0006FF08000216808612046FFF7E1FE206872
:103AC0000069C0F3002058B12068C068C0F3C0107E
:103AD00030B16FF48070216808612046FFF7CFFE97
:103AE00020680069C0F3801058B12068C068C0F336
:103AF000801030B16FF0400021680861204600F06E
:103B000021F820680069C0F3401058B12068C068EF
:103B1000C0F3401030B16FF02000216808612046EA
:103B2000FFF7AFFE10BD70477047000010B50446A8
:103B300003492068884201D1FEF78AFB10BD0000CE
:103B4000002C014070477047704770B50446A56F60
:103B5000E66F2068806800F08000802823D1212D46
:103B600021D100BF00BF2168083151E8001F21F0BA
:103B700080002168083141E80002002AF3D100BF2B
:103B8000E06E68B1E06EFDF785FF48B1E06EFDF7CD
:103B9000DCFF202804D11020C4F88000032070BD71
:103BA000204601F0E4FC2068806800F040004028D6
:103BB00023D1222E21D100BF00BF2168083151E856
:103BC000001F21F040002168083141E80002002A6E
:103BD000F3D100BF206F68B1206FFDF75BFF48B1E4
:103BE000206FFDF7B2FF202804D11020C4F8800018
:103BF0000320D4E7204601F071FC0020CFE7704796
:103C00002DE9F04704462068C569206806682068E9
:103C1000876840F60F0005EA0009B9F1000F0CD1E2
:103C200005F0200048B106F0200030B1606E10B100
:103C30002046616E8847BDE8F087B9F1000F7DD05E
:103C400007F0010018B9BE4830400028F7D005F051
:103C5000010058B106F4807040B10120216808626B
:103C6000D4F8800040F00100C4F8800005F00200A4
:103C700058B107F0010040B1022021680862D4F871
:103C8000800040F00400C4F8800005F0040058B142
:103C900007F0010040B1042021680862D4F88000D8
:103CA00040F00200C4F8800005F0080070B106F092
:103CB000200010B907F0010040B108202168086217
:103CC000D4F8800040F00800C4F8800005F40060DB
:103CD00060B106F0806048B14FF40060216808626E
:103CE000D4F8800040F02000C4F88000D4F88000B0
:103CF00000284BD005F0200038B106F0200020B19C
:103D0000606E10B12046616E8847D4F880A02068AC
:103D1000806800F04000402802D00AF0280070B30C
:103D2000204601F0DBFB2068806800F0400040285E
:103D300021D100BF00BF2168083100E027E051E831
:103D4000001F21F040002168083141E80002002AEC
:103D5000F1D100BF206F50B17A48216F8863206F86
:103D6000FDF7C5FE90B1206F816B88470EE02046BD
:103D7000FFF745FF0AE02046FFF741FF06E0FFE7B7
:103D80002046FFF73CFF0020C4F8800053E7206E78
:103D900001286FD105F0100000286BD006F010004C
:103DA0000028FAD01020216808622068806800F09E
:103DB000400040285FD1206F006840681FFA80F8FB
:103DC000B8F1000F55D0B4F85800404551DDA4F8C3
:103DD0005A80206F0068006800F02000E8BB00BF38
:103DE00000BF216851E8001F21F48070226842E87A
:103DF00000010029F5D100BF00BF00BF21680831D4
:103E000051E8001F21F001002168083141E800025B
:103E1000002AF3D100BF00BF00BF2168083151E87C
:103E2000001F21F040002168083141E80002002A0B
:103E3000F3D100BF2020E0670020206600BF00BF54
:103E4000216851E8001F21F01000226842E80001BB
:103E50000029F5D100BF206F00E001E0FDF71AFE58
:103E6000B4F85800B4F85A20801A81B22046FFF7FF
:103E70006AFEE0E63EE034F8580F6188401A1FFA07
:103E800080F86088583CA0B3B8F1000F31D000BF73
:103E900000BF216851E8001F21F49070226842E8B9
:103EA00000010029F5D100BF00BF00BF2168083123
:103EB00051E8001F21F001002168083141E80002AB
:103EC000002AF3D100BF2020E06700202066606652
:103ED00000BF00BF216851E8001F21F010002268D8
:103EE00042E800010029F5D100BF41462046FFF716
:103EF0002AFEA0E605F4801050B107F4800038B126
:103F00004FF48010216808622046FFF71DFE92E6FC
:103F100005F0800040B106F0800028B1A06E10B11D
:103F20002046A16E884786E605F0400030B106F0D5
:103F3000400018B1204601F003FB7CE600BF7AE6A2
:103F4000200100043753000810B504460CB90120C5
:103F500010BDA06900B100E000BFA06F28B900202B
:103F600084F87400204600F029F82420A067206817
:103F7000006820F0010021680860204601F008FB7D
:103F8000012800D1E4E7606A10B1204601F01EF973
:103F90002068406820F4904021684860206880686C
:103FA00020F02A00216888602068006840F0010045
:103FB00021680860204601F085F9C9E710B59EB078
:103FC0000446142119A8FCF7BCF95C2102A8FCF7EF
:103FD000B8F99B492068884276D1012002900020E0
:103FE0000A9002A8FEF77CFA08B1FCF78BFF00BF2D
:103FF0009448006E40F48040924908660846006E7E
:1040000000F48040019000BF00BF00BF0846C06CB4
:1040100040F00100C8640846C06C00F00100019047
:1040200000BF00BF4FF4C060199002201A9000201A
:104030001B9003201C9007201D9019A94FF0904061
:10404000FEF712F88048814908600220486000218C
:104050007E488160C16080210161002141618161F0
:104060002021C16100210162FDF7F2FD08B1FCF7DA
:1040700049FF00BF75482067846200BF724814384A
:104080007349086002204860102171488160002156
:10409000C16080210161002141618161C1610162D2
:1040A000FDF7D6FD08B1FCF72DFF00BF6848E066BC
:1040B000846200BF002208212520FEF76DF925202B
:1040C000FEF756F9BAE0FFE76249206888423CD122
:1040D0000220029000200B9002A8FEF701FA08B11E
:1040E000FCF710FF00BF5748806D40F40030554981
:1040F00088650846806D00F40030019000BF00BF65
:1041000000BF0846C06C40F00100C8640846C06C9F
:1041100000F00100019000BF00BF0C2019900220A8
:104120001A9000201B9003201C9007201D9019A9B5
:104130004FF09040FDF798FF002207212620FEF760
:104140002BF92620FEF714F978E0434920688842CD
:1041500074D10420029000200C9002A8FEF7C0F950
:1041600008B1FCF7CFFE00BF3648806D40F48020D8
:10417000344988650846806D00F48020019000BFB6
:1041800000BF00BF0846C06C40F00200C86408468B
:10419000C06C00F00200019000BF00BF4FF440600F
:1041A000199002201A9000201B9003201C900720D9
:1041B0001D9019A92948FDF757FF23482838284999
:1041C000086002204860002125488160C16080218C
:1041D00001610021416181612021C16100210162F1
:1041E000FDF736FD08B1FCF78DFE00BF1C482067C7
:1041F000846200BF14483C381A49086002204860B5
:104200001021184881600021C160802101610021D6
:1042100041618161C1610162FDF71AFD08B1FCF7DE
:1042200071FE00BF0F48E066846200BF00220721D4
:104230002720FEF7B1F82720FEF79AF81EB010BD30
:104240000038014000100240580002404C16002087
:10425000941600200044004000480040000400483C
:10426000DC1600202417002070B504460D461646C3
:10427000E06F20282CD105B10EB9012070BD00BF20
:1042800094F87400012801D10220F7E7012084F896
:10429000740000BF002020660E492068884211D0BB
:1042A0002068406800F4000060B100BF00BF2168D2
:1042B00051E8001F41F08060226842E800010029B7
:1042C000F5D100BF32462946204601F0DDFAD5E798
:1042D0000220D3E7008000401CB504461D49206839
:1042E000884218D101201C4908700020019001A8C3
:1042F00000231A46194600901848006804F098F9FF
:10430000019838B14FF0805015490860BFF34F8FC6
:10431000BFF36F8F00BF13492068884218D1012076
:10432000114908700020019001A800231A4619467F
:1043300000900E48006804F07BF9019838B14FF006
:10434000805007490860BFF34F8FBFF36F8F00BFE6
:104350001CBD000000380140180000200C000020A7
:1043600004ED00E0004800401C0000201400002084
:1043700070472DE9F84F04460E4617469946A06F40
:1043800020285DD106B117B9012000F05BB800BF4D
:1043900094F87400012801D10220F6E7012084F886
:1043A000740000BF0020503420632120A062FDF77C
:1043B00049FF824627806780503CA068B0F5805F47
:1043C00004D1206910B90025B04602E035464FF00F
:1043D000000800BF002084F8740000BF1DE05346B1
:1043E000002280212046CDF8009001F0B7FA08B1F4
:1043F0000320CAE745B9B8F80000C0F308002168F7
:10440000088508F1020803E02878216808856D1CFA
:10441000B4F85200401EA4F85200B4F8520000282C
:10442000DDD15346002240212046CDF8009001F016
:1044300095FA08B10320A8E72020A0670020A4E790
:104440000220A2E718BCBDE8E08F000070B504466A
:104450000E461546A06F202853D106B10DB9012094
:1044600070BD00BF94F87400012801D10220F7E765
:10447000012084F8740000BF44F84C6FA580E580EB
:10448000002060632120E062206A4C3C00B31E489B
:10449000E16EC8621D48E16E08631D48E16E486325
:1044A0000020E16E8863236803F128022B46E16C4B
:1044B000E06EFDF753FC58B11020C4F8800000BF37
:1044C000002084F8740000BF2020A0670120C7E707
:1044D00040202168086200BF002084F8740000BFFB
:1044E00000BF00BF2168083151E8001F41F0800083
:1044F0002168083141E80002002AF3D100BF002002
:10450000AEE70220ACE7000079540008CF54000861
:104510004F530008074A0168914202D10021064A20
:104520001170064A0168914202D10021044A1170BB
:10453000704700000038014019000020004800408A
:104540001D000020704700BFFEE7000070B5114855
:1045500004684568B4F1005F02D20F48844205D870
:104560000E48844202D8B4F1805F05D221460CA0E7
:1045700001F07EFC002070BD0648854202D30E4843
:10458000854205D929460DA001F072FC0020F2E712
:104590000120F0E7000001080040001000000120A9
:1045A000617070537461636B506F696E74657220D3
:1045B0003A30782578000000FFFF03080D0A61708B
:1045C00070526573657448616E646C65723A3078D8
:1045D0002578000070B529480468B4F1005F02D264
:1045E0002748844205D82748844202D8B4F1805F26
:1045F00004D2214624A001F03BFC70BD72B600201D
:104600004FF0E02108614861886100BF08E04FF089
:10461000FF32234941F82020224941F82020401C44
:104620000828F4D300BF00BF00BFBFF34F8F00BF07
:1046300000BF00BF00BF00BF00BFBFF36F8F00BF50
:1046400000BF00BFFEF7EAF9FDF7D6FB1648006889
:1046500020F080701449086000BF1348006800F023
:1046600000700028F9D100BF84F3088800BF034818
:10467000456862B6A84700BFFEE7000000000108D9
:104680000040001000000120617070537461636B82
:10469000506F696E746572203A307825780000009A
:1046A00080E100E080E200E000100240024602F1FA
:1046B000600000EB8103186800F0F8407047014685
:1046C0008868C0F3C00070470146886800F00100A8
:1046D000704701468868C0F30070704701468868DB
:1046E000C0F38000704770B500F11404C1F3406559
:1046F00004EB85031C68C1F304560725B540AC43A1
:10470000C1F3045502FA05F52C431C6070BD8268A4
:1047100022F0E0720A438260704710B500F1600435
:1047200004EB81031C6824F0004414431C6010BD9A
:1047300000B587B0182101A8FBF703FE1A481B49F2
:10474000086000204860002118488160C160016154
:10475000042141610021017641760121C1610021DE
:1047600080F820108162C16280F83010416380F8C7
:104770003810FDF73BF808B1FCF7C4FB0C4801907A
:1047800006200290022003907F20049004200590D0
:104790000020069001A90548FCF7BEFD08B1FCF712
:1047A000B1FB07B000BD00000000045094030020DE
:1047B0000002B02508B500BF1648806C40F001002B
:1047C000144988640846806C00F00100009000BF26
:1047D00000BF002208210C20FDF7DEFD0C20FDF7B4
:1047E000C7FD002208210D20FDF7D6FD0D20FDF7A5
:1047F000BFFD002209210E20FDF7CEFD0E20FDF7A2
:10480000B7FD002209210F20FDF7C6FD0F20FDF79F
:10481000AFFD08BD0010024000B587B01C2206495C
:104820006846FBF775FD0021684602F0D9F8034998
:10483000086007B000BD0000288C000804000020BC
:1048400000B587B0142102A8FBF77BFD00BF5C48D0
:10485000C06C40F004005A49C8640846C06C00F0BF
:104860000400019000BF00BF00BF0846C06C40F0CC
:104870008000C8640846C06C00F08000019000BF52
:1048800000BF00BF0846C06C40F00100C864084685
:10489000C06C00F00100019000BF00BF00BF0846DF
:1048A000C06C40F00200C8640846C06C00F0020012
:1048B000019000BF00BF00224FF481714FF0904083
:1048C000FDF7BAFC002241F207013E48FDF7B4FCB7
:1048D000012228213B48FDF7AFFC02200290002076
:1048E0000390049002A93848FDF7BEFB0220029015
:1048F0000120039004900220059002A94FF09040FF
:10490000FDF7B2FB402002900020039002200490AB
:1049100002A94FF09040FDF7A7FB41F2070002907B
:1049200001200390002004900220059002A9254850
:10493000FDF79AFB4FF48070029001200390002055
:1049400004900220059002A94FF09040FDF78CFBE7
:104950004FF4006002904FF48810039001200490FF
:1049600002A94FF09040FDF77FFB4FF410400290FA
:10497000002003900120049002A94FF09040FDF721
:1049800073FB2820029001200390049000200590E2
:1049900002A90C48FDF768FB10200290002003904C
:1049A000049002A90748FDF75FFB00220B21282095
:1049B000FDF7F2FC2820FDF7DBFC07B000BD00008E
:1049C0000010024000040048001C004810B51248C6
:1049D000124908604FF48270486000210F488160DE
:1049E0004FF4E061C1600021016141614FF4007149
:1049F00081612021C1610021016241628162072140
:104A0000C1620021016308214163FEF7F1FC08B196
:104A1000FCF778FA10BD000000300140F8030020D8
:104A200010B51248124908604FF4827048600021A6
:104A30000F4881604FF4E061C16000210161416174
:104A40004FF4007181611821C1610021016241624E
:104A500081620721C1620021016308214163FEF7E1
:104A6000C7FC08B1FCF74EFA10BD0000003800404A
:104A70005C0400201CB5012003F0C4FA1A49086048
:104A80001A48062100234FF48072CDE9001018A1C6
:104A90001A4803F037FD1A481A4908604FF4E1300C
:104AA0004860002117488160C16001610C214161AB
:104AB00000218161C16101620020124948620846FB
:104AC000FFF742FA08B1FCF71DFA4FF480620E4975
:104AD0000C48FFF7C9FB0B480068006840F0100065
:104AE0000849096808601CBD080000200C0000206F
:104AF000526563656976655461736B00FD780008E3
:104B000000380140C0140020C004002010B50D483A
:104B10000D4908604FF4E130486000210A48816087
:104B2000C16001610C21416100218161C1610162AB
:104B30000020054948620846FFF706FA08B1FCF76D
:104B4000E1F910BD00440040441500201CB50120CF
:104B500003F058FA1A4908601A48062100234FF456
:104B60008072CDE9001018A11B4803F0CBFC1B4854
:104B70001B4908604FF416504860002118488160B6
:104B8000C16001610C21416100218161C16101624B
:104B90000020134948620846FFF7D6F908B1FCF730
:104BA000B1F94FF480620F490D48FFF75DFB0C48E7
:104BB0000068006840F010000949096808601CBDE1
:104BC000100000201400002042545265636569768D
:104BD000655461736B000000E974000800480040F0
:104BE000C8150020C00C002000BFFEE700BFFEE794
:104BF000704770472DE9F04104460F4600255B4899
:104C0000C06800F0030090B15848C06800F003008D
:104C10002168884209D1206838B15448C068C0F37F
:104C20000210401C6168884233D0012531E02068C1
:104C3000012804D0022809D003281AD10DE04B48DE
:104C4000006800F0020000B9012514E04748006840
:104C500000F4806000B901250DE04448006800F4CC
:104C6000003028B94148006800F4802000B90125CF
:104C700001E0012500BF00BF5DB9D4E90010401E6E
:104C800041EA00103949C96821F0730108433749E6
:104C9000C860002D67D13548006820F08060334936
:104CA0000860FDF7CFFA064606E0FDF7CBFA801B59
:104CB000022801D9032505E02C48006800F00060B7
:104CC0000028F2D100BFC5BB67B9A0680002217BF4
:104CD00040EAC16025490969254A11400843234932
:104CE000086120E0012F0FD1A0680002218A012273
:104CF000C2EB510140EA41501C4909691D4A11406B
:104D000008431A4908610EE0A0680002217D0122D3
:104D1000C2EB510140EA416014490969164A114049
:104D20000843124908611148006840F080600F494B
:104D30000860FDF787FA064607E014E0FDF782FAFF
:104D4000801B022801D9032505E00848006800F00F
:104D500000600028F2D000BF2DB904480069A169A5
:104D60000843024908612846BDE8F081001002406E
:104D7000FF80FF07FF809FFFFF80FFF9F8B5044623
:104D800000262348806D00F0805018B1FDF7A0FB8D
:104D9000054616E000BF1E48806D40F080501C495B
:104DA00088650846806D00F08050009000BF00BF0D
:104DB000FDF78EFB05461648806D20F080501449A3
:104DC0008865B5F5007F07D1802C10D9A02C01D9BA
:104DD00002260CE001260AE0802C01D9032606E019
:104DE000802C01D1022602E0702C00D10126094856
:104DF000006820F007003043064908600846006854
:104E000000F00700B04201D00120F8BD0020FCE70F
:104E1000001002400020024001B582B00020019045
:104E2000401E012301AA02A900900448FEF7C6FB18
:104E300008B1FF200EBD9DF80400FBE75C040020D4
:104E4000F8B504460E461546334600224FF4C051CD
:104E50002046009500F026F828B1206E40F0200092
:104E600020660320F8BD33460022802120460095AD
:104E700000F098F828B1206E40F020002066032052
:104E8000F0E7334600224FF4C0612046009500F061
:104E900009F828B1206E40F0200020660320E1E7E9
:104EA0000020DFE72DE9FC5F04460D4616461F464D
:104EB000DDF8309000200090FDF7C4F9A0EB090068
:104EC000A7EB0008FDF7BEF98246206800F10C0B45
:104ED00031480068C0EBC00000EB8000000D00FB13
:104EE00008F0019050E0B5F5C06F05D126B99BF8E8
:104EF000000000909DF80000781C002844D0FDF7C9
:104F0000A1F9A0EB0A00404502D2B8F1000F34D15C
:104F10002068406820F0E000216848606068B0F5D3
:104F2000827F0DD1A068B0F5004F03D0A068B0F526
:104F3000806F05D12068006820F04000216808607B
:104F4000A06AB0F5005F0DD100BF2068006820F4B2
:104F50000050216808602068006840F40050216813
:104F6000086000BF012084F85D0000BF002084F8C5
:104F70005C0000BF032000F011B8019808B94FF0A1
:104F800000080198401E0190206880682840B042C7
:104F9000A9D10020EFE70000680000203CBCBDE87C
:104FA000C09F00002DE9F84F04460D4690461E466E
:104FB000DDF82890FDF746F9A0EB0900371AFDF758
:104FC00041F982462C480068C0F3CB30784300900A
:104FD00045E0701C002842D0FDF734F9A0EB0A0030
:104FE000B84200D2A7BB2068406820F0E0002168EA
:104FF00048606068B0F5827F0DD1A068B0F5004FC1
:1050000003D0A068B0F5806F05D12068006820F05B
:10501000400021680860A06AB0F5005F0DD100BFB4
:105020002068006820F4005021680860206800684B
:1050300040F400502168086000BF012084F85D0042
:1050400000BF002084F85C0000BF032000F016B809
:10505000FFE7009800B900270098401E00902068E4
:1050600080682840A84201D1012000E0002040458E
:10507000AFD10020EAE700006800002018BCBDE8BE
:10508000E08F00BF012001F09AFCFBE710B500BFE4
:10509000502080F31188BFF34F8FBFF36F8F00BF95
:1050A00003F08EFB18B14FF080500449086000BF38
:1050B000002080F3118800BF10BD000004ED00E067
:1050C00000B597B0442106A8FBF73BF9142101A8CD
:1050D000FBF737F94FF40070FDF7B4F908B1FBF7AF
:1050E00011FF012006904FF4A0200790022010909D
:1050F000032111910121129114211391072114917F
:1051000002211591169106A8FDF7CAFD08B1FBF71B
:10511000F9FE0F20019003200290002003900490DC
:105120000590042101A8FDF79FFB08B1FBF7EAFEFB
:1051300017B000BD0348006840F4700001490860E2
:105140007047000088ED00E010B50248FEF70FFC44
:1051500010BD00006C1F002010B50268184B98426B
:1051600002D0B0F1804F03D122F070024B681A4395
:10517000134B984208D0B0F1804F05D0114B9842A4
:1051800002D0114B984203D122F44072CB681A43EB
:1051900022F080034C6943EA040202608B68C36218
:1051A0000B688362064B984205D0064B984202D0AA
:1051B000054B984201D10B6903630123436110BD84
:1051C000002C0140004001400044014090F82410B0
:1051D00001F0010139B10168496821F40031826AA6
:1051E00011430268516090F8241001F00201022975
:1051F00007D10168496821F48031C26A114302680D
:10520000516090F8241001F00401042907D10168CD
:10521000496821F48021026B11430268516090F8C3
:10522000241001F00801082907D10168496821F418
:105230000041426B11430268516090F8241001F064
:105240001001102907D10168896821F48051826B0F
:1052500011430268916090F8241001F02001202988
:1052600007D10168896821F40051C26B11430268BB
:10527000916090F8241001F04001402913D1016899
:10528000496821F48011026C114302685160016C7D
:10529000B1F5801F07D10168496821F4C001426C53
:1052A00011430268516090F8241001F080018029B8
:1052B00007D10168496821F40021826C114302681A
:1052C0005160704738B504460020C4F88000FCF7F0
:1052D000B9FF05462068006800F0080008280CD1D6
:1052E0006FF07E402B4600224FF4001100902046C4
:1052F00000F034FB08B1032038BD2068006800F0DE
:10530000040004280CD16FF07E402B4600224FF49D
:1053100080010090204600F021FB08B10320EBE75C
:105320002020A067E0670020206600BF84F874009A
:1053300000BF00BFE0E770B50546AC6A0020A4F8E6
:105340005A00A4F852002046FEF759FC70BD2DE922
:10535000F0410546AC6AA66FE76F2068806800F0F0
:105360008000802807D1212E05D10020A4F852000A
:10537000204600F0FCF82068806800F040004028DB
:1053800007D1222F05D10020A4F85A00204600F0B2
:10539000A5F8D4F8800040F01000C4F88000204642
:1053A000FEF72DFCBDE8F08170B50546AC6A2868B3
:1053B000006800F02000E8BB0020A4F85A0000BFFD
:1053C00000BF216851E8001F21F48070226842E884
:1053D00000010029F5D100BF00BF00BF21680831DE
:1053E00051E8001F21F001002168083141E8000266
:1053F000002AF3D100BF00BF00BF2168083151E887
:10540000001F21F040002168083141E80002002A15
:10541000F3D100BF2020E067206E01280ED100BF2D
:1054200000BF216851E8001F21F01000226842E807
:10543000000100E002E00029F3D100BF206E012846
:1054400005D1B4F858102046FEF77DFB02E0204657
:10545000FEF742FF70BD70B50546AC6A206E0128AC
:1054600006D1B4F8580041082046FEF76CFB02E074
:105470002046FEF77DFF70BD70B50546AC6A286812
:10548000006800F02000F0B90020A4F8520000BF2E
:1054900000BF2168083151E8001F21F08000216819
:1054A000083141E80002002AF3D100BF00BF00BF6D
:1054B000216851E8001F41F04000226842E80001E5
:1054C0000029F5D102E02046FFF724F870BD70B541
:1054D0000446A56A2846FFF735F870BD00BF00BF37
:1054E000026852E8002F22F49071036843E800122A
:1054F000002AF5D100BF00BF00BF0268083252E8A1
:10550000002F22F001010268083242E80013002B4C
:10551000F3D100BF016E01290CD100BF00BF0268AA
:1055200052E8002F22F01001036843E80012002A1D
:10553000F5D100BF2021C167002101664166704797
:1055400010B5044600BF00BF216851E8001F21F0DC
:105550004000226842E800010029F5D100BF202068
:10556000A0670020A0662046FEF7D4FF10BD00BF54
:1055700000BF026852E8002F22F0C001036843E830
:105580000012002AF5D100BF20218167704700007A
:105590002DE9F84F044600200090B2492068884267
:1055A00000D100E000BF2169A06808436169084399
:1055B000E16940EA010A20680068AB49084040EA16
:1055C0000A00216808602068406820F44050E168C3
:1055D000084321684860D4F818A0A249206888428E
:1055E00002D0206A40EA0A0A2068806820F430600D
:1055F00040EA0A002168886000BF9C492068884210
:1056000016D19B48006800F0030030B1012808D093
:10561000022804D0032808D105E0012507E002256F
:1056200005E0042503E0082501E0102500BF54E053
:1056300090492068884216D18D48006800F00C001F
:1056400030B1042808D0082804D00C2808D105E07F
:10565000002507E0022505E0042503E0082501E018
:10566000102500BF39E084492068884216D180485F
:10567000006800F0300030B1102808D0202804D095
:10568000302808D105E0002507E0022505E00425C3
:1056900003E0082501E0102500BF1EE071492068E5
:1056A000884219D17248006800F4406048B1B0F5F2
:1056B000806F0AD0B0F5006F05D0B0F5406F08D10B
:1056C00005E0002507E0022505E0042503E00825A4
:1056D00001E0102500BF00E0102500BF61492068EF
:1056E000884245D135B1022D08D0042D08D0082DAF
:1056F0000DD109E0FDF73AFA06460CE05F4E0AE0EC
:10570000FDF758FA064606E04FF4004603E000268F
:105710000120009000BF00BF002E0AD0606800EB9F
:105720004000B04203D860680003B04202D20120BA
:10573000009090E04FF48070A6FB0030D4F804C0D5
:105740004FEA5C015F1840F10001624600233846D1
:10575000FAF7AAFD8146B9F5407F06D3B9F5801F57
:1057600003D22068C0F80C9075E00120009072E030
:10577000E069B0F5004F3AD1092D17D2DFE805F006
:1057800005090D160F1616161300FDF7EFF906465C
:1057900010E0FDF7FDF906460CE0384E0AE0FDF793
:1057A00009FA064606E04FF4004603E00026012011
:1057B000009000BF00BF8EB37000616800EB510025
:1057C000B0FBF1F9B9F1100F0ED3B9F5803F0BD250
:1057D0004FF6F07009EA000BC9F342004BEA000BE8
:1057E0002068C0F80CB036E00120009033E0092DAD
:1057F00018D2DFE805F005090D170F171717140069
:10580000FDF7B4F9064611E0FDF7C2F906460DE0D2
:105810001A4E0BE0FDF7CEF9064607E01BE04FF409
:10582000004603E000260120009000BF00BF96B1B3
:10583000606806EB50006168B0FBF1F9B9F1100F38
:1058400007D3B9F5803F04D21FFA89F02168C860F8
:1058500001E00120009000206066A066009800F042
:105860000FB8000000800040F369FFEF00380140EE
:105870008810024000440040004800400024F4002A
:1058800018BCBDE8E08F000070B504460E46154612
:105890006665A4F858500020C4F880002220E06714
:1058A000206F00B32A48216FC8622A48216F08631D
:1058B0002948216F48630020216F8863236803F122
:1058C00024012B46626D206FFCF748FA58B1102076
:1058D000C4F8800000BF002084F8740000BF2020BE
:1058E000E067012070BD00BF002084F8740000BF95
:1058F000206960B100BF00BF216851E8001F41F47A
:105900008070226842E800010029F5D100BF00BF85
:1059100000BF2168083151E8001F41F001002168F3
:10592000083141E80002002AF3D100BF00BF00BFE8
:105930002168083151E8001F41F04000216808311A
:1059400041E80002002AF3D100BF0020CAE70000AE
:10595000A9530008575400084F5300082DE9F0419F
:1059600004460D4617469846069E67E0701C0028C0
:1059700064D0FCF767FCA0EB0800B04200D836BB4F
:1059800000BF00BF216851E8001F21F4D0702268D9
:1059900042E800010029F5D100BF00BF00BF216827
:1059A000083151E8001F21F001002168083141E869
:1059B0000002002AF3D100BF2020A067E06700BFEB
:1059C000002084F8740000BF0320BDE8F081206847
:1059D000006800F0040080B32068C069C0F3C020F4
:1059E00058B34FF400602168086200BF00BF21680F
:1059F00051E8001F21F4D070226842E8000100291C
:105A0000F5D100BF00BF00BF2168083151E8001F79
:105A100021F001002168083141E80002002AF3D199
:105A200000BF2020A067E067C4F8800000BF00200E
:105A300084F8740000BF0320C7E7FFE72068C0694F
:105A40002840A84201D1012000E00020B8428DD0BA
:105A50000020BAE770B505460C464FF0FF311048FC
:105A6000006802F02DFC012818D10E48007870B1B2
:105A700000200C4908700C4802880C492846FAF7A7
:105A800047FC09480088206000200749088000235F
:105A90001A4619460248006802F03EFB70BD00003D
:105AA00008000020180000201A000020C004002078
:105AB00070B505460C46B4F5806F00D970BD4FF047
:105AC000FF310C48006802F0FBFB01280FD1A2B2A5
:105AD00029460948FEF7BAFC10B108A000F0C8F941
