:020000040801F1
:10000000D014001085020108595F0108EF5601085D
:10001000555F01086D1C0108857301080000000090
:10002000000000000000000000000000A501010821
:10003000A51F01080000000001020108A9670108CE
:100040009F0201089F0201089F0201089F02010808
:100050009F0201089F0201089F0201089F020108F8
:100060009F0201089F0201089F0201089F020108E8
:100070009F0201089F020108C11C0108D11C010850
:100080009F0201089F0201089F0201089F020108C8
:100090009F0201089F0201089F0201089F020108B8
:1000A0009F020108756801089F0201089F0201086C
:1000B0009F02010800000000000000009F020108EC
:1000C0009F0201089F0201089F0201089F02010888
:1000D0009F02010881720108957201089F020108C0
:1000E0008D2401089F0201080000000000000000AC
:1000F0000000000000000000000000000000000000
:10010000000000009F020108000000009F0201089B
:1001100000000000000000009F0201089F0201088B
:100120009F0201089F0201089F0201089F02010827
:100130009F02010800000000000000000000000015
:100140009F0201089F0201089F02010800000000B1
:100150009F0201089F0201089F0201089F020108F7
:100160009F0201089F0201089F0201080000000091
:100170009F0201089F02010800000000000000002B
:100180009F0201089F0201089F020108DFF810D0BA
:1001900000F024FD00480047F57F0108AFF3008020
:1001A000D01400102C4B1968086800F05AB880F37E
:1001B0000988BFF36F8F4FF0000080F311887047FC
:1001C0000000000008480068006880F308884FF0CD
:1001D000000080F3148862B661B6BFF34F8FBFF39F
:1001E0006F8F00DF00BF00BF08ED00E0DFF80C00FC
:1001F000016841F470010160704700BF88ED00E0C4
:10020000EFF30980BFF36F8F134B1A681EF0100FC6
:1002100008BF20ED108A20E9F04F106009B44FF0BC
:10022000500080F31188BFF34F8FBFF36F8F08F03A
:10023000D5FE4FF0000080F3118809BC19680868EA
:1002400000F014B81EF0100F08BF00F014B880F3CF
:100250000988BFF36F8F7047E0000010EFF305804F
:10026000704730C8B0E8C04FFFF7A1BF30C8B0E852
:10027000C04FFFF7E7BFB0EC088AB0EC08CAFFF741
:10028000E6BF00000648804706480047FEE7FEE755
:10029000FEE7FEE7FEE7FEE7FEE7FEE7FEE7FEE736
:1002A000556801088D0101082DE9F05F0546002021
:1002B00092469B4688460646814640241BE02846D7
:1002C00041464746224600F036FB53465A46C01A7E
:1002D000914110D311461846224600F01DFB2D1AFD
:1002E00067EB01084F4622460120002100F014FB75
:1002F00017EB00094E41201EA4F10104DFDC484643
:1003000031462A46434600F000B830BCBDE8C09FE5
:1003100040EA01039B0703D009E008C9121F08C087
:10032000042AFAD203E011F8013B00F8013B521E07
:10033000F9D27047D2B201E000F8012B491EFBD27E
:1003400070470022F6E710B513460A4604461946E0
:10035000FFF7F0FF204610BDCAB2401E10F8011F83
:100360008A4202D00029F9D10020704730B50546F5
:100370000020034600E05B1C934205D2EC5CC85CA5
:10038000201A01D1002CF6D130BD00000FB400B509
:100390008DB010A909900B9000914FF0FF300A909A
:1003A00000200C9005480690054807906A4609A869
:1003B0000F9900F005FB0DB05DF814FBDD09010895
:1003C000FB0901082DE9FF5F1D464FF0FF3BD5E912
:1003D000014691465F464FF00008A9697F1C0198CD
:1003E0008847296A824688470028F6D1BAF1FF3F3C
:1003F0000CD024F4C064002E19DD600614D5BAF1C7
:100400002B0F09D0BAF12D0F0ED103E0584604B0DE
:1004100000F07EB844F48064A9697F1C0198884785
:10042000761E8246002E02DDBAF1300F03D0B9F1FC
:10043000000F26D032E0A969761E44F400747F1CB8
:10044000019888478246002E05DDBAF1780F06D064
:10045000BAF1580F03D0B9F1000F10D01EE0B9F176
:10046000000F02D0B9F1100F18D1A969761E24F43B
:1004700000747F1C019888478246102002E0082003
:1004800000E00A20814609E008FB0908A969761EF8
:1004900044F400747F1C019888478246002E05DDD5
:1004A0004946504600F077FA0028EDDAE9690198EC
:1004B0008847A00502D46FF00100A8E7E00725D126
:1004C000600613D5600502D5C8F1000000E0404683
:1004D00029680A1D2A600968220501D5087015E0FF
:1004E000220701D5088011E008600FE02868011D8F
:1004F00029600068210502D580F8008006E0210708
:1005000002D5A0F8008001E0C0F8008038467EE700
:1005100030BCBDE8C09F2DE9F04791460F468046AC
:100520000446002614F8015B2DB100F027FA00689C
:10053000405DC007F6D12B2D02D02D2D18D0641EA2
:100540004A463946204600F069FA27B13968A14287
:1005500001D1C7F8008071054FF002040BD540426D
:10056000002803DD07F0CAF80460A007BDE8F087A3
:1005700046F48066E4E70028F8DA07F0BFF8046084
:100580006FF00040F2E770B5064607F0B7F8046870
:1005900005460A2200213046FFF7BDFF2C6070BDE2
:1005A0002DE9FE4F804681EA0300C00F0C46009003
:1005B00021F0004123F00045B8EB0200A94105D22B
:1005C0004046214690461C460B46024623F000401A
:1005D000104347D0270DC7F30A00C3F30A51029016
:1005E000401A019040286BDAC3F3130040F4801BDB
:1005F0000098924620B10023D2EB030A63EB0B0B69
:1006000001985946C0F14002504600F085F906466F
:100610000D4650465946019A00F09DF910EB08002E
:100620006141002487EA115284EAE7731A4340D0FB
:10063000009A62B3019A012A4FEA075215DC001BA7
:1006400061EB02014FF0004202EA0752CDE900429D
:10065000001C41F5801132462B4600F040FA03B0F1
:1006600000F045B840462146F9E7001B61EB020166
:10067000001C41F5801300185B412018A2F50017FB
:1006800047EB030140EAD570B6196D4111E06D08E2
:100690004FEA360645EAC0754FEA0752001B61EB88
:1006A0000201001C41F5801149084FEA3000001991
:1006B000514132462B4603B000F01CB800F000BA9E
:1006C0000098012240000023D0EB020263EBE073AC
:1006D000009821464FEAE074B8EB000061EB04019A
:1006E000E9E783F000435BE781F0004158E730BC65
:1006F000BDE8C08F30BCBDE8C04FFFF7DFBF2DE9BC
:10070000FE4F81EA030404F0004421F0004100940C
:100710004FF0000B23F0004350EA01045ED052EA90
:1007200003045BD0C3F30A54C1F30A552C44A4F26A
:10073000F3340194A0FB0254C1F3130141F480117E
:10074000C3F3130343F4801301FB024400FB034E85
:10075000840A970A44EA815447EA8357A4FB07684E
:1007600002958D0A05FB07854FEA932C04FB0C5478
:100770002705029D4FEA065847EA1637B5EB0805EC
:100780006EEB070C870E920E47EA811742EA83123E
:10079000A7FB0201B6EB0B0164EB00042B0D43EA4F
:1007A0000C335E1844EB1C50DA465146E7FB02015D
:1007B000C5F313044FEA0B3343EA14534FEA0432F0
:1007C000019C43EA0603A4F10C040294009CCDE9C9
:1007D00000B400F084F903B000F003B80020014633
:1007E000F9E730BCBDE8C08F2DE9F04D81EA030484
:1007F00004F0004B21F0004514464FF0000A23F0AE
:10080000004150EA050220D054EA01021DD0C5F390
:100810000A570246C5F31303C1F31300C1F30A5686
:1008200040F4801543F48013A7EB0608101BD6464E
:1008300008F2FD3873EB050002D308F1010801E06E
:1008400092185B41B8F1000F03DA00200146BDE8C1
:10085000F08D00204FF48011064684460EE0171BF1
:1008600073EB050705D3121B63EB050306434CEA44
:10087000010C49084FEA300092185B4150EA010729
:10088000EDD152EA030012D082EA040083EA0501A6
:10089000084305D0101BAB4106D20122002306E01D
:1008A00000224FF0004302E06FF0010253101AEBF8
:1008B00006004CEB085110EB0A0041EB0B01BDE8C0
:1008C000F04D00F0FDB800F0004230F000400AD0DA
:1008D000C10D01F56071C0F3160042EA0151C20872
:1008E00040071143704700200146704730B50B4662
:1008F000014600202022012409E021FA02F59D4250
:1009000005D303FA02F5491B04FA02F52844151E23
:10091000A2F10102F1DC30BD202A04DB203A00FA0A
:1009200002F1002070479140C2F1200320FA03F346
:10093000194390407047202A04DB203A21FA02F044
:100940000021704721FA02F3D040C2F12002914009
:10095000084319467047202A06DBCB17203A41FA94
:1009600002F043EAE07306E041FA02F3D040C2F13C
:100970002002914008431946704700000048704724
:10098000849D010810B50446FFF7F8FF0068005D7C
:1009900000F0010010BD3A2800D2303820F02002CB
:1009A000412A01D3A2F13700884201D34FF0FF3032
:1009B00070470000026811441378016018467047C0
:1009C000D16004495161044911620021116111464D
:1009D00000F016B9B509010885090108426842B15D
:1009E000016811F8013B23B1521EC0E900121846FC
:1009F00070470121C160881E704742685AB1C368C0
:100A0000016843B983688B4205D0491E521CC0E976
:100A10000012002070474FF0FF3070472DE9F05F63
:100A200082460078002715468B460AF10104B94634
:100A3000302801D09DB113E014F8010B012778286C
:100A400003D0582801D045B10AE00DB1102D07D1CF
:100A50000027102514F8010B02E0082500E00A2504
:100A60000026B0460EE005FB080005FB06F1012755
:100A700001EB10461FFA80F8B6F5803F00D3B94667
:100A800014F8010B2946FFF786FF0028EBDABBF1CB
:100A9000000F05D00FB1641E00E05446CBF80040B3
:100AA000B9F1000F06D006F029FE02210160C81E30
:100AB00000F003B848EA0640FAE730BCBDE8C09F42
:100AC00010B5141E73F1000408DA401C41F1000156
:100AD00092185B411A4301D120F0010010BD2DE9AD
:100AE000F04D92469B4611B1B1FA81F202E0B0FAA4
:100AF00080F220329046FFF70FFF04460F4640EA8F
:100B00000A0041EA0B0153465A46084313D01146E6
:100B100053EA010019D0C8F140025046FFF70BFF1D
:100B200005460E46504659464246FFF7F5FE084335
:100B300005D0012004E020463946BDE8F08D0020B4
:100B4000054346EAE0762C4337430A986305E40AF6
:100B5000A0EB08000022FD0A44EA47540A3002D5FF
:100B600000200146E9E7010510196941DDE9084562
:100B700000196941BDE8F04DA2E7C1F30A52C1F383
:100B8000130140F2FF3341F480119A4202DA00204F
:100B90000146704740F233439A42A2F2334202DCEC
:100BA0005242FFF7C8BEFFF7B7BE000030B5041EC3
:100BB00071F1000404DB4FF00044404264EB01019A
:100BC000141E73F1000405DB1C464FF00043524233
:100BD00063EB0403994208BF904230BD064C074DB9
:100BE00006E0E06840F0010394E8070098471034FD
:100BF000AC42F6D3FFF7CEFAECA001081CA1010825
:100C00002DE9F34F8BB04FF0000801F10C000C46BA
:100C10004FF0010B46460DF1080A0190626901216F
:100C200001989047051E2DD0252D2CD0216A88478C
:100C3000C0B16269012101989047216A8847002864
:100C4000F7D1411E62690198904700E0761CA169C6
:100C50000B988847216A88470028F7D1E1690B98EB
:100C60008847DBE7A1690B9888470746A84201D16E
:100C7000761CD3E7E1690B9888477F1C02D1B8F155
:100C8000000F6FD047E1002762693D463946019861
:100C900090472A2804D162690121019890470125D3
:100CA000DFF888926269012101989047A0F1300134
:100CB0000A290AD24F45E5DC07EB870100EB410723
:100CC000303FDFD445F01005ECE7E90601D46FF0C2
:100CD00000476C280AD04C2814D0682815D06A2800
:100CE0000DD074281CD07A281AD01DE06269012129
:100CF000019890476C2802D045F0040514E045F0B7
:100D000002050DE045F020050AE062690121019825
:100D10009047682802D045F0080505E045F40065D5
:100D20006269012101989047C4E9015765283DD0C7
:100D300019DC58287AD00CDC452837D004DC25286B
:100D400026D0412831D131E046282FD047282CD158
:100D50002CE05B2877D0612828D063287CD06428D9
:100D600023D15AE0D1E06F2848D008DC66281DD096
:100D700067281BD0692821D06E2816D127E070285B
:100D800045D0732868D0752847D078280DD14DE01C
:100D9000A1690B988847054625283FF469AFE169AA
:100DA0000B9888476D1C3FF46AAFB4E023466A464F
:100DB0006FF001000B99AFF300809FE045F0400019
:100DC0006060A80723464FF0000236D43EE0E807F3
:100DD0007FF447AF2068011D21600068290501D517
:100DE00006701BE7290701D5068017E7A90703D579
:100DF000F117C0E9006111E706600FE745F0400018
:100E00006060A80723464FF0080216D41EE040F6A3
:100E10000E0125EA0100606016E045F040006060C8
:100E2000A80723464FF00A0207D40FE045F0400020
:100E30006060A80708D5234610226FF001000B99C7
:100E4000AFF300805AE007E0234610226FF0010064
:100E50000B99FFF7B7FA51E04FF000094F464B46A8
:100E6000632802D05B2807D041E02079C00601D476
:100E70000120A06001273AE06269012101989047B2
:100E80005E2805D14FF001096269494601989047F3
:100E9000216939B900210A46534643F82120491CEB
:100EA0000829FADBB0B3216969B9C11700EBD16237
:100EB00053110AEB830122F01F02821A01200B68F2
:100EC000904003430B6062690121019890475D28BF
:100ED000E8D1B9F1000F09D00020514651F8202087
:100EE000D24341F82020401C0828F7DB02AB224601
:100EF00000976FF001000B99AFF3008000280CDA27
:100F0000401C08D1BBF1000F05D04FF0FF300DB0F1
:100F100000F00EB8FFE74046F9E7E90701D108F114
:100F2000010806444FF0000B78E60000CCCCCC0C56
:100F300030BCBDE8C08F70B58C1810F8015B15F09F
:100F4000070301D110F8013B2A1106D110F8012B3B
:100F500003E010F8016B01F8016B5B1EF9D12B0760
:100F600005D40023521E0DD401F8013BFAE710F816
:100F7000013BCB1A921C03E013F8015B01F8015B03
:100F8000521EF9D5A142D8D3002070BD2DE9F05FE3
:100F9000044688464FF000094746206804F05FFD8C
:100FA0008246206804F047FD8346BAF1000F02D163
:100FB000BBF1000F72D02068C06800F0007000B371
:100FC000607E01281DD1207E01281AD101270FE063
:100FD000334881450AD3606D40F010006065A06D14
:100FE00040F00100A065012000F05EB809F10109A0
:100FF00020680068C0F380100028E9D040202168F4
:101000000860022F10D0206804F029FD60B120682C
:1010100004F016FD40B920688168224A114041F071
:101020001001816000BF00BF012F10D0206804F0C4
:1010300002FD60B1206804F003FD40B920688168BA
:10104000184A114041F02001816000BF00BF022F0B
:1010500003D0032F03D10C2503E0082501E004256C
:1010600000BF00BF02F0CCF9064612E002F0C8F95A
:10107000801B05280DD920688068284048B1606D24
:1010800040F010006065A06D40F00100A0650120F7
:10109000AAE72068806828400028E7D10020A3E75D
:1010A000000040A3C0FFFF7F30BCBDE8C09F000030
:1010B00070B50446206804F0C3FC0646206804F0BE
:1010C000C4FC98B396BB2068806800F00D0001282E
:1010D0000AD1206881681A4A1140891C816000BFCA
:1010E00003202168086009E0606D40F01000606531
:1010F000A06D40F00100A065012070BD02F080F9F4
:10110000054614E002F07CF9401B02280FD9206844
:10111000806800F0010050B1606D40F01000606523
:10112000A06D40F00100A0650120E6E705E0206821
:10113000806800F001000028E4D10020DDE7000015
:10114000C0FFFF7F38B5044600200090206804F0FF
:101150007CFC00284FD1206880682849084048B1AD
:10116000606D40F010006065A06D40F00100A0656A
:10117000012038BD206804F04DFC00BF2048806885
:1011800000F0E07000F4000080B11E4800681E49C5
:10119000B0FBF1F0401C00EB40008000009002E04A
:1011A0000098401E009000980028F9D102F028F91C
:1011B00005461AE0206804F048FC10B9206804F0E5
:1011C00029FC02F01DF9401B02280ED92068006896
:1011D00000F0010048B9606D40F010006065A06D3E
:1011E00040F00100A0650120C3E72068006800F01E
:1011F00001000028DED00020BBE700003F00008097
:101200000003045048000010400D03002DED028B38
:10121000002401221103274802F0ECF848E0264898
:1012200001F0CFFD3221244801F068FD224801F091
:101230000AFC00F40070B0F5007F03D11E4801F0F5
:1012400005FC85B200EE105AB8EE400ADFED1B0A2D
:1012500020EE200A9FED1A1AC0EE010AB0EE000A35
:1012600020EE800A10EE106A3046FFF72CFB41ECAE
:10127000180B53EC182B13A006F014FA4FF47A70E5
:1012800007F05CFD601C84B2052C06D100224FF4EF
:101290008051084802F0AEF807E00A2C05D100247E
:1012A00001221103034802F0A5F8034801F0D3FD21
:1012B000B5E70000000400485C010010CDCC1C40E4
:1012C00000008045204144312076616C7565203DE9
:1012D0002025312E336656200D0A000000B585B05A
:1012E00014216846FFF72DF811200190012002908B
:1012F00002200390402000906946244801F092FFAC
:10130000802000906946214801F08CFF0122402195
:101310001E4802F06FF8012280211C4802F06AF892
:1013200000F0C6F810B9002005B000BD44F62060FA
:1013300000F03AFE04F076FA702004F0E7FA18B9EB
:1013400004F0B2FA0020EFE7BE2004F0DFFA18B98B
:1013500004F0AAFA0020E7E7082004F0D7FA18B949
:1013600004F0A2FA0020DFE7002004F0CFFA18B959
:1013700004F09AFA0020D7E704F096FA42F21070CF
:1013800000F012FE00F0AFF8CEE7000000040048C5
:101390002DE9FC41054600200090019004F042FA3E
:1013A000702004F0B3FA20B904F07EFA0020BDE802
:1013B000FC81AC2004F0AAFA18B904F075FA0020F8
:1013C000F5E7332004F0A2FA18B904F06DFA002012
:1013D000EDE7002004F09AFA18B904F065FA00204D
:1013E000E5E704F061FA00F07EF808B90020DEE7D6
:1013F00004F018FA712004F089FA18B904F054FACC
:101400000020D4E7002410E0052C01DA012200E0DE
:10141000002211460DEB040004F070F918B904F035
:1014200043FA0020C3E7601CC4B2062CECDB04F0D6
:101430003BFA9DF8010000039DF8021040EA0110FC
:101440009DF8031040EA21169DF803000007000BE9
:101450009DF8041040EA01209DF8051040EA0107BC
:1014600000EE106AF8EE400A9FED0D1A80EE810A38
:10147000DFED0C0A20EE200A85ED000A00EE107A5E
:10148000B8EE400A9FED061AC0EE010A9FED061A5B
:101490009FED060A10EE810A85ED010A012086E71C
:1014A000000080490000C842000048430000484254
:1014B00010B504F0B7F9702004F028FA18B904F058
:1014C000F3F9002010BDBA2004F020FA18B904F096
:1014D000EBF90020F6E704F0E7F944F6206000F0AD
:1014E00063FD0120EEE738B54FF47A7400BF04F0D5
:1014F00099F9712004F00AFA18B904F0D5F900201E
:1015000038BD0021684604F0F9F818B904F0CCF9A8
:101510000020F5E704F0C8F99DF8000000F0800015
:1015200008B90120ECE74FF4FA6000F03DFD201E01
:10153000A4F10104DBD100BFE2E700007CB5054661
:101540002846FFF720F80446012C14D117A006F016
:10155000A9F81F48006850B91D48022100238022C5
:10156000CDE900101BA11E4808F06EF81DE01DA07B
:1015700006F098F819E0002C14D123A006F092F898
:101580001348006850B11248006807F005FC0020BD
:101590000F4908601CA006F085F806E021A006F0BF
:1015A00081F802E027A006F07DF87CBD414443208D
:1015B00056616C7565205461736B20616C72656156
:1015C00064792072756E6E696E672E0D0A000000D8
:1015D000000000104144435F56616C7565000000D7
:1015E0000D1201084144432056616C756520546119
:1015F000736B20616C72656164792072756E6E69BF
:101600006E672E0A000000004144432056616C754D
:1016100065205461736B2073746F707065642E0A5B
:10162000000000004144432056616C756520546100
:10163000736B206973206E6F742072756E6E696EA5
:10164000672E0A00496E76616C6964206172677565
:101650006D656E7420666F722041542B4144435F68
:1016600056616C75650A00002DE9F04106463D2182
:101670003046FEF771FE0546E5B1002028706F1C6C
:10168000002414E004EB44000D4A52F820104022DC
:101690003046FEF76BFE48B904EB4400084A02EB03
:1016A0008000416838468847BDE8F081641C082CFA
:1016B000E8D300BF314603A005F0F4FF00BFF3E715
:1016C00054000010556E6B6E6F776E20636F6D6DFA
:1016D000616E643A2025730A41542B48454C503DB5
:1016E00031200A007CB505462846FEF74CFF04462B
:1016F000012C17D117A005F0D5FF1F48007868B955
:101700001E4802210023CA01CDE900101CA11F4878
:1017100007F09AFF0120184908701AE01CA005F094
:10172000C1FF16E094B91448007801280AD1134883
:10173000006807F031FB1EA005F0B4FF00200E4941
:10174000087006E020A005F0ADFF02E026A005F03D
:10175000A9FF7CBD4550445F746573742054617368
:101760006B20616C72656164792072756E6E696E52
:10177000672E0D0A00000000B500001004000010E4
:101780004550445F7465737400000000E92301084C
:101790004550445F74657374205461736B20616CB1
:1017A00072656164792072756E6E696E672E0A00CB
:1017B0004550445F74657374205461736B20737477
:1017C0006F707065642E0A004550445F74657374D1
:1017D000205461736B206973206E6F742072756E74
:1017E0006E696E672E0A0000496E76616C6964202E
:1017F000617267756D656E7420666F722041542B3F
:101800004550445F746573740A0000007CB505465A
:101810002846FEF7B8FE0446012C17D119A005F0A2
:1018200041FF2148007868B9204802210023802226
:10183000CDE900101EA1214807F006FF01201A493A
:1018400008701EE01EA005F02DFF1AE0002C15D137
:1018500023A005F027FF1448007801280AD1134877
:10186000006807F099FA1EA005F01CFF00200E4941
:10187000087006E020A005F015FF02E026A005F0A4
:1018800011FF7CBD455850207465737420546173FA
:101890006B20616C72656164792072756E6E696E21
:1018A000672E0D0A00000000B400001008000010B0
:1018B0004558505F746573740000000015240108DA
:1018C0004558502074657374205461736B20616CAB
:1018D00072656164792072756E6E696E672E0A009A
:1018E0004558502074657374205461736B20737471
:1018F0006F707065642E0A004558502074657374CB
:10190000205461736B206973206E6F742072756E42
:101910006E696E672E0A0000496E76616C696420FC
:10192000617267756D656E7420666F722041542B0D
:101930004558505F746573740A00000070B5054621
:1019400011A005F0AFFE00241AE004EB4400144A95
:1019500052F8201013A005F0A5FE04EB4400104A35
:1019600002EB8000816810A005F09CFE04EB4400AF
:101970000B4A02EB8000816810A005F093FE641C06
:10198000082CE2D370BD0000417661696C61626C25
:101990006520415420636F6D6D616E64733A0A0077
:1019A0005400001025730A004465736372697074F3
:1019B000696F6E3A2025730A000000004578616D5A
:1019C000706C652075736167653A2025730A0A009B
:1019D00000B5C1B01FE04FF480722148016801A832
:1019E00005F01AFD4FF4807101A805F0F7FB00BF68
:1019F0001C480068C069C0F380100028F8D018485F
:101A0000006800F580701649086017480068A0F566
:101A100080701549086014480068B0F5807FDAD8F6
:101A200011480068A0B11048008882B20C480168D3
:101A300001A805F0F1FC0C48016801A805F0CEFBF7
:101A400000BF08480068C069C0F380100028F8D0C3
:101A50000020054908600249086041B000BD00004F
:101A6000C0000010AC060010C400001010B58CB00F
:101A7000044605A806A907AA08ABCDE90132CDE9BD
:101A8000031009A80AAB0BAA11A100902046FEF78B
:101A90007DFC072817D10598012802DB0598072847
:101AA00004DD124805F0FEFD0CB010BDDDE9062195
:101AB0000598CDE900120290DDE90832DDE90A104F
:101AC00004F0EAFC02E00A4805F0ECFD00BFEBE799
:101AD0002534642D2532642D253264202532643A64
:101AE0002532643A2532642025640000889D01086F
:101AF000D49D010870B505462C212846FEF72CFC24
:101B00000446BCB100202070102200212846FEF7B8
:101B100002FD0A490860601CFEF735FD08490860AF
:101B2000084602680548016806A005F0BBFDFFF7FE
:101B30004FFF02E00BA005F0B5FD70BDC000001026
:101B4000C400001052656164416464723A203078C8
:101B500025582C204461746553697A653A202564C0
:101B60000A000000496E76616C69642061726775D5
:101B70006D656E7420666F722041542B53657457E7
:101B8000726974650A00000070B505462C2128466C
:101B9000FEF7E2FB0446F4B1002020701022002181
:101BA0002846FEF7B8FC0E490860601CFEF7EBFC07
:101BB0000C49086008460268094801680AA005F057
:101BC00071FD084801680648006805F0DDFB0EA0BD
:101BD00005F068FD02E00FA005F064FD70BD000097
:101BE000B8000010BC00001057726974654164644D
:101BF000723A20307825582C204461746553697AF4
:101C0000653A2025640A00004572617365204F4BD8
:101C10000D0A0000496E76616C6964206172677517
:101C20006D656E7420666F722041542B5365745736
:101C3000726974650A00000010B50446012003496A
:101C4000087003A005F02EFD10BD0000500000102C
:101C5000466C617368577269746544617465546158
:101C6000736B2052756E0D0A0000000000BFFEE786
:101C700010B500220221074801F0BCFB002204211C
:101C8000044801F0B7FB01221146024801F0B2FB03
:101C9000002010BD0004004801B582B00020019072
:101CA000401E012301AA02A90090044802F0CEFDC3
:101CB00008B1FF200EBD9DF80400FBE7E401001011
:101CC00010B5024801F04AF910BD0000800800106C
:101CD00010B5024801F042F910BD000038080010AC
:101CE00030B590F8444004F01C050124AC40056C6C
:101CF0006C60046863608468102C04D10468A2607E
:101D00000468E16003E00468A1600468E26030BD3B
:101D100000B585B014216846FEF713FB1120019031
:101D200001200290022003900002009069460D48B5
:101D300001F078FA4FF4807000906946094801F08C
:101D400071FA01225102074801F054FB01221102ED
:101D5000044801F04FFB44F6206000F025F9012013
:101D600005B000BD0004004870B505460C4603F000
:101D70007BFDD02003F00CFE18B903F0AFFD00206E
:101D800070BD284603F004FE18B903F0A7FD00203B
:101D9000F6E703F069FDD12003F0FAFD18B903F06E
:101DA0009DFD0020ECE70021204603F0F1FC0646F3
:101DB00003F094FD3046E3E71CB5044601A90E206C
:101DC000FFF7D2FF08B900201CBD9DF8040020F0E9
:101DD0005C000190052C31D2DFE804F003090F1AF2
:101DE00025009DF8040040F00400019028E09DF8D3
:101DF000040020F00400019022E09DF8040040F06F
:101E0000080001909DF8040020F00400019017E004
:101E10009DF8040040F0100001909DF8040020F0AF
:101E2000040001900CE09DF8040040F018000190BF
:101E30009DF8040020F00400019001E00020C3E7B9
:101E400000BF9DF804100E2000F06EF808B90020C5
:101E5000BAE769460E20FFF787FF9DF800009DF85E
:101E60000410884201D10120AEE70020ACE77CB528
:101E70000446207806F0A2F800F07F008DF80000FC
:101E8000607806F09BF88DF80100A07806F096F8CF
:101E90008DF80200207A06F091F88DF80300E078C2
:101EA00006F08CF88DF80400E088B0F5FA6F01DBDD
:101EB000012000E000200646207906F07FF840EA85
:101EC000C610C0B28DF80500E088642190FBF1F2E5
:101ED00001FB1200C5B2284606F070F88DF8060026
:101EE00003F0C2FCD02003F053FD18B903F0F6FC58
:101EF00000207CBD002003F04BFD18B903F0EEFC80
:101F00000020F6E7002509E01DF8050003F040FD7C
:101F100018B903F0E3FC0020EBE76D1C072DF3DBA1
:101F200003F0DCFC0120E4E770B505460C4603F045
:101F30009BFCD02003F02CFD18B903F0CFFC00204F
:101F400070BD284603F024FD18B903F0C7FC00203B
:101F5000F6E7204603F01CFD18B903F0BFFC002093
:101F6000EEE703F0BBFC0120EAE700000B48006845
:101F700000F0807028B90948006840F08070074977
:101F800008600748006800F0010028B904480068AC
:101F900040F001000249086070470000FCED00E0DD
:101FA000001000E07047000030B507490A68074C90
:101FB0002468074DB4FBF5F404FB00F300BF0C6884
:101FC000A41A9C42FBD330BD041000E0480000106E
:101FD00040420F002DE9F041204B1A88D31702EB45
:101FE0005373DB10A2EBC30333B91C4B1988CB1717
:101FF00001EB5373DB1006E0184B1888C31700EB96
:102000005373DB105B1C9CB215480588242000F03C
:102010006BF900260AE0002704E0FF2000F07CF9BD
:10202000781C87B2A742F8DB701C86B2AE42F2DBA6
:10203000262000F059F900260AE0002704E0FF20DE
:1020400000F06AF9781C87B2A742F8DB701C86B2F0
:10205000AE42F2DB00F0AEF9BDE8F081DC0000102A
:10206000DE00001010B500F023F900F013F9122083
:1020700000F03AF900F00EF9FF2000F035F92120C8
:1020800000F032F9402000F047F9002000F044F958
:102090003C2000F029F9052000F03EF9112000F065
:1020A00023F9032000F038F909480088401E83B264
:1020B00008480088401E82B20021084600F058F906
:1020C0000021084600F040F900F0E4F810BD0000DF
:1020D000DE000010DC0000102DE9FF4F81B00D463E
:1020E00016461C460E9F4FEAE57B05EB5B7B4FEAED
:1020F000EB0BA5EBCB0B4FEAE47E04EB5E7E4FEAE5
:10210000EE0EA4EBCE0EF344BBF1080F12D1AC4699
:102110004FEAE57B05EB5B7B4FEAEB0BA5EBCB0BCB
:102120004FEAE47E04EB5E7E4FEAEE0EA4EBCE0EA9
:10213000F3451FDC4FEAE57B05EB5B7B4FEAEB0BDE
:10214000A5EBCB0B4FEAE47E04EB5E7E4FEAEE0E8E
:10215000A4EBCE0EF344BBF1000F0BD0601B4FEA93
:10216000E07B00EB5B7B4FEAEB0BA0EBCB0BBBF117
:10217000000F0CD12846E91705EB5171C1F3CF05CB
:102180002046E11704EB5171C1F3CF041BE0284650
:10219000E91705EB5171C1F3CF010D462246E31754
:1021A00004EB5373DB10A4EBC3032BB92146CB170D
:1021B00001EB5373DB1005E02046E31704EB537388
:1021C000DB105B1C9CB2601B1FFA80F8B81B00FB85
:1021D00008F080B20090601E84B2781E87B2912011
:1021E00000F082F8002000F097F8002000F094F84A
:1021F0003C2000F079F8802000F08EF8112000F0EB
:1022000073F8032000F088F8442000F06DF8E8B27D
:1022100000F082F8E0B200F07FF8452000F064F8AA
:10222000F0B200F079F8C6F3002000F075F8F8B2CB
:1022300000F072F8C7F3002000F06EF84E2000F0B6
:1022400053F8E8B200F068F84F2000F04DF8F0B213
:1022500000F062F8C6F3002000F05EF800F01AF813
:10226000242000F041F84FF0000908E0019911F82E
:10227000090000F051F809F101001FFA80F90098F7
:102280008145F3DB00F0A3F805B000F000B830BCE6
:10229000BDE8C08F10B502E00A2006F04FFD4021D6
:1022A0004FF0904001F09EF80128F5D010BD0000DD
:1022B00010B5012211460B4801F09CF8642006F08D
:1022C0003DFD00220121074801F094F8642006F04A
:1022D00035FD01221146034801F08CF8642006F018
:1022E0002DFD10BD0004004810B504460022022157
:1022F000084801F07FF800220421064801F07AF82E
:102300002046FFF7C9FC01220421024801F072F8BF
:1023100010BD00000004004810B50446012202214F
:10232000084801F067F800220421064801F062F82D
:102330002046FFF7B1FC01221146024801F05AF88D
:1023400010BD00000004004870B505460C464E2044
:10235000FFF7CAFFC5F3C700FFF7DEFF4F20FFF707
:10236000C3FFE0B2FFF7D8FF200AFFF7D5FF70BD2B
:102370002DE9F04106460C4617461D464420FFF75E
:10238000B3FFC6F3C700FFF7C7FFC7F3C700FFF7E8
:10239000C3FF4520FFF7A8FFE0B2FFF7BDFF200A0B
:1023A000FFF7BAFFE8B2FFF7B7FF280AFFF7B4FF5D
:1023B000BDE8F08110B52220FFF796FFF720FFF768
:1023C000ABFF2020FFF790FFFFF764FF10BD10B5B3
:1023D0002220FFF789FFFF20FFF79EFF2020FFF755
:1023E00083FFFFF757FF10BD08B5FFF741FCFFF76C
:1023F00039FEFFF7EFFD0CE0652003460122114690
:1024000000904FF4A00003F075FE47F2305006F044
:1024100095FCF1E72DED028B26E04FF47A7006F083
:102420008DFC1248FEF7B4FF104890ED000A10EE44
:10243000101A0846FEF747FA41EC180B53EC182B1C
:102440000BA005F02FF9094890ED010A10EE101AC3
:102450000846FEF738FA41EC180B53EC182B08A08D
:1024600005F020F900F038F8D7E700000C00001064
:1024700068756D69646974793A2025660D0A0000F3
:1024800074656D703A2025660D0A000010B50F487E
:10249000006800F4006028B14FF400600B49086048
:1024A00004F000FF0948006800F4005028B14FF420
:1024B00000500649086004F011FF4FF4006000F07E
:1024C000A3FE4FF4005000F09FFE10BD1404014025
:1024D00072B600BFFEE7000000B587B0142102A865
:1024E000FDF72FFF00200190002202A9104802F002
:1024F00001F8002201A90E4801F0D6FF9DF80A302C
:102500009DF809209DF808100AA005F0CBF89DF869
:1025100006309DF805209DF807100CA005F0C2F8C4
:102520009DF804100FA005F0BDF807B000BD000035
:10253000C001001054696D653A20253032643A2597
:102540003032643A253032640A0000004461746518
:102550003A20253032642D253032642D2530326406
:102560000A0000005765656B6461793A2025640AAA
:10257000000000002DE9F84F05460C464FF0000A18
:1025800000200090FE49E068884200D000E000BFD3
:1025900000BF95F85000012802D1022000F050BA87
:1025A000012085F8500000BF286803F058FA002881
:1025B00072D1606805281AD86068022806D00328FE
:1025C00007D0042808D005280DD108E00C20606051
:1025D0000CE01220606009E01820606006E04FF413
:1025E0008070606002E00620606000BF00BF296864
:1025F000D4E9002001F1300CC0F3012B0CEB8B036C
:10260000D3F800C000F01F0E4FF01F0B0BFA0EFBAB
:102610002CEA0B0C00F01F0BC2F3846E0EFA0BFEBB
:102620004CEA0E0CC3F800C000BF286803F017FA8C
:102630008146286803F0FFF98046B9F1000F2AD1DE
:10264000B8F1000FFBD1A2682168286803F01EFAD8
:1026500060692968C968C1F3C101490000FA01F73E
:102660002069042819D028682268216900F1600CCB
:102670000CEB8103D3F800C0DFF808B30CEA0B0CB5
:1026800002F0F84B4BF0004B4BEA070B4CEA0B0CFB
:10269000C3F800C000BFA8E0B8E10021286803F03B
:1026A000C1F9C0F3120030B90021286803F0BAF96B
:1026B000C0F3846007E00021286803F0B3F990FAC2
:1026C000A0F0B0FA80F02168C1F3120119B92168B5
:1026D000C1F3846104E0216891FAA1F1B1FA81F1BA
:1026E000884204D100221146286803F0E9F901214B
:1026F000286803F097F9C0F3120030B90121286867
:1027000003F090F9C0F3846007E00121286803F02A
:1027100089F990FAA0F0B0FA80F02168C1F31201B3
:1027200019B92168C1F3846104E0216891FAA1F12B
:10273000B1FA81F1884204D100220121286803F016
:10274000BFF90221286803F06DF9C0F3120030B917
:102750000221286803F066F9C0F3846007E00221D3
:10276000286803F05FF990FAA0F0B0FA80F02168D1
:10277000C1F3120119B92168C1F3846104E0216831
:1027800091FAA1F1B1FA81F1884204D1002202212B
:10279000286803F095F90321286803F043F9C0F392
:1027A000120030B90321286803F03CF9C0F38460BB
:1027B00007E00321286803F035F990FAA0F0B0FA99
:1027C00080F02168C1F3120119B92168C1F3846155
:1027D00004E0216891FAA1F1B1FA81F1884204D1B3
:1027E00000220321286803F06BF9286803F02DF913
:1027F000002870D12868E2682168D0F8B0C0C1F321
:1028000012032CEA030C02F0180B5F4B23FA0BF3B4
:102810000B404CEA030CC0F8B0C000BF5849E06858
:10282000884258D12368C3F312031BB92368C3F34A
:10283000846304E0236893FAA3F3B3FA83F35B1C85
:1028400003F01F03092B3ED82368C3F312031BB9FF
:102850002368C3F3846304E0236893FAA3F3B3FA11
:1028600083F35B1C03F01F034FF0010C0CFA03FC15
:102870002368C3F312031BB92368C3F3846304E022
:10288000236893FAA3F3B3FA83F35B1C03F01F03EB
:102890004CEA836C2368C3F312031BB92368C3F3A8
:1028A000846304E0236893FAA3F3B3FA83F35B1C15
:1028B00003F01F0303EB43034FF0000B4BEA0353FA
:1028C0004CEA03033FE02368C3F3120323B92368F0
:1028D000C3F3846305E03BE0236893FAA3F3B3FA00
:1028E00083F35B1C03F01F034FF0010C0CFA03FC95
:1028F0002368C3F312031BB92368C3F3846304E0A2
:10290000236893FAA3F3B3FA83F35B1C03F01F036A
:102910004CEA836C2368C3F312031BB92368C3F327
:10292000846304E0236893FAA3F3B3FA83F35B1C94
:1029300003F01F030A3B03EB43034FF0007B4BEA1A
:1029400003534CEA03031946A268286803F09EF873
:102950000E492068084078B300BF0D48806800F039
:10296000E07600BF0B49206888422DD106F40000B4
:1029700050BB0949286888424ED146F400010DE059
:1029800000007F4000F0FF03FFFF07000000088009
:1029900000030450000052C700000450224803F016
:1029A00089F8224800682249B0FBF1F0401C00EB96
:1029B00040008000009003E016E00098401E009068
:1029C00000980028F9D127E01A49206888420CD1E4
:1029D00006F0807048B91849286888421CD146F032
:1029E0008071114803F066F816E0144920688842A7
:1029F00012D106F4800078B90F49286888420BD1BB
:102A000046F48001084803F055F805E0686D40F091
:102A1000200068654FF0010A00BF002085F85000D3
:102A200000BF5046BAE50000000304504800001003
:102A3000400D0300000084CB000004500100008022
:102A400018BCBDE8E08F0146486D70470146086834
:102A5000006C70472DE9F84304464FF00009002050
:102A6000009014B90120BDE8F883206920B120202E
:102A7000005D012800D100BF606D30B9204600F034
:102A8000E9F80020A06584F8500020688168C1F34F
:102A9000407131B120688168674A1140816000BF90
:102AA00000BF206802F0D6FFB0B920688168634A91
:102AB000114041F08051816000BF61480068614968
:102AC000B0FBF1F0401C4000009002E00098401E76
:102AD000009000980028F9D1206802F0BBFF48B9A7
:102AE000606D40F010006065A06D40F00100A065D1
:102AF0004FF00109206802F0B2FF0646606D00F059
:102B0000100000287ED1002EFCD1606D20F4807072
:102B100040F002006065206802F097FF68B94A48FB
:102B200002F093FF48B960684849896821F47C1134
:102B30000143464A916000BF00BF607E616B41EA7D
:102B40004030E1680843A16808432021095D40EA5C
:102B500001452020005D012803D1A08C401E45EADC
:102B60004045A06A28B1208D00F47070E16A0843E6
:102B700005432068C0683649084028432168C8607A
:102B8000206802F06CFF8046206802F054FF074680
:102B9000B8F1000F2CD127BB207E002141EA803103
:102BA00094F8300041EA40052068C06844F2020110
:102BB000884328432168C86094F83800012811D15F
:102BC000E06B40F00101206C0843616C0843A16C8C
:102BD00008432168096940F2FC7291430843216867
:102BE000086105E02068006920F0010021680861A3
:102BF000206901280BD12068006B20F00F00E169EB
:102C0000491E00E010E008432168086305E02068E1
:102C1000006B20F00F0021680863606D20F0020057
:102C200040F00100606505E0606D40F010006065F7
:102C30004FF00109484616E7C0FFFF5FC0FFFF7F66
:102C400048000010400D0300000004500003045031
:102C500007C0F0FF10B59EB00446142119A8FDF777
:102C600070FB5C2102A8FDF76CFB224920688842BA
:102C70003DD14FF4804002908003169003200390D2
:102C80000121049114210591072106910221079148
:102C90000891C905099102A800F0FEFC08B1FFF7F0
:102CA00017FC00BF1448C06C40F400501249C864BF
:102CB0000846C06C00F40050019000BF00BF00BF88
:102CC0000846C06C40F00100C8640846C06C00F0C3
:102CD0000100019000BF00BF102019900B201A9036
:102CE00000201B9019A94FF0904000F09BFA1EB0F5
:102CF00010BD000000000450001002402DE9F0411A
:102D000004460E466069082801D108250CE02068B9
:102D1000C06800F0010030B1606D40F020006065D7
:102D20000120BDE8F081042500F06AFB074616E0AB
:102D3000701CA0B100F064FBC01BB04200D876B993
:102D400020680068284050B9606D40F0040060655C
:102D500000BF002084F8500000BF0320E1E7206896
:102D6000006828400028E3D0606D40F40070606582
:102D7000206802F079FE98B1607E88B9206800680A
:102D800000F0080008280BD1606D20F480706065A9
:102D9000606D00F4805018B9606D40F0010060650E
:102DA0002068D0F80C80082D03D108202168086025
:102DB00005E008F4804010B90C202168086000206C
:102DC000AFE770B50446206802F049FE00283FD105
:102DD00000BF94F85000012801D1022070BD0120ED
:102DE00084F8500000BF2046FEF7ACF9054655BBFD
:102DF000606D40F60161884340F480706065606DED
:102E000000F48050B0F5805F04D1A06D20F0060082
:102E1000A06501E00020A0651C202168086000BFBB
:102E2000002084F8500000BF2068C06800F00070E7
:102E300028B1606D20F4005040F480506065206837
:102E400002F01CFE05E000BF002084F8500000E006
:102E500002252846C2E770B5044600BF94F850002A
:102E6000012801D1022070BD012084F8500000BF6C
:102E700003212046FEF78AF8054655B92046FEF79D
:102E800017F905462DB9606D20F4885040F0010017
:102E9000606500BF002084F8500000BF2846E2E7CC
:102EA0000146002291F82500022808D00420C863BA
:102EB00000BF002081F8240000BF0120704708688F
:102EC000006820F00E000B6818600868006820F0A9
:102ED00001000B68186091F8440000F01C03012009
:102EE00098400B6C5860012081F8250000BF00203D
:102EF00081F8240000BF1046E0E770B504460025C5
:102F000094F82500022803D00420E063012520E086
:102F10002068006820F00E002168086020680068C2
:102F200020F001002168086094F8440000F01C01C2
:102F300001208840216C4860012084F8250000BFF2
:102F4000002084F8240000BFA06B10B12046A16BC4
:102F50008847284670BD0146C86B704770B5044667
:102F6000206C05682068066894F8440000F01C0195
:102F7000042088402840E0B106F00400C8B1206871
:102F8000006800F0200028B92068006820F00400E4
:102F90002168086094F8440000F01C010420884077
:102FA000216C4860206B002856D02046216B884752
:102FB00052E094F8440000F01C01022088402840B0
:102FC00018B306F0020000B32068006800F020008B
:102FD00040B92068006820F00A00216808600120DC
:102FE00084F8250094F8440000F01C010220884079
:102FF000216C486000BF002084F8240000BFE06A14
:1030000050B32046E16A884726E094F8440000F077
:103010001C01082088402840F0B106F00800D8B113
:103020002068006820F00E002168086094F84400D1
:1030300000F01C0101208840216C48600120E06301
:1030400084F8250000BF002084F8240000BF606BD6
:1030500010B12046616B884770BD000010B5014675
:1030600009B9012010BD3E4B086898420BD23D4B78
:103070000868C01A1423B0FBF3F080004864394894
:10308000083808640AE0364B0868C01A1423B0FBFD
:10309000F3F080004864324808380864022081F860
:1030A00025000868026847F6F0708243D1E9020300
:1030B00018430B6918434B6918438B691843CB6954
:1030C00018430B6A18430243086802608868B0F529
:1030D000804F3AD0234B083B086C98421BD1D0F864
:1030E000A80091F8443003F01C040F23A340984338
:1030F0001C4BA033186091F8443003F01C0348685F
:103100009840184B083BD3F8A8301843154B083BA0
:10311000C3F8A80019E01248A030006891F84430C4
:1031200003F01C040F23A34098430D4BA0331860F9
:1031300091F8443003F01C0348689840084BA033D2
:103140001B681843064BA03318600020C863012099
:1031500081F82500002081F8240000BF82E70000EC
:1031600008040240080002402DE9F04104460D46E3
:1031700016461F464FF0000800BF94F824000128AF
:1031800002D10220BDE8F081012084F8240000BFB4
:1031900094F8250001282CD1022084F82500002075
:1031A000E0632068006820F00100216808603B4669
:1031B000324629462046FEF793FD206B30B1206849
:1031C000006840F00E00216808600BE0206800688D
:1031D00020F00400216808602068006840F00A00C0
:1031E000216808602068006840F0010021680860DC
:1031F00006E000BF002084F8240000BF4FF0020862
:103200004046BFE77047000010B504460448006818
:10321000204020B1024804602046FFF7F3FF10BDB4
:103220001404014078B503460A460021C5E0012692
:103230008E40156805EA0604002C73D0157905F058
:103240000305012D04D0157905F00305022D13D1D6
:1032500098684E000325B540A8434E00D568B54098
:1032600028439860586801258D40A8431579C5F317
:1032700000158D4028435860157905F00305032D8E
:1032800009D0D8684E000325B540A8434E00956884
:10329000B5402843D860157905F00305022D13D1F8
:1032A000CE0803F1200555F826004D07EE0E0F2538
:1032B000B540A8434E07F60E1569B5402843CE0821
:1032C00003F1200545F8260018684E000325B54097
:1032D000A843157905F003054E00B5402843186052
:1032E000556805F44035002D66D000BF364D2D6E73
:1032F00045F00105344E356635462D6E05F0010565
:10330000009500BF00BF4FEAB6358E0855F826007D
:103310008D072E0F0F25B540A843B3F1904F02D172
:10332000002515E048E0294DAB4201D101250FE011
:10333000274DAB4201D102250AE0264DAB4201D117
:10334000032505E0244DAB4201D1042500E007250B
:103350008E07360FB5402843204D8E0845F82600CD
:103360001F4D2868A043556805F4801505B120431A
:103370001B4D28602D1D2868A043556805F40015D5
:1033800005B12043164D2D1D2860154D2D1F2868B1
:10339000A043556805F4003505B12043104D2D1F9D
:1033A00028602D1F2868A043556805F4803505B1B5
:1033B00020430B4D083D2860491C1568CD40002D69
:1033C0007FF435AF78BD00000010024000040048D3
:1033D00000080048000C00480010004808000140A8
:1033E00008040140024613690B400BB1012000E0C4
:1033F000002070470AB1816100E0816270470000DF
:1034000001480068704700003C0000100348006855
:103410000349097808440149086070473C000010DE
:103420004400001010B50024032000F0D3F80F2052
:1034300000F008F808B1012401E000F051F820463E
:1034400010BD0000F0B587B00446002500BF1F483E
:10345000006E40F400601D4908660846006E00F4E6
:103460000060009000BF00BF01A902A800F0B2FBFD
:1034700000F0EAFB07461648B7FBF0F0461E154879
:103480001549086040F2E7311348C16046600021E9
:1034900001618160816101F03DFB054695B90E48EF
:1034A00001F070FB05466DB9192000F03DF8102CB5
:1034B00007D200222146192000F04AF8074804608C
:1034C00000E00125284607B0F0BD000000100240D2
:1034D00040420F00002C0140C80A001040000010BC
:1034E00008B500BF0F48006E40F001000D490866A6
:1034F0000846006E00F00100009000BF00BF00BF52
:103500000846806D40F0805088650846806D00F068
:103510008050009000BF00BF00220F21901E00F0DD
:1035200017F808BD001002400146084600280DDBD0
:1035300000BF00BF00F01F0301229A4043099B0017
:1035400003F1E023C3F8002100BF00BF00BF7047B4
:103550002DE9F05F80460D461646002704F0B2F8CC
:10356000074639462A46334601F00700C0F1070AEC
:10357000BAF1040F02D94FF0040A01E0C0F1070AC2
:10358000D14600F1040ABAF1070F02D24FF0000A47
:1035900001E0A0F1030AD4464FF0010A0AFA09FA41
:1035A000AAF1010A0AEA020A0AFA0CFA4FF0010B20
:1035B0000BFA0CFBABF1010B0BEA030B4AEA0B0411
:1035C0002146404604F086F800F000B830BCBDE863
:1035D000C09F000000BF00F00702064B19684FF6BD
:1035E000FF031940044B0B4343EA0221014B1960CE
:1035F00000BF70470CED00E00000FA050246B2F58E
:10360000007F2AD11D48006800F4C060B0F5007F3B
:1036100032D01A48006820F4C06040F40070174BA4
:1036200018601748006832235843164BB0FBF3F07C
:10363000411C00E0491E1148406900F48060B0F56B
:10364000806F01D10029F5D10C48406900F48060F9
:10365000B0F5806F10D1032070470848006800F46F
:10366000C060B0F5806F07D00448006820F4C060E7
:1036700040F48060014B18600020EDE700700040CE
:103680004800001040420F000248006800F4C0608B
:1036900070470000007000402DE9F8430446002503
:1036A000A846208800F40060B0F5006F26D1606C59
:1036B00068B1B0F5000F03D0B0F5400F0ED10CE0AB
:1036C000D548C06840F48030D349C86008E0002184
:1036D000201D02F06FFD054602E001E0012500BF5C
:1036E00000BF55B9CC488830006820F44000616CB8
:1036F0000843C949C1F8880000E0A846206800F4E2
:103700000030B0F5003F75D14FF00009C248806D20
:10371000012121EA107078B100BFBF48806D40F0F0
:103720008050BD4988650846806D00F0805000904B
:1037300000BF00BF4FF00109B848006840F4807036
:10374000B6490860FFF75CFE074606E0FFF758FE43
:10375000C01B022801D9032505E0B048006800F429
:1037600080700028F2D000BF7DBBAB48903000686D
:1037700000F44076CEB1A06DB04216D0A64890308D
:10378000006820F44076A448D0F8900040F48030DF
:10379000A149C1F890000846D0F8900020F480308C
:1037A000C1F890000846C0F8906006F00100A8B18A
:1037B000FFF726FE074609E0FFF722FEC01B41F295
:1037C0008831884202D9032507E016E092489030FC
:1037D000006800F002000028EED000BF5DB98E48FE
:1037E0009030006820F44070A16D08438A49C1F808
:1037F000900003E00CE0A84600E0A846B9F1010FF4
:1038000005D18548806D20F080508349886500BFD0
:10381000207800F0010048B17F488830006820F02F
:103820000300216A08437C49C1F88800207800F031
:103830000200022809D178488830006820F00C0086
:10384000616A08437449C1F88800207800F00400D8
:10385000042809D170488830006820F03000A16A3F
:1038600008436D49C1F88800207800F02000202826
:1038700009D169488830006820F44060E16A084353
:103880006549C1F88800208800F40070B0F5007F19
:1038900009D161488830006820F44020E16B08437A
:1038A0005D49C1F88800208800F48060B0F5806F21
:1038B00009D159488830006820F44010216C084331
:1038C0005549C1F88800207800F04000402809D10F
:1038D00051488830006820F44050216B08434E491D
:1038E000C1F88800207800F08000802809D14A487B
:1038F0008830006820F44040616B08434649C1F8B5
:103900008800208800F48070B0F5807F09D142489B
:103910008830006820F44030A16B08433E49C1F86C
:103920008800206800F40020B0F5002F1FD13A482D
:103930008830006820F04060A16C08433649883127
:103940000860A06CB0F1006F06D13348C06840F445
:1039500080103149C8600AE0A06CB0F1806F06D1D8
:103960000121201D02F026FC054605B1A84620686D
:1039700000F48020B0F5802F1FD1274888300068E0
:1039800020F04060E16C0843234988310860E06C16
:10399000B0F1006F06D12048C06840F480101E4985
:1039A000C8600AE0E06CB0F1806F06D10121201DF3
:1039B00002F000FC054605B1A846208800F48040CE
:1039C000B0F5804F14D114488830006820F0405082
:1039D000216D0843104988310860206DB0F1805F87
:1039E00006D10221201D02F0E5FB054605B1A846DF
:1039F000208800F40040B0F5004F09D10648883017
:103A0000006820F08040616D08430349C1F88800D8
:103A10004046BDE8F88300000010024000700040FE
:103A20002DE9F04104460D4614B90120BDE8F081AE
:103A30006348006800F00700A8420ED260480068A2
:103A400020F0070028435E4908600846006800F03F
:103A50000700A84201D00120E8E7207800F002002A
:103A600002280ED15749A068896801F0F001884208
:103A700007D95448806820F0F000A16808435149F4
:103A80008860207800F0010078B36068032806D1D0
:103A90004C48006800F00070D8B90120C6E76068A3
:103AA000022806D14748006800F4003088B9012098
:103AB000BCE7606830B94348006800F0020040B9D4
:103AC0000120B3E73F48006800F4806008B9012096
:103AD000ACE73C48806820F003006168084339493E
:103AE0008860FFF78DFC064609E010E0FFF788FCD0
:103AF000801B41F28831884201D9032096E7314882
:103B0000806800F00C006168B0EB810FEED1207886
:103B100000F0020002280ED12A49A068896801F04D
:103B2000F001884207D22748806820F0F000A168A1
:103B30000843244988602248006800F00700A84232
:103B40000ED91F48006820F0070028431C49086070
:103B50000846006800F00700A84201D0012065E790
:103B6000207800F00400042807D11648806820F46B
:103B7000E060E168084313498860207800F008009D
:103B8000082808D10F48806820F46050216940EA75
:103B9000C1000C49886000F069F80A498968C1F3DE
:103BA0000311094A515C01F01F01C8400749086030
:103BB00007480068FFF746FC0746384636E700002E
:103BC0000020024000100240AC9C01084800001098
:103BD000400000100F2202600D4A926802F00302BA
:103BE00042600B4A926802F0F0028260084A9268D2
:103BF00002F4E062C260064A926802F46052D2089F
:103C00000261044A126802F007020A60704700006D
:103C10000010024000200240014800687047000088
:103C20004800001000B5FFF7F7FF05498968C1F3A8
:103C30000221044A515C01F01F01C84000BD000090
:103C400000100240BC9C010800B5FFF7E5FF0549E4
:103C50008968C1F3C221044A515C01F01F01C840C8
:103C600000BD000000100240BC9C0108F0B500231C
:103C70000020DFF8D4C0DCF808C00CF00C01DFF83D
:103C8000C8C0DCF80CC00CF0030719B10C291ED118
:103C9000012F1CD1DFF8B0C0DCF800C00CF0080C1C
:103CA000BCF1000F06D1DFF8A0C0DCF894C0CCF363
:103CB000032305E0DFF890C0DCF800C0CCF3031369
:103CC000DFF888C05CF8233041B9184606E00429C3
:103CD00001D11F4802E0082900D11E480C2932D129
:103CE000DFF864C0DCF80CC00CF00304012C09D030
:103CF000022C02D0032C04D101E0154A04E0154A3D
:103D000002E000BF1A4600BF00BFDFF83CC0DCF88D
:103D10000CC0CCF3021C0CF10106DFF82CC0DCF85F
:103D20000CC0CCF3062C0CFB02FCBCFBF6F2DFF85B
:103D300018C0DCF80CC0CCF3416C0CF1010C4FEA5C
:103D40004C05B2FBF5F0F0BD00100240C49C010828
:103D50000024F40000127A002DE9F843044614B957
:103D60000120BDE8F883F948806800F00C06F748A8
:103D7000C06800F00307207800F01000102877D109
:103D80001EB10C2E76D1012F74D1F048006800F0DE
:103D9000020018B1A06908B90120E2E7EB48216AE6
:103DA000006800F0080020B1E848006800F0F0006A
:103DB00005E0E6489430006800F470600009814234
:103DC0001FD9206A02F0BAFA08B10120C9E700BF82
:103DD000DE48006840F00800DC49086008460068DA
:103DE00020F0F000216A0843D849086000BF084667
:103DF000406820F47F40E16940EA0120D3494860EF
:103E00001FE000BFD148006840F00800CF490860BB
:103E10000846006820F0F000216A0843CB4908609A
:103E200000BF0846406820F47F40E16940EA012075
:103E3000C64948602EB9206A02F080FA08B1012014
:103E40008FE7FFF713FFC1498968C1F30311C04A27
:103E5000515C01F01F01C840BE490860BE480068BF
:103E6000FFF7F0FA8046B8F1000F4ED0404678E7F1
:103E70004BE0FFE7A06980B3B448006840F0010060
:103E8000B2490860FFF7BCFA054606E0FFF7B8FA4A
:103E9000401B022801D9032063E7AC48006800F00A
:103EA00002000028F2D000BFA848006840F00800D7
:103EB000A64908600846006820F0F000216A08431F
:103EC000A249086000BF0846406820F47F40E169CD
:103ED00040EA01209D49486017E0FFE79B480068E1
:103EE00020F0010099490860FFF78AFA054606E0CC
:103EF000FFF786FA401B022801D9032031E79348D7
:103F0000006800F002000028F2D1207800F00100E3
:103F100000285CD0082E03D00C2E0AD1032F08D124
:103F20008A48006800F4003088B3606878BB0120DC
:103F300017E700BF6068B0F5803F06D1834800688E
:103F400040F48030814908601AE06068B0F5A02F25
:103F50000BD17E48006840F480207C490860084608
:103F6000006840F4803008600AE07848006820F477
:103F70008030764908600846006820F48020086098
:103F800000BF606890B1FFF73BFA054607E01EE00E
:103F9000FFF736FA401B642801D90320E1E66B489D
:103FA000006800F400300028F2D010E0FFF728FA93
:103FB000054606E0FFF724FA401B642801D90320D8
:103FC000CFE66248006800F400300028F2D1207883
:103FD00000F00200022852D1042E03D00C2E14D17E
:103FE000022F12D15948006800F4806018B1E068CF
:103FF00008B90120B5E65548406820F0F850217C0A
:1040000040EA01605149486039E0E06800B34F4838
:10401000006840F480704D490860FFF7F1F90546EB
:1040200006E0FFF7EDF9401B022801D9032098E6CE
:104030004648006800F480600028F2D04348406899
:1040400020F0F850217C40EA01604049486016E0C9
:104050003E48006820F480703C490860FFF7D0F9C2
:10406000054606E0FFF7CCF9401B022801D90320E2
:1040700077E63648006800F480600028F2D12078A6
:1040800000F00800082836D16069D0B12F4894307C
:10409000006840F001002D49C1F89400FFF7B0F925
:1040A000054606E0FFF7ACF9401B022801D90320C2
:1040B00057E626489430006800F002000028F1D04E
:1040C00019E022489430006820F001001F49C1F82F
:1040D0009400FFF795F9054606E0FFF791F9401BBC
:1040E000022801D903203CE618489430006800F00B
:1040F00002000028F1D1207800F00400042872D1D9
:104100004FF000091148806D00F0805078B900BF71
:104110000E48806D40F080500C4988650846806DDF
:1041200000F08050009000BF00BF4FF001090B4825
:10413000006800F4807000BB0848006840F480709C
:1041400006490860FFF75CF9054610E000100240E0
:10415000AC9C0108480000104000001000700040B6
:10416000FFF74EF9401B022801D90320F9E5CA48A0
:10417000006800F480700028F2D000BFA068012819
:1041800008D1C648006840F00100C4499039C1F820
:10419000900021E0A06805280FD1C048006840F0D9
:1041A0000400BE499039C1F890000846D0F890004C
:1041B00040F00100C1F890000EE0B848006820F01F
:1041C0000100B6499039C1F890000846D0F8900037
:1041D00020F00400C1F8900000BFA068A0B1FFF774
:1041E0000FF9054609E02EE0FFF70AF9401B41F2FE
:1041F0008831884201D90320B3E5A848006800F05F
:1042000002000028F0D012E0FFF7FAF8054608E0B7
:10421000FFF7F6F8401B41F28831884201D90320AC
:104220009FE59E48006800F002000028F0D1B9F137
:10423000010F07D199489038806D20F08050974940
:104240009039886500BF207800F02000202838D100
:10425000606AD8B191480830006840F001008F4989
:104260009039C1F89800FFF7CBF8054606E0FFF754
:10427000C7F8401B022801D9032072E5874808309F
:10428000006800F002000028F1D01AE083480830EE
:10429000006820F0010081499039C1F89800FFF7CB
:1042A000AFF8054606E0FFF7ABF8401B022801D93E
:1042B000032056E579480830006800F00200002825
:1042C000F1D1A06A00287DD0A06A02287BD1734872
:1042D0009038C76807F00301E06A814225D107F0F2
:1042E0007001206B401EB1EB001F1ED107F4FE4190
:1042F000606BB1EB002F18D107F078413820005DDA
:10430000B1EBC06F11D107F4C001A08F0122C2EB45
:104310005000B1EB405F08D107F0C0614020005D64
:10432000C2EB5000B1EB406F66D00C2E62D05B4800
:104330009038006800F0806008B1012011E557480E
:104340009038006820F08070544990390860FFF779
:1043500057F8054606E0FFF753F8401B022801D93D
:104360000320FEE44D489038006800F000700028FB
:10437000F1D1D4E90B10401E41EA0011606B41EA13
:104380000021A08F0122C2EB500041EA40514020A1
:10439000005DC2EB500041EA40613820005D41EA17
:1043A000C0603E499039C9683D4A114008433B49C5
:1043B0009039C8600846006840F080700860084680
:1043C000C06801E053E03DE040F08070C860FFF756
:1043D00017F8054606E0FFF713F8401B022801D93D
:1043E0000320BEE42D489038006800F000700028DB
:1043F000F1D04FE00120B4E428489038006800F084
:104400000070A0BB25489038006840F080702349B8
:10441000903908600846C06840F08070C860FEF7B8
:10442000EFFF054606E0FEF7EBFF401B022801D92F
:10443000032096E419489038006800F000700028C6
:10444000F1D027E00C2E23D014489038006820F0DB
:104450008070124990390860FEF7D2FF054607E0E8
:10446000FEF7CEFF401B022802D9032079E411E0B9
:104470000A489038006800F000700028F0D1074822
:104480009038C0680749084004499039C86001E085
:10449000012066E4002064E40070004090100240B7
:1044A0008C809D01FCFFEEFE70B505460B4616465E
:1044B000286840680E4900EA0104200CD870C4F353
:1044C0000420587004F03F009870C4F34230187014
:1044D0005EB9D87801F080FFD870587801F07CFF81
:1044E0005870987801F078FF9870002070BD000037
:1044F0003FFFFF0070B504460B4616462068806AF1
:10450000586020680069C0F30E0098602068006859
:104510000E4900EA0105C5F305401870C5F30620F1
:10452000587005F07F009870A80DD8705EB91878A3
:1045300001F052FF1870587801F04EFF58709878CB
:1045400001F04AFF9870002070BD00007F7F7F005F
:1045500070B504460125002C4DD094F8210028B9EF
:10456000002084F82000204600F04AF8022084F859
:10457000210000BFCA202168486253202168486298
:1045800000BF204601F032FF0546A5BB20688068C9
:104590001A49084021688860216960680843A16958
:1045A0000843216889680843216888602168E068B9
:1045B000086120680169208941EA0040216808619A
:1045C000204601F035FF0546ADB92068C06C20F0EB
:1045D00003002168C8646169E06908432168C96C07
:1045E00008432168C86400BFFF202168486200BFFB
:1045F000012084F82100284670BD0000BFFF8FFF16
:1046000010B598B004465C2101A8FBF79AFE0C494E
:104610002068884212D14FF40030019000121790A8
:1046200001A8FFF739F808B1FDF752FF0548006807
:1046300040F4004003499039C1F8900018B010BD13
:10464000002800409010024070B504462068C06801
:1046500020F0A0002168C860FEF7D2FE054607E002
:10466000FEF7CEFE401BB0F57A7F01D9032070BD66
:104670002068C06800F020000028F1D00020F6E794
:1046800070B504460CB9012070BD606A38B9606825
:10469000B0F5827F00D105E00021E16102E0002158
:1046A000216161610021A16294F85D0028B90020B8
:1046B00084F85C00204600F05BF8022084F85D007E
:1046C0002068006820F0400021680860E068B0F5CC
:1046D000E06F01D9002501E04FF48055E068B0F5A6
:1046E000706F05D0E068B0F5E06F01D00021A162E5
:1046F000A08800F48270218901F404410843217CE0
:1047000001F002010843217D01F001010843218BE2
:1047100001F400710843217F01F038010843202192
:10472000095D01F080010843218D01F40051084327
:10473000216808600421A06901EA104094F824105F
:1047400001F01001084394F8341001F00801084307
:10475000A18901F47061084305F480510843216880
:10476000486000202066012084F85D0000208BE76F
:1047700010B586B00446142101A8FBF7E2FD2F49CD
:10478000206888422AD100BF2D48006E40F4805036
:104790002B4908660846006E00F48050009000BF68
:1047A00000BF00BF0846C06C40F00100C864084666
:1047B000C06C00F00100009000BF00BFA02001907D
:1047C0000220029000200390032004900520059011
:1047D00001A94FF09040FEF725FD2DE01949206812
:1047E000884229D100BF1648806D40F480401449AA
:1047F00088650846806D00F48040009000BF00BFCF
:1048000000BF0846C06C40F00200C8640846C06C97
:1048100000F00200009000BF00BF4FF46040019024
:1048200002200290002003900320049005200590B0
:1048300001A90548FEF7F6FC06B010BD00300140A6
:104840000010024000380040000400482DE9FF5FDE
:104850000446894692461D460E9E01200190002086
:10486000009000BF94F85C00012803D1022004B03E
:1048700000F04AB9012084F85C0000BFFEF7C0FDDB
:10488000074694F85D00029060680390A846AB4626
:10489000029801280BD00398B0F5827F04D1A0685C
:1048A00010B90298042802D00220009022E1B9F148
:1048B000000F03D0BAF1000F00D015B9012000900D
:1048C00018E194F85D00042802D0052084F85D000A
:1048D00000202066C4F840A0A4F84650A4F8445034
:1048E000C4F83890E587A587E0642065E068B0F5F6
:1048F000E06F02D8BBF1010F06D92068406820F4B0
:1049000080502168486005E02068406840F480508D
:10491000216848602068006800F04000402805D009
:104920002068006840F0400021680860E068B0F549
:10493000E06F4ED9606810B1B8F1010F09D1A06BDA
:1049400000882168C860A06B801CA063E08F401EB7
:10495000E08736E02068806800F00200022810D16D
:10496000E08F70B1019801280BD1A06B00882168FD
:10497000C860A06B801CA063E08F401EE087002011
:1049800001902068806800F0010080B1B4F8460012
:1049900068B12068C068216C0880206C801C20648D
:1049A000B4F84600401EA4F8460001200190FEF72E
:1049B00027FDC01BB04204D3701C10B1032000902F
:1049C00098E0E08F0028C5D1B4F846000028C1D196
:1049D00085E0606810B1B8F1010F17D1E08F0128B0
:1049E0000AD9A06B00882168C860A06B801CA063F6
:1049F000E08F801EE08709E0A06B007821680873D3
:104A0000A06B401CA063E08F401EE08760E0206840
:104A1000806800F0020002281ED1E08FE0B101980A
:104A2000012819D1E08F01280AD9A06B00882168DC
:104A3000C860A06B801CA063E08F801EE08709E047
:104A4000A06B007821680873A06B401CA063E08F06
:104A5000401EE087002001902068806800F001007F
:104A600058B3B4F8460040B3B4F84600012816D94C
:104A70002068C068216C0880206C801C2064B4F819
:104A80004600801EA4F84600B4F84600012812D85B
:104A90002068406840F48050216848600BE020683E
:104AA000007B216C0870206C401C2064B4F8460028
:104AB000401EA4F8460001200190FEF7A1FCC01B97
:104AC000B04201D3701C00B916B90320009011E068
:104AD000E08F00289BD1B4F84600002897D13A46D1
:104AE0003146204601F03EFD18B101200090202003
:104AF000206600BF012084F85D0000BF002084F81C
:104B00005C0000BF0098B2E630BCBDE8C09F7047B3
:104B10007047704710B504460CB9012010BD94F8D9
:104B20003D0028B9002084F83C00204600F029F818
:104B3000022084F83D00211D206801F0A3FE012021
:104B400084F8480000BF84F83E0001213F20015551
:104B50004020015541200155422001554320015577
:104B600000BF00BF012084F84400452001554620C5
:104B700001554720015500BF012084F83D00002069
:104B8000CCE77047014691F83D00012801D0012093
:104B90007047022081F83D000868C06840F00100BD
:104BA0000B68D860124B0868984207D00868B0F1CB
:104BB000804F03D00F4B0868984210D10868806876
:104BC0000D4B00EA0302062A0FD0B2F5803F0CD04D
:104BD0000868006840F001000B68186005E008688C
:104BE000006840F001000B6818600020D0E700006A
:104BF000002C01400040014007000100704710B543
:104C0000044620680069C0F34000D8B12068C0683D
:104C1000C0F34000B0B16FF00200216808610120CC
:104C200020772068806900F0030018B12046FFF764
:104C3000E5FF05E0204600F0BEF8204600F0BCF895
:104C40000020207720680069C0F38000D8B1206878
:104C5000C068C0F38000B0B16FF004002168086143
:104C6000022020772068806900F4407018B1204647
:104C7000FFF7C4FF05E0204600F09DF8204600F055
:104C80009BF80020207720680069C0F3C000D8B1ED
:104C90002068C068C0F3C000B0B16FF008002168A0
:104CA0000861042020772068C06900F0030018B173
:104CB0002046FFF7A3FF05E0204600F07CF82046E1
:104CC00000F07AF80020207720680069C0F3001017
:104CD000D8B12068C068C0F30010B0B16FF0100008
:104CE00021680861082020772068C06900F44070BE
:104CF00018B12046FFF782FF05E0204600F05BF880
:104D0000204600F059F8002020772068006900F064
:104D1000010058B12068C06800F0010030B16FF0A8
:104D2000010021680861204600F048F82068006909
:104D3000C0F3C01058B12068C068C0F3C01030B1D3
:104D40006FF08000216808612046FFF7E1FE2068CF
:104D50000069C0F3002058B12068C068C0F3C010DB
:104D600030B16FF48070216808612046FFF7CFFEF4
:104D700020680069C0F3801058B12068C068C0F393
:104D8000801030B16FF0400021680861204600F0CB
:104D900021F820680069C0F3401058B12068C0684D
:104DA000C0F3401030B16FF0200021680861204648
:104DB000FFF7AFFE10BD70477047000010B5044606
:104DC00003492068884201D1FEF720FB10BD000096
:104DD000002C014070477047704770B50446A56FBE
:104DE000E66F2068806800F08000802823D1212DA4
:104DF00021D100BF00BF2168083151E8001F21F018
:104E000080002168083141E80002002AF3D100BF88
:104E1000E06E68B1E06EFEF743F848B1E06EFEF771
:104E20009AF8202804D11020C4F88000032070BD17
:104E3000204601F032FF2068806800F040004028E2
:104E400023D1222E21D100BF00BF2168083151E8B3
:104E5000001F21F040002168083141E80002002ACB
:104E6000F3D100BF206F68B1206FFEF719F848B189
:104E7000206FFEF770F8202804D11020C4F88000BD
:104E80000320D4E7204601F0BFFE0020CFE77047A3
:104E90002DE9F04704462068C56920680668206847
:104EA000876840F60F0005EA0009B9F1000F0CD140
:104EB00005F0200048B106F0200030B1606E10B15E
:104EC0002046616E8847BDE8F087B9F1000F7DD0BC
:104ED00007F0010018B9BE4830400028F7D005F0AF
:104EE000010058B106F4807040B1012021680862C9
:104EF000D4F8800040F00100C4F8800005F0020002
:104F000058B107F0010040B1022021680862D4F8CE
:104F1000800040F00400C4F8800005F0040058B19F
:104F200007F0010040B1042021680862D4F8800035
:104F300040F00200C4F8800005F0080070B106F0EF
:104F4000200010B907F0010040B108202168086274
:104F5000D4F8800040F00800C4F8800005F4006038
:104F600060B106F0806048B14FF4006021680862CB
:104F7000D4F8800040F02000C4F88000D4F880000D
:104F800000284BD005F0200038B106F0200020B1F9
:104F9000606E10B12046616E8847D4F880A020680A
:104FA000806800F04000402802D00AF0280070B36A
:104FB000204601F029FE2068806800F0400040286B
:104FC00021D100BF00BF2168083100E027E051E88F
:104FD000001F21F040002168083141E80002002A4A
:104FE000F1D100BF206F50B17A48216F8863206FE4
:104FF000FDF783FF90B1206F816B88470EE020465C
:10500000FFF745FF0AE02046FFF741FF06E0FFE714
:105010002046FFF73CFF0020C4F8800053E7206ED5
:1050200001286FD105F0100000286BD006F01000A9
:105030000028FAD01020216808622068806800F0FB
:10504000400040285FD1206F006840681FFA80F858
:10505000B8F1000F55D0B4F85800404551DDA4F820
:105060005A80206F0068006800F02000E8BB00BF95
:1050700000BF216851E8001F21F48070226842E8D7
:1050800000010029F5D100BF00BF00BF2168083131
:1050900051E8001F21F001002168083141E80002B9
:1050A000002AF3D100BF00BF00BF2168083151E8DA
:1050B000001F21F040002168083141E80002002A69
:1050C000F3D100BF2020E0670020206600BF00BFB2
:1050D000216851E8001F21F01000226842E8000119
:1050E0000029F5D100BF206F00E001E0FDF7D8FEF8
:1050F000B4F85800B4F85A20801A81B22046FFF75D
:105100006AFEE0E63EE034F8580F6188401A1FFA64
:1051100080F86088583CA0B3B8F1000F31D000BFD0
:1051200000BF216851E8001F21F49070226842E816
:1051300000010029F5D100BF00BF00BF2168083180
:1051400051E8001F21F001002168083141E8000208
:10515000002AF3D100BF2020E067002020666066AF
:1051600000BF00BF216851E8001F21F01000226835
:1051700042E800010029F5D100BF41462046FFF773
:105180002AFEA0E605F4801050B107F4800038B183
:105190004FF48010216808622046FFF71DFE92E65A
:1051A00005F0800040B106F0800028B1A06E10B17B
:1051B0002046A16E884786E605F0400030B106F033
:1051C000400018B1204601F051FD7CE600BF7AE6B0
:1051D00020010004636A010810B504460CB90120DF
:1051E00010BDA06900B100E000BFA06F28B9002089
:1051F00084F87400204600F029F82420A067206875
:10520000006820F0010021680860204601F056FD8A
:10521000012800D1E4E7606A10B1204601F06CFB80
:105220002068406820F490402168486020688068C9
:1052300020F02A00216888602068006840F00100A2
:1052400021680860204601F0D3FBC9E710B59EB085
:105250000446142119A8FBF774F85C2102A8FBF797
:1052600070F87B492068884276D1012002900020A6
:105270000A9002A8FEF710FA08B1FDF729F900BF5D
:105280007448006E40F48040724908660846006E1B
:1052900000F48040019000BF00BF00BF0846C06C12
:1052A00040F00100C8640846C06C00F001000190A5
:1052B00000BF00BF4FF4C060199002201A90002078
:1052C0001B9003201C9007201D9019A94FF09040BF
:1052D000FDF7A8FF6048614908600220486000218E
:1052E0005E488160C160802101610021416181616E
:1052F0002021C16100210162FDF7B0FE08B1FDF778
:10530000E7F800BF55482067846200BF5248143850
:1053100053490860022048601021514881600021F3
:10532000C16080210161002141618161C16101622F
:10533000FDF794FE08B1FDF7CBF800BF4848E066E2
:10534000846200BF002207212520FEF701F92520F5
:10535000FEF7EAF879E0FFE74249206888423CD14D
:105360000220029000200B9002A8FEF795F908B1E8
:10537000FDF7AEF800BF3748806D40F40030354986
:1053800088650846806D00F40030019000BF00BFC2
:1053900000BF0846C06C40F00100C8640846C06CFD
:1053A00000F00100019000BF00BF0C201990022006
:1053B0001A9000201B9003201C9007201D9019A913
:1053C0004FF09040FDF72EFF002207212620FEF728
:1053D000BFF82620FEF7A8F837E023492068884266
:1053E00033D10420029000200C9002A8FEF754F95B
:1053F00008B1FDF76DF800BF1648806D40F48020BD
:10540000144988650846806D00F48020019000BF33
:1054100000BF00BF0846C06C40F00200C8640846E8
:10542000C06C00F00200019000BF00BF4FF440606C
:10543000199002201A9000201B9003201C90072036
:105440001D9019A90948FDF7EDFE1EB010BD000022
:105450000038014000100240580002403808001097
:10546000800800100044004000480040000400484C
:1054700070B504460D461646E06F20282CD105B1C4
:105480000EB9012070BD00BF94F87400012801D14D
:105490000220F7E7012084F8740000BF0020206696
:1054A0000E492068884211D02068406800F400004E
:1054B00060B100BF00BF216851E8001F41F080606B
:1054C000226842E800010029F5D100BF3246294692
:1054D000204601F06FFDD5E70220D3E700800040B1
:1054E0001CB504460E492068884218D101200D4998
:1054F00008700020019001A800231A461946009068
:105500000948006804F0D6F8019838B14FF080508F
:1055100006490860BFF34F8FBFF36F8F00BF1CBDFC
:1055200000380140300000102C00001004ED00E0B5
:1055300070472DE9F84F04460E4617469946A06F6E
:1055400020285DD106B117B9012000F05BB800BF7B
:1055500094F87400012801D10220F6E7012084F8B4
:10556000740000BF0020503420632120A062FDF7AA
:1055700047FF824627806780503CA068B0F5805F77
:1055800004D1206910B90025B04602E035464FF03D
:10559000000800BF002084F8740000BF1DE05346DF
:1055A000002280212046CDF8009001F06DFD08B169
:1055B0000320CAE745B9B8F80000C0F30800216825
:1055C000088508F1020803E02878216808856D1C29
:1055D000B4F85200401EA4F85200B4F8520000285B
:1055E000DDD15346002240212046CDF8009001F045
:1055F0004BFD08B10320A8E72020A0670020A4E706
:105600000220A2E718BCBDE8E08F000070B5044698
:105610000E461546A06F202853D106B10DB90120C2
:1056200070BD00BF94F87400012801D10220F7E793
:10563000012084F8740000BF44F84C6FA580E58019
:10564000002060632120E062206A4C3C00B31E48C9
:10565000E16EC8621D48E16E08631D48E16E486353
:105660000020E16E8863236803F128022B46E16C79
:10567000E06EFDF779FD58B11020C4F8800000BF3E
:10568000002084F8740000BF2020A0670120C7E735
:1056900040202168086200BF002084F8740000BF29
:1056A00000BF00BF2168083151E8001F41F08000B1
:1056B0002168083141E80002002AF3D100BF002030
:1056C000AEE70220ACE70000A56B0108FB6B010808
:1056D0007B6A0108034A0168914202D10021024A13
:1056E000117070470038014031000010704700BF52
:1056F000FEE710B56420FCF757FC10BD2DE9F04122
:1057000005460E460024012280212048FDF772FE46
:1057100000271AE06006040E012240211B48FDF715
:1057200069FE6420FCF740FC80211848FDF75AFE12
:1057300008B144F00104002240211448FDF75AFE4C
:105740006420FCF731FC781CC7B2082FE2DB86F03E
:10575000010280210D48FDF74DFE012240210B483A
:10576000FDF748FE6420FCF71FFC0022402107489B
:10577000FDF740FE6420FCF717FC0122802103485E
:10578000FDF738FE2C700120BDE8F08100040048D0
:105790002DE9F04105460E46002401221102204861
:1057A000FDF728FE00271AE06006040E01225102D0
:1057B0001B48FDF71FFEFFF79CFF4FF48071184850
:1057C000FDF710FE08B144F0010400224FF400710F
:1057D0001348FDF70FFEFFF78CFF781CC7B2082FA8
:1057E000E2DB86F001024FF480710D48FDF702FE06
:1057F000012251020A48FDF7FDFDFFF77AFF002262
:105800004FF400710648FDF7F5FDFFF772FF012226
:1058100011020348FDF7EEFD2C700120BDE8F08178
:105820000004004810B5012280210E48FDF7E2FD7A
:10583000012240210B48FDF7DDFD6420FCF7B4FB9D
:10584000002280210748FDF7D5FD6420FCF7ACFB62
:10585000002240210348FDF7CDFD6420FCF7A4FBA6
:1058600010BD00000004004810B5012211020D48CF
:10587000FDF7C0FD012251020A48FDF7BBFDFFF70D
:1058800038FF00224FF480710648FDF7B3FDFFF7A3
:1058900030FF00224FF400710248FDF7ABFDFFF727
:1058A00028FF10BD0004004810B5002280210A48DE
:1058B000FDF7A0FD012240210748FDF79BFD642074
:1058C000FCF772FB012280210348FDF793FD642061
:1058D000FCF76AFB10BD00000004004810B5002270
:1058E0004FF480710848FDF785FD012251020648FA
:1058F000FDF780FDFFF7FDFE012211020248FDF7D2
:1059000079FDFFF7F6FE10BD0004004870B50446AF
:10591000002519E0C4F3C01280211C48FDF76AFD80
:105920006006040E012240211848FDF763FD642043
:10593000FCF73AFB002240211448FDF75BFD642090
:10594000FCF732FB681CC5B2082DE3DB0122802185
:105950000E48FDF74FFD012240210C48FDF74AFD9E
:105960006420FCF721FB80210848FDF73BFD08B9C6
:10597000012000E000200646002240210348FDF7F8
:1059800039FD6420FCF710FB304670BD0004004870
:1059900070B50446002519E0C4F3C0124FF48071BD
:1059A0001B48FDF727FD6006040E0122510218482E
:1059B000FDF720FDFFF79DFE00224FF40071144813
:1059C000FDF718FDFFF795FE681CC5B2082DE3DB57
:1059D000012211020E48FDF70DFD012251020C4873
:1059E000FDF708FDFFF785FE4FF480710848FDF7CD
:1059F000F9FC08B9012000E00020064600224FF41F
:105A000000710348FDF7F6FCFFF773FE304670BDEA
:105A1000000400488168024A1140491C81607047B7
:105A2000C0FFFF7F024602F1600000EB81031868AF
:105A300000F0F840704701468868C0F3C000704726
:105A400001468868C0F3400070470146886800F04E
:105A50000100704701468868C0F300707047014636
:105A60008868C0F3800070470146C86800F4406051
:105A700008B9012070470020FCE700008168024A55
:105A80001140091D81607047C0FFFF7F70B500F1B4
:105A90001404C1F3406504EB85031C68C1F304568C
:105AA0000725B540AC43C1F3045502FA05F52C4374
:105AB0001C6070BD826822F0E0720A438260704709
:105AC00010B500F1600404EB81031C6824F000446D
:105AD00014431C6010BD000000B587B0182101A858
