:020000040801F1
:10000000401E0010850201089D6801084B5E010832
:10001000996801081D210108F991010800000000FC
:10002000000000000000000000000000A501010821
:10003000FD2501080000000001020108FD850108FE
:100040009F0201089F0201089F0201089F02010808
:100050009F0201089F0201089F0201089F020108F8
:100060009F0201089F0201089F0201089F020108E8
:100070009F0201089F02010825220108352201087C
:100080009F0201089F0201089F0201089F020108C8
:100090009F0201089F0201089F0201089F020108B8
:1000A0009F020108C98601089F0201089F020108FA
:1000B0009F02010800000000000000009F020108EC
:1000C0009F0201089F0201089F0201089F02010888
:1000D0009F020108F5900108099101089F0201089B
:1000E000FD2A01089F020108000000000000000036
:1000F0000000000000000000000000000000000000
:10010000000000009F020108000000009F0201089B
:1001100000000000000000009F0201089F0201088B
:100120009F0201089F0201089F0201089F02010827
:100130009F02010800000000000000000000000015
:100140009F0201089F0201089F02010800000000B1
:100150009F0201089F0201089F0201089F020108F7
:100160009F0201089F0201089F0201080000000091
:100170009F0201089F02010800000000000000002B
:100180009F0201089F0201089F020108DFF810D0BA
:1001900000F024FE00480047B1A60108AFF300803C
:1001A000401E00102C4B1968086800F05AB880F304
:1001B0000988BFF36F8F4FF0000080F311887047FC
:1001C0000000000008480068006880F308884FF0CD
:1001D000000080F3148862B661B6BFF34F8FBFF39F
:1001E0006F8F00DF00BF00BF08ED00E0DFF80C00FC
:1001F000016841F470010160704700BF88ED00E0C4
:10020000EFF30980BFF36F8F134B1A681EF0100FC6
:1002100008BF20ED108A20E9F04F106009B44FF0BC
:10022000500080F31188BFF34F8FBFF36F8F0BF037
:100230003FFE4FF0000080F3118809BC1968086880
:1002400000F014B81EF0100F08BF00F014B880F3CF
:100250000988BFF36F8F70478C010010EFF30580A2
:10026000704730C8B0E8C04FFFF7A1BF30C8B0E852
:10027000C04FFFF7E7BFB0EC088AB0EC08CAFFF741
:10028000E6BF00000648804706480047FEE7FEE755
:10029000FEE7FEE7FEE7FEE7FEE7FEE7FEE7FEE736
:1002A000A98601088D0101082DE9F05F05460020AF
:1002B00092469B4688460646814640241BE02846D7
:1002C00041464746224600F000FC53465A46C01AB3
:1002D000914110D311461846224600F0E7FB2D1A33
:1002E00067EB01084F4622460120002100F0DEFBAB
:1002F00017EB00094E41201EA4F10104DFDC484643
:1003000031462A46434600F000B830BCBDE8C09FE5
:100310002DE9FE43994615468846074601AC022959
:1003200042D3002D40D000200290A8F101004FF0F0
:10033000FF36009022E000FB057201FB05701146BC
:100340004A469047002805DC54F82600304444F81B
:10035000260013E060682A4600FB057154F8040C7F
:1003600000FB057007E00B7890F800C001F801CBA6
:1003700000F8013B521E002AF5D1764254F8040CD5
:1003800061688842D7DC4B462A463846FFF7C0FFF3
:1003900054F8040C4B46A8EB0001401C00FB057010
:1003A0002A46491EFFF7B4FF00F000B806BCBDE8BE
:1003B000F88340EA01039B0703D009E008C9121F34
:1003C00008C0042AFAD203E011F8013B00F8013B0F
:1003D000521EF9D27047D2B201E000F8012B491E3B
:1003E000FBD270470022F6E710B513460A460446D2
:1003F0001946FFF7F0FF204610BDCAB2401E10F8A4
:10040000011F8A4202D00029F9D100207047421C06
:1004100010F8011B0029FBD1801A704730B5054642
:100420000020034600E05B1C934205D2EC5CC85CF4
:10043000201A01D1002CF6D130BD00000FB400B558
:100440008DB010A909900B9000914FF0FF300A90E9
:1004500000200C9005480690054807906A4609A8B8
:100460000F9900F077FB0DB05DF814FB710B0108DC
:100470008F0B01082DE9FF5F1D464FF0FF3BD5E9CB
:10048000014691465F464FF00008A9697F1C01981C
:100490008847296A824688470028F6D1BAF1FF3F8B
:1004A0000CD024F4C064002E19DD600614D5BAF116
:1004B0002B0F09D0BAF12D0F0ED103E0584604B02E
:1004C00000F07EB844F48064A9697F1C01988847D5
:1004D000761E8246002E02DDBAF1300F03D0B9F14C
:1004E000000F26D032E0A969761E44F400747F1C08
:1004F000019888478246002E05DDBAF1780F06D0B4
:10050000BAF1580F03D0B9F1000F10D01EE0B9F1C5
:10051000000F02D0B9F1100F18D1A969761E24F48A
:1005200000747F1C019888478246102002E0082052
:1005300000E00A20814609E008FB0908A969761E47
:1005400044F400747F1C019888478246002E05DD24
:100550004946504600F0E9FA0028EDDAE9690198C9
:100560008847A00502D46FF00100A8E7E00725D175
:10057000600613D5600502D5C8F1000000E04046D2
:1005800029680A1D2A600968220501D5087015E04E
:10059000220701D5088011E008600FE02868011DDE
:1005A00029600068210502D580F8008006E0210757
:1005B00002D5A0F8008001E0C0F8008038467EE750
:1005C00030BCBDE8C09F2DE9F04791460F468046FC
:1005D0000446002614F8015B2DB100F099FA00687A
:1005E000405DC007F6D12B2D02D02D2D18D0641EF2
:1005F0004A463946204600F0DBFA27B13968A14265
:1006000001D1C7F8008071054FF002040BD54042BC
:10061000002803DD08F0D8FF0460A007BDE8F087DC
:1006200046F48066E4E70028F8DA08F0CDFF0460BD
:100630006FF00040F2E770B5064608F0C5FF0468A9
:1006400005460A2200213046FFF7BDFF2C6070BD31
:100650002DE9FE4F804681EA0300C00F0C46009052
:1006600021F0004123F00045B8EB0200A94105D27A
:100670004046214690461C460B46024623F0004069
:10068000104347D0270DC7F30A00C3F30A51029065
:10069000401A019040286BDAC3F3130040F4801B2A
:1006A0000098924620B10023D2EB030A63EB0B0BB8
:1006B00001985946C0F14002504600F0F7F906464D
:1006C0000D4650465946019A00F00FFA10EB08000B
:1006D0006141002487EA115284EAE7731A4340D04B
:1006E000009A62B3019A012A4FEA075215DC001BF7
:1006F00061EB02014FF0004202EA0752CDE90042ED
:10070000001C41F5801132462B4600F0E9FA03B097
:1007100000F045B840462146F9E7001B61EB0201B5
:10072000001C41F5801300185B412018A2F500174A
:1007300047EB030140EAD570B6196D4111E06D0831
:100740004FEA360645EAC0754FEA0752001B61EBD7
:100750000201001C41F5801149084FEA30000019E0
:10076000514132462B4603B000F01CB800F0A9BA44
:100770000098012240000023D0EB020263EBE073FB
:10078000009821464FEAE074B8EB000061EB0401E9
:10079000E9E783F000435BE781F0004158E730BCB4
:1007A000BDE8C08F30BCBDE8C04FFFF7DFBF2DE90B
:1007B000FE4F81EA030404F0004421F0004100945C
:1007C0004FF0000B23F0004350EA01045ED052EAE0
:1007D00003045BD0C3F30A54C1F30A552C44A4F2BA
:1007E000F3340194A0FB0254C1F3130141F48011CE
:1007F000C3F3130343F4801301FB024400FB034ED5
:10080000840A970A44EA815447EA8357A4FB07689D
:1008100002958D0A05FB07854FEA932C04FB0C54C7
:100820002705029D4FEA065847EA1637B5EB08053B
:100830006EEB070C870E920E47EA811742EA83128D
:10084000A7FB0201B6EB0B0164EB00042B0D43EA9E
:100850000C335E1844EB1C50DA465146E7FB0201AC
:10086000C5F313044FEA0B3343EA14534FEA04323F
:10087000019C43EA0603A4F10C040294009CCDE918
:1008800000B400F02DFA03B000F003B800200146D8
:10089000F9E730BCBDE8C08F2DE9F04D81EA0304D3
:1008A00004F0004B21F0004514464FF0000A23F0FD
:1008B000004150EA050220D054EA01021DD0C5F3E0
:1008C0000A570246C5F31303C1F31300C1F30A56D6
:1008D00040F4801543F48013A7EB0608101BD6469E
:1008E00008F2FD3873EB050002D308F1010801E0BE
:1008F00092185B41B8F1000F03DA00200146BDE811
:10090000F08D00204FF48011064684460EE0171B40
:1009100073EB050705D3121B63EB050306434CEA93
:10092000010C49084FEA300092185B4150EA010778
:10093000EDD152EA030012D082EA040083EA0501F5
:10094000084305D0101BAB4106D20122002306E06C
:1009500000224FF0004302E06FF0010253101AEB47
:1009600006004CEB085110EB0A0041EB0B01BDE80F
:10097000F04D00F0A6B90EB5C10F80EAE070084452
:10098000CA07002140F233438DE80E000A460B46A9
:1009900000F0A6F903B000BD0EB540F2334102915C
:1009A0000021CDE900110A460B4600F099F903B089
:1009B00000BD70B5C1F30A5201F000450024C1F337
:1009C000130140F2FF3341F480119A4201DA002012
:1009D00070BD40F233439A42A2F2334203DC5242EA
:1009E00000F073F800E090402C43F1D0404270BD1D
:1009F00000F0004230F000400AD0C10D01F56071F6
:100A0000C0F3160042EA0151C20840071143704783
:100A1000002001467047000030B5041E71F100044B
:100A200004DB4FF00044404264EB0101141E73F1FB
:100A3000000405DB1C464FF00043524263EB040305
:100A40008B4208BF824230BD01F0004330B421F038
:100A5000004150EA010206D00A0DA2F56072C1F30E
:100A60001301002A02DC30BC00207047440F44EA26
:100A7000C104C100E01830BC00EBC25000F0EAB87D
:100A800030B50B46014600202022012409E021FA5E
:100A900002F59D4205D303FA02F5491B04FA02F55B
:100AA0002844151EA2F10102F1DC30BD202A04DB2E
:100AB000203A00FA02F1002070479140C2F1200371
:100AC00020FA03F3194390407047202A04DB203AB0
:100AD00021FA02F00021704721FA02F3D040C2F15E
:100AE00020029140084319467047202A06DBCB17A5
:100AF000203A41FA02F043EAE07306E041FA02F3D9
:100B0000D040C2F1200291400843194670470000CE
:100B100000487047A406020810B50446FFF7F8FF26
:100B20000068005D00F0010010BD3A2800D23038A6
:100B300020F02002412A01D3A2F13700884201D3DC
:100B40004FF0FF30704700000268114413780160D5
:100B500018467047D160044951610449116200216F
:100B60001161114600F04CB9490B0108190B01083D
:100B7000426842B1016811F8013B23B1521EC0E93D
:100B80000012184670470121C160881E70474268F4
:100B90005AB1C368016843B983688B4205D0491EC6
:100BA000521CC0E90012002070474FF0FF30704720
:100BB0002DE9F05F82460078002715468B460AF142
:100BC0000104B946302801D09DB113E014F8010B9F
:100BD0000127782803D0582801D045B10AE00DB18B
:100BE000102D07D10027102514F8010B02E008256D
:100BF00000E00A250026B0460EE005FB080005FBD4
:100C000006F1012701EB10461FFA80F8B6F5803F88
:100C100000D3B94614F8010B2946FFF786FF0028D8
:100C2000EBDABBF1000F05D00FB1641E00E05446B3
:100C3000CBF80040B9F1000F06D008F0C5FC022146
:100C40000160C81E00F003B848EA0640FAE730BC6D
:100C5000BDE8C09F0029A8BF7047401C490008BFDD
:100C600020F00100704710B4B0FA80FC00FA0CF0DC
:100C700050EA010404BF10BC704749B1CCF1200414
:100C800021FA04F411FA0CF118BF012121430843A1
:100C9000A3EB0C01CB1D4FEA00614FEA102042BFCD
:100CA000002010BC704700EBC35010440029A4BFC3
:100CB00010BC7047401C490008BF20F0010010BC68
:100CC000704710B5141E73F1000408DA401C41F19E
:100CD000000192185B411A4301D120F0010010BDC0
:100CE0002DE9F04D92469B4611B1B1FA81F202E036
:100CF000B0FA80F220329046FFF7D8FE04460F4645
:100D000040EA0A0041EA0B0153465A46084313D011
:100D1000114653EA010019D0C8F140025046FFF7CE
:100D2000D4FE05460E46504659464246FFF7BEFEE3
:100D3000084305D0012004E020463946BDE8F08D87
:100D40000020054346EAE0762C4337430A986305C2
:100D5000E40AA0EB08000022FD0A44EA47540A30E6
:100D600002D500200146E9E7010510196941DDE9D6
:100D7000084500196941BDE8F04DA2E7C1F30A52E8
:100D8000C1F3130140F2FF3341F480119A4202DAB9
:100D900000200146704740F233439A42A2F23342A8
:100DA00002DC5242FFF791BEFFF780BE30B5041E51
:100DB00071F1000404DB4FF00044404264EB010198
:100DC000141E73F1000405DB1C464FF00043524231
:100DD00063EB0403994208BF904230BD064C074DB7
:100DE00006E0E06840F0010394E8070098471034FB
:100DF000AC42F6D3FFF7CEF9C0120208F012020897
:100E00002DE9F34F8BB04FF0000801F10C000C46B8
:100E10004FF0010B46460DF1080A0190626901216D
:100E200001989047051E2DD0252D2CD0216A88478A
:100E3000C0B16269012101989047216A8847002862
:100E4000F7D1411E62690198904700E0761CA169C4
:100E50000B988847216A88470028F7D1E1690B98E9
:100E60008847DBE7A1690B9888470746A84201D16C
:100E7000761CD3E7E1690B9888477F1C02D1B8F153
:100E8000000F6FD047E1002762693D46394601985F
:100E900090472A2804D162690121019890470125D1
:100EA000DFF888926269012101989047A0F1300132
:100EB0000A290AD24F45E5DC07EB870100EB410721
:100EC000303FDFD445F01005ECE7E90601D46FF0C0
:100ED00000476C280AD04C2814D0682815D06A28FE
:100EE0000DD074281CD07A281AD01DE06269012127
:100EF000019890476C2802D045F0040514E045F0B5
:100F000002050DE045F020050AE062690121019823
:100F10009047682802D045F0080505E045F40065D3
:100F20006269012101989047C4E9015765283DD0C5
:100F300019DC58287AD00CDC452837D004DC252869
:100F400026D0412831D131E046282FD047282CD156
:100F50002CE05B2877D0612828D063287CD06428D7
:100F600023D15AE0D1E06F2848D008DC66281DD094
:100F700067281BD0692821D06E2816D127E0702859
:100F800045D0732868D0752847D078280DD14DE01A
:100F9000A1690B988847054625283FF469AFE169A8
:100FA0000B9888476D1C3FF46AAFB4E023466A464D
:100FB0006FF001000B99AFF300809FE045F0400017
:100FC0006060A80723464FF0000236D43EE0E807F1
:100FD0007FF447AF2068011D21600068290501D515
:100FE00006701BE7290701D5068017E7A90703D577
:100FF000F117C0E9006111E706600FE745F0400016
:101000006060A80723464FF0080216D41EE040F6A1
:101010000E0125EA0100606016E045F040006060C6
:10102000A80723464FF00A0207D40FE045F040001E
:101030006060A80708D5234610226FF001000B99C5
:10104000AFF300805AE007E0234610226FF0010062
:101050000B99FFF70FFA51E04FF000094F464B464E
:10106000632802D05B2807D041E02079C00601D474
:101070000120A06001273AE06269012101989047B0
:101080005E2805D14FF001096269494601989047F1
:10109000216939B900210A46534643F82120491CE9
:1010A0000829FADBB0B3216969B9C11700EBD16235
:1010B00053110AEB830122F01F02821A01200B68F0
:1010C000904003430B6062690121019890475D28BD
:1010D000E8D1B9F1000F09D00020514651F8202085
:1010E000D24341F82020401C0828F7DB02AB2246FF
:1010F00000976FF001000B99AFF3008000280CDA25
:10110000401C08D1BBF1000F05D04FF0FF300DB0EF
:1011100000F00EB8FFE74046F9E7E90701D108F112
:10112000010806444FF0000B78E60000CCCCCC0C54
:1011300030BCBDE8C08F70B58C1810F8015B15F09D
:10114000070301D110F8013B2A1106D110F8012B39
:1011500003E010F8016B01F8016B5B1EF9D12B075E
:1011600005D40023521E0DD401F8013BFAE710F814
:10117000013BCB1A921C03E013F8015B01F8015B01
:10118000521EF9D5A142D8D3002070BD9FED241A7C
:10119000B5EE002A40F6BC230021B7EE004AC0F6A7
:1011A000020320EE010A30EE020ABDEEC01AB5EECF
:1011B000C00A11EE100AF1EE10FA9FED1A1AB8BF2C
:1011C000013802EE100AB8EEC22A30EE420A9FED54
:1011D000162A20EE010ABDEEC01A11EE100A30EEFA
:1011E000021A0246B1EB502F18BF002202EE102A5D
:1011F00003EB8203B1EB502F18BFB0EE410AB8EEFB
:10120000421A93ED002A93ED013A30EE410A34EE92
:10121000401A20EE030A21EE021A31EE000A70474E
:1012200083F9223E00000044000000C49FED221A12
:1012300040F6BC230021B7EE004AC0F6020320EEC0
:10124000010ABDEEC01AB5EEC00A11EE100AF1EEA9
:1012500010FA9FED1A1AB8BF013802EE100AB8EE64
:10126000C22A30EE420A9FED162A20EE010ABDEE98
:10127000C01A11EE100A30EE021A0246B1EB502FDE
:1012800018BF002202EE102A03EB8203B1EB502FAD
:1012900018BFB0EE410AB8EE421A93ED002A93ED62
:1012A000013A30EE410A34EE401A20EE030A21EEF4
:1012B000021A31EE000A704783F9223E0000004412
:1012C000000000C42DE9F05F044688464FF0000995
:1012D0004746206805F051F88246206805F039F845
:1012E0008346BAF1000F02D1BBF1000F72D0206823
:1012F000C06800F0007000B3607E01281DD1207E20
:1013000001281AD101270FE0334881450AD3606DC7
:1013100040F010006065A06D40F00100A065012064
:1013200000F05EB809F1010920680068C0F3801080
:101330000028E9D0402021680860022F10D02068E2
:1013400005F01BF860B1206805F008F840B9206886
:101350008168224A114041F01001816000BF00BF46
:10136000012F10D0206804F0F4FF60B1206804F071
:10137000F5FF40B920688168184A114041F020010A
:10138000816000BF00BF022F03D0032F03D10C25C3
:1013900003E0082501E0042500BF00BF02F0BEFB0A
:1013A000064612E002F0BAFB801B05280DD9206822
:1013B0008068284048B1606D40F010006065A06D05
:1013C00040F00100A0650120AAE72068806828405D
:1013D0000028E7D10020A3E7000040A3C0FFFF7F63
:1013E00030BCBDE8C09F000070B50446206804F022
:1013F000B5FF0646206804F0B6FF98B396BB206898
:10140000806800F00D0001280AD1206881681A4A1E
:101410001140891C816000BF03202168086009E039
:10142000606D40F010006065A06D40F00100A065A7
:10143000012070BD02F072FB054614E002F06EFB65
:10144000401B02280FD92068806800F0010050B1CD
:10145000606D40F010006065A06D40F00100A06577
:101460000120E6E705E02068806800F00100002820
:10147000E4D10020DDE70000C0FFFF7F38B504465F
:1014800000200090206804F06EFF00284FD12068F3
:1014900080682849084048B1606D40F010006065E0
:1014A000A06D40F00100A065012038BD206804F067
:1014B0003FFF00BF2048806800F0E07000F40000AB
:1014C00080B11E4800681E49B0FBF1F0401C00EBE3
:1014D00040008000009002E00098401E00900098BC
:1014E0000028F9D102F01AFB05461AE0206804F042
:1014F0003AFF10B9206804F01BFF02F00FFB401BFD
:1015000002280ED92068006800F0010048B9606D1B
:1015100040F010006065A06D40F00100A065012062
:10152000C3E72068006800F001000028DED000203A
:10153000BBE700003F00008000030450B000001033
:10154000400D03002DED028B0024012211032748DA
:1015500002F0DEFA48E0264801F0C1FF32212448BB
:1015600001F05AFF224801F0FCFD00F40070B0F5D4
:10157000007F03D11E4801F0F7FD85B200EE105A3E
:10158000B8EE400ADFED1B0A20EE200A9FED1A1A82
:10159000C0EE010AB0EE000A20EE800A10EE106ADA
:1015A0003046FFF725FA41EC180B53EC182B13A02B
:1015B00007F0DEFF4FF47A700AF0F0F9601C84B295
:1015C000052C06D100224FF48051084802F0A0FA01
:1015D00007E00A2C05D1002401221103034802F080
:1015E00097FA034801F0C5FFB5E700000004004882
:1015F000A8040010CDCC1C4000008045204144319F
:101600002076616C7565203D2025312E336656208D
:101610000D0A000000B585B014216846FEF7E2FE11
:1016200011200190012002900220039040200090A0
:101630006946244802F084F98020009069462148D8
:1016400002F07EF9012240211E4802F061FA0122D7
:1016500080211C4802F05CFA00F0C6F810B90020A6
:1016600005B000BD44F6206000F0CAFF04F068FD3C
:10167000702004F0D9FD18B904F0A4FD0020EFE7B4
:10168000BE2004F0D1FD18B904F09CFD0020E7E76E
:10169000082004F0C9FD18B904F094FD0020DFE72C
:1016A000002004F0C1FD18B904F08CFD0020D7E73C
:1016B00004F088FD42F2107000F0A2FF00F0AFF8D5
:1016C000CEE70000000400482DE9FC41054600205B
:1016D0000090019004F034FD702004F0A5FD20B9C5
:1016E00004F070FD0020BDE8FC81AC2004F09CFDFE
:1016F00018B904F067FD0020F5E7332004F094FDED
:1017000018B904F05FFD0020EDE7002004F08CFD27
:1017100018B904F057FD0020E5E704F053FD00F090
:101720007EF808B90020DEE704F00AFD712004F01D
:101730007BFD18B904F046FD0020D4E7002410E03A
:10174000052C01DA012200E0002211460DEB040015
:1017500004F062FC18B904F035FD0020C3E7601CFA
:10176000C4B2062CECDB04F02DFD9DF80100000353
:101770009DF8021040EA01109DF8031040EA21167E
:101780009DF803000007000B9DF8041040EA0120BB
:101790009DF8051040EA010700EE106AF8EE400AD5
:1017A0009FED0D1A80EE810ADFED0C0A20EE200A73
:1017B00085ED000A00EE107AB8EE400A9FED061A99
:1017C000C0EE010A9FED061A9FED060A10EE810A8F
:1017D00085ED010A012086E7000080490000C8422B
:1017E000000048430000484210B504F0A9FC7020F6
:1017F00004F01AFD18B904F0E5FC002010BDBA2071
:1018000004F012FD18B904F0DDFC0020F6E704F046
:10181000D9FC44F6206000F0F3FE0120EEE738B575
:101820004FF47A7400BF04F08BFC712004F0FCFCD0
:1018300018B904F0C7FC002038BD0021684604F048
:10184000EBFB18B904F0BEFC0020F5E704F0BAFC8D
:101850009DF8000000F0800008B90120ECE74FF48B
:10186000FA6000F0CDFE201EA4F10104DBD100BF20
:10187000E2E700007CB505462846FEF7DCFE04469C
:10188000012C14D117A007F073FE1F48006850B94F
:101890001D48022100238022CDE900101BA11E4813
:1018A0000AF0F0FE1DE01DA007F062FE19E0002C1A
:1018B00014D123A007F05CFE1348006850B1124811
:1018C00000680AF099F800200F4908601CA007F092
:1018D0004FFE06E021A007F04BFE02E027A007F034
:1018E00047FE7CBD4144432056616C7565205461C0
:1018F000736B20616C72656164792072756E6E69BC
:101900006E672E0D0A000000000000104144435F86
:1019100056616C756500000045150108414443207F
:1019200056616C7565205461736B20616C726561E2
:1019300064792072756E6E696E672E0A0000000071
:101940004144432056616C7565205461736B20736C
:10195000746F707065642E0A0000000041444320DB
:1019600056616C7565205461736B206973206E6FCE
:10197000742072756E6E696E672E0A00496E76610C
:101980006C696420617267756D656E7420666F7234
:101990002042542B4144435F56616C75650A000038
:1019A0002DE9F04106463D213046FEF726FD05466D
:1019B000E5B1002028706F1C002414E004EB440003
:1019C0000D4A52F8201040223046FEF727FD48B954
:1019D00004EB4400084A02EB80004168384688471F
:1019E000BDE8F081641C082CE8D300BF314603A099
:1019F00007F0BEFD00BFF3E7CC000010556E6B6E24
:101A00006F776E20636F6D6D616E643A2025730A87
:101A100042542B48454C503D31200A007CB50546C8
:101A20002846FEF708FE0446012C17D117A007F040
:101A30009FFD1F48007868B91E4802210023CA0193
:101A4000CDE900101CA11F480AF01CFE0120184916
:101A500008701AE01CA007F08BFD16E094B914483A
:101A6000007801280AD11348006809F0C5FF1EA0BC
:101A700007F07EFD00200E49087006E020A007F068
:101A800077FD02E026A007F073FD7CBD4550445F62
:101A900074657374205461736B20616C726561644A
:101AA000792072756E6E696E672E0D0A0000000057
:101AB0002D010010040000104550445F74657374DC
:101AC00000000000572A01084550445F7465737494
:101AD000205461736B20616C72656164792072754A
:101AE0006E6E696E672E0A004550445F74657374AC
:101AF000205461736B2073746F707065642E0A00DC
:101B00004550445F74657374205461736B2069732E
:101B1000206E6F742072756E6E696E672E0A0000FB
:101B2000496E76616C696420617267756D656E746B
:101B300020666F722042542B4550445F7465737465
:101B40000A0000007CB505462846FEF774FD0446F1
:101B5000012C17D119A007F00BFD2148007868B9B6
:101B60002048022100238022CDE900101EA1214837
:101B70000AF088FD01201A4908701EE01EA007F037
:101B8000F7FC1AE0002C15D123A007F0F1FC144853
:101B9000007801280AD11348006809F02DFF1EA023
:101BA00007F0E6FC00200E49087006E020A007F0D0
:101BB000DFFC02E026A007F0DBFC7CBD455850208E
:101BC00074657374205461736B20616C7265616419
:101BD000792072756E6E696E672E0D0A0000000026
:101BE0002C010010080000104558505F7465737494
:101BF00000000000852A0108455850207465737460
:101C0000205461736B20616C726561647920727518
:101C10006E6E696E672E0A004558502074657374A5
:101C2000205461736B2073746F707065642E0A00AA
:101C30004558502074657374205461736B20697328
:101C4000206E6F742072756E6E696E672E0A0000CA
:101C5000496E76616C696420617267756D656E743A
:101C600020666F722042542B4558505F7465737420
:101C70000A00000070B5054611A007F079FC0024A9
:101C80001AE004EB4400144A52F8201013A007F0A5
:101C90006FFC04EB4400104A02EB8000816810A046
:101CA00007F066FC04EB44000B4A02EB80008168FD
:101CB00010A007F05DFC641C082CE2D370BD00008E
:101CC000417661696C61626C6520425420636F6D7E
:101CD0006D616E64733A0A00CC00001025730A002F
:101CE0004465736372697074696F6E3A2025730A74
:101CF000000000004578616D706C65207573616748
:101D0000653A2025730A0A0000B5C1B01FE04FF400
:101D100080722148016801A807F0CEFA4FF4807163
:101D200001A807F095F900BF1C480068C069C0F31E
:101D300080100028F8D01848006800F58070164917
:101D4000086017480068A0F58070154908601448BD
:101D50000068B0F5807FDAD811480068A0B110485B
:101D6000008882B20C48016801A807F0A5FA0C4867
:101D7000016801A807F06CF900BF08480068C06955
:101D8000C0F380100028F8D00020054908600249FF
:101D9000086041B000BD000038010010F8090010D3
:101DA0003C01001010B58CB0044605A806A907AA8E
:101DB00008ABCDE90132CDE9031009A80AAB0BAAA3
:101DC00011A100902046FEF739FB072817D105988E
:101DD000012802DB0598072804DD124807F0C8FB3C
:101DE0000CB010BDDDE906210598CDE90012029086
:101DF000DDE90832DDE90A1006F016FA02E00A48C9
:101E000007F0B6FB00BFEBE72534642D2532642DC7
:101E1000253264202532643A2532643A2532642022
:101E200025640000B40602080007020870B50546E4
:101E30002C212846FEF7E1FA0446BCB100202070B0
:101E4000102200212846FEF7BEFB0A490860601CEC
:101E5000FEF7F1FB0849086008460268054801687A
:101E600006A007F085FBFFF74FFF02E00BA007F08D
:101E70007FFB70BD380100103C01001052656164A9
:101E8000416464723A20307825582C20446174658E
:101E900053697A653A2025640A000000496E76612C
:101EA0006C696420617267756D656E7420666F720F
:101EB0002042542B53657457726974650A00000000
:101EC00070B505462C212846FEF797FA0446F4B172
:101ED00000202070102200212846FEF774FB0E49D6
:101EE0000860601CFEF7A7FB0C4908600846026802
:101EF000094801680AA007F03BFB0848016806484A
:101F0000006807F07BF90EA007F032FB02E00FA09B
:101F100007F02EFB70BD00003001001034010010EE
:101F20005772697465416464723A20307825582C80
:101F3000204461746553697A653A2025640A00007B
:101F40004572617365204F4B0D0A0000496E766142
:101F50006C696420617267756D656E7420666F725E
:101F60002042542B53657457726974650A0000004F
:101F700010B5044601200349087003A007F0F8FAE1
:101F800010BD0000C8000010466C6173685772698C
:101F90007465446174655461736B2052756E0D0AEB
:101FA0000000000010B506F043FB04F09BFA04F0BB
:101FB00063FA124801F0DCF904F01CFA104802F050
:101FC00085FF04F089FB0F4802F080FF04F0AEFBB0
:101FD0000D4803F0E9FC0D4803F0E6FC0C4803F063
:101FE000E3FC04F0CDFB04F017FC04F035FC00F03A
:101FF000E9FA07F0CBF9FFF70DFB10BDA8040010BC
:102000003005001094050010F80900107C0A00103B
:10201000000B001010B500F0F9FC07F037F910BD07
:102020007CB504460D4606F093FAB4F5A07F01D8BE
:10203000F02D03D925A007F09BFA7CBD4FF4A571C4
:10204000002008F07DFC064616B926A007F090FA9D
:10205000FF2000231E225A210090304604F0F0FC9D
:10206000304604F031FDFF2004F01AFC002001216D
:10207000182326A2CDE90010084605F049FC0020EF
:102080000121182323A2CDE900104E2005F040FCC9
:1020900000200121CDE900101F4890F842201823AC
:1020A000322005F089FD05F11E0080B2009004F198
:1020B0005A0083B2AAB2A1B2304600F039FB3146D1
:1020C000002008F02BFC00BFB7E7000078737461B4
:1020D0007274206F722079737461727420657272E9
:1020E000200D0A004661696C656420746F20617080
:1020F000706C7920666F7220626C61636B206D6515
:102100006D6F72792E2E2E0D0A0000004261743A16
:1021100000000000250000001002001000BFFEE7D4
:1021200008B53AE009F0BEF800901C48BDF8001070
:1021300001800078002830D018484078012814D158
:102140001648017816A007F013FA012202214FF079
:10215000904001F0DDFC642009F020FC0022022107
:102160004FF0904001F0D4FC17E00C484078022872
:1021700013D10A48017811A007F0FAF901220221CF
:102180004FF0904001F0C4FC142009F007FC00223D
:1021900002214FF0904001F0BBFCC3E7B8000010F3
:1021A000427574746F6E2025642073686F7274209A
:1021B000707265737365640A000000004275747480
:1021C0006F6E202564206C6F6E672070726573736C
:1021D00065640A0010B500220221074801F098FC4E
:1021E00000220421044801F093FC01221146024818
:1021F00001F08EFC002010BD0004004801B582B043
:1022000000200190401E012301AA02A90090044869
:1022100002F0CAFE08B1FF200EBD9DF80400FBE7E6
:102220003005001010B5024801F026FA10BD00007C
:10223000CC0B001010B5024801F01EFA10BD0000D2
:10224000840B001030B590F8444004F01C050124C4
:10225000AC40056C6C60046863608468102C04D129
:102260000468A2600468E16003E00468A160046897
:10227000E26030BD08B569460F2000F0A1F808B94A
:10228000002008BD9DF8000020F0010000909DF89E
:1022900000100F2000F074F9F3E77CB5044603F05A
:1022A00071FFD02004F002F818B903F0A5FF002058
:1022B0007CBD002003F0FAFF18B903F09DFF002059
:1022C000F6E703F05FFFD12003F0F0FF18B903F049
:1022D00093FF0020ECE700250AE0062D01D0012243
:1022E00000E0002211460DEB050003F0DFFE6D1C3F
:1022F000072DF2DB03F080FF9DF8001001F07F0056
:1023000007F0F2FD20709DF8010007F0EDFD607010
:102310009DF8021001F03F0007F0E6FDA0709DF867
:10232000030007F0E1FD20729DF8040007F0DCFDDA
:10233000E0709DF80500C6099DF8051001F01F002A
:1023400007F0D2FD20719DF8060007F0CDFD06EBE9
:10235000C60101EB06114FF4FA6202EB8101084459
:10236000E0800120A4E7000000B585B01421684694
:10237000FEF738F81120019001200290022003900E
:102380000002009069460D4801F0DAFA4FF48070BF
:1023900000906946094801F0D3FA0122510207482A
:1023A00001F0B6FB01221102044801F0B1FB44F632
:1023B000206000F025F9012005B000BD00040048B0
:1023C00070B505460C4603F0DDFED02003F06EFF2D
:1023D00018B903F011FF002070BD284603F066FF16
:1023E00018B903F009FF0020F6E703F0CBFED12077
:1023F00003F05CFF18B903F0FFFE0020ECE70021BA
:10240000204603F053FE064603F0F6FE3046E3E7AF
:102410001CB5044601A90E20FFF7D2FF08B9002021
:102420001CBD9DF8040020F05C000190052C31D209
:10243000DFE804F003090F1A25009DF8040040F0BE
:102440000400019028E09DF8040020F004000190B1
:1024500022E09DF8040040F0080001909DF804007F
:1024600020F00400019017E09DF8040040F01000F7
:1024700001909DF8040020F0040001900CE09DF80C
:10248000040040F0180001909DF8040020F00400C2
:10249000019001E00020C3E700BF9DF804100E206A
:1024A00000F06EF808B90020BAE769460E20FFF781
:1024B00087FF9DF800009DF80410884201D101209B
:1024C000AEE70020ACE77CB50446207807F0B9FD04
:1024D00000F07F008DF80000607807F0B2FD8DF805
:1024E0000100A07807F0ADFD8DF80200207A07F01A
:1024F000A8FD8DF80300E07807F0A3FD8DF8040037
:10250000E088B0F5FA6F01DB012000E0002006460C
:10251000207907F096FD40EAC610C0B28DF805009C
:10252000E088642190FBF1F201FB1200C5B228465D
:1025300007F087FD8DF8060003F024FED02003F09D
:10254000B5FE18B903F058FE00207CBD002003F052
:10255000ADFE18B903F050FE0020F6E7002509E0B3
:102560001DF8050003F0A2FE18B903F045FE002097
:10257000EBE76D1C072DF3DB03F03EFE0120E4E7E3
:1025800070B505460C4603F0FDFDD02003F08EFE2D
:1025900018B903F031FE002070BD284603F086FE16
:1025A00018B903F029FE0020F6E7204603F07EFE6E
:1025B00018B903F021FE0020EEE703F01DFE012014
:1025C000EAE700000B48006800F0807028B909486D
:1025D000006840F08070074908600748006800F014
:1025E000010028B90448006840F001000249086071
:1025F00070470000FCED00E0001000E070470000B4
:1026000030B507490A68074C2468074DB4FBF5F458
:1026100004FB00F300BF0C68A41A9C42FBD330BD3E
:10262000041000E0B000001040420F002DE9F0411E
:10263000204B1A88D31702EB5373DB10A2EBC303B2
:1026400033B91C4B1988CB1701EB5373DB1006E031
:10265000184B1888C31700EB5373DB105B1C9CB23C
:1026600015480588242000F06BF900260AE00027B1
:1026700004E0FF2000F07CF9781C87B2A742F8DB69
:10268000701C86B2AE42F2DB262000F059F900261B
:102690000AE0002704E0FF2000F06AF9781C87B206
:1026A000A742F8DB701C86B2AE42F2DB00F0B9F94B
:1026B000BDE8F081880100108A01001010B500F01B
:1026C00023F900F013F9122000F03AF900F00EF9A6
:1026D000FF2000F035F9212000F032F9402000F011
:1026E00047F9002000F044F93C2000F029F90520CA
:1026F00000F03EF9112000F023F9032000F038F932
:1027000009480088401E83B208480088401E82B2F3
:102710000021084600F058F90021084600F040F971
:1027200000F0E4F810BD00008A01001088010010DC
:102730002DE9FF4F81B00D4616461C460E9F4FEA0D
:10274000E57B05EB5B7B4FEAEB0BA5EBCB0B4FEA95
:10275000E47E04EB5E7E4FEAEE0EA4EBCE0EF34475
:10276000BBF1080F12D1AC464FEAE57B05EB5B7B72
:102770004FEAEB0BA5EBCB0B4FEAE47E04EB5E7E5E
:102780004FEAEE0EA4EBCE0EF3451FDC4FEAE57BDD
:1027900005EB5B7B4FEAEB0BA5EBCB0B4FEAE47E43
:1027A00004EB5E7E4FEAEE0EA4EBCE0EF344BBF1DB
:1027B000000F0BD0601B4FEAE07B00EB5B7B4FEA26
:1027C000EB0BA0EBCB0BBBF1000F0CD12846E917AC
:1027D00005EB5171C1F3CF052046E11704EB5171B0
:1027E000C1F3CF041BE02846E91705EB5171C1F393
:1027F000CF010D462246E31704EB5373DB10A4EB25
:10280000C3032BB92146CB1701EB5373DB1005E053
:102810002046E31704EB5373DB105B1C9CB2601B78
:102820001FFA80F8B81B00FB08F080B20090601E11
:1028300084B2781E87B2912000F082F8002000F068
:1028400097F8002000F094F83C2000F079F8802000
:1028500000F08EF8112000F073F8032000F088F8E3
:10286000442000F06DF8E8B200F082F8E0B200F029
:102870007FF8452000F064F8F0B200F079F8C6F374
:10288000002000F075F8F8B200F072F8C7F30020ED
:1028900000F06EF84E2000F053F8E8B200F068F84F
:1028A0004F2000F04DF8F0B200F062F8C6F30020BF
:1028B00000F05EF800F01AF8242000F041F84FF024
:1028C000000908E0019911F8090000F051F809F138
:1028D00001001FFA80F900988145F3DB00F0AEF8A3
:1028E00005B000F000B830BCBDE8C08F10B502E004
:1028F0000A2009F053F840214FF0904001F000F910
:102900000128F5D010BD000010B5012211460B487A
:1029100001F0FEF8642009F041F800220121074887
:1029200001F0F6F8642009F039F801221146034855
:1029300001F0EEF8642009F031F810BD0004004801
:1029400010B5044600220221084801F0E1F80022F7
:102950000421064801F0DCF82046FFF74FFC012275
:102960000421024801F0D4F810BD00000004004822
:1029700010B5044601220221084801F0C9F80022DE
:102980000421064801F0C4F82046FFF737FC012275
:102990001146024801F0BCF810BD000000040048D8
:1029A00070B505460C464E20FFF7CAFFC5F3C700B9
:1029B000FFF7DEFF4F20FFF7C3FFE0B2FFF7D8FFBE
:1029C000200AFFF7D5FF70BD2DE9F04106460C4601
:1029D00017461D464420FFF7B3FFC6F3C700FFF7B5
:1029E000C7FFC7F3C700FFF7C3FF4520FFF7A8FFE6
:1029F000E0B2FFF7BDFF200AFFF7BAFFE8B2FFF72A
:102A0000B7FF280AFFF7B4FFBDE8F08110B510202A
:102A1000FFF796FF0120FFF7ABFFC82008F0BEFFCD
:102A200010BD10B52220FFF78BFFF720FFF7A0FFA6
:102A30002020FFF785FFFFF759FF10BD10B52220BA
:102A4000FFF77EFFFF20FFF793FF2020FFF778FFBF
:102A5000FFF74CFF10BD08B5FFF7BCFBFFF72EFEDC
:102A6000FFF7E4FD0CE065200346012211460090CB
:102A70004FF4A00005F02EF947F2305008F08EFF19
:102A8000F1E700002DED028B26E04FF47A7008F09C
:102A900085FF1248FEF718FE104890ED000A10EE70
:102AA000101A0846FDF7A4FF41EC180B53EC182B45
:102AB0000BA006F05DFD094890ED010A10EE101A1A
:102AC0000846FDF795FF41EC180B53EC182B08A0B6
:102AD00006F04EFD00F038F8D7E700000C000010BB
:102AE00068756D69646974793A2025660D0A00007D
:102AF00074656D703A2025660D0A000010B50F4808
:102B0000006800F4006028B14FF400600B490860D1
:102B100006F002FB0948006800F4005028B14FF4A9
:102B200000500649086006F013FB4FF4006000F007
:102B3000F9FE4FF4005000F0F5FE10BD1404014002
:102B400072B600BFFEE7000000B587B0142102A8EE
:102B5000FDF748FC00200190002202A9104802F075
:102B600077F8002201A90E4802F04CF89DF80A30CF
:102B70009DF809209DF808100AA006F0F9FC9DF8C0
:102B800006309DF805209DF807100CA006F0F0FC1B
:102B90009DF804100FA006F0EBFC07B000BD00008C
:102BA0000C05001054696D653A20253032643A25D1
:102BB0003032643A253032640A00000044617465A2
:102BC0003A20253032642D253032642D2530326490
:102BD0000A0000005765656B6461793A2025640A34
:102BE00000000000F8B504460D460020009000BF2C
:102BF00094F85000012801D10220F8BD012084F88A
:102C0000500000BF2046FEF7EFFB06468EBB606D0E
:102C100020F4885040F002006065206881681B4AFB
:102C2000114005F0804242F000421143816000BF34
:102C300013E00098401C00900098B0F5912F0CD341
:102C4000606D20F0020040F01000606500BF0020C1
:102C500084F8500000BF0120CFE720688168C90FC9
:102C60000029E6D1606D20F0020040F001006065AF
:102C700004E0FFE7606D40F01000606500BF0020D9
:102C800084F8500000BF3046B7E70000C0FFFF3FA8
:102C90002DE9F84F05460C464FF0000A0020009041
:102CA000FE49E068884200D000E000BF00BF95F810
:102CB0005000012802D1022000F050BA012085F80E
:102CC000500000BF286803F058FB002872D16068EC
:102CD00005281AD86068022806D0032807D00428DF
:102CE00008D005280DD108E00C2060600CE012200F
:102CF000606009E01820606006E04FF4807060605A
:102D000002E00620606000BF00BF2968D4E900200F
:102D100001F1300CC0F3012B0CEB8B03D3F800C096
:102D200000F01F0E4FF01F0B0BFA0EFB2CEA0B0CE2
:102D300000F01F0BC2F3846E0EFA0BFE4CEA0E0C71
:102D4000C3F800C000BF286803F017FB814628685D
:102D500003F0FFFA8046B9F1000F2AD1B8F1000F55
:102D6000FBD1A2682168286803F01EFB606929680E
:102D7000C968C1F3C101490000FA01F720690428BC
:102D800019D028682268216900F1600C0CEB8103DE
:102D9000D3F800C0DFF808B30CEA0B0C02F0F84BD4
:102DA0004BF0004B4BEA070B4CEA0B0CC3F800C08E
:102DB00000BFA8E0B8E10021286803F0C1FAC0F321
:102DC000120030B90021286803F0BAFAC0F3846019
:102DD00007E00021286803F0B3FA90FAA0F0B0FAF7
:102DE00080F02168C1F3120119B92168C1F384612F
:102DF00004E0216891FAA1F1B1FA81F1884204D18D
:102E000000221146286803F0E9FA0121286803F03E
:102E100097FAC0F3120030B90121286803F090FA44
:102E2000C0F3846007E00121286803F089FA90FA72
:102E3000A0F0B0FA80F02168C1F3120119B921683D
:102E4000C1F3846104E0216891FAA1F1B1FA81F142
:102E5000884204D100220121286803F0BFFA022130
:102E6000286803F06DFAC0F3120030B90221286817
:102E700003F066FAC0F3846007E00221286803F0DB
:102E80005FFA90FAA0F0B0FA80F02168C1F3120165
:102E900019B92168C1F3846104E0216891FAA1F1B4
:102EA000B1FA81F1884204D100220221286803F09E
:102EB00095FA0321286803F043FAC0F3120030B9F1
:102EC0000321286803F03CFAC0F3846007E0032183
:102ED000286803F035FA90FAA0F0B0FA80F0216883
:102EE000C1F3120119B92168C1F3846104E02168BA
:102EF00091FAA1F1B1FA81F1884204D100220321B3
:102F0000286803F06BFA286803F02DFA002870D1C6
:102F10002868E2682168D0F8B0C0C1F312032CEA37
:102F2000030C02F0180B5F4B23FA0BF30B404CEA37
:102F3000030CC0F8B0C000BF5849E068884258D1BF
:102F40002368C3F312031BB92368C3F3846304E04B
:102F5000236893FAA3F3B3FA83F35B1C03F01F0314
:102F6000092B3ED82368C3F312031BB92368C3F3AC
:102F7000846304E0236893FAA3F3B3FA83F35B1C3E
:102F800003F01F034FF0010C0CFA03FC2368C3F39A
:102F900012031BB92368C3F3846304E0236893FA24
:102FA000A3F3B3FA83F35B1C03F01F034CEA836CB7
:102FB0002368C3F312031BB92368C3F3846304E0DB
:102FC000236893FAA3F3B3FA83F35B1C03F01F03A4
:102FD00003EB43034FF0000B4BEA03534CEA0303AC
:102FE0003FE02368C3F3120323B92368C3F3846368
:102FF00005E03BE0236893FAA3F3B3FA83F35B1C89
:1030000003F01F034FF0010C0CFA03FC2368C3F319
:1030100012031BB92368C3F3846304E0236893FAA3
:10302000A3F3B3FA83F35B1C03F01F034CEA836C36
:103030002368C3F312031BB92368C3F3846304E05A
:10304000236893FAA3F3B3FA83F35B1C03F01F0323
:103050000A3B03EB43034FF0007B4BEA03534CEA7C
:1030600003031946A268286803F09EF90E492068F8
:10307000084078B300BF0D48806800F0E07600BFDC
:103080000B49206888422DD106F4000050BB094945
:10309000286888424ED146F400010DE000007F40D0
:1030A00000F0FF03FFFF070000000880000304504A
:1030B000000052C700000450224803F089F922485A
:1030C00000682249B0FBF1F0401C00EB400080009A
:1030D000009003E016E00098401E00900098002841
:1030E000F9D127E01A49206888420CD106F0807097
:1030F00048B91849286888421CD146F080711148A7
:1031000003F066F916E014492068884212D106F4EB
:10311000800078B90F49286888420BD146F48001B5
:10312000084803F055F905E0686D40F02000686537
:103130004FF0010A00BF002085F8500000BF504644
:10314000BAE5000000030450B0000010400D030079
:10315000000084CB000004500100008018BCBDE8D2
:10316000E08F0146486D704701460868006C704763
:103170002DE9F84304464FF000090020009014B9EF
:103180000120BDE8F883206920B12020005D0128DE
:1031900000D100BF606D30B9204600F0E9F8002092
:1031A000A06584F8500020688168C1F3407131B196
:1031B00020688168674A1140816000BF00BF2068B5
:1031C00003F0D6F8B0B920688168634A114041F035
:1031D0008051816000BF614800686149B0FBF1F037
:1031E000401C4000009002E00098401E00900098B3
:1031F0000028F9D1206803F0BBF848B9606D40F0B1
:1032000010006065A06D40F00100A0654FF001095D
:10321000206803F0B2F80646606D00F01000002848
:103220007ED1002EFCD1606D20F4807040F0020051
:103230006065206803F097F868B94A4803F093F88E
:1032400048B960684849896821F47C110143464ABD
:10325000916000BF00BF607E616B41EA4030E16871
:103260000843A16808432021095D40EA0145202068
:10327000005D012803D1A08C401E45EA4045A06AAC
:1032800028B1208D00F47070E16A0843054320687E
:10329000C0683649084028432168C860206803F0A8
:1032A0006CF88046206803F054F80746B8F1000F28
:1032B0002CD127BB207E002141EA803194F83000D8
:1032C00041EA40052068C06844F20201884328436F
:1032D0002168C86094F83800012811D1E06B40F0F3
:1032E0000101206C0843616C0843A16C084321680C
:1032F000096940F2FC72914308432168086105E0C6
:103300002068006920F00100216808612069012817
:103310000BD12068006B20F00F00E169491E00E02E
:1033200010E008432168086305E02068006B20F086
:103330000F0021680863606D20F0020040F001007A
:10334000606505E0606D40F0100060654FF00109B8
:10335000484616E7C0FFFF5FC0FFFF7FB0000010C8
:10336000400D0300000004500003045007C0F0FFAC
:1033700010B59EB00446142119A8FDF733F85C215E
:1033800002A8FDF72FF82249206888423DD14FF46A
:103390008040029080031690032003900121049145
:1033A0001421059107210691022107910891C90571
:1033B000099102A800F01EFD08B1FFF7C1FB00BF94
:1033C0001448C06C40F400501249C8640846C06CF0
:1033D00000F40050019000BF00BF00BF0846C06C61
:1033E00040F00100C8640846C06C00F00100019084
:1033F00000BF00BF102019900B201A9000201B90D6
:1034000019A94FF0904000F09BFA1EB010BD0000CB
:1034100000000450001002402DE9F04104460E4621
:103420006069082801D108250CE02068C06800F018
:10343000010030B1606D40F0200060650120BDE802
:10344000F081042500F06AFB074616E0701CA0B16D
:1034500000F064FBC01BB04200D876B92068006859
:10346000284050B9606D40F00400606500BF002046
:1034700084F8500000BF0320E1E72068006828407E
:103480000028E3D0606D40F400706065206802F0B1
:1034900079FF98B1607E88B92068006800F0080064
:1034A00008280BD1606D20F480706065606D00F4B9
:1034B000805018B9606D40F0010060652068D0F858
:1034C0000C80082D03D108202168086005E008F46D
:1034D000804010B90C20216808600020AFE770B56B
:1034E0000446206802F049FF00283FD100BF94F84D
:1034F0005000012801D1022070BD012084F8500045
:1035000000BF2046FDF7BAFF054655BB606D40F68B
:103510000161884340F480706065606D00F4805004
:10352000B0F5805F04D1A06D20F00600A06501E039
:103530000020A0651C202168086000BF002084F8DE
:10354000500000BF2068C06800F0007028B1606DB6
:1035500020F4005040F480506065206802F01CFFA9
:1035600005E000BF002084F8500000E00225284656
:10357000C2E770B5044600BF94F85000012801D19D
:10358000022070BD012084F8500000BF03212046B6
:10359000FDF798FE054655B92046FDF725FF05467F
:1035A0002DB9606D20F4885040F00100606500BFC7
:1035B000002084F8500000BF2846E2E701460022C0
:1035C00091F82500022808D00420C86300BF00201D
:1035D00081F8240000BF012070470868006820F0CF
:1035E0000E000B6818600868006820F001000B6886
:1035F000186091F8440000F01C03012098400B6C07
:103600005860012081F8250000BF002081F82400C7
:1036100000BF1046E0E770B50446002594F8250089
:10362000022803D00420E063012520E02068006820
:1036300020F00E00216808602068006820F001007A
:103640002168086094F8440000F01C0101208840C3
:10365000216C4860012084F8250000BF002084F818
:10366000240000BFA06B10B12046A16B88472846FC
:1036700070BD0146C86B704770B50446206C056884
:103680002068066894F8440000F01C01042088407B
:103690002840E0B106F00400C8B12068006800F0DE
:1036A000200028B92068006820F004002168086024
:1036B00094F8440000F01C0104208840216C48600C
:1036C000206B002856D02046216B884752E094F8A2
:1036D000440000F01C0102208840284018B306F086
:1036E000020000B32068006800F0200040B92068A4
:1036F000006820F00A0021680860012084F8250095
:1037000094F8440000F01C0102208840216C4860BD
:1037100000BF002084F8240000BFE06A50B32046B8
:10372000E16A884726E094F8440000F01C01082074
:1037300088402840F0B106F00800D8B12068006841
:1037400020F00E002168086094F8440000F01C018D
:1037500001208840216C48600120E06384F8250046
:1037600000BF002084F8240000BF606B10B1204629
:10377000616B884770BD000010B5014609B9012092
:1037800010BD3E4B086898420BD23D4B0868C01AEA
:103790001423B0FBF3F0800048643948083808640B
:1037A0000AE0364B0868C01A1423B0FBF3F080001F
:1037B0004864324808380864022081F82500086807
:1037C000026847F6F0708243D1E9020318430B699F
:1037D00018434B6918438B691843CB6918430B6A2C
:1037E00018430243086802608868B0F5804F3AD0F9
:1037F000234B083B086C98421BD1D0F8A80091F8E5
:10380000443003F01C040F23A34098431C4BA03307
:10381000186091F8443003F01C0348689840184B36
:10382000083BD3F8A8301843154B083BC3F8A80051
:1038300019E01248A030006891F8443003F01C04ED
:103840000F23A34098430D4BA033186091F84430E8
:1038500003F01C0348689840084BA0331B681843CA
:10386000064BA03318600020C863012081F82500B2
:10387000002081F8240000BF82E700000804024015
:10388000080002402DE9F04104460D4616461F4649
:103890004FF0000800BF94F82400012802D1022054
:1038A000BDE8F081012084F8240000BF94F82500D1
:1038B00001282CD1022084F825000020E063206834
:1038C000006820F00100216808603B463246294626
:1038D0002046FEF7B7FC206B30B12068006840F04E
:1038E0000E00216808600BE02068006820F00400EA
:1038F000216808602068006840F00A0021680860BC
:103900002068006840F001002168086006E000BF00
:10391000002084F8240000BF4FF002084046BFE7B3
:103920007047000010B5044604480068204020B1EC
:10393000024804602046FFF7F3FF10BD1404014065
:1039400078B503460A460021C5E001268E40156879
:1039500005EA0604002C73D0157905F00305012D46
:1039600004D0157905F00305022D13D198684E0097
:103970000325B540A8434E00D568B540284398605C
:10398000586801258D40A8431579C5F300158D4071
:1039900028435860157905F00305032D09D0D86830
:1039A0004E000325B540A8434E009568B540284316
:1039B000D860157905F00305022D13D1CE0803F167
:1039C000200555F826004D07EE0E0F25B540A843FB
:1039D0004E07F60E1569B5402843CE0803F12005C1
:1039E00045F8260018684E000325B540A843157910
:1039F00005F003054E00B54028431860556805F4EE
:103A00004035002D66D000BF364D2D6E45F00105C6
:103A1000344E356635462D6E05F00105009500BF24
:103A200000BF4FEAB6358E0855F826008D072E0FD9
:103A30000F25B540A843B3F1904F02D1002515E002
:103A400048E0294DAB4201D101250FE0274DAB42A3
:103A500001D102250AE0264DAB4201D1032505E044
:103A6000244DAB4201D1042500E007258E07360F17
:103A7000B5402843204D8E0845F826001F4D286884
:103A8000A043556805F4801505B120431B4D2860FF
:103A90002D1D2868A043556805F4001505B1204385
:103AA000164D2D1D2860154D2D1F2868A043556803
:103AB00005F4003505B12043104D2D1F28602D1F42
:103AC0002868A043556805F4803505B120430B4DA7
:103AD000083D2860491C1568CD40002D7FF435AFA6
:103AE00078BD0000001002400004004800080048B3
:103AF000000C004800100048080001400804014084
:103B0000024613690B400BB1012000E00020704712
:103B10000AB1816100E081627047000001480068DD
:103B200070470000A40000100348006803490978AA
:103B30000844014908607047A4000010AC00001060
:103B400010B50024032000F0D3F80F2000F008F88F
:103B500008B1012401E000F051F8204610BD00003A
:103B6000F0B587B00446002500BF1F48006E40F442
:103B700000601D4908660846006E00F40060009071
:103B800000BF00BF01A902A800F0D2FB00F00AFCB0
:103B900007461648B7FBF0F0461E15481549086061
:103BA00040F2E7311348C160466000210161816045
:103BB000816101F05DFB054695B90E4801F090FB6F
:103BC00005466DB9192000F03DF8102C07D20022EF
:103BD0002146192000F04AF80748046000E001255A
:103BE000284607B0F0BD00000010024040420F0020
:103BF000002C0140140E0010A800001008B500BFF2
:103C00000F48006E40F001000D4908660846006E3E
:103C100000F00100009000BF00BF00BF0846806DAB
:103C200040F0805088650846806D00F0805000901C
:103C300000BF00BF00220F21901E00F017F808BD42
:103C4000001002400146084600280DDB00BF00BFFF
:103C500000F01F0301229A4043099B0003F1E02377
:103C6000C3F8002100BF00BF00BF70472DE9F05F1F
:103C700080460D461646002705F08AFC0746394661
:103C80002A46334601F00700C0F1070ABAF1040FD3
:103C900002D94FF0040A01E0C0F1070AD14600F151
:103CA000040ABAF1070F02D24FF0000A01E0A0F1B6
:103CB000030AD4464FF0010A0AFA09FAAAF1010AE6
:103CC0000AEA020A0AFA0CFA4FF0010B0BFA0CFB93
:103CD000ABF1010B0BEA030B4AEA0B042146404609
:103CE00005F05EFC00F000B830BCBDE8C09F0000ED
:103CF00000BF00F00702064B19684FF6FF0319409A
:103D0000044B0B4343EA0221014B196000BF70478B
:103D10000CED00E00000FA050246B2F5007F2AD162
:103D20001D48006800F4C060B0F5007F32D01A482A
:103D3000006820F4C06040F40070174B186017480A
:103D4000006832235843164BB0FBF3F0411C00E0EF
:103D5000491E1148406900F48060B0F5806F01D1C0
:103D60000029F5D10C48406900F48060B0F5806FFF
:103D700010D1032070470848006800F4C060B0F517
:103D8000806F07D00448006820F4C06040F4806071
:103D9000014B18600020EDE700700040B0000010FB
:103DA00040420F000D49096821F00701891C0B4AA8
:103DB00011600B49096841F00401094A11600128AA
:103DC00001D130BF02E040BF20BF20BF04490968D5
:103DD00021F00401024A11607047000000700040A9
:103DE00010ED00E00248006800F4C0607047000079
:103DF000007000402DE9F84304460025A8462088BD
:103E000000F40060B0F5006F26D1606C68B1B0F5C9
:103E1000000F03D0B0F5400F0ED10CE0D548C068BC
:103E200040F48030D349C86008E00021201D03F031
:103E3000E5FF054602E001E0012500BF00BF55B9DE
:103E4000CC488830006820F44000616C0843C949C0
:103E5000C1F8880000E0A846206800F40030B0F502
:103E6000003F75D14FF00009C248806D012121EA61
:103E7000107078B100BFBF48806D40F08050BD49E0
:103E800088650846806D00F08050009000BF00BF3C
:103E90004FF00109B848006840F48070B6490860E6
:103EA000FFF73CFE074606E0FFF738FEC01B02287E
:103EB00001D9032505E0B048006800F480700028AF
:103EC000F2D000BF7DBBAB489030006800F4407674
:103ED000CEB1A06DB04216D0A6489030006820F454
:103EE0004076A448D0F8900040F48030A149C1F851
:103EF00090000846D0F8900020F48030C1F890007F
:103F00000846C0F8906006F00100A8B1FFF706FE71
:103F1000074609E0FFF702FEC01B41F288318842E4
:103F200002D9032507E016E092489030006800F0BF
:103F300002000028EED000BF5DB98E4890300068C6
:103F400020F44070A16D08438A49C1F8900003E055
:103F50000CE0A84600E0A846B9F1010F05D185485C
:103F6000806D20F080508349886500BF207800F084
:103F7000010048B17F488830006820F00300216AC2
:103F800008437C49C1F88800207800F0020002282C
:103F900009D178488830006820F00C00616A084335
:103FA0007449C1F88800207800F00400042809D181
:103FB00070488830006820F03000A16A08436D49DD
:103FC000C1F88800207800F02000202809D1694835
:103FD0008830006820F44060E16A08436549C1F810
:103FE0008800208800F40070B0F5007F09D1614896
:103FF0008830006820F44020E16B08435D49C1F837
:104000008800208800F48060B0F5806F09D159489D
:104010008830006820F44010216C08435549C1F8ED
:104020008800207800F04000402809D151488830AD
:10403000006820F44050216B08434E49C1F88800C5
:10404000207800F08000802809D14A488830006834
:1040500020F44040616B08434649C1F8880020883D
:1040600000F48070B0F5807F09D142488830006844
:1040700020F44030A16B08433E49C1F88800206815
:1040800000F40020B0F5002F1FD13A4888300068B6
:1040900020F04060A16C0843364988310860A06C6C
:1040A000B0F1006F06D13348C06840F48010314948
:1040B000C8600AE0A06CB0F1806F06D10121201D1C
:1040C00003F09CFE054605B1A846206800F4802058
:1040D000B0F5802F1FD127488830006820F040605D
:1040E000E16C0843234988310860E06CB0F1006F4F
:1040F00006D12048C06840F480101E49C8600AE01C
:10410000E06CB0F1806F06D10121201D03F076FE36
:10411000054605B1A846208800F48040B0F5804FE0
:1041200014D114488830006820F04050216D0843B5
:10413000104988310860206DB0F1805F06D10221FE
:10414000201D03F05BFE054605B1A846208800F45B
:104150000040B0F5004F09D106488830006820F0D3
:104160008040616D08430349C1F888004046BDE8BE
:10417000F883000000100240007000402DE9F0417B
:1041800004460D4614B90120BDE8F081634800687B
:1041900000F00700A8420ED26048006820F0070037
:1041A00028435E4908600846006800F00700A842FE
:1041B00001D00120E8E7207800F0020002280ED1AB
:1041C0005749A068896801F0F001884207D954482E
:1041D000806820F0F000A168084351498860207889
:1041E00000F0010078B36068032806D14C480068ED
:1041F00000F00070D8B90120C6E76068022806D137
:104200004748006800F4003088B90120BCE76068C6
:1042100030B94348006800F0020040B90120B3E71C
:104220003F48006800F4806008B90120ACE73C48D2
:10423000806820F003006168084339498860FFF70F
:104240006DFC064609E010E0FFF768FC801B41F2B8
:104250008831884201D9032096E73148806800F010
:104260000C006168B0EB810FEED1207800F0020005
:1042700002280ED12A49A068896801F0F00188421D
:1042800007D22748806820F0F000A168084324493D
:1042900088602248006800F00700A8420ED91F4835
:1042A000006820F0070028431C49086008460068A1
:1042B00000F00700A84201D0012065E7207800F057
:1042C0000400042807D11648806820F4E060E16803
:1042D000084313498860207800F00800082808D1B6
:1042E0000F48806820F46050216940EAC1000C4901
:1042F000886000F069F80A498968C1F30311094A26
:10430000515C01F01F01C840074908600748006878
:10431000FFF726FC0746384636E70000002002403B
:1043200000100240E8D80108B0000010A8000010FA
:104330000F2202600D4A926802F0030242600B4AAB
:10434000926802F0F0028260084A926802F4E06229
:10435000C260064A926802F46052D2080261044ABE
:10436000126802F007020A60704700000010024065
:10437000002002400148006870470000B0000010B3
:1043800000B5FFF7F7FF05498968C1F30221044A28
:10439000515C01F01F01C84000BD00000010024048
:1043A000F8D8010800B5FFF7E5FF05498968C1F3B2
:1043B000C221044A515C01F01F01C84000BD000049
:1043C00000100240F8D80108F0B500230020DFF803
:1043D000D4C0DCF808C00CF00C01DFF8C8C0DCF871
:1043E0000CC00CF0030719B10C291ED1012F1CD1F0
:1043F000DFF8B0C0DCF800C00CF0080CBCF1000F16
:1044000006D1DFF8A0C0DCF894C0CCF3032305E0AC
:10441000DFF890C0DCF800C0CCF30313DFF888C0ED
:104420005CF8233041B9184606E0042901D11F4841
:1044300002E0082900D11E480C2932D1DFF864C0FF
:10444000DCF80CC00CF00304012C09D0022C02D0C3
:10445000032C04D101E0154A04E0154A02E000BF34
:104460001A4600BF00BFDFF83CC0DCF80CC0CCF33C
:10447000021C0CF10106DFF82CC0DCF80CC0CCF3F8
:10448000062C0CFB02FCBCFBF6F2DFF818C0DCF8D3
:104490000CC0CCF3416C0CF1010C4FEA4C05B2FBA3
:1044A000F5F0F0BD0010024000D901080024F4002E
:1044B00000127A002DE9F843044614B90120BDE842
:1044C000F883F948806800F00C06F748C06800F0EF
:1044D0000307207800F01000102877D11EB10C2EB1
:1044E00076D1012F74D1F048006800F0020018B1B5
:1044F000A06908B90120E2E7EB48216A006800F0F2
:10450000080020B1E848006800F0F00005E0E64847
:104510009430006800F47060000981421FD9206A5D
:1045200003F030FD08B10120C9E700BFDE48006894
:1045300040F00800DC4908600846006820F0F00000
:10454000216A0843D849086000BF0846406820F443
:104550007F40E16940EA0120D34948601FE000BF85
:10456000D148006840F00800CF490860084600685C
:1045700020F0F000216A0843CB49086000BF0846DC
:10458000406820F47F40E16940EA0120C649486064
:104590002EB9206A03F0F6FC08B101208FE7FFF77F
:1045A00013FFC1498968C1F30311C04A515C01F08E
:1045B0001F01C840BE490860BE480068FFF7D0FA36
:1045C0008046B8F1000F4ED0404678E74BE0FFE759
:1045D000A06980B3B448006840F00100B2490860A7
:1045E000FFF79CFA054606E0FFF798FA401B022801
:1045F00001D9032063E7AC48006800F002000028FE
:10460000F2D000BFA848006840F00800A649086042
:104610000846006820F0F000216A0843A2490860BB
:1046200000BF0846406820F47F40E16940EA01206D
:104630009D49486017E0FFE79B48006820F00100B3
:1046400099490860FFF76AFA054606E0FFF766FA3F
:10465000401B022801D9032031E79348006800F08D
:1046600002000028F2D1207800F0010000285CD080
:10467000082E03D00C2E0AD1032F08D18A480068D7
:1046800000F4003088B3606878BB012017E700BFF2
:104690006068B0F5803F06D18348006840F4803000
:1046A000814908601AE06068B0F5A02F0BD17E4800
:1046B000006840F480207C4908600846006840F4A7
:1046C000803008600AE07848006820F4803076493D
:1046D00008600846006820F48020086000BF606819
:1046E00090B1FFF71BFA054607E01EE0FFF716FA48
:1046F000401B642801D90320E1E66B48006800F400
:1047000000300028F2D010E0FFF708FA054606E076
:10471000FFF704FA401B642801D90320CFE6624862
:10472000006800F400300028F2D1207800F0020088
:10473000022852D1042E03D00C2E14D1022F12D1F4
:104740005948006800F4806018B1E06808B9012099
:10475000B5E65548406820F0F850217C40EA0160F9
:104760005149486039E0E06800B34F48006840F4C0
:1047700080704D490860FFF7D1F9054606E0FFF764
:10478000CDF9401B022801D9032098E6464800686D
:1047900000F480600028F2D04348406820F0F850D0
:1047A000217C40EA01604049486016E03E480068CC
:1047B00020F480703C490860FFF7B0F9054606E038
:1047C000FFF7ACF9401B022801D9032077E63648F1
:1047D000006800F480600028F2D1207800F0080022
:1047E000082836D16069D0B12F489430006840F075
:1047F00001002D49C1F89400FFF790F9054606E045
:10480000FFF78CF9401B022801D9032057E6264800
:104810009430006800F002000028F1D019E022482E
:104820009430006820F001001F49C1F89400FFF7A0
:1048300075F9054606E0FFF771F9401B022801D91A
:1048400003203CE618489430006800F0020000287D
:10485000F1D1207800F00400042872D14FF0000953
:104860001148806D00F0805078B900BF0E48806D0F
:1048700040F080500C4988650846806D00F08050FB
:10488000009000BF00BF4FF001090B48006800F422
:10489000807000BB0848006840F4807006490860DA
:1048A000FFF73CF9054610E000100240E8D8010887
:1048B000B0000010A800001000700040FFF72EF9B3
:1048C000401B022801D90320F9E5CA48006800F41A
:1048D00080700028F2D000BFA068012808D1C64827
:1048E000006840F00100C4499039C1F8900021E00F
:1048F000A06805280FD1C048006840F00400BE49F8
:104900009039C1F890000846D0F8900040F00100BE
:10491000C1F890000EE0B848006820F00100B649E8
:104920009039C1F890000846D0F8900020F00400BB
:10493000C1F8900000BFA068A0B1FFF7EFF80546EE
:1049400009E02EE0FFF7EAF8401B41F28831884287
:1049500001D90320B3E5A848006800F00200002850
:10496000F0D012E0FFF7DAF8054608E0FFF7D6F8D6
:10497000401B41F28831884201D903209FE59E48BF
:10498000006800F002000028F0D1B9F1010F07D152
:1049900099489038806D20F080509749903988650B
:1049A00000BF207800F02000202838D1606AD8B1FC
:1049B00091480830006840F001008F499039C1F8F3
:1049C0009800FFF7ABF8054606E0FFF7A7F8401B95
:1049D000022801D9032072E587480830006800F0FA
:1049E00002000028F1D01AE083480830006820F067
:1049F000010081499039C1F89800FFF78FF805460A
:104A000006E0FFF78BF8401B022801D9032056E58A
:104A100079480830006800F002000028F1D1A06A4F
:104A200000287DD0A06A02287BD173489038C768DF
:104A300007F00301E06A814225D107F07001206B85
:104A4000401EB1EB001F1ED107F4FE41606BB1EBBD
:104A5000002F18D107F078413820005DB1EBC06F0E
:104A600011D107F4C001A08F0122C2EB5000B1EBBD
:104A7000405F08D107F0C0614020005DC2EB5000EC
:104A8000B1EB406F66D00C2E62D05B489038006866
:104A900000F0806008B1012011E5574890380068A7
:104AA00020F08070544990390860FFF737F80546C8
:104AB00006E0FFF733F8401B022801D90320FEE48B
:104AC0004D489038006800F000700028F1D1D4E91A
:104AD0000B10401E41EA0011606B41EA0021A08FDB
:104AE0000122C2EB500041EA40514020005DC2EB80
:104AF000500041EA40613820005D41EAC0603E4913
:104B00009039C9683D4A114008433B499039C86013
:104B10000846006840F0807008600846C06801E000
:104B200053E03DE040F08070C860FEF7F7FF0546B7
:104B300006E0FEF7F3FF401B022801D90320BEE484
:104B40002D489038006800F000700028F1D04FE048
:104B50000120B4E428489038006800F00070A0BB41
:104B600025489038006840F08070234990390860EB
:104B70000846C06840F08070C860FEF7CFFF054669
:104B800006E0FEF7CBFF401B022801D9032096E484
:104B900019489038006800F000700028F1D027E034
:104BA0000C2E23D014489038006820F080701249F1
:104BB00090390860FEF7B2FF054607E0FEF7AEFF4A
:104BC000401B022802D9032079E411E00A489038FA
:104BD000006800F000700028F0D107489038C068E5
:104BE0000749084004499039C86001E0012066E4A3
:104BF000002064E400700040901002408C809D0111
:104C0000FCFFEEFE70B505460B4616462868406868
:104C10000E4900EA0104200CD870C4F30420587037
:104C200004F03F009870C4F3423018705EB9D87831
:104C300003F09AFAD870587803F096FA587098787A
:104C400003F092FA9870002070BD00003FFFFF0053
:104C500070B504460B4616462068806A5860206886
:104C60000069C0F30E009860206800680E4900EAF1
:104C70000105C5F305401870C5F30620587005F00E
:104C80007F009870A80DD8705EB9187803F06CFAA0
:104C90001870587803F068FA5870987803F064FA3E
:104CA0009870002070BD00007F7F7F0070B50446C3
:104CB0000125002C4DD094F8210028B9002084F85B
:104CC0002000204600F04AF8022084F8210000BFAE
:104CD000CA202168486253202168486200BF2046EC
:104CE00003F04CFA0546A5BB206880681A490840C5
:104CF00021688860216960680843A16908432168C8
:104D000089680843216888602168E0680861206834
:104D10000169208941EA004021680861204603F0CA
:104D20004FFA0546ADB92068C06C20F00300216839
:104D3000C8646169E06908432168C96C0843216857
:104D4000C86400BFFF202168486200BF012084F8CA
:104D50002100284670BD0000BFFF8FFF10B598B03E
:104D600004465C2101A8FBF73DFB0C492068884202
:104D700012D14FF4003001900012179001A8FFF7F4
:104D800039F808B1FDF7DCFE0548006840F4004042
:104D900003499039C1F8900018B010BD00280040B8
:104DA0009010024070B504462068C06820F0A00052
:104DB0002168C860FEF7B2FE054607E0FEF7AEFECA
:104DC000401BB0F57A7F01D9032070BD2068C06810
:104DD00000F020000028F1D00020F6E770B504466E
:104DE0000CB9012070BD606A38B96068B0F5827F87
:104DF00000D105E00021E16102E000212161616153
:104E00000021A16294F85D0028B9002084F85C00BC
:104E1000204600F05BF8022084F85D0020680068FE
:104E200020F0400021680860E068B0F5E06F01D92B
:104E3000002501E04FF48055E068B0F5706F05D0B3
:104E4000E068B0F5E06F01D00021A162A08800F415
:104E50008270218901F404410843217C01F00201A0
:104E60000843217D01F001010843218B01F4007109
:104E70000843217F01F0380108432021095D01F03A
:104E800080010843218D01F4005108432168086026
:104E90000421A06901EA104094F8241001F01001E7
:104EA000084394F8341001F008010843A18901F483
:104EB0007061084305F48051084321684860002070
:104EC0002066012084F85D0000208BE710B586B0D5
:104ED0000446142101A8FBF785FA2F49206888426F
:104EE0002AD100BF2D48006E40F480502B4908663F
:104EF0000846006E00F48050009000BF00BF00BF65
:104F00000846C06C40F00100C8640846C06C00F060
:104F10000100009000BF00BFA0200190022002907D
:104F200000200390032004900520059001A94FF074
:104F30009040FEF705FD2DE019492068884229D1EF
:104F400000BF1648806D40F48040144988650846CB
:104F5000806D00F48040009000BF00BF00BF084695
:104F6000C06C40F00200C8640846C06C00F002004B
:104F7000009000BF00BF4FF46040019002200290FB
:104F800000200390032004900520059001A9054806
:104F9000FEF7D6FC06B010BD003001400010024004
:104FA00000380040000400482DE9FF5F04468946B0
:104FB00092461D460E9E012001900020009000BFE9
:104FC00094F85C00012803D1022004B000F04AB933
:104FD000012084F85C0000BFFEF7A0FD074694F8AE
:104FE0005D00029060680390A846AB4602980128D5
:104FF0000BD00398B0F5827F04D1A06810B9029855
:10500000042802D00220009022E1B9F1000F03D061
:10501000BAF1000F00D015B90120009018E194F802
:105020005D00042802D0052084F85D000020206681
:10503000C4F840A0A4F84650A4F84450C4F83890EE
:10504000E587A587E0642065E068B0F5E06F02D8E9
:10505000BBF1010F06D92068406820F48050216818
:10506000486005E02068406840F48050216848604E
:105070002068006800F04000402805D020680068E3
:1050800040F0400021680860E068B0F5E06F4ED95C
:10509000606810B1B8F1010F09D1A06B00882168D8
:1050A000C860A06B801CA063E08F401EE08736E0E4
:1050B0002068806800F00200022810D1E08F70B1F3
:1050C000019801280BD1A06B00882168C860A06BF3
:1050D000801CA063E08F401EE087002001902068C4
:1050E000806800F0010080B1B4F8460068B1206823
:1050F000C068216C0880206C801C2064B4F84600D5
:10510000401EA4F8460001200190FEF707FDC01BD9
:10511000B04204D3701C10B10320009098E0E08FDF
:105120000028C5D1B4F846000028C1D185E06068E8
:1051300010B1B8F1010F17D1E08F01280AD9A06B87
:1051400000882168C860A06B801CA063E08F801E6F
:10515000E08709E0A06B007821680873A06B401C11
:10516000A063E08F401EE08760E02068806800F068
:10517000020002281ED1E08FE0B10198012819D168
:10518000E08F01280AD9A06B00882168C860A06B55
:10519000801CA063E08F801EE08709E0A06B007890
:1051A00021680873A06B401CA063E08F401EE0875D
:1051B000002001902068806800F0010058B3B4F826
:1051C000460040B3B4F84600012816D92068C068EC
:1051D000216C0880206C801C2064B4F84600801E7E
:1051E000A4F84600B4F84600012812D820684068A8
:1051F00040F48050216848600BE02068007B216CFF
:105200000870206C401C2064B4F84600401EA4F8CE
:10521000460001200190FEF781FCC01BB04201D383
:10522000701C00B916B90320009011E0E08F00282F
:105230009BD1B4F84600002897D13A463146204623
:1052400003F058F818B1012000902020206600BF1C
:10525000012084F85D0000BF002084F85C0000BFDE
:105260000098B2E630BCBDE8C09F704770477047F9
:1052700010B504460CB9012010BD94F83D0028B9C2
:10528000002084F83C00204600F029F8022084F831
:105290003D00211D206803F01FFA012084F848001A
:1052A00000BF84F83E0001213F20015540200155F8
:1052B00041200155422001554320015500BF00BF48
:1052C000012084F84400452001554620015547201F
:1052D000015500BF012084F83D000020CCE7704755
:1052E000014691F83D00012801D0012070470220BD
:1052F00081F83D000868C06840F001000B68D86084
:10530000124B0868984207D00868B0F1804F03D06C
:105310000F4B0868984210D1086880680D4B00EA6E
:105320000302062A0FD0B2F5803F0CD0086800684F
:1053300040F001000B68186005E00868006840F064
:1053400001000B6818600020D0E70000002C01402D
:105350000040014007000100704710B50446206876
:105360000069C0F34000D8B12068C068C0F34000B5
:10537000B0B16FF002002168086101202077206839
:10538000806900F0030018B12046FFF7E5FF05E053
:10539000204600F0BEF8204600F0BCF80020207740
:1053A00020680069C0F38000D8B12068C068C0F3ED
:1053B0008000B0B16FF004002168086102202077FE
:1053C0002068806900F4407018B12046FFF7C4FFE0
:1053D00005E0204600F09DF8204600F09BF80020F4
:1053E000207720680069C0F3C000D8B12068C06889
:1053F000C0F3C000B0B16FF008002168086104205C
:1054000020772068C06900F0030018B12046FFF73C
:10541000A3FF05E0204600F07CF8204600F07AF873
:105420000020207720680069C0F30010D8B1206800
:10543000C068C0F30010B0B16FF0100021680861BF
:10544000082020772068C06900F4407018B1204619
:10545000FFF782FF05E0204600F05BF8204600F0F1
:1054600059F8002020772068006900F0010058B149
:105470002068C06800F0010030B16FF001002168C1
:105480000861204600F048F820680069C0F3C010A9
:1054900058B12068C068C0F3C01030B16FF0800010
:1054A000216808612046FFF7E1FE20680069C0F32B
:1054B000002058B12068C068C0F3C01030B16FF44C
:1054C0008070216808612046FFF7CFFE20680069E0
:1054D000C0F3801058B12068C068C0F3801030B1AC
:1054E0006FF0400021680861204600F021F8206834
:1054F0000069C0F3401058B12068C068C0F3401084
:1055000030B16FF02000216808612046FFF7AFFE40
:1055100010BD70477047000010B50446034920686D
:10552000884201D1FEF700FB10BD0000002C0140B5
:1055300070477047704770B50446A56FE66F2068E6
:10554000806800F08000802823D1212D21D100BF68
:1055500000BF2168083151E8001F21F08000216858
:10556000083141E80002002AF3D100BFE06E68B1C3
:10557000E06EFEF723F848B1E06EFEF77AF82028D7
:1055800004D11020C4F88000032070BD204603F031
:10559000BFFA2068806800F04000402823D1222E06
:1055A00021D100BF00BF2168083151E8001F21F060
:1055B00040002168083141E80002002AF3D100BF11
:1055C000206F68B1206FFDF7F9FF48B1206FFEF73B
:1055D00050F8202804D11020C4F880000320D4E71C
:1055E000204603F04CFA0020CFE770472DE9F04742
:1055F00004462068C569206806682068876840F608
:105600000F0005EA0009B9F1000F0CD105F02000E8
:1056100048B106F0200030B1606E10B12046616ED6
:105620008847BDE8F087B9F1000F7DD007F0010091
:1056300018B9BE4830400028F7D005F0010058B135
:1056400006F4807040B1012021680862D4F880001F
:1056500040F00100C4F8800005F0020058B107F0E6
:10566000010040B1022021680862D4F8800040F0B7
:105670000400C4F8800005F0040058B107F00100F0
:1056800040B1042021680862D4F8800040F0020094
:10569000C4F8800005F0080070B106F0200010B9D1
:1056A00007F0010040B1082021680862D4F88000AA
:1056B00040F00800C4F8800005F4006060B106F016
:1056C000806048B14FF4006021680862D4F880001F
:1056D00040F02000C4F88000D4F8800000284BD0AF
:1056E00005F0200038B106F0200020B1606E10B146
:1056F0002046616E8847D4F880A02068806800F05A
:105700004000402802D00AF0280070B3204603F081
:10571000B6F92068806800F04000402821D100BF21
:1057200000BF2168083100E027E051E8001F21F0A8
:1057300040002168083141E80002002AF1D100BF91
:10574000206F50B17A48216F8863206FFDF763FFA7
:1057500090B1206F816B88470EE02046FFF745FF30
:105760000AE02046FFF741FF06E0FFE72046FFF78B
:105770003CFF0020C4F8800053E7206E01286FD161
:1057800005F0100000286BD006F010000028FAD0B9
:105790001020216808622068806800F040004028DE
:1057A0005FD1206F006840681FFA80F8B8F1000FE1
:1057B00055D0B4F85800404551DDA4F85A80206F08
:1057C0000068006800F02000E8BB00BF00BF21684F
:1057D00051E8001F21F48070226842E8000100298E
:1057E000F5D100BF00BF00BF2168083151E8001F9C
:1057F00021F001002168083141E80002002AF3D1BC
:1058000000BF00BF00BF2168083151E8001F21F030
:1058100040002168083141E80002002AF3D100BFAE
:105820002020E0670020206600BF00BF216851E80B
:10583000001F21F01000226842E800010029F5D184
:1058400000BF206F00E001E0FDF7B8FEB4F858009B
:10585000B4F85A20801A81B22046FFF76AFEE0E6CB
:105860003EE034F8580F6188401A1FFA80F86088CB
:10587000583CA0B3B8F1000F31D000BF00BF216881
:1058800051E8001F21F49070226842E800010029CD
:10589000F5D100BF00BF00BF2168083151E8001FEB
:1058A00021F001002168083141E80002002AF3D10B
:1058B00000BF2020E06700202066606600BF00BFB8
:1058C000216851E8001F21F01000226842E8000121
:1058D0000029F5D100BF41462046FFF72AFEA0E689
:1058E00005F4801050B107F4800038B14FF48010F7
:1058F000216808622046FFF71DFE92E605F0800051
:1059000040B106F0800028B1A06E10B12046A16E13
:10591000884786E605F0400030B106F0400018B137
:10592000204603F0DEF87CE600BF7AE620010004A2
:10593000D988010810B504460CB9012010BDA06932
:1059400000B100E000BFA06F28B9002084F8740007
:10595000204600F029F82420A0672068006820F085
:10596000010021680860204603F0E2F8012800D118
:10597000E4E7606A10B1204602F0F9FE2068406852
:1059800020F49040216848602068806820F02A0058
:10599000216888602068006840F001002168086084
:1059A000204602F060FFC9E710B59EB004461421FE
:1059B00019A8FAF717FD5C2102A8FAF713FD7B4935
:1059C0002068884276D10120029000200A9002A827
:1059D000FEF710FA08B1FDF7B3F800BF7448006E87
:1059E00040F48040724908660846006E00F480402A
:1059F000019000BF00BF00BF0846C06C40F001002E
:105A0000C8640846C06C00F00100019000BF00BFF0
:105A10004FF4C060199002201A9000201B900320C0
:105A20001C9007201D9019A94FF09040FDF788FFAA
:105A30006048614908600220486000215E4881603A
:105A4000C160802101610021416181612021C1612A
:105A500000210162FDF790FE08B1FDF771F800BF6B
:105A600055482067846200BF524814385349086083
:105A7000022048601021514881600021C1608021CE
:105A80000161002141618161C1610162FDF774FE24
:105A900008B1FDF755F800BF4848E066846200BFD2
:105AA000002207212520FEF7E1F82520FEF7CAF89D
:105AB00079E0FFE74249206888423CD10220029009
:105AC00000200B9002A8FEF795F908B1FDF738F811
:105AD00000BF3748806D40F400303549886508467E
